:020000040800F2
:204000002016002011900008398D00083B8D00083D8D00083F8D0008418D00080000000087
:20402000000000000000000000000000458D0008438D000800000000478D0008498D000814
:204040004B8D00084D8D00084F8D0008518D0008538D0008558D0008578D0008598D000828
:204060005B8D00085D8D00085F8D0008618D0008638D0008658D0008678D0008698D000888
:204080006B8D00086D8D00086F8D0008718D0008758D0008798D00087B8D00087D8D0008DA
:2040A0007F8D0008818D0008838D0008858D0008878D0008898D0008658E0008678E000872
:2040C000698E00086B8E00086D8E00086F8E0008718E0008738E0008758E0008778E0008B0
:2040E000798E00087B8E00087D8E00087F8E0008818E0008838E0008858E0008878E000810
:20410000898E00088B8E00088D8E00088F8E0008918E0008938E0008958E0008978E00086F
:20412000998E00089B8E00089D8E00089F8E0008FFFFFFFFFFFFFFFFFFFFFFFFFFFFFFFFC7
:20414000FFFFFFFFFFFFFFFFFFFFFFFFFFFFFFFFFFFFFFFFFFFFFFFFFFFFFFFFFFFFFFFF7F
:20416000FFFFFFFFFFFFFFFFFFFFFFFFFFFFFFFFFFFFFFFFFFFFFFFFFFFFFFFFFFFFFFFF5F
:20418000FFFFFFFFFFFFFFFFFFFFFFFFFFFFFFFFFFFFFFFFFFFFFFFFFFFFFFFFFFFFFFFF3F
:2041A000FFFFFFFFFFFFFFFFFFFFFFFFFFFFFFFFFFFFFFFFFFFFFFFFFFFFFFFFFFFFFFFF1F
:2041C000FFFFFFFFFFFFFFFFFFFFFFFFFFFFFFFFFFFFFFFFFFFFFFFFFFFFFFFFFFFFFFFFFF
:2041E000FFFFFFFFFFFFFFFFFFFFFFFFFFFFFFFFFFFFFFFFFFFFFFFFFFFFFFFFFFFFFFFFDF
:2042000004F041BD04F04CBE00F0DCB800F007BB71E070E000F046BB00F059BB00F019BC1D
:2042200076E075E091E090E099E098E066E065E078E077E0A3E075E003F063BD58E057E06D
:2042400050E04FE051E050E000F04BBB00F09ABF01F0FFB901F00EBA04F037B904F0AFB9BD
:2042600003F06FB903F088B900F0B8BA03F04ABE03F0E7BD03F0D0BD02F0EFBF02F0F6BF34
:2042800021E020E026E025E003F0A7BA03F06DBA03F0B3B903F0C8B903F0DDBA00E0FFE781
:2042A0003F4B47F28152DA611A6A002AFCD147F28052DA6140F2C9021A625862996247F205
:2042C0008152DA6170474FF00500364B1B68002B07D170474FF00000324B1B68002B00D1DC
:2042E00070471847304B1B681847304B1B6818472F4B1B6818472F49088070472849C86939
:20430000012240EA0200C861086A0028FCD1704729498868012240EA02008860C868002816
:20432000FCD170471E4B47F2C152DA611A6A002AFCD147F2C052DA6140F2C9021A625862D5
:20434000996247F2C152DA6170471B4B45F290529A605861D96045F291529A607047164B8D
:2043600045F211529A60DA68002AFCD145F210529A605861D96045F211529A6070470F4948
:2043800040F220020E4B4A6118884FEA00400A61198808447047FBF745BFFBF743BF0000B3
:2043A000000002403400000828000008240000082000000800000060000402400010014004
:2043C0000000006480B5DFF824074FF4805101604FF400610160012000F01BFADFF81007B4
:2043E0004FF40061016000F0B5F9DFF800074FF400610160322000F00CFA00F0D0F900F046
:204400004CFA40F09C800520FFF7C5FF06220FF20C7100F06FFE002819D4E92000F0B5F96C
:2044200000F09FF900F094F9D12000F0AEF900F02FFA702101801C210180D02000F0A5F988
:204440004FF0C040072101800121018018E0E92000F09BF900F085F900F07AF9D12000F09A
:2044600094F900F015FA5E21018017210180D02000F08BF94FF0C0400721018001800C21FD
:204480000180362000F081F94FF0C040402101800C2000F07AF94FF0C040552101803A209B
:2044A00000F073F94FF0C04055210180C12000F06CF94FF0C0401021018000F042F9018097
:2044C000C02000F062F900F0E3F935210180002101800180012100F034F9C52000F055F989
:2044E00000F03AF9D22000F050F900F035F922210180C82000F049F900F02EF97321018046
:2045000037210180002101800F2100F01AF9042101804021018067210180002100F011F941
:204520000F210180082101808021018000210180292000F02AF92C20BDE8024025E10021A6
:20454000002000F014F900F000F900F0FEF800F0FCF800F0FFF801214FF4C06000F007F92F
:2045600000F0F8F840214FF4DE6000F000F900F0F1F84FF4C4414FF4806000F0F8F840F636
:204580000801082000F0F3F84FF48071012000F0EEF84FF48071022000F0E9F83021032049
:2045A00000F0E5F80121092000F0E1F800210C2000F0DDF84FF40041902000F0D8F80021F3
:2045C0000F2000F0D4F81621102000F0D0F840F20111112000F0CBF80021122000F0C7F8A7
:2045E0000121132000F0C3F84FF44C714FF4807000F0BDF840F2372140F2011000F0B7F877
:204600004FF4706140F2031000F0B1F84FF4D6414FF4207000F0ABF84CF2B0114FF48170B5
:2046200000F0A5F800F094F84FF440614FF4407000F09DF845F60B2140F2013000F097F8CC
:2046400040F6061140F2023000F091F841F2170140F2033000F08BF84FF40C514FF4417079
:2046600000F085F84FF4B85140F2053000F07FF846F2093140F2063000F079F840F60941F8
:2046800040F2073000F073F841F20C014FF4427000F06DF842F2322140F2093000F067F88B
:2046A00000214FF4047000F062F8EF2140F2112000F05DF8002140F2122000F058F840F229
:2046C0008F1140F2132000F052F800214FF4A06000F04DF8002140F2015000F048F8052108
:2046E00040F2025000F043F8012140F2014000F03EF8002140F2044000F039F800F028F888
:204700004FF48071072000F032F800F021F800214FF4007000F02BF8002140F2012000F0D0
:2047200026F8DFF8CC034FF4805101604FF0C04040F202210180DFF8B4034FF48051016028
:2047400001BD0180022101807047002108460EE064205EE00A205CE04FF0C0400121018058
:2047600070474FF0C0402021018011200DE0DFF880234FF4805313604FF0C0421080DB486C
:2047800003604FF0C04001807047D9494FF480520A604FF0C0410880D4480260704780B56C
:2047A000EF20FFF7F2FF4FF0C04000884FF0C04000884FF0C04109884FF0C04212880906BA
:2047C000090A41EA0060D1B240EA01204FF0C0410988C9B20843C749086001BD10B5C548CE
:2047E0000068C54988420CD12E20FFF7CEFF4FF0C04000884FF0C04004882C20FFF7C5FFF3
:2048000005E04FF0C04000884FF0C0400488204610BDBA49088008880028FCD1704738B53A
:2048200004460D46FFF7FCFC00F037F81BD12A20FFF7ABFF00F02CF8E8B24FF0C041088082
:20484000084600210180EF2101802B20FFF79DFF00F05CF90846012101808F2101802C2047
:20486000BDE8324091E729464FF40070FFF77FFF00F048F99E484FF4805101604FF0C04048
:2048800040F20221018099484FF48051016031BD4FF0C04000210180704796480068964941
:2048A0008842704780B59649088000210020FFF7B6FF4BF680319248FFF7B6FCFFF7B0FCD9
:2048C0004BF680318E48BDE80440FFF7ADBC01EBC0000FF2502101EB4000A0F508700088E9
:2048E00070472DE9F84F0546884691461E46FFF796FF0E240EB9002002E0012E02D148463A
:20490000FFF786FC641EF5D105F1010A0A9C02E00AF1080A641C2078002836D0002541464F
:2049200005EB0A0080B2FFF77AFF2078202808BF00270CD0212808BF002706D0A9B2FFF7D4
:20494000C6FF07462078212801D1042D1AD04FF00E0B780703D53EB1012E08D100E00EB92A
:20496000002002E0012E02D14846FFF751FC38044714BBF1010BECD16D1C082DCFDB207856
:204980002128C5D10AF1040AC4E7BDE8F18FF0B589B004460D4626460020810001F1006184
:2049A00001F5763191F83610C90800F04CF892F837209208520102EBC12100F044F892F833
:2049C000382011EBD20100AA22F81010401C1028E3DB0027A9B23046FFF721FF07F1006014
:2049E00000F5763090F87600001100A931F810004FF0C0410880761C04F1FF00B6B2B04283
:204A0000BCBF26466D1CA9B23046FFF708FF07F1006000F5763090F8760000F00F0000A9BF
:204A200031F810004FF0C0410880761C04F1FF00B6B2B042BCBF26466D1C7F1CB7F5005F7F
:204A4000C8DB09B0F0BD820002F1006202F576327047F8B504460D4616461F46FFF71DFF03
:204A600019D12A20FFF791FE300A4FF0C0410880F0B20880380A0880F8B208802B20FFF714
:204A800084FE00F043F8280A0880E8B208802C20BDE8F24079E6394640F21120FFF767FECE
:204AA000294640F21320FFF762FE31464FF40470FFF75DFE214640F21220FFF758FE3146BF
:204AC0004FF40070FFF753FE00F01CF808484FF4805101604FF0C04040F2022101800348B3
:204AE0004FF480510160F1BD00000000101401401414014070140020279304023C140020F1
:204B000086140020214640F2012030E6200A4FF0C0410880E0B208807047000056332E3160
:204B2000334300000000000000001C0020004000400040004000400020001C000000000047
:204B40000000000000000000000000E00010000800080008300C600CC0008001000330062B
:204B6000300C000000080008001000E00000000000000000102010201020102010201020D9
:204B8000F03F000000000000C00FE01F30301020000000000000000010203030E01FC00F2A
:204BA000000000000000C018800D00070007800DC0180000000000010001C007C00700018C
:204BC00000010000000000000000FCFF0000000000000000000000010001000100010001D4
:204BE000000100000000000000003000300000000000000030006000C0008001000300067A
:204C0000000C0000E01FF03F902010231024F03FE01F0000000010081018F03FF03F100067
:204C2000100000007010F03090211023102630383018000020103030102210221022F03FA5
:204C4000E01D000000030007000D1019F03FF03F10010000203E303E102210221023F02332
:204C6000E0210000E00FF01F103210221022F003E001000000300030F020F0210023003ED9
:204C8000003C0000E01DF03F102210221022F03FE01D0000001C103E102210223022E03FAB
:204CA000C01F0000000000000000600C600C000000000000400040004000400040004000BD
:204CC00040004000000000018003C006600C30181010000000009000900090009000900066
:204CE0009000000040024002400240024002400240020000000010103018600CC006800339
:204D000000010000C00F201090279024D0275010800F0000F007F00F001900310019F00FEA
:204D2000F00700001020F03FF03F10221022F03FE01D0000C00FE01F303010201020303070
:204D4000601800001020F03FF03F10203030E01FC00F00001020F03FF03F10221027303098
:204D6000703800001020F03FF03F10220027003000380000C00FE01F303010211021E0319B
:204D8000F0190000F03FF03F000200020002F03FF03F0000000000001020F03FF03F10208A
:204DA00000000000E000F00010001020F03FE03F002000001020F03FF03F0003000FF03CA9
:204DC000703000001020F03FF03F10201000300030000000F03FF03F001C000E001CF03F32
:204DE000F03F0000F03FF03F001C000E0007F03FF03F0000C00FE01F303010203030E01FDA
:204E0000C00F00001020F03FF03F10220022003E001C0000E01FF03F102070203020F83F12
:204E2000E81F00001020F03FF03F00220023F03FF01C00006018703C102610221023F03975
:204E4000E0180000000000381030F03FF03F103000380000E03FF03F100010001000F03F5F
:204E6000E03F0000803FC03F600030006000C03F803F0000C03FF03F7000C0017000F03FA9
:204E8000C03F00003030F03CC00F0003C00FF03C303000000000003C103EF003F003103E9C
:204EA000003C00007038F030902110231026303C7038000010003000500090011003100C70
:204EC000F03F0000000800080008000800080008000800080000000000007CFC80028002E7
:204EE0000001000100020004000CF01FF03F000C0004000200018000C000E03FF03FC000FF
:204F00008000000110201020102010201020102010201020E000F00510051005E007F003B7
:204F2000100000001020F03FE03F10021002F003E0010000E003F00710041004100430069F
:204F400020020000E001F00310061024F03FF03F10000000E003F007100510051005300753
:204F60002003000000001002F01FF03F1022003000180000C803EC0724042404FC03F80738
:204F8000000400001020F03FF03F20020004F007F0030000000000001004F037F0371000FD
:204FA00000000000000018001C000404FC37F837000400001020F03FF03F8021C0037006E7
:204FC00030040000000000001020F03FF03F100000000000F007F0070006F0030006F0071B
:204FE000F00700000004F007F00300040004F007F0030000E003F007100410041004F007CD
:20500000E00300000404FC07FC0344044004C007800300008003C00740044404FC07FC03F5
:20502000040400001004F007F0031006000400060003000000002002300790059004F006CF
:205040006002000000040004E01FF03F1004300420000000E007F00710001000E007F00774
:20506000100000000000C007E00730003000E007C0070000E007F0073000E0003000F0074F
:20508000E007000010043006E003C001E0033006100400008007C407440044004400F807F1
:2050A000F007000030067006D0049005100730063004000080078004F03C1020D02FD02FFE
:2050C000D02FD02FD02FD02FD02FD02FD02FD02FD02FD02FD02FD02FD02FD02FD02F1020AF
:2050E000F03F000080078004F03C102010201020102010200300002013F0030F09D0521ED9
:2051000022BF13F8010B11F801CBB0EB0C00F3D07047121F22BF53F8040B51F804CB604578
:20512000F7D0121D0AD200BA9CFA8CFCB0EB0C0038BF6FF0000088BF01207047521E22BF58
:2051400013F8010B11F801CBB0EB0C00F6D0521C08BF1046704710B450F8041B81B10268ED
:205160001218001D50F8043BDC0744BFA9F10104E31852F8044B43F8044B091FF9D1EBE7FA
:2051800010BC704710B50C46222800F23D82DFE810F02300360049004C0052005C006500B2
:2051A00078007B00A100B300AA003101B701CF01D201D501E501E901F801FB013B023B025C
:2051C0003B023B023B023B023B023B023B023B020C023B023B023302B4F5803F07D2DFF812
:2051E0004C064FF4EB710160C4F5E17004E0200CDFF838160860A0B2DFF83416FAE1B4F5BF
:20520000803F07D2DFF824064FF4EB710160C4F5E17004E0200CDFF814160860A0B2DFF849
:205220001416E7E1DFF810069AE16008C0F16400DFF80816DEE1DFF80806006804F00101A0
:2052400040EA8150DFF8F815D4E1002C19BFDFF8F4050821DFF8F0050821A4E1012C06D13F
:20526000DFF8E80502210160DFF8E4059BE1002C40F0CD81DFF8CC0510210160DFF8C80522
:2052800091E1DFF8D0056BE144B9DFF8CC0500210160DFF8C805DFF8C81584E1012C08D1BA
:2052A000DFF8B40500210160DFF8B005DFF8B41579E1DFF8A805DFF8B0150160DFF8980561
:2052C00003210160DFF8A4050460601C4008DFF8A0158FE1012C19BFDFF898050121DFF833
:2052E000980501215FE1012C19BFDFF888052021DFF88405202156E1082CB9D8DFE814F09D
:2053000009001500250035003C004800580068006B00DFF8600510210160DFF830054FF449
:2053200000710160DFF84C0560E0DFF8480510210160DFF818054FF400710160DFF8380560
:2053400004210160DFF82C0552E0DFF8280510210160DFF8F8044FF400710160DFF814051F
:2053600004210160DFF8100542E0DFF8080510210160DFF8D80434E0DFF8FC0410210160F3
:20538000DFF8CC044FF400710160DFF8E8042DE0DFF8E40410210160DFF8B4044FF40071ED
:2053A0000160DFF8D40404210160DFF8C8041FE0DFF8C40410210160DFF894044FF4007161
:2053C0000160DFF8B00404210160DFF8AC040FE0DFF8A40401E0DFF89C0410210160DFF8A5
:2053E00070044FF400710160DFF88C04042101600821D8E0082C00F20A81DFE814F00900D1
:205400001500260037003F004B005C006D007000DFF830044FF400510160DFF858044021C3
:205420000160DFF8200465E0DFF818044FF400510160DFF8400440210160DFF80C044FF4DC
:2054400080410160DFF8FC0357E0DFF8F8034FF400510160DFF81C0440210160DFF8E403DF
:205460004FF480410160DFF8E00346E0DFF8D4034FF400510160DFF8FC0337E0DFF8C803B5
:205480004FF400510160DFF8F00340210160DFF8B4032FE0DFF8B0034FF400510160DFF898
:2054A000D80340210160DFF8A0034FF480410160DFF8900321E0DFF890034FF400510160A6
:2054C000DFF8B40340210160DFF878034FF480410160DFF8740310E0DFF86C0301E0DFF889
:2054E00064034FF400510160DFF88C0340210160DFF854034FF4804101604FF4004152E0DF
:20550000DFF87803DFF878130160DFF8780380210160DFF87403DFF874130160DFF87003CB
:2055200001210160DFF86C030460DFF86C0339E0DFF8680314E0DFF8680311E0DFF8640338
:205540000460DFF84403006840F48020CE490860DFF8440384210160CD4813E0DFF84803C0
:20556000046054E0C548006820F07060C3490860086840F030600860CC480460C14881210F
:2055800011E0CB4800210EE0012C06D1C9484FF400510160C848842105E0C8484FF40051B0
:2055A0000160C5488521016031E0C548006820F07060C3490860086840F080700860A448B8
:2055C0004FF4804100F027F8A04800F022F8A04800F01FF89D484FF4804101600220FFF775
:2055E00018F9B748006820F07060B5490860086840F0006008600AE0E1B2222000F029F8B5
:205600002104090E232000E0E1B200F022F8002010BD4FF4806101600120FFF7FAB8A94961
:2056200040220A60002100FA01F212064CBFA54AA54A80231360A44A40231360A14A136057
:20564000491C0829EFD3A0488021016003601160704710B50C467B4920220A6000F01F00E7
:20566000FFF7DDFF7848202101602046BDE81040D5E70000F8B50C46122800F2D580DFE898
:2056800000F00A181121336F747B7E8184878BA59CAAB82A93006C48202101604FF0C840A3
:2056A0000088F2BD6848202101604FF0C840008858E06548202101604FF0C8400088C0F389
:2056C0000010F2BD6048202101604FF0C8400088C0F3C000F2BD5C48202101604FF0C84043
:2056E0000088C0F34010F2BD7848006878490968774A1268764B1B68744C2468744D2D68F5
:20570000734E3668714F3F68DFF8C8C1DCF800C0DFF8C0E1DEF800E000F4804001F4806117
:2057200040EAC100510801F48071084303F4807140EA4100E10801F480610843690801F431
:205740000061084306F4006140EA410007F4004108430CF0080108430EF040010843F2BDC7
:205760005C480068C0F38000F2BD5B4800684FF4AF614843800AF2BD0FF2A410F2BD0FF2B4
:205780005420F2BD0FF27C10F2BD0FF26440F2BD52480068C00BF2BD50480068000A00F0E0
:2057A000010080F00100F2BD0720FEF7F4FD017800293AD10FF23C10F2BDFEF761FD017846
:2057C000562901D1002830D14548F2BDFEF75AFD58BB4448F2BD44483CB301786422837804
:2057E0000A24634302FB0131C07840183F490818F2BD1548202101604FF0C8400088850963
:2058000029463B4800F094FA394880783849087008462E214170C17881700179C170002162
:20582000017114B12846F2BD0020F2BD2C0C0040340C0040380C0040343401403834014073
:20584000083C01401010014014100140100C0140140C0140282C0140202C014004100240C7
:2058600002841D0402841D0702841D002C2C0140342C01401018014014180140000C0140D7
:2058800038B4BB340008004000080140BB111011007400402C140040001400405004024091
:2058A00048040240280800402C080040340800401004004014140140002C0140101401406B
:2058C000040C014010080140140801400808014008100140081401404C3C0140080C01409C
:2058E00004010020FC0000201C90000830EBFFFFF4000020324D4220496E7465726E616C68
:20590000000000009001F000070015000F00C80000100100010111000000000400000004E7
:2059200035306D56000000000000000400000004D0070000302E3156000000000000000477
:2059400000000004A00F0000302E325600000000FEFF0004FAFF0004401F0000302E355668
:2059600000000000FFFF0004FAFF0004204E0000203156200000000000000004FAFF0004F2
:20598000409C00002032562000000000FEFF0004FAFF0004803801002035562000000000E1
:2059A000FFFF0004FAFF0004400D0300213130562100000000000004FAFF0004801A0600FE
:2059C00000000000000000000000000000000000000000002120315320210000E7035F096F
:2059E000B004000455A0FC013530306D53000000E703AF04580200042B50FE003230306D35
:205A000053000000E703DF01F0000004ABB965003130306D53000000E703EF007800000406
:205A2000D5DC32002135306D53210000E70377003C0000046B6E19002132306D5321000025
:205A40006300DF01F00000042B2C0A002131306D532100006300EF0078000004151605004D
:205A600020356D5320000000630077003C0000040B8B020020326D53200000000900DF0124
:205A8000F00000046B04010020316D53200000000900EF007800000435820000353030753C
:205AA00053000000090077003C0000041B41000032303075530000000000DF01F000000449
:205AC0000B1A000031303075530000000000EF0078000004050D000021353075532100005C
:205AE000000077003C00000483060000213230755321000000002F00180000049B02000012
:205B00002131307553210000000017000C0000044D010000203575532000000000000B005D
:205B200006000004A70000002032755320000000000004000300D70343000000203175533D
:205B400020000000000002000200330321000000302E357553000000000001000100660205
:205B600011000000302E327553000000000000000100EC0107000000302E31755300000070
:205B8000000000000100F60003000000203275532B000000000009000300D703430000009D
:205BA000203175532B000000000004000200D703210000002E3575532B0000000000020048
:205BC00001003303110000002E3275532B000000000001000100D703070000002E31755320
:205BE0002B000000000000000100EB01030000003C5674000000000000003C56740000007E
:205C0000000001023C5674000000000002043C5674000000000003063E567400000000005E
:205C200000013E5674000000000001033E5674000000000002053E56740000000000030736
:205C40003A215C210000000000083A215C2100000000010A3A215C2100000000020C3A2140
:205C60005C2100000000030E3A215E210000000000093A215E2100000000010B3A215E21F3
:205C800000000000020D3A215E2100000000030F3C544C000000000000103C544C00000041
:205CA000000001123C544C000000000002143C544C000000000003163E544C00000000000C
:205CC00000113E544C000000000001133E544C000000000002153E544C00000000000317D4
:205CE0003C5448000000000000183C54480000000000011A3C54480000000000021C3C543B
:205D0000480000000000031E3E5448000000000000193E54480000000000011B3E54480057
:205D200000000000021D3E54480000000000031F42F2107291FBF2F23032027042F2107298
:205D400091FBF2F242F2107303FB121189B24FF47A7291FBF2F2303200F8012F4FF47A7268
:205D600091FBF2F24FF47A7303FB121189B2642291FBF2F2303200F8012F642291FBF2F2B1
:205D8000642303FB121189B2FFE70A2291FBF2F2303200F8012F0A2291FBF2F20A2303FB4D
:205DA0001211303100F8011F002100F8011F70470A0F0A2A2CBF3732303200F8012B090126
:205DC00009090A0E0A2A2CBF3732303200F8012B0902090A0A0D0A2A2CBF3732303200F874
:205DE000012B0903090B0A0C0A2A2CBF3732303200F8012B89B20A0B0A2A2CBF37323032F9
:205E000000F8012B0905090D0A0A0A2A2CBF3732303200F8012BC9B20A090A2A2CBF373202
:205E2000303200F8012B01F00F010A292CBF3731303100F8011B00210170704710B50024AE
:205E400000210420FFF716FCC04380B22649098830EA010121D0254A19231370CA0548BFAF
:205E600003248A0548BF04244A0548BF05240A0548BF0624CA0448BF07248A0448BF0224C3
:205E80004A0448BF01240A0448BF08240A0748BF092449061CD50A241AE013490988084263
:205EA00016D012490978002902BF1149097800290ED1410548BF0524010548BF062401079E
:205EC00048BF0924010448BF0824094905220A7005490880204610BD064A1180014603200F
:205EE000FFF750B9000000008414002035140020361400204214002080B500B936E000F0AE
:205F0000BEF800688047DFF8480900680A3002BD80B5DFF840094078DFF834190968C97830
:205F2000884215D3DFF8280900688078002801BFDFF81C0900688088002809D100F0A9FA5E
:205F4000C178817200F09BF840688047002002BD022002BD80B500B908E000F090F880682D
:205F60008047DFF8EC0800680C3002BDDFF8E008006801210182002002BD80B500F089FAD9
:205F8000C17800F099FBDFF8C8180968897AE1B1002801BFDFF8B80800680079002814D11A
:205FA000DFF8AC080068807878B900F068F8C0688047DFF89C0800684179C172DFF8900847
:205FC0000068C1780173002002BD022002BD80B530B9DFF87C08006802210182002002BD86
:205FE000DFF8740800210180DFF86408006800787F210842DFF8580800681BD1407A8106D3
:2060000005D5002141F00201DFF84C2811704006DFF84408007854BF40F0010000F0FE0072
:20602000DFF83418087000F02AF800698047DFF8280802BD007800F07F000128F7D0DFF80F
:2060400010080068007800F07F000228C6D100F020FA407900F00F010006DFF8000850F828
:20606000210007D500F030001028DCD1002040F00100D5E700F44050B0F5805FF5E7DFF856
:20608000E0070068704710B5DFF8C4070068007810F07F000AD1DFF8B8070068407A00F0B1
:2060A000DF00DFF8AC170968487264E0022801BFDFF89C070068408800285ED1DFF890079F
:2060C00000680079002858D1DFF88817DFF880070068407920F080040206DFF8802752F835
:2060E00024204CBF02F0300202F4405209788C4243D2002A1FBFDFF858170968897A002956
:206100003BD00006DFF8540750F824000BD500F0300010282BD1204600F02FFC3021204664
:2061200000F0DAFB23E000F44050B0F5805F1ED16CB900F06AFBDFF8240700684BF68F717B
:20614000084080F44050DFF8141708600FE0204600F0FFFBDFF8040750F82400DFF8FC1613
:206160004BF68F72104080F4405041F82400FFF786FF40698047002010BD022010BD80B530
:20618000DFF8CC060068417921F080000A06DFF8CC2652F820204CBF02F0300202F4405289
:2061A000DFF8B0361B7898420CD2DFF8A4361B685B883BB9002A1FBFDFF894261268927AAD
:2061C000002A01D1022002BD0906DFF8901651F82010DFF8882605D548F6BF73194081F044
:2061E000100104E04BF68F73194081F4805142F82010FFF744FF80698047002002BD80B561
:2062000000F047F9407A40F0200000F095FA4872FFF735FFC0698047002002BDDFF83026E5
:206220001268528A38B98888801ADFF82416096808820020704708681018704770B5DFF83F
:206240001006006800F110042588A068002818BF002D15D0A088854288BF05462846A168FD
:20626000884706462088401B2080608828186080002000F09FFB2A460146304600F00CFC89
:20628000208860B1DFF8DC054FF4405101800021002000F096FBDFF8D00530210180208850
:2062A000A188884204D3DFF8A8050068032105E00028DFF89C05006802D00521017270BD7F
:2062C00006210172DFF8A405006880B2DFF8A015002241F81020DFF890053021018070BD88
:2062E000F8B5DFF86C05006800F110042088002801BFDFF85C150968097A042916D1DFF885
:206300007405007801280ED1DFF86005006880B2DFF85C15002241F8102030200425DFF88B
:2063200054150A7028E00725102025E0A688864205D30425B04288BF3046064600E0022518
:206340003046A16888470746002000F032FB32460146384600F08BFB3146002000F031FBFF
:206360002088801B20806088301860803020DFF8F4144FF440520A80DFF8EC140880DFF866
:20638000D00400680572F1BD10B5DFF8C40400684478DFF8BC04006800787F21084254D18E
:2063A000092C02D1FFF7B4FD63E0052C2AD1DFF8A0040068C078802869D2DFF894040068EA
:2063C0008078002801BFDFF888040068808800285DD1DFF87C040068807A002857D1062085
:2063E000DFF88814096889B2DFF88424002342F81130DFF8741430220A80DFF85414096876
:20640000087210BD032C10D100F043F8C078012801BFDFF83C040068808800282BD100F03E
:206420003CF828D5FFF7EBFE23E0012C01BFDFF820040068C07801281DD100F02AF8808890
:20644000C8B900F02AF80DD415E000F02DF904D10B2C10D1FFF791FD0BE000F016F90AD187
:20646000012C02D1FFF70FFE03E0032C03D1FFF786FE0028B3D02046DFF8FC13096849699F
:206480008847032808BF0920B7D00028A7D00820B3E7DFF8BC0300687047DFF8B40300687F
:2064A000407A8006704780B500F075F9062817D100F075F935D1FFF7ECFF8078012803D102
:2064C00000F066F9C1697AE0022803D100F060F9016A74E0032824D100F05AF9416A6EE087
:2064E00000284BD100F0CCF801BFDFF864030068C088022815D1FFF7CCFF007988B900F07B
:206500004EF901BFDFF8480300688088002833D000F0CAF80FD100F0CEF810B900F0ABF813
:206520002AD100F038F9DFF85013096809698847032850D156E000F0A8F8F2D1FFF7A9FFE0
:20654000407900F00F0000F0F7F8497901F07001BF4A126852791206C04A52F820204CBF7B
:2065600002F0300202F44052BA4B1B789842D8D20029D6D1002AD4D0C04920E0082804D1A7
:2065800000F00DF9CDD1BE4919E00A28C9D100F08BF8C6D100F06FF8C3D000F071F801BF8E
:2065A000AB48006800790028BBD1FFF772FFC0880128B6D100F07FF80028B2D1B1490800E0
:2065C000AFD0FFF766FF00224282FFF762FF81610020884700209E490968098A4FF6FF7212
:2065E000914203D19A480068092106E0022801D0080004D1964800680821017201BD944846
:20660000006800780006924800682DD5C0880090009800F091F8098A8842FFF73AFF02D207
:206620000099018216E0084600F086F8C988884210D200F031F8884202D28E48002108E0F9
:2066400000F02AF890FBF1F201FB120010B9894801210170FFF71DFF8749096891F82C1067
:206660008182BDE801403BE6032101727D484FF44051018001BD76480068807A00287047A2
:206680007348006840880028704771480068007800F07F00022870476D480068008A7649E1
:2066A000096891F82C10704769480068007800F07F000128704700216548006840796E4A66
:2066C00012689269104710B56848006880B26E4931F81000400000F1804000F5C04000F019
:2066E0002BF8097A092917D000F029F80A7000F026F84A70841C34F8040B00F0B3F900F021
:206700001BF84880208800F0ADF900F015F88880FFF7BFFEA188C180FFF7BBFE01210172FA
:20672000FFF7B7FEC08810B9FFF72EFE01E0FFF7BAFEBDE8104050E0454909687047444984
:20674000096810F8012B704780B500F064F8022818BF042804D1FFF7C3FD00F05CF816E06A
:20676000062813D100F017F805280BD100F017F808D1FFF78EFEC07800F051F8FFF77FFCC3
:20678000006A804700F004F88068804708201FE03948006870472E480068407870472C48A5
:2067A000006800787F210842704780B500F033F8032818BF052804D1FFF740FD00F02BF8BE
:2067C00006E0072803D1FFF7E3FFC06880470820FFF7B2FF0872BDE8014080B500F015F8A8
:2067E0001B480068007A082806D11E484FF4805101801D481021018015480068007A0928CB
:2068000001D1012002BD002002BD204890F82C10002000F0DDB80E480068007A704730B542
:206820000C49097800220D4D0AE0D3B255F8233048F68F742340D4B2234345F82430521C68
:206840008A42F2D340F080001149086030BD0000B8130020440100207C140020005C0040AC
:20686000C01300208014002082140020505C0040046000408E140020BC130020CF5F000844
:20688000F95E0008555F000808600040000000204C5C0040704750F8041B61B150F8042B86
:2068A000D30744BFA9F101039A18002342F8043B091FFAD1EFE770474FF6F8710840DFF8C2
:2068C0008C1108607047DFF8882152F8202048F68F131A40114337E0DFF8742152F8202057
:2068E00048F6BF731A40CB0648BF82F01002890648BF82F020020EE0DFF8542152F8202084
:206900004BF68F731A40CB0448BF82F48052890448BF82F40052DFF8381141F82020704710
:20692000DFF82C1151F82010DFF824214BF68F73194081F4405109E0DFF8141151F82010AE
:2069400048F68F62FFE71140DFF8042142F820107047DFF8FC1051F8201049040CD5DFF853
:20696000F01051F8201048F68F72114041F48041DFF8DC2042F820107047DFF8D41051F820
:20698000201049060CD5DFF8C81051F8201048F68F72114041F04001DFF8B42042F8201058
:2069A000704738E0294A126892B202EBC000294A37E03BE02549096889B201EBC000254951
:2069C0003AE0224A126892B202EBC000224A2AE01E4A126892B202EBC000204A02EB4000E6
:2069E0003F2909D34A091F23194208BF521E1204910941F4004105E04A08C90748BF521C8A
:206A000012049109016070471049096889B201EBC000124914E00D4A126892B202EBC000EC
:206A20000F4A4908490042F8101070470749096889B201EBC0000A4951F8100080B2704715
:206A400051F810008005800D70470000505C0040005C004008600040046000400C60004094
:206A6000006000400106090C41EA1020704710B5490001F1804101F5C041521C521009E0D7
:206A800010F8013B10F8014B43EA042321F8023B891C521EF4D110BD490001F1804101F51B
:206AA000C041521C521004E051F8043B20F8023B521EF9D17047000080B500F02DFB4FF4C3
:206AC000803000F049FB00F061FBDFF88C1408700878012819D1102000F0B9FB022000F01E
:206AE000A9FBDFF87804DFF878140160012000F064FB392000F076FB0028FAD0022000F0AD
:206B00005FFB00F063FB0828FBD1DFF8580440F217110160DFF850044AF67D610160002019
:206B200000F05DFBDFF84404DFF84414016001BD80B54FF480414FF0006000F063FC4FF436
:206B4000C06000F01DFC14208DF8000001208DF801008DF802008DF8030000A800F015FCF4
:206B6000132000F004F81D2000F001F801BD8DF8000001208DF8010000208DF8020001201E
:206B80008DF8030000A800F000BCDFF8F003DFF8F0130160DFF8EC03DFF8EC130160DFF840
:206BA000EC034EF2FF710160DFF8E403DFF8E4130160DFF8C003DFF8C0130160DFF8D80391
:206BC0004FF6FF710160DFF8D403DFF8D4130160DFF8D003DFF8D0130160DFF8D0034FF61E
:206BE000EF710160DFF8C803DFF8C8130160DFF8C803DFF8C8130160DFF8C4034FF6FF7117
:206C00000160DFF8C003DFF8C0130160DFF8BC034FF0BB310160DFF8B8034FF6FF710160A4
:206C2000DFF8B0034FF0806101607047DFF8A803DFF8A8130160DFF8A803DFF8A8130160A8
:206C40004FF0204045F211010160DFF89C03DFF89C130160DFF89803DFF888130160DFF872
:206C6000940345F211010160704700B585B00020ADF800004FF48270ADF802000020ADF8CC
:206C800004000220ADF806000120ADF808004FF40070ADF80A00002003900720ADF8100064
:206CA00000A9DFF8540300F0C1FB0121DFF8480300F0D3FB05B000BDDFF84003DFF8401399
:206CC0000160DFF840034FF4D5510160DFF838034FF480510160DFF82C03006840F0010049
:206CE000C8490860DFF8240347F2C0510160C84800210160C7484FF0C0410160C6480068BA
:206D000040F00100C4490860084647F291510160C24824210160C248C2490160C24843F29E
:206D2000B15101607047C14801210160BD484FF4006101607047BE4800210160BD480160FE
:206D4000BD480160BD484FF4BC010160BC484FF480110160BB48BC490160BC48002101603F
:206D6000BB480160BB480160BB480C210160BB480B210160BA480A210160BA488021016098
:206D8000B94800210160B9480160AC48006840F00100AA490860AA48006840F00100A849AA
:206DA0000860A848006840F00100A6490860A348006840F00800A149086008680007FCD467
:206DC0009F48006840F008009D49086008680007FCD49C48006840F008009A490860086858
:206DE0000007FCD49548006840F0040093490860934800684007FBD49148006840F0040031
:206E00008F49086008684007FCD48E48006840F004008C49086008684007FCD470479448E2
:206E20000921016093482321016093481221016092480321016092487821016091484FF489
:206E4000004101609048002101609048852101608F48472101608F4840F2E73101608E485F
:206E6000012101608D48852101608D48032101608C4844F24F6101608B4842F2283101607D
:206E80008A48012101608A4878210160894881210160894800210160884840F2F311016043
:206EA00087484FF49671016086480160864833210160864847F678010160854881210160F1
:206EC00084481321016084486321016083484FF4807101608248082101608248852101601B
:206EE0008148C7210160814863210160804864210160804801608048132101607F4847F69A
:206F0000780101607E484FF4004101607D489121016070477C4802687C4800687C490968CD
:206F200002B9704710B57B4B9A70130A794C2371130CA371120E2272A072020A2273020C2C
:206F4000A273000E2074A174080A2075080CA075080E207610BD00008D1400200410024005
:206F600002841D0014100240181002401C1002402F808020040C01403833888800080140CC
:206F8000BB88801104080140BB3B83880C080140000C014018B8BB3B0C0C014000100140BD
:206FA000001011BB04100140888838330C10014000140140BB84BBB804140140BB1B13BBC4
:206FC0000C14014000180140833333B3041801400C18014004000140040000A0020F10107F
:206FE000040100A0010410100C0000A0020710100C0100A0080000A0003C004010000240CF
:207000004C240140080002400C0002401C0002400C04024010040240080402404804024045
:207020004C040240087400404404024000740040043C01400428014004240140083C0140E8
:207040000828014008240140000110002C3C01402C2801402C240140343C01403428014024
:20706000342401400C3C01400C2801400C240140282C01402C2C0140342C0140202C0140AC
:20708000182C0140442C01400C2C0140002C0140280400402C0400400C0400400004004064
:2070A000280800402C08004034080040200800401808004000080040280C00402C0C004074
:2070C000340C0040380C0040200C0040180C0040000C0040281400402C1400400C14004034
:2070E0000414004000140040283401402C340140343401403834014020340140183401402E
:207100004434014000340140E8F7FF1FECF7FF1FF0F7FF1FA00000203D48006840F0010060
:207120003B4908603B4800683B49084039490860374800683949084035490860086820F4A7
:20714000802008603348006820F4FE003149086033480021016070472D49096821F48031EF
:207160002B4A1160116821F480211160B0F5803F03D0B0F5802F04D07047106840F4803017
:2071800002E0106840F4A0201060704710B582B0002000900024312000F024F80099491C54
:2071A000009118B90098B0F5A06FF4D1312000F019F800B10124204616BD1A490860704779
:2071C00014490968890850EA810005E01148006800F00C00704708430E4908607047124920
:2071E0000860704700214209012A08BF084A03D0022A0CBF0D4A0E4A1268012300F01F009A
:2072000003FA00F0024218BF012108467047000000100240041002400000FFF8FFFFF6FEAE
:207220000810024060004242D80042422010024024100240DFF8F810096801F03801FFE76C
:20724000DFF8EC2011601168084310607047DFF8E010096821F01001F2E7DFF8D800DFF836
:20726000D8100160DFF8D41001607047DFF8D000006840F0800041E010B5044600F01DF8FE
:20728000042815D1DFF8B800006840F00200DFF8B0100860DFF8AC00046000F00AF80128B2
:2072A00006D02749096841F6FD721140244A116010BD086840F04000086040F6FF7045E062
:2072C00038B500F00EF804280AD100F00EF8012806D01B49096841F6FE721140184A11602F
:2072E00032BD04460D460F2030E01548006840F001001349086025800F2027E0104908606D
:20730000704711490860704704200F490968C90701D5012070470C490968490701D50220C4
:20732000704709490968C90648BF032070470000002002400420024023016745AB89EFCD9B
:2073400010200240142002400C20024010B582B00446FFF7D9FF08E00098401E00900098C2
:207360000028F9D1FFF7D0FF641E012804D124B100200090FF20F1E704B9052016BD0000A5
:207380002749084325490860704770B5C17869B32249096801F4E061C1F5E061090A027895
:2073A00022F003021B4BD358FF22047804F00304E400A24093434478C1F10405AC40857891
:2073C0000F2626FA01F1294021430901047804F00304E400A14011401943027822F0030215
:2073E0000C4BD150017849110E4A02E001784911074A0123007800F01F0003FA00F042F812
:20740000210070BD084A1140084303490860704780E100E000E400E008ED00E00CED00E012
:207420000000FA0500E100E080FFFF1F028802F441520B881A434B881A438B881A43CB88F9
:207440001A430B891A434B891A438B891A43CB891A430280098A018270470029018812BFB9
:2074600041F040014FF6BF72114001807047818170478089704700220089084218BF012233
:207480001046704730B583B000210E20FEF7F2F80522014600A800F043FA9DF8010064213B
:2074A0009DF803200A235A4301FB00209DF804100818DFF84C140818B0F59C7F0BD300214F
:2074C0001220FEF7D7F803220FF24441FDF712FE08B9022000E00120DFF828140870087818
:2074E0000228DFF824044FF48051016010D14FF4005141604FF4405181604FF4E041C1609E
:20750000012001214FF48052134640F2FF7410E04FF4205141604FF4804181604FF4004167
:20752000C1600C200C214FF400724FF4C05340F6FF74DFF8D45369772877AC616A612B613C
:2075400037BDF8B504460D4616460027DFF8BC0300210170324629462046FCF77FFE384607
:20756000471CC0B2072801D30120F2BDDFF89C0300780028EAD1F2BD70B504460D460026FB
:20758000DFF888030021017029462046FCF764FE3046461CC0B2072801D3012070BDDFF85B
:2075A0006C0300780028EBD170BD10B582B00446DFF854030068218811EB5101091820883C
:2075C0006080002020806088DFF83C239269904206D2022804D3022200A8FCF741FE08B190
:2075E000012016BDA078C007BDF800004EBF00090005000D2080002016BD38B50C46C249FE
:207600004A6992B2C968C04B5B692588AD1E05FB0311FCF725FE08B1012032BD2046FFF7AC
:20762000C4FF00B1022032BD70B504460D46B648C068B54949692A88921E02FB0106314650
:2076400000F002F900BBAF480078012806D104F5807406F5807100F0F7F8A8B92846FFF798
:20766000A4FF08B1022070BD288878B9688828802946204600F00CF808B1032070BD2946A5
:20768000204600F030F808B1012070BD002070BD10B582B00C462088608000202080022263
:2076A000994800682188081810EB510100A8FCF7D7FD08B1012016BD2078C007BDF800003B
:2076C0004EBF00090005000D18B920886188884207D12088401C2080208840F6FF718842C2
:2076E000DDD3002016BD2DE9F04104464D880E8805EBD57005EB600080B28349096800F403
:207700007F4202EB0108C7B200F0A1F8414600F098F828BBE80709D5385D00F00F0000EB7A
:20772000061038553819311141700AE03E553819407800F0F000311201F00F010818391946
:207740004870414600F080F850B96E480078012808D108F5807104F58070FCF783FD08B146
:20776000012000E00020BDE8F081F8B504460D4616461F460020308063488068386038682C
:207780006149C968884226D200F061F8396800F058F8A8B10120F2BD0A18125D4B5D9A42E4
:2077A00009D10A2904D10019408B30800020F2BD491C0B2909DB396820313960203080B2FA
:2077C000514949698842DAD200210A18125D002AE2D10420F2BD0320F2BD2DE9F041044622
:2077E0000D4690461F46FFF7C0FF042827D141462046FFF74DFF08B1032020E04148007816
:20780000022803D138680605360D01E03878C6B23868871B00F01BF8394600F012F868B994
:207820008119425D0A55401C0B28F9D33019B8F800104183394600F007F800B10120BDE8A3
:20784000F0812046FCF70CBD2046FCF70BBD2E48426992B27047F8B504460D4611461E4653
:207860002848007802280CBF40F6FF77FF2740F6FF7008802046FFF736FFFFF7E8FF306826
:2078800020EA0701FFF7DDFF002837D13068384000192021C172306838400019C561306850
:2078A00020EA0701FFF7D0FF40BB1648007802280CD1FFF7CCFF0168FFF7C3FFF0B9124834
:2078C0004168FFF7C1FFC8B90020F2BD002700E07F1C0D48007F8742F6D24FF480720A486B
:2078E000006800EB0721FFF7ACFF38B90648406800EB0721FFF7A8FF0028E9D00120F2BD24
:2079000030EBFFFF24140020041400208C140020384D4220496E7465726E616C00000000DA
:2079200062B38B0708D0521E11F8013B00F8013B00F024808B07F6D1830740F0208000BFD9
:20794000103A07D330B4B1E83810103AA0E83810F9D230BC530724BFB1E80810A0E80810DF
:2079600044BF51F8043B40F8043BD20724BF31F8022B20F8022B44BF0B7803707047083ABC
:2079800007D3B1E80810083A40F8043B40F804CBF7D25307E4E700001FB5FFF78DF8FFF769
:2079A000C7F8FFF7F2F8FFF73AFAFFF73FF9FFF75CF9FFF781F9FFF7BEF9FFF7B4F9FCF7D2
:2079C000EEFE0520FCF7E7FC06220FF2F011FDF791FB002808D5FCF7F5FC0020FCF762FFB9
:2079E00096214620FCF7D3FF0FF2D81000F0E0F82820FCF776FF00210D20FDF73BFE00F0D9
:207A0000D7F89020FCF76DFF0FF2C81000F0D0F8C820FCF766FFFCF711FC014601A8FEF7D2
:207A2000C7F901A80090002340F2FF725A214FF49070FCF756FF0FF2A81000F096F84621E3
:207A400000F090F800210F20FDF714FE00F08DF846214FF48870FCF744FFFFF713FD00F015
:207A600089F840054CD500F085F8800548D500F081F8C00544D5414800210170002000F09E
:207A800027F9FCF7DDFB012834D04FF4FA711420FEF722FA0FF2701000F067F800F061F8C2
:207AA00032214FF48C7000F02CF90446FCF7C8FB012806D00FF278100090002340F2FF7241
:207AC0000BE00021204600F006F901280CBF0FF288100FF2AC1000F048F800F042F80FF2A0
:207AE000C81000F042F81E2100F03CF8234800780028FBD02248234900F02DF822481CE0FA
:207B000000F038F8400505D41D48204900F023F81F4812E000F02EF8800505D418481D49BB
:207B200000F019F81C4808E000F024F8C00507D413481A4900F00FF81948006800F0C6F91F
:207B400018481949016000F0DDF90D4800688047002004B010BD09684160084608490860FE
:207B6000704732213020FCF7BCBE009000234FF4FC6270470D480068704700003714002054
:207B80005414002004C0000800C00008044001080040010804C0010800C00108044002084F
:207BA0000040020804080140BBBB8B8808100140009000234FF4FC625A21704756332E31DE
:207BC000340000004861726477617265205665722000000053657269616C204E6F3A20003F
:207BE00020202020204453323033204D696E692044534F20535953205665722020202020FA
:207C00002020202020202000506C6561736520696E707574206D6173746572206C69636571
:207C20006E63653A20303030303030303000000020202020202020204C6963656E63652061
:207C4000696E707574206572726F722020202020202020202000000020202020202020206A
:207C6000204C6963656E63652077726974656E206F6B20202020202020202020200000001E
:207C800020202020202020204C6963656E63652077726974656E206572726F7220202020AE
:207CA00020202020200000002020202020205075736820616E79206B657920746F206E65FD
:207CC0007874207374657020202020202000000067490858704770B504460D46FFF7BDFAE6
:207CE000A1B26348401900F097F80646210C6148401900F091F80446FFF7B8FA04EA0600D4
:207D000070BD2DE9F04385B08046894600260FF274100088ADF804000027314602A8FEF70A
:207D200047F802A8009033464FF6FF7249464046FCF7D7FD02E000264F480670394602A881
:207D4000FEF736F84D480078E4B2844217D04B480478002502A8285C8DF80400AE4201A82C
:207D600000900CBF234600234FF6FF72494608EBC50080B2FCF7B5FD6D1C082DEADB3E483F
:207D80000078E8B13C480078022841D0052806D0062822D008282DD0092830D00DE0C6F176
:207DA0000700800027FA00F010F00F0F0ED00120C6F10701890088403F1A2F48002101709C
:207DC000082EBBDB384605B0BDE8F0830F20C6F1070189008840C719EFE7C6F10700800059
:207DE00027FA00F000F00F000F2838BF0120EED30F20DDE7072E9EDA761CF6B2DDE7012E96
:207E0000A8BF761EF9DA07261B480021017095E7194800210170D5E738B504460D4618485D
:207E2000FFF794FA05281CBF3420FFF76AFA29462046FFF745FA042801D1012032BD0020D0
:207E400032BD10B5044660050ED10D48FFF77EFA05281CBF3420FFF754FA2046FFF70CFA1B
:207E6000042801D0002010BD012010BD000000000438000806380008371400203A140020C7
:207E8000A08601003000000030BF704720BF704740BF7047BFF36F8F7047BFF34F8F7047EB
:207EA000BFF35F8F704701DF7047EFF31480704780F31488BFF36F8F7047EFF3098070470F
:207EC00080F309887047EFF30880704780F30888704762B6704772B67047EFF31080704735
:207EE00061B6704771B67047EFF31380704780F311887047EFF31280704740BA704700BA51
:207F0000704700000648074901600846022101720348054941600549816040680068004707
:207F2000B8130020C4130020000000205800002080B5A74890F8200002280AD015D30428E3
:207F400002D00BD3052810D1A148002180F8201008E09F48C07B282807D1F9E00121002064
:207F600000F017F94FF4405150E101BD10B59848C47B0220FEF748FD954948844A8CD82185
:207F80009448FEF789FD924890F8200010B1012803D00AE0BDE8104013E02A2C06D100F05C
:207FA000D3F8BDE8104000F0DDB9022000F01CF92421052000F0A5F900210220BDE8104024
:207FC000E7E080B58248408C20B18148428C8149FFF7A6FC80487E49496841607C498968AE
:207FE00081607B48408C1F2807D0022000F0FCF87748002101601A219EE07548C07B2828AB
:208000001EBF7348C07B2A2815D17148407C7049897C090441EA00606D49C97C40EA012044
:208020006B49097D08436A494862887DC97D41EA002067498862664800686849884277D155
:20804000674800686249497B884205D36048807B401EC0B2102804D3022000F0C5F8242162
:208060006AE05B48C07B00284BD003282DD0042856D0082818BF0A2856D0122829D015284C
:2080800052D01A282DD01B2827D01D284CD01E2823D023282DD025282FD0282835D02A2870
:2080A00034D02F2838D055283ED05A281DD0882818BF8A2838D08F2818BF9E2834D0A828FA
:2080C0001CBFAA28AF282FD032E0BDE8014000F00EB9BDE8014000F09FB8BDE8014000F06B
:2080E00014B9BDE8014000F0FAB8BDE8014000F0FAB8BDE8014000F0A0B8BDE8014000F09F
:20810000BFB8BDE8014000F069B921E000F01CF8BDE8044000F026B9BDE8014000F04BB959
:20812000BDE8014000F060B9BDE8014000F05EB9022000F059F82021052000F0E2F80021AF
:208140000120BDE8044024E02148816A406A7047FFF7FAFFBDE8044000F0DBB810B50C46EA
:2081600022469821FEF783FC21460120FEF729FC30210120FEF7B0FB1548032180F820108D
:2081800015488068001B1449886008460021017310BD10B50C461049124A0A6008730D22AA
:2081A00098210D48FEF763FC0D210120FEF709FC0748052180F8201044B1042180F8201035
:2081C00030210120BDE81040FEF786BB10BD00008C1300204C130020441400205553424352
:2081E000741400205553425380B518B1022807D00AD301BD10210120BDE80440FEF76CBBA9
:2082000010210120FEF768FB4FF480510220BDE80440FEF771BB00009348007CC00702D57F
:208220009248052107E092488F49C97C19293ABF8D49C97C1821FFF791BF80B500F03CFA30
:208240008C480068000E8C4908718A480068000C487188480068000A8871084685490968BF
:20826000C17100F035F8000C8349487200F030F8000A8872084681490968C1720C2123E015
:2082800080B500F019FA00F026F8000E7C49087000F021F8000C487000F01DF8000A887079
:2082A00000F019F8C87000F013F8000E087100F00FF8000C487100F00BF8000A8871084603
:2082C0006E490968C1710821BDE80440FFF746BF6A480068704767480068401E7047042115
:2082E0006848FFF73BBF08216748FFF737BF5E48C07C13283ABF5C48C17C12216348FFF74F
:208300002DBF624A90701173704701210020FFF740BF38B504460D465D480078C0B92A46C3
:208320002146282000F076F8D8B100F040F804D557480221017029460EE00220FFF754FFAB
:2083400000F0A8F801210120BDE83440FFF721BF4F480078022804D12046BDE8344000F0DE
:20836000D1B931BD80B54A4A1278BAB90A4601462A2000F04FF8C8B100F019F809D44448C4
:20838000012101704FF440510220BDE80440FEF7B3BA0020FFF728FF242133E03C4A127864
:2083A000012A04BFBDE8044000F00DBA01BD2E48007B0006704780B52B48806830B92A48D8
:2083C000007C400702D40121002006E00220FFF70BFF00F05FF80021012017E080B500F015
:2083E0006BF90121002011E000F066B980B51E48806820B1FFF7DBFF4CBF00200220FFF770
:20840000F3FE202100F047F800210120BDE80440FFF7BFBE80B5174B1B6851188B4209D232
:208420002A2804BF0220FFF7DFFE0020FFF7DCFE21210DE00C498968104B1B685A4391427F
:208440000ED02A280CBF02200020FFF7CDFE242100F021F800210120FFF79BFE002002BD20
:20846000012002BD000000008C1300205C1400207C00002030140020200100202C1400202C
:2084800064140020480100203C0100200C010020AC1300202421052033E7000010B50446DF
:2084A00000F0E3F800F0B1F8202000F0B2F8200200F07FF8200400F07CF8E0B200F0A9F84A
:2084C00000F079F8BDE81040DBE02DE9F041C0B080460E46002584480078022804D1834887
:2084E00000EA0604102703E00127814800EA06044FF48072214600A800F061F8002000A933
:20850000415CFF2901D0012502E0801CFF28F6D304F580747F1EFFB2002FE9D172480078DB
:20852000022807D11027714806404DB13046FFF7B5FF05E001276E4806400DB10A2500E00F
:208540000225002409E02A463146404600F00AF806F5807608F58078641CBC42F3D340B06E
:20856000BDE8F081F8B504460D4616464FF4807700F021F800F085F800F077F800F045F803
:20858000304600F046F800F013F8280400F011F8E8B201E014F8010B00F03BF83846471E7E
:2085A00080B20028F6D100F006F8BDE8F14068E02802000E2DE080214E4800F093B970B5B1
:2085C00004460D461646FFF7F6FF00F05AF800F01CF8032000F01DF8FFF7EAFF2804FFF748
:2085E000E8FFE8B200F015F804E0A52000F011F804F8010B3046461E80B20028F5D18021B8
:208600003C48BDE8704000F06DB98021394800F06BB910B5044600F04BF802213648FEF75D
:208620002AFF40B935480068411C344A116034498842F2D312E021462F48FEF718FF00F00F
:2086400037F801212C48FEF716FF48B92B480068411C2A4A11602A498842F2D3FF2010BD3F
:208660002548FEF706FFC0B210BD80B5FFF7CDFF0620FFF7CEFF80211E48BDE8044000F094
:2086800031B980B5FFF7C1FF0520FFF7C2FF00F00FF8A520FFF7BDFF184909684A1C174B21
:2086A0001A60174A914202D2C007F2D4E3E701BD12480021016070470B480078022806D1C4
:2086C0004FF400604FF480514FF4000205E04FF480504FF400714FF40012034B5A6099609C
:2086E000D8607047000000002414002000F0FF0000FFFF00000C0140003C00406C140020DD
:20870000A186010080B56D4A12785AB96C4A126850436A4A50616A480068484390610121C8
:20872000117001E0012A3FD164484068B8B96548012101706248026892B260484169624843
:20874000FFF73DFF402298215F48FEF790F95B485B49096840394160402181600FE0402242
:20876000982156488068584BC018FEF780F95348406840385149486088684030886040212B
:208780000120FEF71EF930210120FEF7A5F84B4840694030494948618869403888614B48DC
:2087A00080684038494988604448806950B9434800214160816041614548032101703F48E8
:2087C0000021017001BD10B53C4AD26840323B4B1B785BB93A4B1B685843384BD861384846
:2087E0000068484318620121197001E0012B51D1324800210161374C0DE0C06832492F4BA8
:208800001B691B5D43542D480069401C2B490861C868401CC8602948C06890422748ECD361
:20882000C0692D49098808182449C861086A2A490988401A21490862086A0146204A126811
:20884000B1FBF2F11E4A126802FB1100B0B91B480021C1601B48012101701848C069811A71
:208860001948FFF732FE1D480078012806D11348C069A0F580711A48FFF727FE13488068CA
:2088800015490988401A114988604FF440510220FEF732F80948006A00281EBF0C480078AC
:2088A000042809D105480021C16001210020FFF770FC02480021017010BD0000E0130020C3
:2088C0002C1400208C1400204C01002044140020AC1300204C130020AE13002024140020FC
:2088E0004C020020016170474161704780B5FEF711FB00F06CF80021817200F025F9834821
:208900000021016082484FF4044101808148016081480021016001BD80B5804800218172BE
:2089200000F055F87E49C97941720020FDF7C4FF4FF400710020FDF7C6FF20210020FDF785
:20894000CBFF18210020FEF72DF800F043F858210020FEF726F80020FDF7EEFF0020FDF7EE
:20896000DFFF00210120FDF7AEFF98210120FEF718F820210120FDF7AFFF00210120FDF71D
:20898000BBFF00210220FDF79EFFD8210220FEF709F8644890F82C100220FEF719F84FF45D
:2089A00040510220FDF7A8FF00210220FDF794FF00F010F80020FDF7B3FF0020FDF72FFF9F
:2089C00055480121016058485849016017E0584800687047534890F82C100020FDF7F8BFF5
:2089E00053480068807A00B9704780B54A48052101600120FDF7C1FF0220FDF7AAFF4D4893
:208A00000021017001BD48480068484988421CBF0220FFF7E9BB70473F48042101607047A1
:208A20007047704780B542490968097801F07F01212908BFFE2812D13D48006840880028AE
:208A400001BF3B4800688088002808D138480068C088012803D10FF2A101080001D1022096
:208A600002BDFFF7B4FF8161FFF7B1FF0022428200208847002002BD80B52D4909680978B5
:208A800001F07F01212908BFFF281BD1284800684088002801BF264800688088002811D1D1
:208AA00023480068C08868B90120FDF766FF0220FDF74FFF1C481D4901601E480021017079
:208AC000002002BD022002BD00290CBF0028022070471949FDF7A2BB1849FDF79FBB144922
:208AE0000968C978062901DB00207047144A02EBC101FDF793BB000028B90D4800680121D3
:208B00000182002070470F4870470000445C00408A140020405C004078140020C4130020D0
:208B2000008F0008000000208C13002055534243B8130020AC1300202C0100203401002026
:208B40003000002074140020074801210160002101600648016006484FF4E051018002488D
:208B6000FFE7016000207047405C0040445C00408A14002010B50EE00878684951F82040D0
:208B8000A4B2200403D56648007800F0A0F8200601D500F0AEF863480068634908800004F8
:208BA00069D5604847F6FF7101605F48008810F00F005B490870DFD15848006800F440502B
:208BC0005A4908805548006800F030004880534800684BF68F71084080F400504F4908602D
:208BE000086848F6BF71084080F020004B4908604D480088C00603D50C68A4B2200608D53B
:208C0000086848F60F71084044490860FDF79CFD0CE0200504D500F02FF8FDF754FD05E031
:208C20002004B8D500F028F8FDF7BFFD3B4800684BF68F7108403D490988C90448BF80F4F0
:208C400080503A490988890448BF80F4005033490860086848F6BF71084034498978C90681
:208C600048BF80F0100031498978890648BF80F020002A49086010BD086840F68F71084036
:208C800026490860704780B504E025480078234900F01DF82348006823490880000415D522
:208CA000204847F6FF7101601F48008800F00F001B4908700878194951F8200080B20104F2
:208CC000E3D40006E6D500F014F8E3E701BD51F8200040F68F710840114909780F4A42F843
:208CE00021000F480078124901EB800050F8040C00470B480078094951F8200048F60F71DA
:208D0000084007490978054A42F8210004480078084901EB800050F8040C0047005C0040D4
:208D20008F140020445C00408814002080140020D8000020BC0000207047FEE7FEE7FEE7E6
:208D4000FEE770477047704770477047704770477047704770477047704770477047704775
:208D600070477047704770477047704770477047FFF789BF00F094B87047704770477047E5
:208D8000704770477047704780B5344800210160334800790028324804D00079401E30490A
:208DA000087101BD14210171008915282C4804D3008914382A49088101E0002101812848FF
:208DC000C0891528264809D3C08914382449C881C889152815D20021032010E040793228BC
:208DE0001F4804D24079401C1D49487109E0002141714089401C1A49488101210420FCF7BC
:208E0000C1F917480078401C1549087008780C280DD30846002101708179481E8041C00F2B
:208E20000F498871888910B18889401E8881487810B14878401E4870887810B18878401E21
:208E40008870FCF7FBFF40B10549C87014210320FCF798F902483C21C18101BD10040040DF
:208E6000341400207047704770477047704770477047704770477047704770477047704788
:208E8000704770477047704770477047704770477047704770477047704770477047704762
:208EA00080B50E480E490968018000880D4909880840400506D50A484FF6FF3101600A488D
:208EC0004068804705480088064909880840000444BFBDE80140FFF74DBE01BD88140020BE
:208EE000445C00408A14002000000020120100020000004083042057000201020301000058
:208F000009022000010100C0320904000002080650040705810240000007050202400000A2
:208F2000040309042603530054004D006900630072006F0065006C006500630074007200D4
:208F40006F006E0069006300730000002603530054004D003300320020004D006100730032
:208F600073002000530074006F007200610067006500000010035300540020004D00610001
:208F80007300730010B5074979441831064C7C44163404E0081D0A68511888470146A14297
:208FA000F8D110BD0800000028000000EBD8FFFF441300004C010020000000009BC1FFFF0C
:208FC0004C01000068000000000000200000000000F009F8002801D0FFF7D4FF0020FEF7F4
:208FE000DBFC00F002F80120704700F001B800000746384600F002F8FBE70000C046C0468C
:20900000024A11001820ABBEFBE700BF26000200C046C046C046C046FFF7DAFF312E3632DB
:2090200000000000FEF784BFFEF7A0BFED88000819890008218A0008238A0008258A00085E
:20904000798A0008C98A0008D38A0008D98A0008DF8A00080000000040000000208F000872
:2090600004000000248F0008260000004C8F000826000000A00000201A000000748F00081D
:209080001000000095680008E1890008956800089568000895680008078A0008956800089C
:2090A00095680008198A000800800202200000004D696E695F44534F466C617368204469CF
:2090C000736B202020202020200000001A03530054004D00330032003100300000000000FB
:2090E00000000000000000002590000895680008956800089568000895680008956800089A
:2091000095680008956800082990000895680008956800089568000895680008956800086B
:20912000000000000000000056322E363000000056332E3130000000700000000000000A81
:20914000000000000000000000000000000000080000000002000000EC8E00081200000071
:18916000008F0008200000000006000000000000030100000300000033
:00000001FF
