:020000040800F2
:10C0000000C00020591801089118010871DB0008D0
:10C010000000000000000000000000000000000020
:10C020000000000000000000000000000000000010
:10C030000000000000000000000000000000000000
:10C0400000000000000000000000000000000000F0
:10C0500000000000000000000000000000000000E0
:10C0600000000000000000000000000000000000D0
:10C0700000000000000000000000000000000000C0
:10C0800000000000000000000000000093180108FC
:10C0900097180108000000000000000000000000E8
:10C0A0000000000000000000000000000000000090
:10C0B00000000000A5D00008000000000000000003
:10C0C0000000000000000000000000000000000070
:10C0D0000000000000000000000000000000000060
:10C0E0000000000000000000000000000000000050
:10C0F0000000000000000000000000000000000040
:10C10000000000000000000000000000000000002F
:10C11000000000000000000000000000000000001F
:10C12000000000000000000000000000000000000F
:10C130006420704707B54FF6FF7001A901F032F88F
:10C14000B0F5007F11D140F6B833019A9A4209D96F
:10C150001749184B196140F6AC518A4202D90122A5
:10C1600083F8782003B05DF804FB4FF6FF7001A957
:10C1700001F018F8B0F5407FF4D140F6B833019AD9
:10C180009A42EFD90C4800F0BEFB0C4900F0D2FBFC
:10C1900014210320F8F75AF80420F8F75BF8C1439C
:10C1A00011F40071F8D10320F8F750F8DAE700BF76
:10C1B00031C100080C300020F41F0108DC22010806
:10C1C0002DE9F0416D4C06460F469046014601228E
:10C1D00092B004F17C00FDF73BF9054640B10090B8
:10C1E000334641463846664A05F03AFE13250FE0CD
:10C1F00001467822204605F03CFC02AB3C2203A914
:10C2000004F17C00FDF726F9029B3C2B04D011259C
:10C21000284612B0BDE8F0814FF2E013BDF81020BF
:10C220009A42F4D1BDF8141011F001017CD02946D6
:10C23000544D04F17C00FDF70FF9069A02AB294634
:10C2400004F17C00FDF706F9079904F17C00FDF785
:10C2500003F9DDE907260699B61A02AB32462944EE
:10C2600004F17C00FDF7F6F8029BB342CFD1079BA7
:10C270000998C01A069B1844C0F50041284403F0F1
:10C280009FF9069B256020461D4404F17C0204F1C1
:10C29000A001A56005F0A8FA3A49384801F0BEFEB1
:10C2A0000646002867D1354803F078FD334803F08F
:10C2B000E5FD324803F07EFE304803F0B4FE2F481F
:10C2C00004F092F82D4804F0FDF82C4804F0FAF937
:10C2D0002A4804F0CBFB294804F0FEFB274804F071
:10C2E00083FD264804F0BAFD244804F018FE2348D4
:10C2F00004F0EEFE4FF0FF323146204802F0F3F832
:10C300000546002884D02368586A9A6AB3F90A104F
:10C31000121A92FBF1F21844B24219D14146384642
:10C32000194A05F09DFD73E7099BB3F5004F20D82E
:10C3300004F17C00FDF790F8039A02AB114904F177
:10C340007C00FDF787F8DDE902329A42A4D05EE76F
:10C350000446D4F800C00844BCF1000F07D162685D
:10C36000414613443846094A05F07AFD3EE7013656
:10C37000D2E710254CE705464AE700BF0C30002005
:10C3800002200108C03000203B2001081D200108C8
:10C3900010B5044604F0F7F820B92046BDE8104077
:10C3A00004F03EBD10BD652803D0642803D003F01F
:10C3B00087B8024870470248704700BF5E200108F6
:10C3C0007D2001082DE9F04F1046ADF5177D0D4693
:10C3D0000F68FFF7E8FF4FF4FA710346844A19A883
:10C3E00005F03EFD19AB1C1896AB9C4238BF191BDB
:10C3F0002B6E28BF00210193EB6D20460093AB69A3
:10C400007C4A05F02DFDB7F908300444DA070BD556
:10C4100096AB9C4238BF191B204628BF00212B6FCA
:10C42000754A05F01DFD044496AB9C4234BF191BB0
:10C4300000212046714A05F013FDB7F908100444A5
:10C4400011F002014DD196AB9C42204638BF191B1A
:10C450006B4A05F005FD002604444FF00108EB6926
:10C46000DFF8BCA1DFF8BCB10393284603A903F0B1
:10C47000CBFA074600285BD0002E45D00DF11009FD
:10C4800028234A4639460EA803F0D9F900283BD0A4
:10C4900096AB9C4238BF191B204628BF002143465B
:10C4A0005A46CDF8009005F0DBFC044428230DF13A
:10C4B0001009019329463B46039ACDF800900EA837
:10C4C00003F04EFA00282ED096AB9C4238BF191BC1
:10C4D000204628BF00214B464A4A05F0C1FC0444CF
:10C4E00021E0294648480EAA03F065F906460028CF
:10C4F00045D196AB9C422CBF0146191B2046434AAE
:10C5000005F0AEFC0444A8E796AB9C4238BF191B6B
:10C51000204628BF002143465246009705F0A0FC64
:10C520000444002EC2D108F10108B8F1040F9CD1D7
:10C5300019A805F0C4FA05460A2235490EA8FCF7E9
:10C5400087FF04AB2A4619A90EA8FCF78FFF0EA897
:10C55000FCF784FF049BAB4209D196AB9C4228BFF9
:10C56000002120462B4A38BF191B05F079FC2A48C8
:10C5700019A901F0C1F80DF5177DBDE8F08FB7F9E5
:10C580000830D5F81880DB0702D52B6F43EA08483E
:10C590000DF1100928234A4641460EA803F04FF931
:10C5A00058B196AB9C4238BF191B204628BF0021CA
:10C5B0004B461A4A05F054FC04442823CDE9009365
:10C5C00029464346EA690EA803F0CAF9074600283F
:10C5D0003FF443AF96AB9C4238BF191B204628BF9F
:10C5E00000214B46074A05F03BFC3E46044434E735
:10C5F00095200108B0200108D2200108C3260108B7
:10C60000ED2001085F210108883000202C2101085D
:10C610008621010890210108BD210108512101084E
:10C6200075210108662101082DE9F0410021C6B0FD
:10C630000320F7F70BFE704A7048936943F4804378
:10C64000936140F271226E4B1A8142F20C029A8180
:10C650006C4A136823F0F00343F0900313601368EF
:10C6600023F4706343F48063136005F054F9664B60
:10C67000664A0121136024209360F7F7E7FD00214B
:10C680000520F7F7E3FD624B62491B681A0C1204A0
:10C690008A423BD19BB2232B45D9FCF7B3FE4FF620
:10C6A000487000F069FD00275B4EA6F1A0053046FA
:10C6B00000F0D8FE4FF6FF7000F05EFD0020F7F7A7
:10C6C000A9FD0DF11C082E22002108A8079705F0EE
:10C6D000D0F9322241463046FFF772FD044628B3B6
:10C6E000FFF761FE3346C8214C4ACDE901080094AA
:10C6F00014A805F0B5FB14A805F093FB304605F02F
:10C7000090FB474814A900F0F7FFD0E74FF0FF3344
:10C710006621444A14A805F0A3FB434C204614A903
:10C7200000F0EAFFFAE76FF00103F1E74FF0FF34A2
:10C7300028463E4905AA059401F0B7FD00B10594CD
:10C740004FF0FF32284606A901F03EFF04460C2CAC
:10C7500029D08CB9059B01330ED02846FFF718FE6F
:10C7600000283FD12846059A06A901F02DFF002890
:10C7700038D1069B002BF0D1284603F03DFE284619
:10C7800004F088F9012C2FD1069B7BBB284B29484C
:10C790001A46194600F0F4FB4FF4804000F0ECFC20
:10C7A0000028F9D083E77822294614A805F056F925
:10C7B00000F006FDD5F85C80804414A8FFF7E8FD82
:10C7C000044600F0FDFC404507D2002CF5D078224D
:10C7D000284614A905F042F9B9E7002CF7D16FF00B
:10C7E0000102AFE70446C7E7002CCFD02246294616
:10C7F0000948FFF7E7FD5AE700100240CD21010884
:10C80000003801400408014010011010040000A08D
:10C81000009400080000170AAC30002050220108E4
:10C8200081220108D42101083A2201089522010839
:10C83000C42601089B220108F0B50025C600C710D8
:10C84000001200F0F8042846DFF854C0F6B207F0F2
:10C85000FC0751F82520D3004FEAD20EDBB2F31AC1
:10C860000EF0FC0E120A002BA7EB0E0E02F0F802DF
:10C87000A4EB0202B8BF5B42BEF1000FB8BFCEF11D
:10C88000000E002AB8BF5242734413446345B8BF38
:10C89000284605F10105B8BF9C46102DD9D1F0BD41
:10C8A0003F420F002DE9F04385B09846DFF8309005
:10C8B0000CAB174653F8042B05460E464846372165
:10C8C000039305F0BCFA0446434628463A463146EF
:10C8D000CDF80090F7F7B8FC204605B0BDE8F0832E
:10C8E000C0B0002000B58BB00146012201A8FCF7C2
:10C8F000AFFD30B901A8FCF7B1FD01200BB05DF828
:10C9000004FB0020FAE770B505460024084E2346D4
:10C910002A460D21304605F0A3FA3046FFF7E2FF24
:10C9200018B10134B4F57A7FF1D1014870BD00BF70
:10C93000F7B000202DE9F0438DB00C460A220146E5
:10C9400003A8FCF785FD054618B100200DB0BDE831
:10C95000F08301AB36222A4903A8FCF787FD019B2F
:10C96000362BF2D1261F04F13C0756F8043F02A9EA
:10C970001A0A22F007028DF80820DA0822F00302D2
:10C98000DB008DF809208DF80A30042201AB03A8E2
:10C990008DF80B50FCF76AFDBE42E6D10026002759
:10C9A0001FFA86F8BDB241462846F7F72FFCF7F785
:10C9B0005BFC2146FFF740FF013541468146A8B2A6
:10C9C000F7F724FCF7F750FC2146FFF735FF40EA64
:10C9D00009108DF80800012201AB02A903A8023753
:10C9E000FCF744FDB7F5C87FDCD10136F02ED6D177
:10C9F00003A8FCF733FDB0FA80F04009A6E700BFBA
:10CA0000A4220108002070472DE9FF4700230446B7
:10CA10000E4617464FF00A0A194DDFF86880ADF848
:10CA20000C3000EB01094C4503D1304604B0BDE8A1
:10CA3000F087032F1BD123780A2B8DF80C3008D0F8
:10CA400003AB00934FF6FF7200232988A888F7F7FD
:10CA5000FBFB6B680833B3F5C37F6B6002DA2378A6
:10CA60000A2B04D12B68C5F804A00E3B2B60B8F844
:10CA700000301B06FBD514F8013BA8F80430D2E7C0
:10CA800000300020003801402DE9F04787B21FFA3E
:10CA900081F81D4641463846DDF8209014460126AF
:10CAA000F7F7B4FB1FFA89FAADB2630709D5284638
:10CAB000F7F7AEFB01360F2E4FEA6404F5D1BDE85F
:10CAC000F087B9F1000F01DB5046F1E708EB0601F2
:10CAD000384689B2F7F79AFBECE703060AD40A4B0B
:10CAE0001A5C3AB1013A01EBC20103EB4101B1F822
:10CAF0008000704700F07F00202802D989B2F7F744
:10CB00008BBB0020704700BF1C2301082DE9F743B1
:10CB10001F469DF82C3005460C461646DDF8288049
:10CB200023B104F0CCFFC000A4EB500424EAE47469
:10CB300020463B4600223146CDF80080FFF7A4FF97
:10CB40000134013D15F8013F13B903B0BDE8F0838E
:10CB50004FF0000949462878FFF7BFFF3B460246E1
:10CB6000314609EB0400CDF8008009F10109FFF717
:10CB70008BFFB9F1080FEDD10834E3E72DE9F04F51
:10CB800095B003921A46002BB8BFDA1D9DF884A019
:10CB9000B2F5F07F4FEAE20904460E4628BF4FF097
:10CBA0003B09DDF87880BAF1000F03D003EBD373B3
:10CBB00001EB63060027BB46237813B1B8F10D0FD4
:10CBC0002DDC384615B0BDE8F08F625D42B10A2A0F
:10CBD00006D0202A08BF2B460135A945F5D11D46B0
:10CBE00021462A4605A804F039FF14AB2B4403F86C
:10CBF0003CBC039A209BA8F10E08009331461F9B72
:10CC0000CDF804A0424405A82C44FFF77FFF237809
:10CC10000A2B01D0202B00D101340137CCE74B4641
:10CC20000025DAE7E02A10B514DCC02A08DD41F659
:10CC3000E30303EAE002801A03EAE101084409E0A1
:10CC400043F6E713802A03EAA00403EAA10302DD06
:10CC5000001B184410BD402A06DD47F6EF3303EAF7
:10CC6000600003EA6101E9E7202ACABF60180846AC
:10CC7000C01AEFE738B59CF804301546644613B186
:10CC8000034608461946C1F30F21C0F30F20F7F7FA
:10CC9000BDFAF7F7E9FA2A4601462068FFF7C2FF16
:10CCA000BDE8384080B2F7F7B3BA2DE9F04F85B050
:10CCB0000EAC03940E9C171201941C1206120A1259
:10CCC000A7EB2020A4EB212180EAE07581EAE17343
:10CCD000A5EBE075A3EBE1739D4268DB00238DF8C3
:10CCE00008300B460146184623463C461F4613466D
:10CCF00032461E46A24205DD33463E461F461346D7
:10CD000022461C46000290FBF1F502F1800929F051
:10CD1000FF08A8EB02026A4348BFFF3206EB222657
:10CD20005FFA86FB5FFA89F9C9F58079CBF58072E5
:10CD300009FB02F226F0FF0A514640460DF1040CB1
:10CD40001212FFF797FF09FB0BF240460AF58071BC
:10CD50000DF1040C1212FFF78DFF04F1800222F096
:10CD6000FF09A9EB04046C4348BFFF3407EB2424FC
:10CD700024F0FF0AE4B2D7B2C4F580727A437C4350
:10CD8000514648460DF1040C1212FFF773FF484656
:10CD90000DF1040C220A0AF58071FFF76BFF2E4497
:10CDA00008F10108C84506DB05B0BDE8F08F012396
:10CDB0008DF808309EE726F0FF04F7B24046214682
:10CDC0000DF1040CC7F58072FFF754FF40463A4658
:10CDD0000DF1040C04F58071FFF74CFF2E4408F5AB
:10CDE0008078DFE72DE9F04F9946131AA9EB010788
:10CDF000002F83EAE37BB8BF7F42ABEBE37B824249
:10CE0000CCBF01234FF0FF3387B001938945CCBFDE
:10CE100001234FF0FF339046012204460D464FF0A8
:10CE2000000A0293119BABEB0706013B02FA03F3E6
:10CE3000BDF8402003927A42119911B11AEA030F0A
:10CE40000AD0A9B2A0B2CDE90432F7F7DFF903980E
:10CE5000F7F7DEF9DDE90432444501D14D4510D044
:10CE6000B2EB460F4FEA460105DA0199F61B0C4476
:10CE70000AF1010AE0E78B45C2BF02995E446D18D2
:10CE8000F6E707B0BDE8F08FF8B5044615188EB286
:10CE90009FB2AC4202D1F7F7C3F9F8BDA0B2314658
:10CEA000F7F7B4F9394606A8F7F7BEF90134F0E709
:10CEB0002DE9F7430D46DDE90A891C460746861829
:10CEC0002C440B463246CDE90089FFF78BFF234601
:10CED000324629463046CDE90089FFF783FF2346D5
:10CEE0003A4621463046CDE90089FFF77BFF2B46C5
:10CEF0003A4621463846CDE90A8903B0BDE8F043F9
:10CF0000FFF770BF2DE9F84F0F46002106460C468B
:10CF10009DF82C500A98814210DBB4FA84F405B1D4
:10CF200064084FF0010B0A99C4F12004013C551824
:10CF30001FFA83F8631C1DD1BDE8F88F56F8210055
:10CF400001310443E6E756F82A201BEA020F08D015
:10CF5000A5EB0A01484689B2F7F758F94046F7F7BA
:10CF600057F90AF1010A0A9B9A45ECDB013C4FEAAA
:10CF70004B0BDFE73B194FF0000A1FFA83F9F2E78A
:10CF80002DE9F04381468DB08846042001211646E4
:10CF90001D46F7F75BF94FF460534FF4C872DC217C
:10CFA000002000931423FFF76FFF00244FF4F04795
:10CFB000DC2320461946CDE900744FF4C872FFF710
:10CFC00011FFF0232046CDE900744FF0FF34012714
:10CFD00019464FF4C872FFF705FF4FF6FF73DE22C4
:10CFE00014214846CDE90047FFF790FD4FF6FF7347
:10CFF000DE2257214046CDE90047FFF787FD304646
:10D000004FF6FF73DE229B21CDE90047FFF77EFD3F
:10D010004FF6FF73DE22E0212846CDE90047FFF7F7
:10D0200075FD0620F7F716F906461B4D02AC0FCD2D
:10D030000FC40FCD0FC495E80300A6F6AC536FF0F4
:10D04000180693FBF6F384E80300144A14491433DA
:10D0500023EAE373994002FA03F302AA104621F08F
:10D060007F4123F07F43546802370C435460946837
:10D07000092F44EA030442F8084FF4D10A2300229E
:10D080004FF4B971CDE900324FF6FF73E022FFF79C
:10D0900039FF0DB0BDE8F0839C24010858555500B8
:10D0A000A8AAAA00684620F007018D46002219B5FB
:10D0B0002A4B2B4C1A822368042001332360F7F794
:10D0C000C9F84FF6487383436FEA000106D022681F
:10D0D0006068121A0A2A2FD822686260E2689A42AF
:10D0E0001EBFE36023682361236822699B1AB3F59E
:10D0F000967F03D948F608420A400ED16369002B97
:10D1000005DD6369013B63616369002B18DDFFF78F
:10D1100011F8BDE81940854670471249A3F596738A
:10D1200001FB03F301F180410139B1EBB30F22BFE1
:10D13000A3681A43A260E1E7A2681A43A260CBE7A2
:10D1400003200021F7F782F8C722074B1A85FEF764
:10D15000F1FFBDE819408546704700BF000400405C
:10D1600004B10020295C8FC200340140014B9B6850
:10D170001840704704B1002000B5C143BFF35B8F76
:10D18000074B53E8002F02EA010C43E800CEBEF142
:10D19000000FF6D1BFF35B8F10405DF804FB00BFBA
:10D1A0000CB1002030B5054B1D69DC681A69AA4234
:10D1B000FAD11B6820409B1A0B6030BD04B10020DF
:10D1C000014B1868704700BF04B10020034B196879
:10D1D0001A68521A8242FBD3704700BF04B1002084
:10D1E00010B504460320F7F731F8014B5C6110BD20
:10D1F00004B1002007B54FF6FF7001A9FFF7D2FF79
:10D20000019AB2F5FA7F1CD342F210739A4288BF9A
:10D21000019301980C49000404F045F804F0F6F974
:10D22000002806DB00F500400014013003B05DF873
:10D2300004FBB0F5004044BF00F57F40FF30001410
:10D24000F3E70120F2E700BF00007B0803461A461F
:10D2500013F8010B38B12E28F9D1537843F020038D
:10D26000612B01D000207047937843F020036D2B91
:10D27000F8D1D07840F02000A0F17803584258410E
:10D2800070472DE9F0410E461546044602F10908A3
:10D2900014B90120BDE8F081002729463046FCF78B
:10D2A000E1F858B9687A0028F4D04046FFF7CEFF7D
:10D2B00000B101370C2FF0D1013CE9E70020E9E78C
:10D2C0002DE9F04F0446B9B000200F46F6F7A2FF53
:10D2D000524B534A53495448FFF752FE534911A841
:10D2E000FCF7BEF820460BAA11A9FFF7CAFF0346B8
:10D2F000002840F084804E4A014600924FF6FF72AB
:10D30000FFF7D0FA39B0BDE8F08F9DF83530002B2B
:10D3100062D00DF13500FFF799FF002853D010229D
:10D3200007A8CDE9051104F0A4FB142305AA009376
:10D3300018A906AB0DF1350000F075FA002868D089
:10D34000059B002B65D018AD9DF8183083B90DF101
:10D35000350306AA0DF13D0C1646186859680833C6
:10D3600003C663453246F7D1186830601B793371C4
:10D370004FF0640A6FF045064FF0010BA31004F064
:10D38000030903FB06660AFB09F9059B284600937F
:10D3900006F1FA024FF6FF7309F12201CDF804B04D
:10D3A000FFF7B0FD4FF6FF730022CDE901321C23D9
:10D3B00049460093CDF80CB0534606F1DE0206A8AC
:10D3C000FFF7DCFB5C440C2C06D00BA911A8FCF782
:10D3D00049F80146002898D00BA911A8FCF742F89B
:10D3E00088B13C60002C8DD101236422CDE900433B
:10D3F000C8214FF6FF730F48FFF788FB82E7002430
:10D40000DFF83480DFE79DF83530002BE9D00134B8
:10D41000E7E71C234546059396E700BFC4240108AF
:10D42000C4260108CA240108D2240108D624010810
:10D43000D8240108EE240108FC2501086FF04503FB
:10D4400013B58410642204FB0334002300F00300AE
:10D45000CDE900135043442304F1DB01FFF728FD1D
:10D4600002B010BD00232DE9F0430646012591B01E
:10D47000644C0293644F4FF48040FFF77DFED8B1B7
:10D48000D4F80090B9F1000F16DB6568394609A899
:10D49000FBF7E6FF284603AA09A9FFF7F2FE0546B7
:10D4A000002840F08180594B4FF6FF7200930146EF
:10D4B0000346FFF7F7F901254FF40050FFF75CFE34
:10D4C00000284FF4007018BF0125FFF755FE20B16A
:10D4D0004F49504800F010F9012548F60840FFF781
:10D4E00045FE002849D02068002802DB0021FFF714
:10D4F000A5FF4FF48060FFF73FFE10B12368043BA7
:10D5000023604FF40060FFF737FE10B12368043347
:10D5100023600820FFF730FE10B12368013B236031
:10D520004FF40040FFF728FE10B123680133236059
:10D530002368002B0ADA6068002860DD013802A940
:10D540006060FFF7BDFE23680C3323602268029BF6
:10D550009A420BDB0B2BC1BF012563680C3A0133E8
:10D56000D3BF03F1FF33636022602360206800288B
:10D5700003DB4FF61041FFF761FF002D3FF47BAF57
:10D58000606802A9FFF79CFE2068002803DB4FF6C5
:10D590001041FFF753FF029B226800259A42FFF6D5
:10D5A00069AF013B236065E74FF0000803A909A8B4
:10D5B000FBF758FF00287FF47FAF9DF81530002B54
:10D5C0003FF47AAF0DF11500FFF740FE08B108F106
:10D5D0000108C145EADA10480DF1150104F021FCFB
:10D5E0000DF115030DF1210253F8041B934246F887
:10D5F000041BF9D11B78337011B0BDE8F083002310
:10D60000A3E700BF1CB10020D6240108D8240108DC
:10D610002B250108EB2501081E2501082DE9F04105
:10D620000F4616461D46804686B04FF6FF70FFF740
:10D63000A3FD0020F6F7EEFD2B4632463946404664
:10D64000FFF79EFC0024C8234FF6FF722146CDE968
:10D650000032CDE902444FF4C87322460C98FFF71C
:10D660008DFA98F800308DF810401B1B18BF01236D
:10D670008DF811303B781B1B18BF01238DF8123039
:10D6800033781B1B18BF01238DF813302B781B1B1D
:10D6900018BF01238DF814304FF48040FFF76CFD64
:10D6A00004464FF40050FFF767FD18BB003C18BF5D
:10D6B00001244FF48070FFF75FFD00284FF40070E5
:10D6C00018BF0324FFF758FD002818BF042406AB39
:10D6D000234413F8083C002BDED0002CDCD00020C3
:10D6E000F6F798FD4FF6FF70FFF746FD204606B0AF
:10D6F000BDE8F0810224DCE707B5054B0246009146
:10D7000004481946FFF78AFF03B05DF804FB00BF29
:10D71000DC2D01089B2201082DE9F043984643893E
:10D720000546072B0C469146B0F90A608BB001D82C
:10D73000002071E0D0E908239B1A93FBF6F600273E
:10D74000BE42F5DD2B6AB5F90A10204607FB013110
:10D75000FBF782FE01AB0822204603A9FBF77AFE05
:10D76000019B082BE4D104992046FBF775FE142297
:10D7700020460DEB020101ABFBF76CFE142249467B
:10D780000DEB020004F0B8F9002848D12B89039969
:10D79000DA070CD5AB6B204603EBC101FBF75CFE4F
:10D7A00002A90422204601ABFBF754FE029900298E
:10D7B000BEDBEB6820461944FBF74EFE142504221D
:10D7C000204603AB05A9FBF745FE013DB0D3059B01
:10D7D000092BF4D103AB042241462046FBF73AFE65
:10D7E000039B042BA4D10422204603AB05A9FBF71D
:10D7F00031FE002D9CD0059B402B03D0012DA5F1BF
:10D8000002030EDC03AB042220461299FBF722FE32
:10D810000398031F584258410BB0BDE8F08301370D
:10D820008EE71D46DFE72DE9F0419EB0884616469B
:10D830000146012206A81C46249FFBF709FE90B969
:10D840003C2202AB0DEB020106A8FBF703FE029B94
:10D850003C2B05D14FF2E013BDF840209A4204D092
:10D8600006A8FBF7FBFD002042E003AD244A00952B
:10D8700004AB06A90FA8FFF74FFFB8B1039A13999D
:10D880001346002AB8BFD31C842A4FEAA303A8BFBB
:10D8900020233360049B06A81944FBF7DDFD3268A2
:10D8A000414602AB920006A8FBF7D4FD154A00954D
:10D8B00005AB06A90FA8FFF72FFFA8B1059B139989
:10D8C00006A81944FBF7C8FD214602AB3A4606A854
:10D8D000FBF7C0FD231FC4F10701CA1897420ADCF9
:10D8E00000233C4404F8013C06A8FBF7B7FD0120E7
:10D8F0001EB0BDE8F08153F8042F12BA1A60ECE7AD
:10D900006C2601087D26010873B51B4B1B4E03F1E5
:10D91000100506F14002144618685968083303C41C
:10D92000AB422246F7D118681B792060237100248E
:10D93000134DC6F855400A2212496C6005F10B00E0
:10D94000C5F80740FBF784FD4FF440424FF000510B
:10D9500001AB05F10B00FBF789FD05F10B00FBF7AF
:10D960007DFD30B90198A0F540435842584102B0BE
:10D9700070BD2046FBE700BF1E28010824B100202F
:10D9800079B100208E26010870B5044686B00021CA
:10D99000102202A804F06DF8002320460F49104C15
:10D9A000104D88420DD250F8042BA24207D3AA4250
:10D9B0009FBF06AE06EB830646F8102C0133042BFE
:10D9C000EFD1059B08490193049B03200093DDE9F7
:10D9D000022304F019FA06B070BD00BF00C0002099
:10D9E00030C10008F41F01089926010805460C46BD
:10D9F00080B51F2000AFF6F70DFC00210320F6F7DD
:10DA000025FC2A460B49032004F0FEF90A49224668
:10DA1000032004F0F9F93846FFF7B6FFFFF774FF6B
:10DA2000032118B1054803F069FFFEE7044803F03D
:10DA300065FFFAE7BB260108C5260108D4260108C0
:10DA4000F6260108744600B591B0CDE900200B46DA
:10DA5000044A322103A804F003FA214603A8FFF781
:10DA6000C5FF00BF0B270108684620F007018D465F
:10DA700000B51F2083B02F4CF6F7CCFB002103200C
:10DA8000F6F7E4FB0323122201212B4803F02CFFBD
:10DA9000D4E90E23294900920320626B04F0B4F903
:10DAA00027482849C26A836A806B0090032004F0EB
:10DAB000ABF9D4E902322449CDE90032D4E900239C
:10DAC000032004F0A1F9D4E906322049CDE900325F
:10DAD000D4E90423032004F097F9D4E908231C496E
:10DAE000032004F091F9D4E90B321A490092032083
:10DAF000A26A04F089F91849184B0968184A1B688A
:10DB0000126803200091174904F07EF9606BFFF75B
:10DB10003BFFFFF7F9FE032328B121220121124820
:10DB200003F0E2FEFEE714220121104803F0DCFEC0
:10DB3000F8E700BF24B10020242701083827010896
:10DB400000ED00E0542701087C270108A427010804
:10DB5000CC270108E027010808B8002004B80020FD
:10DB600000B8002000280108D4260108F626010884
:10DB7000114BEFF308821C615D619E61DF61C3F8A8
:10DB80002080C3F82490C3F828A0C3F82CB01168F3
:10DB9000C3F8842019605168596091689960D16810
:10DBA000D9601169196302F12001596351699963C0
:10DBB0009269DA63FFF758FF24B1002070B504467C
:10DBC00000681546B0F90A20466A01FB0202E16EC0
:10DBD000965949B1A2696068043A1044226B120553
:10DBE00048BF043840E901160020194684F8540063
:10DBF00084F8550084F8560084F857002046B04752
:10DC00002860606D70BD70477047002310B50B80B1
:10DC100090B102684FF2E010948884420CD1907960
:10DC20000B280BD8D0790A2808D9107A527A40EA02
:10DC3000022218460A8010BD1120FCE71220FAE7E4
:10DC40002DE9F74F0446026B036842F480420263F9
:10DC500001A96A46D3F814901E69D3F818A000F001
:10DC600047FE019DE06EA9EB0606AAEB0907002D11
:10DC700037D0D5F82C3198423AD0D5F83031984287
:10DC80000CBF022000200023DDF8008084F86C30F7
:10DC900084F86D3084F86E3084F86F30A9EB0A0C8C
:10DCA000626F9A4226DC421E012A236B0BD899042C
:10DCB00009D4002D00F0AD8101280CBFD5F82C212E
:10DCC000D5F83021E26610F0020023F480430DBF46
:10DCD00043F4004343F408430020236318BF236345
:10DCE0002DE14B2804D04C2814BF00200220CAE7A5
:10DCF0000120C8E76268194652F803E002EB030A04
:10DD0000F04505DC236B062023F48043236316E1F2
:10DD100035B155F82E90B9F1000FF3D0CAF8009044
:10DD20000433BEF17B0FEDD80FF2040959F82EF041
:10DD3000A1DC000877DF000877DF000887DF000834
:10DD400087DF000887DF000887DF0008A1DC000804
:10DD500081DF000881DF000881DF000881DF000823
:10DD600081DF000877DF000887DF000887DF000811
:10DD7000A1DC000881DF000881DF000881DF0008E6
:10DD800081DF0008A1DC0008A1DC0008A1DC00089C
:10DD9000A1DC0008A1DC0008A1DC000881DF00088C
:10DDA00081DF000881DF0008A1DC0008A1DC000899
:10DDB000A1DC000893DF000893DF000893DF000870
:10DDC00093DF0008A1DC0008A1DC0008A1DC00084A
:10DDD00081DF000881DF0008A1DC0008A1DC000869
:10DDE000A1DC0008A1DC0008A1DC0008A1DC00081F
:10DDF000A1DC0008A1DC0008A1DC0008A1DC00080F
:10DE0000A1DC0008A1DC0008A1DC0008A1DC0008FE
:10DE1000A1DC0008A1DC0008A1DC0008A1DC0008EE
:10DE2000A1DC0008A1DC0008A1DC0008A1DC0008DE
:10DE300081DF000881DF000881DF000881DF000842
:10DE400081DF0008C9DF000893DF0008A1DC0008BB
:10DE5000A1DC0008A1DC0008DDDF000805DD00080A
:10DE600005DD0008AFDF0008B3DF0008A1DF000810
:10DE7000BFDF0008A1DC000881DF0008A1DC00088A
:10DE800081DF000881DF000877DF000887DF0008F6
:10DE900081DF000881DF000887DF000881DF0008DC
:10DEA00093DF000893DF000893DF000893DF00088A
:10DEB00093DF000893DF0008A1DC0008A1DC000864
:10DEC00081DF000881DF0008A1DC0008A1DC000878
:10DED00081DF000881DF000881DF000881DF0008A2
:10DEE00077DF000887DF000877DF000887DF00089A
:10DEF000D3DF000821DF000821DF000821DF000850
:10DF000021DF000821DF000821DF000821DF0008F1
:10DF10002BDF000857DF00086FDF000873DF000801
:10DF2000D258013203EB8203BAE6D358002B01DB4F
:10DF30009E4207DC0420236B23F48043236303B059
:10DF4000BDE8F08F0A449368002BF3DB9E42F1DDBD
:10DF500001F10C03A4E6D3589C45EBDC9F42E9DBBE
:10DF60000A4493689C45E5DC9F42F1DAE2E7D35826
:10DF7000EAE7D358F6E7D358002BDBDB9E42D9DD26
:10DF800001F108038CE6D3589C45D3DC9F42F7DAB5
:10DF9000D0E7D2581344043BCCD4626F9A42F6E7E0
:10DFA000D2581344043BC5D4626F9A42C2DB01F1DC
:10DFB00008036269002A7FF473AE1C20BFE7D358C0
:10DFC00001EBC3030C33F4E701F1080340F0010057
:10DFD00066E601F10C0340F0020061E652F803909E
:10DFE00001F108039E464FF0000ACA4503DD03EB2A
:10DFF000C903043354E652F80E107144043999D41D
:10E00000D4F874B00EF1080E8B4593DB0AF1010AC7
:10E01000EBE701280CBF4B224C2253E670B50546B6
:10E02000006B0C4606045CD44FF2E0138A889A42D7
:10E030005BD18B790B2B56D8CB790A2B53D9B1F9FD
:10E040000A30082B51D14B6BCB5A1F2B4DD88B6903
:10E05000002B4ADD2960096962695B1A043BEB62A7
:10E06000AB62EB68521A6A622A620BB9214BEB6011
:10E070006B6813B9E36823446B606B6F13B9E36893
:10E08000CB1A6B67AB68C3B1800606D4686920B948
:10E090001846214403F0E2FC03460026A2692169E8
:10E0A000521A134443F8046CB4F90830DB0706D461
:10E0B0002846BDE87040FFF7C3BD6318EDE76B6904
:10E0C000ABB1636BA26B9B1AB6EBD30F01DB0020E5
:10E0D00006E0314628466B69984701360028F0D0A3
:10E0E00070BD1620FCE71220FAE71120F8E71C208B
:10E0F000F6E700BFBDDB000818207047002070471E
:10E1000070B50B4604461046B9B394B30E6B320497
:10E1100031D54FF2E01209688D8895422DD18A7968
:10E120000B2A2CD8CA790A2A29D921605A68626038
:10E130005A6F62670D694A69521B6262896922627D
:10E14000491B0439E162A162E16809B9D968E1605B
:10E15000216909B9196921612663A060996809B923
:10E160001968294403F07AFC0020A268E36AD050C1
:10E1700070BD1920FCE71620FAE71120F8E71220FD
:10E18000F6E770B5D0B14FF2E0150468A688AE424C
:10E1900014D1A5790B2D13D8E5790A2D10D909B121
:10E1A000406F08601AB161692069091A11604BB1AA
:10E1B0000020A2696169521A1A6070BD1120FCE743
:10E1C0001220FAE71846F8E7036800205A6B9B5ABA
:10E1D0000B6070470268506A936AB2F90A201B1AF2
:10E1E00093FBF2F300200B60704770B503685E6A22
:10E1F0009C6AB3F90A50A41B94FBF5F48C4209DD28
:10E200001E4401FB056569681046194403F04FFC84
:10E21000002070BD1420FCE7F0B58BB00F4601A9BB
:10E22000064615460024FFF7D5FF019BA34204DCF8
:10E230006FF0004313202B600AE02146304602AA0B
:10E24000FFF7D3FF394602A803F026FC10B92C6073
:10E250000BB0F0BD0134E8E70268106A536AB2F906
:10E260000A201B1A93FBF2F300200B60704770B575
:10E270001C460368186A5E6AB3F90A50361A96FBA0
:10E28000F5F68E420DDD01FB05051D4422B16968DE
:10E290001046194403F00BFC2CB100202B682360BE
:10E2A00070BD1420FCE72046FAE72DE9F041002676
:10E2B0008AB0884601A907461546FFF7CDFF019BA6
:10E2C000013B0193019CB44204DA6FF00043132038
:10E2D0002B6014E0344464100023214602AA38461F
:10E2E000FFF7C5FF414602A803F0D6FB002802DD78
:10E2F000013C0194E6E701D0661CE3E72C600AB01C
:10E30000BDE8F0810268D06A136BB2F90A201B1ACB
:10E3100093FBF2F300200B6070472DE9F0410646B5
:10E32000356898462F6BEB6AB5F90A40FF1A97FBE0
:10E33000F4F78F42104612DD01FB04342C4461686F
:10E34000294403F0B4FBB26812B932682B691A444D
:10E35000002023681A44C8F80020BDE8F08114208A
:10E36000FBE72DE9F04100258AB00F4601A90646DA
:10E370009046FFF7C7FF019B013B0193019CAC4214
:10E3800006DA00231320C8F800300AB0BDE8F08197
:10E390002C4464104346214602AA3046FFF7BDFFD5
:10E3A000394602A803F078FB002802DD013C019405
:10E3B000E4E7EAD0651CE1E710B502689379042B25
:10E3C00003D8002312200B6010BD062B146B94BFE2
:10E3D000D368536BB2F90A001B1B93FBF0F30020C8
:10E3E0000B60F1E7F8B505681F46A879042804D842
:10E3F0000023122013703B60F8BD062894BFEE681E
:10E400006E6B2B6BB5F90A40F61A96FBF4F68E424A
:10E410000BDD01FB04342C4461681046294403F0F1
:10E4200046FB236800203B60E6E71420E4E72DE983
:10E43000F34100268846694607461546FFF7BCFFAC
:10E44000009B013B0093009CB44205DA002313209B
:10E450002B7002B0BDE8F0813444641001AB2A4651
:10E4600021463846FFF7BEFF019B434502DD013CD4
:10E470000094E8E701DA661CE5E70020E9E70023FD
:10E4800010B503F10C0400EB840464688C4206D1DF
:10E49000103300EB83035B680020136003E001335B
:10E4A000042BEED1172010BD002310B503F10C048E
:10E4B00000EB840464688C4205D100EB8300416367
:10E4C000426400200EE00133042BEFD1002303F15E
:10E4D0000C0400EB84046468002CEED00133042BA0
:10E4E000F5D1142010BD2DE9F04F0026D0F80080A2
:10E4F0009246D8F82440D8F82830B8F90A201B1BD7
:10E5000093FBF2F307468946B34685B00093444433
:10E51000009B9B4508DB1EB93B6B43F480533B6378
:10E52000304605B0BDE8F08F2568FDB9B9F1000FA0
:10E5300017D06368434409EBC501019159F83510C0
:10E5400079B1AA4502DCBAF1FF3F0AD1184603921D
:10E55000029303F0A1FADDE9023220B9019B5B6866
:10E560001BB9132602E00135E5E7236014440BF1E3
:10E57000010BCDE7024B186059601846704700BF89
:10E58000ACB1002010B5036A826A3F3393420CDAC3
:10E59000836813B903681C692344846D043A013409
:10E5A000826284650020995010BD0320FCE78368D7
:10E5B00013B903681A691344C91AC36A8B4201D993
:10E5C000FFF7E0BF052070472DE9F8439046026B46
:10E5D000044613040F466DD5C368002B6CD012F4AB
:10E5E0008055036875D1596A986AB3F90A60401A70
:10E5F00090FBF6F01944854268DAD1F800C0BCF10E
:10E60000000F02D11320BDE8F88331440135F2E751
:10E6100018F1020F3DD19A6B5B6B656E9A42A66E44
:10E6200005D020466369216F98470028EBD1A36A83
:10E63000E26A934244DC216A626A914242DB18F149
:10E64000020F15D0A26D043B9100A36249F803109C
:10E65000002305EB8205A26A84F85830043A84F856
:10E66000593084F85A3084F85B30A26249F802309D
:10E67000236AA26A3F33934226DA4A463946204645
:10E6800000F042F90C2807BF6566A666A5622662FF
:10E69000B9E7B8F1000F11DB186A5A6AB3F90A102A
:10E6A000121A92FBF1F2424508DD184408FB010101
:10E6B000096827E01620A6E70920A4E71420A2E7AE
:10E6C0000720A0E708209EE703209CE742F4805241
:10E6D0002263D4F80890B9F1000F02D1D3F810905A
:10E6E00099440022B8F1FF3FA56A266A84F85420B5
:10E6F00084F8552084F8562084F8572088D1D969A9
:10E700009142DBDBA1619A6B5B6B9A428FD0204612
:10E7100063692167984700287FF475AF207660769B
:10E72000A076E07683E7C160002070470161002099
:10E73000704741650020704770B5836813B903685E
:10E740001C692344066A846A8D00A41BA4EB810122
:10E750003F2906D90AB133441360AB190362002084
:10E7600070BD1020FCE72DE9F0410D4617460A4622
:10E77000194604461E46D0F82080FFF7DDFF50B949
:10E7800039462868B20003F069F941462046BDE8E1
:10E79000F041FFF7F7BEBDE8F081836813B9036865
:10E7A0001A691344C91A036A8B42C8BF0162002068
:10E7B0007047002310B520B100F16042B2F5803FF0
:10E7C00002D919200B6010BD42F2107283F00304CD
:10E7D000045D14B101339342F8D100200B60F2E7DD
:10E7E0002DE9F041074608468846154603F067F9CB
:10E7F000069E0446FDB16FF060439E4205D2B30011
:10E80000B0EB860F28BF03F1FF34002224F003038E
:10E81000FA5041462246384603F020F924F003041A
:10E820003C442246236897421BBA44F80439F8D185
:10E830000020BDE8F0816FF000439E4202D2B0425A
:10E8400000D3741EAC4203DC002347F82430EFE70A
:10E8500018F8053047F825300135F3E72DE9F3477F
:10E860009846054610460E461746DDF8289003F0F8
:10E8700026F9B8F1000F16D1441C3246214628462D
:10E88000D5F820A0FFF758FF80B939464B464246DD
:10E8900030680094FFF7A4FF5146284602B0BDE857
:10E8A000F047FFF76FBE041DA408E6E702B0BDE81D
:10E8B000F08730B5A1B101F16042B2F5803F0FD8C9
:10E8C0000022013B9342054607D922F0704484F0B0
:10E8D00003040C5D00F8014B34B90020287002E0FD
:10E8E00000230370192030BD0132EBE760280108D6
:10E8F0005FF8080008604FF4F8704FEA900010606D
:10E900004FF00000F74600BF2DE9F05F4DF8081DFD
:10E9100082461546DAF85C00DAF86010DAF82C2046
:10E92000DAF82030DAF81840DAF82860DAF81C70E3
:10E93000DAF80480DAF874902A442B442E442F44E9
:10E9400044445FF858E054F804FB54F804FB54F8CE
:10E9500004BB55F80B0054F804FB54F804BB55F8FD
:10E960000B1054F804FB54F804BB57F80B0054F890
:10E9700004FB54F804BB57F80B1054F804FB54F88C
:10E9800004BB57F80BB055F80B0054F804FB54F8CF
:10E9900004BB57F80BB055F80B1054F804FB00EB10
:10E9A000050C944580F02981634598BFB445C0F0BB
:10E9B0002481DCF8000054F804FB00EB050C9445BE
:10E9C00080F01B81634598BFB445C0F0168154F8B0
:10E9D00004BB9BF0010F08BF9CF800009BF0020FE6
:10E9E00008BFBCF800009BF0040F08BFDCF8000073
:10E9F00054F804FB54F8040B54F804FB54F8041BBB
:10EA000054F804FB54F8040B3844A0EB050054F808
:10EA100004FB54F8041B3944A1EB050154F804FB32
:10EA200054F804BB45F80B0054F804FB54F804BB3D
:10EA300047F80B0054F804FB54F804BB57F80BB02C
:10EA400045F80B0054F804FB01EB050C944580F0ED
:10EA5000D480634598BFB445C0F0CF80CCF80000A7
:10EA600054F804FB01EB050C944580F0C680634527
:10EA700098BFB445C0F0C18054F804BB9BF0010FAF
:10EA800008BF8CF800009BF0020F08BFACF8000034
:10EA90009BF0040F08BFCCF8000054F804FB54F8B6
:10EAA00004BBDBF1040B88BF80EA0B0054F804FBC5
:10EAB00054F804BB9BF0000F08BF40469BF0010FC9
:10EAC00008BF28469BF0020F08BF581B9BF0030F9E
:10EAD00008BF501B9BF0040F08BF701B9BF0050F75
:10EAE00008BF781B9BF0060F08BFA4EB080054F882
:10EAF00004FB54F804BB9BF0020F08BF43199BF0C2
:10EB0000040F08BF46199BF0050F08BF47199BF07B
:10EB1000060F08BF00EB080454F804FB83460846C0
:10EB2000594654F804FB46F8040D54F804FB46F823
:10EB3000041D54F804FB00EB050B46F804BD54F823
:10EB400004FB56F8040B54F804FB56F8041B54F865
:10EB500004FB54F804BB56F80B0054F804FB54F8BB
:10EB600004BBA6EB05015E4403F1400CB44584BF31
:10EB70004FF0030B00F08ABC964284BF4FF0070BA6
:10EB800000F084BC54F804FB54F804BBA3EB05016B
:10EB90005B4403F1400CB44584BF4FF0030B00F01D
:10EBA00075BCDAF824C063453CBF4FF0080B00F099
:10EBB0006DBC54F804FB46F8047D374603F1400C65
:10EBC000B44584BF4FF0030B00F060BC54F804FB65
:10EBD00056F8047B56F8044B4C450ED2444454F886
:10EBE00004FB56F8047B56F8044B4C4505D24444CC
:10EBF00056F804BB5E4454F804FB4FF0050B00F0DC
:10EC000045BCA4EB080B0BF1040B46F804BD54F80B
:10EC100004B95C4454F804FB54F804B95C4454F857
:10EC200004FB002806BF54F804B95C44043454F8CB
:10EC300004FB00281ABF54F804B95C44043454F8A7
:10EC400004FB00FA01F054F804FB002988BFC84017
:10EC500054F804FB002988BF084154F804FB54F819
:10EC600004BB00FA0BF054F804FB54F804BB01FA9F
:10EC70000BF154F804FB83460BFB01F054F804FB42
:10EC800090F0000F04BF4FF00B0BFFE3834691FBA6
:10EC9000F0F000FB1B1105D091EA0B0C02D5594492
:10ECA000A0F1010054F804FB084454F804FBA1EB64
:10ECB000000054F804FB00EA010054F804FB40EAA9
:10ECC000010054F804FB80EA010054F804FB90F0C2
:10ECD000000F0CBF0120002054F804FBC0F100001D
:10ECE00054F804FB6FEA000054F804FB88420CBFA0
:10ECF0000120002054F804FB884214BF01200020AA
:10ED000054F804FB8842B4BF0120002054F804FBEF
:10ED10008842D4BF0120002054F804FB8842CCBFB5
:10ED20000120002054F804FB8842ACBF01200020E1
:10ED300054F804FB00F1010054F804FB01F1010157
:10ED400054F804FB55F800C00CF1010C45F800C064
:10ED500054F804FBA0F1010054F804FBA1F10101F7
:10ED600054F804FB55F800C0ACF1010C45F800C0A4
:10ED700054F804FB54F804BBABF1010B00EB050C99
:10ED80009445BFF43AAF634598BFB445FFF435AF3F
:10ED9000DC449445BFF431AF634598BFB445FFF4FC
:10EDA0002CAF01EB050C9445BFF427AF634598BF2A
:10EDB000B445FFF422AFDC449445BFF41EAF634575
:10EDC00098BFB445FFF419AF0BF1010B4DF8040DDA
:10EDD0004DF8041D28442944BBF1040BA4BF50F88E
:10EDE00004CB41F804CBF7DCBBF1010BA4BF10F856
:10EDF00001CB01F801CBF7DC5DF8041B5DF8040BD7
:10EE000054F804FB54F804BBABF1010B00EB050C08
:10EE10009445BFF4F2AE634598BFB445FFF4EDAE40
:10EE2000DC449445BFF4E9AE634598BFB445FFF4B4
:10EE3000E4AE01EB050C9445BFF4DFAE634598BF2B
:10EE4000B445FFF4DAAEDC449445BFF4D6AE634576
:10EE500098BFB445FFF4D1AE4DF804ED0BF1010BB2
:10EE60004DF8041D284429444FF0000EBBF1040B5B
:10EE700044BF0BF1040B07E050F804EB51F804CB4E
:10EE8000BEEB0C0E0AD1F1E7BBF1010B06D410F872
:10EE900001EB11F801CBBEEB0C0EF5D05DF8041BB5
:10EEA00070465DF804EB54F804FB54F804BB01EB26
:10EEB000050C9445BFF4A1AE634598BFB445FFF47B
:10EEC0009CAEDC44ACF1010C9445BFF496AE6345B6
:10EED00098BFB445FFF491AE01EB050CBBF1040BF8
:10EEE000A8BF4CF8040BF9DC54F804FBDDF800B0C3
:10EEF0009BF0000F18BFCBF8000054F804BBC5E22C
:10EF000054F804BB584584BF4FF0040BBEE254F8DC
:10EF100004FB54F8040BA7EB050BCAF81CB0A6EBD6
:10EF2000050BCAF828B0A3EB050BCAF820B0A4EB78
:10EF3000080BCAF818B02DE90E4082B001465046C1
:10EF40006A463346DAF80CB0D84783465DF8080BBA
:10EF5000BDE80E409BF0000F40F0988254F804FB8F
:10EF60004DF804EDD4F800B0A344DBF800C0DBF8A2
:10EF700004E00BEB0E04BCF1010C09D40BF1080BFF
:10EF8000DBF800E07045F6D1DBF804E00BEB0E0493
:10EF90005DF804EB54F804FBD6F800B03060584636
:10EFA00054F804FBD6F800B03160594654F804FB1D
:10EFB000DAF810C09CF0000F1AD0A7EB050BCAF8C6
:10EFC0001CB0A6EB050BCAF828B0A3EB050BCAF8DA
:10EFD00020B0A4EB080BCAF818B02DE91F4050462A
:10EFE000E0478346BDE81F409BF0000F40F04E8293
:10EFF00054F804FB4FF0060B48E254F804CBA7EB9F
:10F00000050BCAF81CB0A6EB050BCAF828B0A3EB99
:10F01000050BCAF820B0A4EB080BCAF818B02DE90C
:10F020000E4050463146E047BDE80E40DAF854B095
:10F030009BF0000F40F02A8254F804FB54F8040BB4
:10F0400054F804CB46F804CDA7EB050BCAF81CB066
:10F05000A6EB050BCAF828B0A3EB050BCAF820B045
:10F06000A4EB080BCAF818B083462DE91E50504691
:10F070003146D847BDE81E50664406F10406DAF86A
:10F0800054B09BF0000F40F0018254F804FB04F1EF
:10F09000040BABEB080BDAF870C00CEB0B4B46F82B
:10F0A00004BDD4F800C0CAF870C02DE91F40504616
:10F0B0006146DAF814B0D847BDE81F40DAF804809A
:10F0C000444654F804FB56F8047B56F8044B56F8B3
:10F0D00004BB5E442DE91F4050466FF000014FEA2B
:10F0E000114104EA0101CAF87010DAF814B0D847E7
:10F0F000BDE81F40DAF8048008EB144454F804FB20
:10F100004DF804EDD4F800B0A344DBF800C0DBF800
:10F110000440BCF1010C07D40BF1080BDBF800E054
:10F120007045F6D1DBF804405DF804EBCAF8704096
:10F130002DE91F4050462146DAF814B0D847BDE803
:10F140001F40DAF80480444654F804FB01EB800CBD
:10F15000AC449445BFF451AD634598BFB445FFF44A
:10F160004CADDCF8000054F804FB54F804BB00FA82
:10F170000BFC8C44AC449445BFF43FAD634598BF51
:10F18000B445FFF43AADDCF8000054F804FB01EBA1
:10F19000800054F804FB54F804BB00FA0BF0084458
:10F1A00054F804FB54F804BB46F804BD54F804FBBF
:10F1B00054F804BB55F80BB046F804BD54F804FBF2
:10F1C00054F804BB57F80BB046F804BD54F804FBE0
:10F1D00054F804BBBB44ABEB050B46F804BD54F834
:10F1E00004FB54F804BBAB4446F804BD54F804FBDC
:10F1F00054F804BB57F80BB0AB4446F804BD54F8C0
:10F2000004FB54F804BBBB4446F804BD54F804FBAB
:10F21000884206BF54F804B95C44043454F804FB33
:10F2200088421ABF54F804B95C44043454F804FB0F
:10F230008842BABF54F804B95C44043454F804FB5F
:10F240008842DABF54F804B95C44043454F804FB2F
:10F250008842C6BF54F804B95C44043454F804FB33
:10F260008842A6BF54F804B95C44043454F804FB43
:10F2700083460846594603E5A0EB010054F804FB19
:10F2800054F804BB584454F804FB54F804BB8446B7
:10F290000BFB0CF054F804FB4FF0000054F804FB97
:10F2A0004FF0000154F804FB54F804BB4FF0000C7D
:10F2B00045F80BC054F804FB54F804BB4FF0000CA5
:10F2C00047F80BC054F804FB54F804BB58450CBF76
:10F2D0000120002054F804FB54F804BB59450CBF2E
:10F2E0000120002054F804FB54F804BB55F80BC06F
:10F2F0000CF1010C45F80BC054F804FB54F804BBA6
:10F3000057F80BC00CF1010C47F80BC054F804FB84
:10F3100054F804BB55F80BC0ACF1010C45F80BC018
:10F3200054F804FB54F804BB57F80BC0ACF1010CC3
:10F3300047F80BC054F804FB54F8040B54F804CB02
:10F3400046F804CDA7EB050BCAF81CB0A6EB050BDD
:10F35000CAF828B0A3EB050BCAF820B0A4EB080B41
:10F36000CAF818B02DE90E5081B0014650466A46E1
:10F370003346DAF80CB0D84783465DF8040BBDE895
:10F380000E50664406F104069BF0000F7ED154F83F
:10F3900004FB54F804CB54F804BB46F804BDBCF19C
:10F3A000010CF8DC54F804FB54F804CB54F804BB0B
:10F3B00055F80BB046F804BDBCF1010CF6DC54F86E
:10F3C00004FB54F804CB54F804BB57F80BB046F8D0
:10F3D00004BDBCF1010CF6DC54F804FB54F804CB7A
:10F3E00054F804BBBB44ABEB050B46F804BDBCF1C1
:10F3F000010CF5DC54F804FB54F804CB54F804BBBE
:10F40000AB4446F804BDBCF1010CF7DC54F804FB36
:10F4100054F804CB54F804BB57F80BB0AB4446F88F
:10F4200004BDBCF1010CF5DC54F804FB54F804CB2A
:10F4300054F804BBBB4446F804BDBCF1010CF7DC36
:10F4400054F804FB54F804BB55F80B0054F804BB03
:10F4500055F80B1054F804FB54F804BB57F80B0094
:10F4600054F804BB57F80B1054F804FB54F804BBD1
:10F4700054F804CB45F80BC054F804FB54F804BB13
:10F4800054F804CB47F80BC054F804FBA3EB050376
:10F49000A6EB0506A7EB0507A4EB0804CAF85C0079
:10F4A000CAF86010CAF82030CAF81840CAF82860B4
:10F4B000CAF81C70584602B0BDE8F05F704700BF44
:10F4C0001C289ABF024B53F820000248704700BF27
:10F4D0004C2D0108502A010830B528B322B31BB3C4
:10F4E0000468032920D8DFE801F0020A1219E06855
:10F4F000251815602269121A1A60084630BD816805
:10F50000116062692169521A00211A60F5E7646985
:10F51000816821441160026A121BF5E7846A8168E0
:10F5200021441160C26AF7E71921E6E730B56FF0B0
:10F530000704094A0146D2E9003053B1B0F904206A
:10F540008A4200D130BD0268A51A08322B4410440B
:10F55000F3E71846F6E700BFB4B100204FF6FF719D
:10F56000104BF0B51A89013292B28A4208BF0022CC
:10F570001A811989018049B9D3E900524FF6FF7603
:10F580006FF007071DB901221A810280F0BDD488EF
:10F59000B442146818BFD180A7EB040C083465444A
:10F5A0002244EFE7B4B10020044B5A681B68083BC3
:10F5B00013604FF6FF735360704700BFB4B1002073
:10F5C000034B08B1C3E9001000221A81ECE700BF29
:10F5D000B4B1002070B408B970BCE5E74FF6FF7312
:10F5E00050F8082C20F8043C8318B3F90430A0F13B
:10F5F0000805013304BF835802F10801104A04BF13
:10F600005B1840F8083C5368AB420DD06FF007061A
:10F6100014685CB9B3F90420013205D150F8081C14
:10F620001A6808310A441A6070BC7047196801F101
:10F6300008021A44AA42EDD0711A13460C44E8E7B6
:10F64000B4B100202DE9F04705468307224E1CBFC8
:10F6500020F003050435D6F8009005F10808C845E8
:10F660000F4637D86FF0070A7268494614464FF6BE
:10F67000FF7021B902F10800FFF7ACFFF4E7B4F91D
:10F6800004C02368BCF1FF3F18D1AB421CD305F185
:10F690002802934209D95B1B083B44F808304FF617
:10F6A000FF7304EB080253602B46A01D2360A78064
:10F6B000FFF754FF04F10800BDE8F087B4F806C076
:10F6C00084453CBF60462246AAEB030C08336144E4
:10F6D0001C44CEE70020EFE7B4B1002010B5FFF7DF
:10F6E00025FF044618B10630FFF738FF08342046DE
:10F6F00010BD08B5FFF71AFF20B14FF6FF73C380A6
:10F70000002008BD1B20FCE70368B3F90820D207DE
:10F7100006D59A6B88B203EBC0039B5803EB1141EB
:10F720000846704773B506460C46551E01AB0122CC
:10F7300030460DF10301F9F78DFE019B012B0DD130
:10F740009DF80330002DC4BF04F8013B05F1FF35DF
:10F75000002BEBD105B92570012000E0002002B09C
:10F7600070BD2DE9F341122201AB06460D46F9F7B3
:10F7700071FE019B122B04D00024204602B0BDE88C
:10F78000F0811422304605F11201FFF7CBFF044649
:10F790000028F1D0002705F12608B5F91030BB424A
:10F7A000EBDD41460622304601ABF9F753FE013747
:10F7B00008F10608F1E77FB505461446C2E90601DF
:10F7C0000021F9F749FE042201AB69462846F9F702
:10F7D00041FE00992846F9F73FFE01AB162221466B
:10F7E0002846F9F737FE019B162B24D14FF2EF1371
:10F7F000A2889A421FD10026AB682362B4F90A306E
:10F80000B34209DC0120AB68B4F90C20636203EB5E
:10F81000C203A36204B070BD03AB0422284602A950
:10F82000F9F718FE039B042B05D100222846114648
:10F83000FFF778FF08B90020ECE70136DEE72DE995
:10F84000F04704469EB0C06915469846FFF75CFF36
:10F85000216A0646A069F9F7FFFD0027B4F90A30CE
:10F86000D4F818A0BB4225DC616AA069F9F7F4FD61
:10F870004FF000094FF0FF37B4F90C304B4542DC34
:10F880007B1C28D0A16AA069F9F7E6FD4FF00009BA
:10F89000B4F90E304B4547DC2F4C284602F00FF9E7
:10F8A0003B46A8EB00012D4A0094284402F0D8FA08
:10F8B000012011E004AB0422504603A9F9F7CAFD68
:10F8C000049B042B07D10DF11409642249465046CC
:10F8D000FFF728FF18B900201EB0BDE8F087039B92
:10F8E000B342C1D82F21484602F016F9002308F18F
:10F8F000FF32984214BF014649462B70284602F059
:10F90000E6F80137AAE704AB0822A06905A9F9F7D0
:10F91000A1FD049B082BDED1059BB342B0D8069F06
:10F9200009F101090137A7E7A06905A9FFF719FF48
:10F930000028D0D09DF82230092B07D1DDF81A30ED
:10F94000B34203D8DDF81E30B34202D809F10109F1
:10F950009EE70DF12604A0E7C02D0108C42D010883
:10F960002DE9F04F05460846846895B01946DDE953
:10F970001EA814B9046823691C44E8690026970886
:10F98000FFF7C2FE8AF800608146A96AA869F9F704
:10F9900063FDDFF870B0B5F90E30B34202DDB8F1A7
:10F9A000000F03DC012015B0BDE8F08FA86903A9A2
:10F9B000FFF7D7FE0028F6D09DF81A30012B1FD193
:10F9C0009DF81B20E2B1DDF812304B4518D8DDF868
:10F9D00016304B4514D9039B4146002BB8BF033367
:10F9E0009B10012A08BFDB1954F8233050460093BE
:10F9F0005A460DF11E0302F033FA8244A8EB0008C8
:10FA00000136C8E7D42D01082DE9F3418468054685
:10FA10000E4614B9046823691C443168EB6A9942A4
:10FA200018D88A08013254F8227004EB82029368D5
:10FA300021F00308019353680948009354F8082003
:10FA40003B4602F0EEF954F80820141B3460EB6AD0
:10FA50009C4200D90027384602B0BDE8F08100BFC3
:10FA6000DE2D01080A2300BF013BFCD1704708B519
:10FA70004FF480514FF0C043034A51611880FFF7A3
:10FA8000F1FF116108BD00BF0014014010B5EF2067
:10FA9000FFF7EDFF4FF0C0410B889BB20C880A883E
:10FAA00008880B881204DBB243EA046302F47F0285
:10FAB0000002134300F47F40184310BDE6E72DE930
:10FAC000F04192B00E4600AF391D7068FEF771FE2E
:10FAD0007B68184D03F1080222F00702ADEB020D1E
:10FAE000716800220133684607F10804FEF7E1FE61
:10FAF0000FCD0FC40FCD0FC40FCD0FC495E80F006D
:10FB0000E84684E80F000023F16807F144028B42C5
:10FB100008DB07F108014046FCF70CFF4837BD46FB
:10FB2000BDE8F081B06850F82300013342F80409C1
:10FB3000EDE700BFDC2201088B6907B5003B18BF69
:10FB40000123084601934B690093D1E903234068E0
:10FB50008968FDF7D7F9002003B05DF804FB07B50D
:10FB600008468B6901934B690093D1E903234068F0
:10FB70008968FDF79DF9002003B05DF804FB07B527
:10FB800008468B6901934B690093D1E903234068D0
:10FB90008968FDF727F9002003B05DF804FB07B57D
:10FBA00008464B690093D1E9032340688968FDF753
:10FBB0007CF8002003B05DF804FB10B50C46098901
:10FBC000A088F4F723FBD4E9031245F69010064B06
:10FBD0001860D9605A6045F691121A6063690BB1DA
:10FBE000F4F71EFB002010BD08040240CA68D1E9EA
:10FBF00001011212FDF716B808B50B46098998885D
:10FC0000F4F704FBF4F730FB08BD10B50C46098986
:10FC1000A088F4F7FBFAA089F4F7FAFA002010BDE7
:10FC200007B508464B690093D1E90323406889680A
:10FC3000FDF72AF9002003B05DF804FBB0B586B0EB
:10FC40000C4604AF391D6068FEF7B3FD7B68616840
:10FC500003F1080222F00702ADEB020D04AD002211
:10FC600028460133FEF725FE236A2846003B18BFCD
:10FC700001230393E369A1680293A3690193636974
:10FC80000093D4E90323FCF779FF00200837BD4631
:10FC9000B0BDB0B584B00C4602AF391D6068FEF748
:10FCA00088FD7B68616803F1080222F00702ADEB72
:10FCB000020D02AD002228460133FEF7FAFDA369CA
:10FCC0002846003B18BF012301936369A168009394
:10FCD000D4E90323FCF71AFF00200837BD46B0BD66
:10FCE0002DE9F047D1E90179D1E9038AFFF7CEFE8A
:10FCF000274BBFB298421ED138461FFA89F1F4F75C
:10FD000085FA2E20FFF7B3FE4FF0C0431B889BB24D
:10FD10004FF4B3421F4B1A6045F68112C3F80C80B2
:10FD2000C3F804A01A60F4F77BFA2C20FFF79FFEBB
:10FD30000020BDE8F087F4F773FA4FF4805640F2E4
:10FD400001234FF0C044144D6E612380FFF78AFEFB
:10FD50002E612780FFF786FE00275745E8D04FF435
:10FD600000736E6109EB0702238092B2FFF77AFEFF
:10FD70002E612280FFF776FE40F20220FFF777FE29
:10FD800023889BB223889BB248F827300137E4E7E9
:10FD90002793040208040240001401404FF0FF3290
:10FDA0000149FEF7A0BB00BF9C2E0108836813B970
:10FDB00003681A691344C26913449868800870473D
:10FDC000836813B903681A6913444A68C069033227
:10FDD00003EB82021258896802EB8102985870473F
:10FDE00030B5836813B903681A6913444A68C56952
:10FDF000033203EB82028C68525912EB840209D45D
:10FE0000046A944202DC806A904203DC0120C968E3
:10FE1000995030BD0020FCE7826A006A101A7047D2
:10FE2000CA68D1E90130013A01D20020704743F895
:10FE3000040BF8E710B5D1E90103CA68C11A013A09
:10FE400001D2002010BD184650F8044B5C50034608
:10FE5000F5E710B5044692B000224968402302A895
:10FE6000FEF727FD204601AA02A9FEF71EFA10B1EF
:10FE70004FF0FF330193019812B010BDF0B591B06F
:10FE80006A4605461646094B03F1400714461868B2
:10FE90005968083303C4BB422246F7D14FF0FF3202
:10FEA00031462846FEF71FFB11B0F0BD4A2F01086E
:10FEB0000023D1E904C0F0B58E688DB00D468DF8F1
:10FEC0002F30CEB186EAE674A4EBE6740DF12E0174
:10FED00094FBFCF70CFB174E5FFA8EF2BEF1090F94
:10FEE000D4BF30323732D2B23C4601F80129013357
:10FEF00047B1202BECD105E030238DF82E300123C3
:10FF00000DF12D010A464FF0300CCF18BC1AA0425B
:10FF10001FDC9842A0EB0304B8BF00241C44A3EBF1
:10FF20000003B8BF0023002EBCBF2D22CA544FF0DF
:10FF3000010201EB0300EB68BCBF00F1FF300134AC
:10FF40000093811800236868FEF74AFC20460DB034
:10FF5000F0BD02F801C9D9E70B4607B50022586881
:10FF600001A90192FEF725FC019803B05DF804FB9E
:10FF700090B583B00C4600AF39466068FEF719FCB7
:10FF80003B68616803F1080222F00702ADEB020D45
:10FF9000013300226846FEF78CFC2269391D684651
:10FFA00001F0C7FD69467B68E2685B1A0C37136095
:10FFB000BD4690BD4FF0FF320149FEF794BA00BF35
:10FFC0009F2F01084868000470474868002803DB39
:10FFD00000F5004000147047B0F5004044BF00F544
:10FFE0007F40FF30F6E7D1E9010101F0A8BA486887
:10FFF00001F048BA486801F0E0B9486801F04ABB2E
:020000040801F1
:10000000486801F003BBD1E9010101F09CB9D1E9D5
:10001000010101F039B9D1E9010101F00AB9D1E9D1
:10002000010101F0FAB84FF0FF320149FEF75BBA67
:10003000F32F0108054B4A68186810608A685868F1
:100040009B681060CA68002013607047C0B1002030
:10005000054B4A68D86810608A6818695B69106047
:10006000CA68002013607047C0B100200220F4F776
:10007000F1B82DE9FF410C464F4D0220F4F7EAF8A4
:1000800010B92B78002BF8D00320F4F7E3F8051E05
:1000900018BF0125484F002D74D0F4F7CBF800901D
:1000A000F4F7C8F80190F4F7C5F80290F4F7C2F835
:1000B00003906369002B12DD63689DF80020DA70FD
:1000C0009DF804209A709DF808205A709DF80C2025
:1000D0001A706369013B6361636804336360A369F9
:1000E000002B12DDA3689DF80120DA709DF8052031
:1000F0009A709DF809205A709DF80D201A70A36916
:10010000013BA361A3680433A3609DF8023063F34D
:100110001F669DF8063063F317469DF80A3063F3B7
:100120000F269DF80E3063F30706E369002B07DD09
:10013000E268013B111DE16006F001311160E361ED
:10014000226A002A08DD21697308081D03F00133C3
:10015000013A20610B6022626369002B08DCA3690D
:10016000002B05DCE369002B02DC236A002B02DD97
:100170003B78002B8FD020220020104B5A6104B016
:10018000BDE8F081E8460120F4F764F830B10320BF
:10019000F4F760F810B93B78002BF4D0F4F74AF884
:1001A0000135042D48F8040BEDD10320F4F752F883
:1001B000051E18BF01257CE7843000200010014097
:1001C000486840F24A4191FBF0F138B50A4D4B1CAA
:1001D00095FBF3F56C1EB4FBF0F4072024EAE474FD
:1001E000F4F734F8214608200134F4F72FF805EB32
:1001F0005400B0FBF4F038BD00A24A040B4610B521
:100200009A68094CDB6849680B2022616361E160F0
:10021000F4F71CF821690C20F4F718F80120616943
:10022000F4F714F8002010BDC0B100200B4610B543
:100230009A68094CDB68496809206260A360216004
:10024000F4F704F861680A20F4F700F80020A168C8
:10025000F3F7FCFF002010BDC0B1002037B54C689B
:1002600006200121F3F7F2FFE4B1354B1A6812F0D2
:1002700001023BD0022203F518431A61314A324889
:10028000134651680A292BD85A68012AFCD172B644
:100290005A68012AFCD15A68012AFCD002222B4B51
:1002A0005A6162B62A4B1B7E03B9E4B1264C022088
:1002B000F3F7D0FF10B92378002BF8D09724224D04
:1002C0000120F3F7C7FF30B10320F3F7C3FF10B9E4
:1002D0002B78002BF4D0F3F7ADFF013CF0D102E016
:1002E00001780029CDD0002003B030BD19490B881A
:1002F000D807D7D50223154803614FF400508A81EF
:100300000A870193144B1A60144A50600120586008
:100310001348986001A8D86043F6112018604FF484
:100320008060BFF35B8F888107481168890402D41D
:1003300001780029F9D000221A60064B9A81B1E7B2
:10034000007400404404024084300020000C01404E
:10035000C0B10020000800404400024000000240FC
:10036000140C014038B50C46D4E9011301EBC3016C
:100370000020C9B2F3F76CFF0120217BF3F768FF7F
:100380000220217CF3F764FF0320617CF3F760FF18
:100390000A20217DF3F75CFF0B20617DF3F758FF06
:1003A0000C20A17DF3F754FF0D20E17DF3F750FF02
:1003B000A56985B103210420F3F74AFF0121052037
:1003C000F3F744FF6368074A1F2BD4BF00230123C0
:1003D0000020137638BD01210420F3F739FF2946A8
:1003E000EDE700BFC0B100204FF0FF320149FEF73A
:1003F0007AB800BFBF300108002070472DE9F041F6
:1004000040F24A464A68124D96FBF2F6741C95FB80
:10041000F4F56C1EB4FBF2F40B46ACB1671C9868A3
:10042000394600F012FF804621461120F3F70EFFF7
:1004300031461020F3F70AFF05EB5704414612201E
:10044000F3F704FFB4FBF7F42046BDE8F08100BFEA
:1004500000A24A04F8B5D1E9010240F24A4393FBF5
:10046000F2F3144CCF68591C94FBF1F4611EB1FBFC
:10047000F2F10022104D9BB22A60104A4E1C1385E7
:100480000F4B1A6822F001021A6041F6B122D860BF
:100490005F601A601A680D2042F001021A60F3F7DB
:1004A000D5FE2B6804EB560043F00203B0FBF6F0D8
:1004B0002B60F8BD00A24A04007400400014004004
:1004C000440402404FF0FF320149FEF70CB800BF70
:1004D0002E3101082DE9F04184B00C4600AF3946B9
:1004E0006068FEF766F93B68616803F1080222F074
:1004F0000702ADEB020D013300226846FEF7D9F981
:10050000391DA068FEF755F97B686D4603F10802B6
:1005100022F00702ADEB020DA1680022013368460C
:10052000FEF7C7F907F10801E068FEF742F9BB687A
:100530006E4603F1080222F00702ADEB020DE84619
:100540000022E16801336846FEF7B3F907F10C01B8
:100550002069FEF72EF9FB68216903F1080222F0F9
:100560000702ADEB020D684600220133FEF7A1F948
:1005700028466B4642463146FCF702FD0020103704
:10058000BD46BDE8F08137B505464FF6FF70FCF774
:10059000EDFD10B9002003B030BD494C2368013394
:1005A0005BD1636801330BD04FF40050FCF7E4FDDE
:1005B00030B12846626801A9FEF706F80028EAD1A2
:1005C000A36801330BD04FF48070FCF7D5FD30B138
:1005D0002846A26801A9FDF7F7FF0028DBD1E368F0
:1005E00001330BD04FF40070FCF7C6FD30B1284644
:1005F000E26801A9FDF7E8FF0028CCD123690133A7
:1006000014D04FF4E050FCF7B1FD78B14FF48050B6
:10061000FCF7B2FD78B300212846FDF7B3FF28466A
:10062000226901A9FDF7D0FF0028B4D16369013325
:10063000B0D048F24800FCF799FD0028AAD040202D
:10064000FCF79AFD50B300212846FDF79BFF284692
:10065000626901A9FDF7B8FF9DE74FF48040FCF700
:100660008BFD00289DD02846226801A9FDF7ACFF2C
:10067000002896D08FE74FF48060FCF77DFD18B11D
:10068000FCF7B8FD4142C7E74FF40060FCF774FD8A
:100690000028C0D0FCF7AEFD0146BDE70820FCF7FE
:1006A0006BFD18B1FCF7A6FD4142CDE74FF40040C9
:1006B000FCF762FD0028C6D0FCF79CFD0146C3E7AD
:1006C000DCB1002038B51F4C1F4922460546FDF716
:1006D000ECFD10B14FF0FF33236028461B4A1C4944
:1006E000FDF7E3FD10B14FF0FF3363602846194A70
:1006F0001949FDF7DAFD10B14FF0FF33A36028462A
:10070000164A1749FDF7D1FD10B14FF0FF33E360F2
:100710002846144A1449FDF7C8FD10B14FF0FF33C5
:1007200023612846114A1249FDF7BFFD10B14FF071
:10073000FF3363612846BDE838404FF0FF320D4972
:10074000FDF7D1BEDCB1002046310108E0B1002048
:100750004F310108E4B1002058310108E8B1002010
:1007600061310108ECB100206A310108F0B10020CC
:100770007331010889310108486800B18068704709
:10078000486800B1C0687047486808B190F8250013
:100790007047F0B585B00C4602AF391D6068FEF7B2
:1007A00008F87B68616803F1080222F00702ADEBEC
:1007B000020D02AD002201332846FEF77AF82846E2
:1007C0006668FCF7A0F8A3680146009301220023A5
:1007D0003046FEF705F800200C37BD46F0BD90B559
:1007E00083B00C4600AF391D6068FDF7E2FF7B68FF
:1007F000616803F1080222F00702ADEB020D01333C
:1008000000226846FEF755F86846FCF76BF80C378F
:10081000BD4690BD10B588B00C460C4802A9F8F74B
:1008200021FE034680B99DF8110058B10D22606881
:1008300000920DF111010122FDF7D2FF0120A36802
:10084000029A1A6008B010BD0020FBE7F4B1002046
:1008500008B502490248F8F703FE08BDC42601089E
:10086000F4B1002007B50748694601AAF8F700FE71
:1008700030B9019B00989B78584303B05DF804FBA6
:100880000020FAE7C4260108486808B520B1F8F747
:10089000F1FDB0FA80F0400908BD10B54C684CB1CC
:1008A00020468968F8F7D8FD20B194F825300BB9B7
:1008B00084F82500002010BD2DE9F04182B04C687D
:1008C00000AF5CB3D1E90265002D4EDA39463046FF
:1008D000FDF76FFF3B68E84603F1080222F00702CC
:1008E000ADEB020D3146002201336846FDF7E1FF12
:1008F000684601F0E4F80546A8B10246694620467C
:100900003B1DF8F7B3FD20B194F825300BB984F8FE
:1009100025007C68631B5C425C41C5462046083765
:10092000BD46BDE8F0810124F7E7032DD4BFA846FA
:100930004FF004081B6842461BBA3B60394620460C
:100940003B1DF8F793FD20B194F825300BB984F8DE
:1009500025007B68984501D00024DFE7043D002D89
:10096000A6EB0503E1DC0124D8E72E44F7E737B511
:100970004D680C46B5B1D4E90212284601ABF8F730
:1009800069FD20B195F825300BB985F825000023C5
:10099000A168E2689800002AB8BF0332B3EBA20F47
:1009A00003DD019D284603B030BD4258013312BA21
:1009B0004250EEE710B54C6884B12046F8F74EFD82
:1009C00020B194F825300BB984F82500002384F871
:1009D000243094F82540B4FA84F46409204610BD0C
:1009E0002DE9F0430D461F4900230C4683B000AFAC
:1009F00091F82490B9F1000F2DD14FF0280808FB91
:100A000003F3194A391D02EB030888F8419068681E
:100A10001C44FDF7CEFE7B686E4603F1080222F00F
:100A20000702ADEB020D01334A4668466968FDF7DF
:100A300040FF694620462A7AF8F70AFDB0FA80F3AB
:100A40005B0988F8410088F840302046B5460C37ED
:100A5000BD46BDE8F0830133042B01F12801C7D165
:100A60000020F4E710B20020F4B100200022074B70
:100A7000074983F8402083F8682083F8902083F8A2
:100A8000B8204FF0FF32FDF72EBD00BFF4B10020BB
:100A90001732010870B500252E46084C94F8243012
:100AA00023B12046F8F7DAFC84F824600135042DE0
:100AB00004F12804F2D1002070BD00BF10B2002064
:100AC000FCF798BBD1E90101FCF76CBB4868FCF767
:100AD00053BB4868FCF74ABB4FF0FF320149FDF7B2
:100AE00002BD00BFBB32010810B5104A047813786C
:100AF0002402CBB15368C01A20F070400C4B80F038
:100B0000030058439368B0FBF3F000F005FD014685
:100B100047F2C35000F099FBC0F50A413D31204631
:100B2000BDE8104000F091BB204610BDB0B20020DF
:100B30007E4806002DE9F74FD1E9026248690D6948
:100B4000000490FBF5F04F6800042946009200F085
:100B50007CFB00281EDB00F50040294604141F48DA
:100B60004FF0000800F09FFBC1460246C3464546D1
:100B7000A04516DB24022146284600F094FB2146BE
:100B80003060584600F08FFB009B1860002003B0D7
:100B9000BDE8F08FB0F5004044BF00F57F40FF3066
:100BA000DBE788F003014846019217F801A000F046
:100BB000B3FC4FEA0A2A0146504600F046FB0544C2
:100BC000484600F05FFC4142504600F03EFB019A6F
:100BD0008344914408F10108CAE700BF7E4806003B
:100BE0002DE9F04F1D464FF0FF338DB00690039175
:100BF000059201935DBB0121019BDDF8148001FA90
:100C000003F304934FEA930A039B99460293019BD3
:100C1000C3F12201AA4509F1100908F110081AD1FF
:100C20000223019A9A4255D84FF080760425049BFE
:100C30009540B6FBF3F6059B1C1F039B2B441D46FA
:100C4000029B9D4240F0A9800DB0BDE8F08F019B52
:100C50006D080133CDE705FA01F090FAA0F0C44326
:100C600020F07040069B20F0030004F003040443CE
:100C70001C4420460791FFF737FF544406462046A0
:100C8000FFF732FF544407462046FFF72DFF834607
:100C900004EB0A00FFF728FF0023F4195C44044426
:100CA00049F8104CA6EB0B04F61B5E44C21B361A27
:100CB000381A48F8103C079949F80C4C013548F8A7
:100CC0000C2C49F8086C48F8083C49F8044C48F8E2
:100CD000040C9FE701229A4006925A1C0892049A3B
:100CE000591CCA400992042202FA03F8082200267D
:100CF00002FA03F30793069BB34201D1089B90E7E6
:100D00002E4B4FF0000B03FB06F4069BB4FBF3F4F1
:100D1000204600F001FC8146204600F0B3FB039B17
:100D2000C0F1000A03EB8604059B03EB8605099BD3
:100D30005B4501D10136DEE754F8082049461046EC
:100D40000B9200F082FA55F80830074651461846D3
:100D50000A9300F07AFA0A9B3F1A4946184600F0B7
:100D600074FA0B9A0A905146104600F06EFA226807
:100D70000A9BD21B44F808202A680344D21A45F87B
:100D8000082020680BF1010B3844206028680344D8
:100D90002B60079B1C441D44C9E7029B3146186821
:100DA00000F053FA029B314643F8040B54F8040F49
:100DB000029300F04AFA206042E700BF3F2403009C
:100DC00010B54C694868003C18BF01240B69054AFE
:100DD000C2E901031470CA688968FFF701FF0020A7
:100DE00010BD00BFB0B200204FF0FF320149FDF747
:100DF0007ABB00BFEB32010810B54B68034C23608F
:100E0000FCF7DEF96060002010BD00BFBCB200201E
:100E1000FCF7D6B908B54868FCF7D8F9002008BD3A
:100E200073B50C4E04463368013302D1002002B082
:100E300070BD094D2B68002BF8D0FCF7C1F96B6829
:100E4000C01A2B689842F1D32046326801A9FDF7F9
:100E5000BBFBECE708300020BCB2002038B5094DE0
:100E600009492A460446FDF720FA10B14FF0FF3336
:100E70002B602046BDE838404FF0FF320349FDF7B4
:100E800032BB00BF08300020033301082A330108B9
:100E90004B6803F17842B2F5002F94BF1878002018
:100EA0007047F3F7CBB908B502204968F3F7CEF9DC
:100EB000002008BD08B501210420F3F7C7F901207F
:100EC000FCF784F9BDE808400620F3F7C3B90A46E9
:100ED00008B58968094B506893FBF1F3242BB8BF20
:100EE0002423B3F5E15FA8BF4FF4E15304499BB25B
:100EF0000B85D168FCF774F9002008BD80FC0A005E
:100F000000340140496808B521B100210220F3F7FF
:100F10009DF901211420F3F799F9002008BD4FF045
:100F2000FF320149FDF7DFBA8E330108F0B5002525
:100F30000F270F490B680135184218BF0326D1E966
:100F4000012308BF0826072BC8BF043203F007039C
:100F500014689B0007FA03FC24EA0C0406FA03F366
:100F600023430A2D136001F10C01E3D1F0BD00BF52
:100F70001834010808B54868FFF7D8FF002008BDFD
:100F80000022F0B5104601264D68094B1C682C4222
:100F900007D059688F68996806FA01F1394218BF7D
:100FA000204301320A2A03F10C03EFD1F0BD00BF48
:100FB00018340108F0B5D1E9015601270021094B89
:100FC0001C68344207D0D3E901022C4207FA02F22E
:100FD00014BF0261426101310A2903F10C03EFD110
:100FE0000020F0BD1834010800224FF400500A4BD5
:100FF0001A600A4A5060886858604FF0C84098608C
:101000004968D96044F68111196011688904FCD5DA
:1010100000201860704700BF4400024000000240FA
:1010200000224FF400500A4B1A600A4A5060886848
:1010300058604FF0C84098604968D96044F69111F3
:10104000196011688904FCD500201860704700BF42
:10105000440002400000024090B50C468BB00020D6
:1010600000AFFFF763FF39466068FDF7A2FB3B68FE
:10107000616803F1080222F00702ADEB020D0133B3
:1010800000226846FDF715FC9DF800000F4B48B99B
:10109000187000F05FF8044640F2C230FFF746FFD8
:1010A000204607E001226946381D1A70F8F7D0F98A
:1010B00018B100202C37BD4690BD381D00F04AF80D
:1010C0000446381DF8F7CAF9EAE700BFC4B20020A9
:1010D0000A4B10B51A7804461AB10020187000F0B7
:1010E00039F840F2C230FFF721FF2046BDE810403A
:1010F0004FF0FF320249FDF7F6B900BFC4B200203D
:101100009034010870B508224FF0C0514FF4C0561A
:101110000D4B0E4C0E4D10F0800F0ED01D6100BF18
:1011200000BF00BF00BF1E6100BF00BF00BF00BF07
:10113000013A4FEA4000EED170BD196100BF00BF17
:1011400000BF00BF1C61EFE7000C01400008001069
:101150000010000873B5214C214B66686268054693
:10116000D2B2134363604FF4884363614FF400636A
:1011700002202361FCF72AF84FF480430220236108
:10118000FCF724F8C5B9174C174D14F8010BFFF7FD
:10119000B9FFAC42F9D14FF4FA740020FFF7B2FF67
:1011A000013CFAD14FF480620C4B98681A61C0F38D
:1011B000C0305E6002B070BD0122284601AB0DF167
:1011C0000301F8F747F90028E5D1019B012BE2D193
:1011D0009DF80300FFF796FFEEE700BF000C01400B
:1011E0000033838300C00208F8C90308034693EA6A
:1011F000010F084404D493EA000F48BF4FF00040A9
:101200007047034693EA010FA0EB010004D593EA6F
:10121000000F48BF4FF00040704708B50246FFF787
:10122000E5FFB0F1004F03D1002AC8BF6FF00040C6
:1012300008BD08B50246FFF7E4FFB0F1004F03D147
:10124000002AC8BF6FF0004008BD2DE9004880FBB0
:1012500001BCBBF1000F7CF100024FEAEC330EDA67
:1012600001330ED11BF1FF3B4CF1FF3C4FEA1B4019
:10127000CBF3C03340EA0C401844BDE80088002B93
:10128000F4D04FF00040F8E738B50546FFF7DDFF32
:10129000B0F1004F06D1CC43E40FB4EBD57F18BFBB
:1012A0006FF0004038BD2DE9F0430546002947D0D6
:1012B00081EAE17CACEBE17C4FEA1C5380EAE0720E
:1012C0001B05A2EBE07273B14FEA5C430133B2FB42
:1012D000F3F3A3FB0C674FEAEC7903FB0977700C7F
:1012E00040EAC730121A112404E0012C05D04FEA5D
:1012F0001C1C043C1CF00F0FF7D04FF0FF3642B916
:10130000013391EA050F4FEA530000D54042BDE892
:10131000F083002CF4DBB2FA82F0A042A8BF204692
:101320008240241AB2FBFCF000FA04F73B4426FA90
:1013300004F70CFB1022B84302D15200013CDEE757
:101340004FF00040E3E738B50546FFF7ACFFB0F1DA
:10135000004F06D1CC43E40FB4EBD57F18BF6FF03C
:10136000004038BDC2F5807358434A43D317121862
:1013700043EBE073100A40EA03607047C2F5803324
:1013800058434A43D317121843EBE073100C40EA5A
:101390000340704753422DE9F043A3FB0067C51794
:1013A00003FB0577A1FB02454FEAE17902FB0955F2
:1013B000A31945EB0700BDE8F08380EAE073A3EBD7
:1013C000E0731A0D1205002A10B518BF4FF08042C5
:1013D000044608BF4FF480229A4208D800215AB12F
:1013E000501883424FEA510103D29208F7E792085E
:1013F000F2E71B1A1144F8E74FF48042B3F5803F3F
:1014000028BF5B1A4FEA014029BF1B041B04A3F548
:10141000004300F50040111899424FEA50009CBF6C
:101420005B1A80189208F6D1834288BF0130002CE5
:10143000B8BF404210BD000070B500EBE076054635
:10144000014686EAE0760D48FFF7FFFE294604468E
:101450000B48FFF7FAFE3146FFF7F7FE044404EBB2
:10146000E47181EAE4712046FFF7EFFE011B43F6C9
:101470009A10FFF7EAFE204470BD00BFF34501005B
:101480004098FFFF70B51E4C90FBF4F303FB14046F
:101490001C4B9C422DDDA4F5C9247E3C21462046F0
:1014A000FFF7D3FE054601462046FFF7CEFE6FF05C
:1014B000050690FBF6F62946FFF7C7FE344478266A
:1014C00090FBF6F62946FFF7C0FE26440E4C29464F
:1014D00090FBF4F4FFF7B9FE26440C4C294690FB30
:1014E000F4F4FFF7B2FE0A4B344490FBF3F02044CF
:1014F00070BD084B9C42BCBF04F5C9247E34CDE7C7
:101500007E4806003F24030050ECFFFF8089050061
:1015100000EB9EFDC1DBFCFF00F5C9301F30FFF77B
:10152000B1BF38B50546FFF7ADFF04462846FFF7C3
:10153000F3FF01462046BDE83840FFF704BF00EB4B
:10154000E07282EAE072002970B50B46054602EBB4
:1015500001001DDB0146981AFFF7A5FE064601466D
:10156000FFF773FE3146FFF770FE01464FF4495016
:10157000FFF76BFE314604464FF65030FFF765FE2D
:10158000241A04F549400F30002DB8BF404270BD09
:10159000511AFFF788FE06460146FFF756FE314610
:1015A000FFF753FE01464FF44950FFF74EFE314618
:1015B00004464FF65030FFF748FE241A04F5163063
:1015C00000F22F30E0E74FF48031FFF7B8BF00F5AD
:1015D0008033B3F5003F10B504460ED80146FFF73F
:1015E00034FEC0F58030FFF7E8FE01462046FFF7E5
:1015F0005AFEBDE81040FFF7E6BF002010BD08B559
:10160000FFF7E5FFC0F5C9301F3008BD2DE9F041F7
:10161000054668B3B0F5803F2FD01B4B98422EDCB7
:101620001A4B98422EDB80EAE078A8EBE078464639
:10163000022708F5803439044046FFF734FE01469E
:101640003046FFF702FEB0F5FA7F0646044403DA9F
:101650000F2F04DC132802DD01371E2FEBD1002DE4
:1016600008DA2146BDE8F0414FF48030FFF71BBE99
:101670004FF480342046BDE8F081054CFAE76FF066
:101680000044F7E70024F5E7AE650A006E37F4FF83
:10169000E1B70200F8B5041E2EDD0027184DB4F5A1
:1016A000C80F1BDC164DB4F5803F1EDB0B264FF434
:1016B00000352846FFF7AAFF0146201AFFF7F3FD81
:1016C000B0F5403FA8BF4FF44030013E054402D082
:1016D00001300228EDD805EB0740F8BD2046294629
:1016E000FFF7E1FD04370446D9E720462946FFF716
:1016F000ACFD043F0446D6E74FF00040EDE700BFE5
:10170000209936002DE9F041214D04462B6886B022
:1017100003EBC1035B680E46436708464FEAC10806
:10172000FDF7DCFF0746606078BB3146606FFDF770
:1017300089FF606068B160223946281D00F099F980
:101740006946686EF7F790FEA86E009AC3689A42E1
:1017500001D0652012E02B6853F808102368DB687D
:101760001944F7F779FE6B46626F6168A86EF7F768
:1017700071FE626F009B9A4203D0112006B0BDE853
:10178000F0812046FCF75CFAF8E70020F6E700BF9E
:10179000C8B200202DE9F04101F00707114E07EB18
:1017A000470206EB820253680C468B4205464FEA1D
:1017B000470807D193682BB1D26843604267002085
:1017C000BDE8F08121462846FFF79CFF08EB0703A0
:1017D00006EB83035C606A689A606A6FDA60BDE852
:1017E000F08100BFC8B20020F8B50F461646054686
:1017F000074B084C436160220021201D00F039F99D
:10180000C4E919762B689A6B13442360F8BD00BFB6
:1018100095170108C8B200200A4A0B4B9A4202D021
:101820000A498B4205D30021094B0A4A934205D34A
:10183000704752F8040B43F8040BF2E743F8041B1B
:10184000F4E700BFC8340108003000200C3000204D
:101850000C3000203AB30020084A094BDFF82CD0A6
:101860009A60FFF7D9FFF2F701FD064B064AC2E97D
:1018700000339360FAF7D8FEFEE700BF00C000080F
:1018800000ED00E0EFBEADDE00B8002000C000209B
:101890007047F2F7B5BCF2F7B5BC00000028B8BF3E
:1018A000404270470028B8BF404270470B460028AE
:1018B00073F10001024602DA424263EB4303104631
:1018C0001946704700F0C2B800F0DCB800F0BEB8AE
:1018D00000F0D8B810B50C4611461A466143FBF724
:1018E00091F8B0FBF4F010BD10B50C4611461A4645
:1018F0006143FBF789F8B0FBF4F010BD70B50D46FD
:10190000044600F0DCF82B46024601212046BDE8E3
:101910007040FFF7E9BF10B5044600F0D0F802238D
:10192000024601212046FFF7DFFF02220446012183
:101930000248FBF769F8204410BD00BFC326010828
:1019400007B50A468DF8070001210DF10700FBF7E6
:101950005BF8012814BF4FF0FF309DF8070003B07B
:101960005DF804FB07B5024601210DF10700FBF706
:1019700049F8012814BF4FF0FF309DF8070003B06D
:101980005DF804FB413819288CBF00200120704706
:10199000613819288CBF00200120704720F02000FA
:1019A000413819288CBF00200120704730380928A1
:1019B0008CBF00200120704708B50346FFF7EEFFFB
:1019C00030B9A3F1300009288CBF0020012008BDE8
:1019D0000120FCE730F07F030CBF0120002070479E
:1019E000092804D0A0F12003584258417047012033
:1019F00070471F28CCBF002001207047A0F10903C9
:101A0000172B9DBF0248D84000F00100002070470E
:101A100013008000A0F13003092B07D920F020002B
:101A2000413805288CBF00200120704701207047F5
:101A3000A0F16103192B98BF20F020007047A0F19E
:101A40004103192B98BF40F02000704708B50248A9
:101A500000F014FA400808BD34B3002010B5431E4E
:101A60000A44914200D110BD11F8014B03F8014F17
:101A7000F7E703460244934200D1704703F8011B85
:101A8000F9E7000043F20E32024B5880000C1A8036
:101A90009880704734B30020024610B512F8014B0D
:101AA00011F8013BE01A01D1002CF7D110BD02461C
:101AB00011F8013B02F8013B002BF9D170470346B6
:101AC0001A46117801330029FAD1101A704770B5FF
