S32508000000203600202D3B0008D53A0008D73A0008D93A0008DB3A0008DD3A00080000000065
S32508000020010100080501000809010008DF3A0008E13A000839010008E33A0008E53A0008B6
S325080000406D3B0008713B0008753B0008793B00087D3B0008813B0008853B0008893B0008A2
S325080000608D3B0008913B0008953B0008993B00089D3B0008A13B0008A53B0008A93B000882
S32508000080AD3B0008B13B0008B53B0008B93B0008E73A0008C13B0008C53B0008EB3A000818
S325080000A0CD3B0008D13B0008D53B0008D93B0008DD3B0008E13B0008E53B0008E93B000842
S325080000C0ED3B0008F13B0008F53B0008F93B0008FD3B0008013C0008053C0008093C00081F
S325080000E00D3C0008113C0008153C0008193C00081D3C0008213C0008253C00089AC3569F15
S3250800010000F0F0BD00F00EBE00F0F3BD00F0FEBD01F0B9BC01F0ACBC01F099BD01F0CABDAF
S3250800012001F002BE01F0F4BD01F002BE01F026BE01F093BE01F03CBE01F04DB801F056B8B6
S3250800014003F046BA03F055BA03F070BA03F0ADBAAFF300807EB500A80FF2A8711CC91CC04D
S32508000160DFF87C47DFF87C5705F58050206005F59050E06005F59150606005F590502930FB
S32508000180A0604FF48051284600F0CCFC00A805F580614CC84CC1DFF850072860C5F80002FE
S325080001A0DFF84807C5F8160460680021C1716068017260684171E068C1604161C161816155
S325080001C077BD000000B521B94FF400720FF254711EE0DFF81037B1F5805F02D100F059F81E
S325080001E016E0B1F5205F04D14FF4007203F500710EE0B1F5804F04D14FF4007203F580611D
S3250800020006E0B1F5004F06D34FF4007203F5C06100F0A2FC03E04FF4007100F0E9FCAFF3B2
S32508000220008000BDFFF788BF10B50346DFF8B406B1F5805F02D100F02CF80EE0B1F5205F18
S3250800024004D100F026F800F5007006E0B1F5804F07D100F01EF800F58060BDE8104000F055
S325080002607BBCB1F5004F13D300F013F800F5C06000F072FCDFF868466068017A41B9C079F5
S3250800028010B900F07DF901E000F023F86168087210BD4FF400721946704710B585B0044616
S325080002A000A80FF26C61112200F066FCA4F16100C0B21A2838BF203C002000A9415CE4B23C
S325080002C0A14204D0401CC0B21028F6D3002005B010BD70B50024DFF80856E8680168C06889
S325080002E04618700504BF304600F098FCDFF8F405201890F8001690F8010601EB002189B2E3
S32508000300304600F0A7FCE968CA68921CCA60042801D0042070BDA41CB4F5007FDDD3002065
S3250800032070BD2DE9F843DFF8BC854FF02009DFF8B07509EB080000F2004600203073307816
S32508000340E52818BF002800F0E880307A482828D1707A452804BFB07A582840F0D68000F0DE
S32508000360E4F878680021C1717868007A20B102280DD0042806D010E05220307244207072E2
S32508000380592009E0452030725220707204E04E2030724F2070725420B072F07D401CF07589
S325080003A0B8E041285AD1707A442804BFB07A52285BD100F0BAF878680021C17178680172F2
S325080003C0F8680160022498F80006302804BF98F8010678281CD104EB080090F80006A0F13D
S325080003E03001C9B20A2922BFA0F14101C9B2062922BFA0F16101C9B2062909D2FD68296863
S3250800040009012960FFF749FF29684018286004E07868017A41F004010172641C0A2CD2DB41
S325080004207868007AA8B9F8680068DFF8C414884202D300F05EFC18B94E2030724F2005E05E
S3250800044078680121C171532030724520707254205FE045203072522070725AE0422823D158
S32508000460707A492804BFB07A4E284ED100F05DF87868C07928B94E2030724F20707254207D
S3250800048004E052203072442070725920B0727868C179022904BF0021C1717868C1790129D6
S325080004A038D10221C17135E053280ED1707A452804BFB07A542828D17868C07968BB5520F7
S325080004C0307253207072452023E0522805D1707A44281AD1B07A59280EE0552805D1707A48
S325080004E0532812D1B07A452806E0452806D1707A52280AD1B07A522807D10EE04E2801BFF0
S32508000500707A4F28B07A542807D04520307252207072B07278680321017209F12009B9F52A
S32508000520007FFFF606AFBDE8F1834FF47A7000F03BBD10B5DFF8A8436068007A03281DD174
S3250800054000F0CDFF0028FBD100F017FD4FF4FA7000F02AFD012000F010FD00F0CDFF606873
S32508000560002101726068C179022904BF0021C171606800214171E068C160416110BD000023
S3250800058070B5D74CE068002105E0606800214171E0680169491C0161E6683069B0F5007F98
S325080005A080F0FA80656869790E29F1D8DFE801F009111C252A373C4C51666D888F99A30021
S325080005C0E6E7C849401890F800063A2840F0E2808DE000F0E3F80001A870E06800214161F9
S325080005E060684179491CD2E700F0D8F8A9784018A87060688178C170F2E700F0CFF8000179
S32508000600706074E000F0CAF8716840187060E9784018E870E068416809024160E0E700F090
S32508000620BDF800012871DBE700F0B8F82979401828716068E1684A6803799A184A60C17894
S3250800064002795118C170CBE700F0A8F800016870C6E700F0A3F86978401868706068C17812
S3250800066042785118C17060684179491C41716068817800293ED14179891C88E700F08EF842
S325080006807169A26800018854AAE700F087F87169A2688B5CC01888546068C178E268526906
S325080006A0A368D25C5118C170E0684169491C416160688278914241792CBF491C491E66E70D
S325080006C000F06CF8E97801EB0010E87088E700F065F8E9784018E8706068C178002959D1E2
S325080006E07FE78049401890F800060D2852D16879401C68714CE77B49401890F800060A285A
S3250800070048D10020E87160684178042907D1A1680A784978090401EB0261E2689160407818
S32508000720012839D000287FF430AFE06841688268511841606E4A914201D2022070BD00214C
S3250800074002E0E0684169891C4161E0684169626892789142BFF419AF40680D18680504BF5F
S32508000760284600F05BFAE0684069411C626892789142A16803D1405C40F47F4105E0425CD3
S325080007804018407802EB002189B2284600F062FA0428D6D0042070BD002070BD51494018D6
S325080007A090F8000679E510B54D4C626813782BB940022061480260610120107060680078F9
S325080007C0012830D12068E168896969B92169FFF7F9FC40229821206800F09EFEE0684FF4CD
S325080007E0E071816140200BE040229821A369181800F092FEE068816940398161A069403090
S32508000800A0614021012000F032FF3021012000F0B8FE206940302061606940386061354815
S32508000820816840398160606950B9E06800218161A16121613048032101706068002101705F
S3250800084010BD70B5264CE268D269403263681D782DB94002E0614802206201201870606829
S325080008600078012829D10020244907E02568465C5E55401CE368DD696D1CDD61E668F3691B
S325080008809342F3D31E4D2888E1694118E161226A101A2062C00506D10020F061A1F5007163
S325080008A02068FFF7C1FC134881682A88891A81604FF44051022000F075FE206A00281EBF8D
S325080008C00D480078042809D1E0680021C1610121002001F033F860680021017070BD0000C7
S325080008E0A831002014010020F8FFFF00188DDD4000400008E8310020743100201431002059
S32508000900763100204446552056335F34305F4308303132333435363738394142434445466B
S3250800092000000000EB3C904D53444F53352E3000020108000200020010F80C0001000100B4
S325080009400000000000000000000029A298E46C4E4F204E414D45202020204641543132201A
S32508000960202033C98ED1BCF07B8ED9B800208EC0FCBD007C384E247D248BC199E83C01721E
S325080009801C83EB3A66A11C7C26663B07268A57FC750680CA0288560280C31073EB33C98A37
S325080009A0461098F7661603461C13561E03460E13D18B7611608946FC8956FEB82000F7E6D2
S325080009C08B5E0B03C348F7F30146FC114EFE61BF0000E8E600723926382D741760B10BBEF4
S325080009E0A17DF3A66174324E740983C7203BFB72E6EBDCA0FB7DB47D8BF0AC9840740C4891
S32508000A007413B40EBB0700CD10EBEFA0FD7DEBE6A0FC7DEBE1CD16CD19268B551A52B0014A
S32508000A20BB0000E83B0072E85B8A5624BE0B7C8BFCC746F03D7DC746F4297D8CD9894EF2B9
S32508000A40894EF6C606967DCBEA030000200FB6C8668B46F86603461C668BD066C1EA10EBB0
S32508000A605E0FB6C84A4A8A460D32E4F7E20346FC1356FEEB4A525006536A016A10918B46FA
S32508000A8018969233D2F7F691F7F64287CAF7761A8AF28AE8C0CC020ACCB80102807E020E63
S32508000AA07504B4428BF48A5624CD136161720B40750142035E0B497506F8C341BB000060D8
S32508000AC0666A00EBB04E544C44522020202020200D0A52656D6F7665206469736B73206F07
S32508000AE072206F74686572206D656469612EFF0D0A4469736B206572726F72FF0D0A507223
S32508000B0065737320616E79206B657920746F20726573746172740D0A00000000000000ACC0
S32508000B20CBD855AA002200F04BBF10B450F8041B81B102681218001D50F8043BDC0744BF6E
S32508000B40A9F10104E31852F8044B43F8044B091FF9D1EBE710BC704762B38B0708D0521E94
S32508000B6011F8013B00F8013B00F024808B07F6D1830740F0208000BF103A07D330B4B1E847
S32508000B803810103AA0E83810F9D230BC530724BFB1E80810A0E8081044BF51F8043B40F8DD
S32508000BA0043BD20724BF31F8022B20F8022B44BF0B7803707047083A07D3B1E80810083AD2
S32508000BC040F8043B40F804CBF7D25307E4E750F8041B61B150F8042BD30744BFA9F1010330
S32508000BE09A18002342F8043B091FFAD1EFE77047002200F0FFBE0000FFE7DFF8B400DFF802
S32508000C00B4100160DFF8B01001607047FFE7DFF8AC00016841F080010160704738B505461E
S32508000C2000F015F804280DD1DFF89040206840F002002060656000F006F8216841F6FD72DC
S32508000C401140216032BD206840F0400020604FF4302037E070B504460D4600F011F80428BC
S32508000C600CD1164E306840F001003060258000F007F8316841F6FE721140316070BD088061
S32508000C804FF400501EE00E490860704704200C490A68D20701D5012070470A68520701D52C
S32508000CA0022070470968C90648BF0320704700000420024023016745AB89EFCD1020024094
S32508000CC00C20024010B5FFE70446FFF7DFFF03E02CB1FFF7DBFF641E0128F9D004B90520E9
S32508000CE010BD0000744801684268511880684018704710B5FFF7F6FF70490C6800F034F8F1
S32508000D00844201D1012010BD002010BD70B500F01BF830B10023324629462046BDE8704084
S32508000D2027E070BD70B500F00FF860B1FFF7DAFF002332460146204600F01BF8854201D191
S32508000D40012070BD002070BD04460D461646D0E710B50446FFF7C6FF00F006F8844201D1EA
S32508000D60012010BD002010BD0A23554A01465548FFE7F0B503F11506C3F14304C3F151053B
S32508000D800A330EE0C0EB40105F1003EB97774FEAA70CA3EB8C07FF0021FA07F7FFB238188E
S32508000DA05B1C1BB2B342EDDB0DE0C0EB4010631004EB93739B10A4EB8301C90022FA01F13F
S32508000DC0C9B20818641C24B2AC42EEDBF0BD2DE9F84F82468B463C4E00F08DF84FF4006711
S32508000DE000F092F837614FF47A7000F0DDF8FFF779FF0446F7604FF47A7000F0D5F80025C3
S32508000E000FF2B0084FF0004900F082F800F07CF800F062F880B200F0CBFF6D1C202DF3DBDB
S32508000E2000F069F800F064F80024002500F05FF87068C00444BF29FA05F0044300F064F82D
S32508000E4000F04AF8403080B200F0B2FF6D1C202DECDB2046FFF77CFF98B1FFF7CDFE174D2D
S32508000E60A1B22846FFF7F6FE0090210CA81CFFF7F1FE00990843C0B2042814BF134C144C3F
S32508000E8000E0144C002500F043F800F03DF800F023F8803080B200F08BFF6D1C202DF2DB85
S32508000EA000F025F800F030F80120BDE8F24F00F064B800002E000000E8F7FF1FFC000008BD
S32508000EC0023020D502DEC0DE04080140A3030200A0030200A103020043464FF4FC62594656
S32508000EE0681005EB907080100AEBC00070473761192000F059B8306840F40020306030689A
S32508000F0020F4E02030607047F760192000F04CB829FA05F00442306807D040F40020306033
S32508000F20306820F4E020306009E040F440303060306820F4402030604FF480503061376172
S32508000F40192000F031B800004FF02040DFF820144160DFF82014DFF820240A6045F211024C
S32508000F600260DFF81834C360DFF814348B6082607047000080F308887047DFF808144FF428
S32508000F800062CA600028086806D140F486200860086820F43C2005E040F43B2008600868DA
S32508000FA020F488200860704701B400984FF4FA51484300900098411E00910028FAD101B026
S32508000FC07047DFF8C403016840F2171211430160416841F42E4141F0FD0141608168DFF858
S32508000FE0AC2311438160002000F0C0BF10B586B00020ADF800004FF48270ADF80200002094
S32508001000ADF804000220ADF806000120ADF808004FF40070ADF80A000820ADF80C00002023
S32508001020ADF80E000720ADF81000DFF8644300A9204600F0A1FF0121204600F0B9FF06B010
S3250800104010BDDFF8501309200885232088851220888603200884782008834FF40040CE4AC8
S32508001060108000228A8185220A80CC4947220A8540F2E7328A8501228A8185220A80C8499D
S3250800108003220A8544F24F628A8542F228328A8601220A8478220A8381220A80C14A0021C9
S325080010A0118540F2F31191854FF49671918611873321118447F67801118381231380BA4AD9
S325080010C013231385632393854FF4807393810823938085231380B54AC723138563239385B4
S325080010E0642393861387132313841183B0490880912010807047AF48AF490160AF494160E5
S325080011004EF2FF71C160AE48AE490160AE4941604FF6FF71C160AD48AD4A0260AD4A42604D
S325080011204FF67F72C260AC48AC4A0260AC4A4260C160AC48AC4A02604FF0BB324260C16009
S32508001140AA484FF080610160704780B50021042000F04CF80020FFF710FF8A48016841F414
S3250800116040310160016821F4402101604FF480510161C820FFF718FF0120FFF7FEFE00F0E1
S32508001180BBF9BDE80140FEF7E5BF9948002101604FF4BC014160002181620C2101638021D4
S325080011A08160416841F001014160416841F00801416041680907FCD4416841F00401416036
S325080011C08C4800684007FBD48B48012101604FF40061816070470FF2502101EB001108287E
S325080011E001D20846704701F110007047F8B50C464B1E6849814D824E824A6C4F1B2827D8D0
S32508001200DFE800F00EB4B48F9E989593503D3F41434D46B4B4B4B4B4272FB4B4B4B4393BA5
S32508001220E00748BFFFF7CDFEA00748BFFFF709FF600748BFFFF75FFFE00648BFFFF7D6FECC
S32508001240600648BF00F01FFCA00601D5FFF79DFFF1BD0CB9802002E0012C01D181200880DD
S32508001260F1BD002008858C85888D401C00EBD07040108886F1BD2C80F1BDAC80F1BD338065
S32508001280F1BDB380F1BDB481F1BD5F480480F1BD41F2B05010605D489060D460F1BDA4B285
S325080012A05460F1BD54484349454BE4B1022C06D0042C5BD111684FF6FE7319402BE01C68FA
S325080012C024F030641C601C6844F080641C600B6823F470230B60116841F0010111600168B6
S325080012E041F001011BE01C6824F040641C601C6844F040741C60DC684FF6DF752C40DC608D
S325080013000B6823F430630B600B6843F480630B601168490849001160016849084900016057
S32508001320F1BD2046FFF740FEF1BDBC86F1BD60083887F1BD012C0CBF812080203880F1BD45
S3250800134021464FF0006000F07AFE4FF4A06000F045FE14208DF80000022000F059F82CB1A2
S325080013601D208DF80000012000F052F8F1BD0000020F1010040100A0000210100207101073
S325080013800104101004080140141002402F80802000380040002C0140442C0140000400403E
S325080013A000080040000C004000140040003401404434014000080140BB8880338B388388FC
S325080013C0000C014018B8BB3B3833838300100140003033BB8888383300140140BB84BBB88A
S325080013E0BB3B33BB00180140833333B304000140043C01400828014000740040340C00409B
S3250800140028080040440402402C140040087400408DF8010000208DF8020001208DF80300B2
S3250800142000A800F0E0BD0000322E383100000000000000000000000053544D3332463130A0
S325080014403356450000000000494C492039333237000000000000000041443932383800007D
S325080014600000000000000000694345343048344B000000000000000056332E3430430000E4
S32508001480000000000000000030000000000000000000000000000000384D4220496E746597
S325080014A0726E616C00000000445332303350000000000000000000002D2D2D2D2D2D2D2D8D
S325080014C02D2D2D00000000000948012101600021016041604FF4E051064A118005E00448FA
S325080014E001210160002141600321016000207047405C00401A3200200448C06102210172F2
S3250800150003490162034A42620868004780310020000000205800002010B5490001F180413C
S3250800152001F5C041521C521009E010F8013B10F8014B43EA042321F8023B891C521EF4D1D1
S3250800154010BD490001F1804101F5C041521C521004E051F8043B20F8023B521EF9D170473B
S325080015604FF6F8710840DFF890110860704710B5DFF8882152F8203048F68F142340194351
S3250800158024E010B5DFF8742152F8203048F6BF742340CC0648BF83F01003890648BF83F032
S325080015A020030FE010B5DFF8542152F820304BF68F742340CC0448BF83F48053890448BF04
S325080015C083F4005343F4004141F0800142F8201010BDDFF8281151F820204BF68F731A409C
S325080015E082F4405242F4004209E0DFF8101151F8202048F68F631A4042F40042FFE742F0D9
S32508001600800241F820207047DFF8F01051F8202052040AD551F8202048F68F731A4042F41C
S32508001620404242F0800241F820207047334951F8202052060AD551F8202048F68F731A40D7
S3250800164042F4004242F0C00241F82020704738E0294A126892B202EBC000294A37E03BE045
S325080016602549096889B201EBC00025493AE0224A126892B202EBC000224A2AE01E4A1268DF
S3250800168092B202EBC000204A02EB40003F2909D34A091F23194208BF521E1204910941F464
S325080016A0004105E04A08C90748BF521C12049109016070471049096889B201EBC00012498B
S325080016C014E00D4A126892B202EBC0000F4A4908490042F8101070470749096889B201EB5A
S325080016E0C0000A4951F8100080B2704751F810008005800D70470000505C0040005C0040DD
S3250800170008600040046000400C600040006000400106090C41EA10207047000080B59648E2
S3250800172090F82010022909D018D3042902D00ED3052913D1002180F820100CE0C17B2829C0
S325080017400CD1816A406ABDE8044000F0D0BC0121002000F0F3F84FF440512BE101BD38B5FC
S32508001760854CE57B0220FFF7A5FF60840246D8218248FFF7E6FE94F8200010B1012803D03C
S325080017800AE0BDE8314013E02A2D06D1A16A606ABDE8344000F0D5BC022000F0F9F8242163
S325080017A0052000F09FFC00210220BDE83440C5E010B5714C628C1AB170492046FFF7DCF945
S325080017C06F4861684160A1688160608C1F2806D0022000F0DDF8002020601A218DE0E27B5B
S325080017E0282A18BF2A2A0FD1607CA17C090441EA0060E17C40EA0120217D08436062A07D7D
S32508001800E17D41EA0020A06220685E49884270D15D480068617B884204D3A07B401EC0B260
S32508001820102804D3022000F0B3F8242165E0606AA16A002A49D0032A2BD0082A18BF0A2AC7
S3250800184053D0122A29D0152A4FD01A2A2DD01B2A27D01D2A49D01E2A23D0232A2DD0252A13
S325080018602FD0282A35D02A2A37D02F2A39D0552A3BD05A2A1DD0882A18BF8A2A35D08F2A51
S3250800188018BF9E2A31D0A82A1CBFAA2AAF2A2CD02FE0BDE8104000F01DBCBDE8104000F092
S325080018A0E3BBBDE8104000F021BCBDE8104000F009BCBDE8104000F009BCBDE8104000F081
S325080018C0E2BBBDE8104000F0EDBBBDE8104000F077BCBDE8104000F00ABCBDE8104000F028
S325080018E030BCBDE8104000F055BCBDE8104000F06CBC022000F04CF82021052000F0F2FB52
S3250800190000210120BDE8104018E010B50C4622469821FFF701FE21460120FFF7A8FE3021E8
S325080019200120FFF72EFE1448032180F8201014488168091B81600021017310BD10B50C466B
S325080019400F4B1249196018730D2298211846FFF7E3FD0D210120FFF78AFE0748052180F8EA
S32508001960201044B1042180F8201030210120BDE81040FFF706BE10BD54310020143100206F
S32508001980E831002055534243083200205553425380B518B1022807D00AD301BD1021012050
S325080019A0BDE80440FFF7EDBD10210120FFF7E9FD4FF480510220BDE80440FFF7F3BD00009D
S325080019C000B500BF130096469446103928BFA0E80C50FAD85FEA417C28BF0CC048BF40F8DE
S325080019E0042BC90728BF20F8022B48BF00F8012B00BD0000401810F0030308D0C91A1FD3BB
S32508001A00DB0748BF00F8012D28BF20F8022D130030B414461546103928BF20E93C00FAD888
S32508001A20490728BF20E90C0048BF40F8042D890028BF20F8022D48BF00F8012D30BC704755
S32508001A40C91818BF00F8012DCB0728BF00F8012D70470000DFF800154FF480520A605FF04A
S32508001A60C0410880DFF8F4144FF480520A60704710B504003620FFF7EDFFE4B260015FF073
S32508001A80C041088010BD80B5DFF8D0044FF480510160DFF8C8044FF4006101600120FFF7CE
S32508001AA083FADFF8B4044FF4006101603220FFF77BFADFF8A8044FF4006101606420FFF748
S32508001AC073FAE920FFF7C6FF5FF0C040202101801120FFF7BFFF6420FFF766FAD120FFF710
S32508001AE0B9FF5FF0C040002101805FF0C040702101805FF0C0401C210180D020FFF7AAFF32
S32508001B005FF0C040072101805FF0C040012101805FF0C040012101803620FFF79BFF5FF0A6
S32508001B20C040402101800C20FFF794FF5FF0C040552101803A20FFF78DFF5FF0C040552119
S32508001B400180C120FFF786FF5FF0C040102101805FF0C040102101805FF0C04002210180A5
S32508001B605FF0C04002210180C020FFF773FF5FF0C040002101805FF0C040352101805FF0B6
S32508001B80C040002101805FF0C040002101805FF0C040012101805FF0C04002210180C520DA
S32508001BA0FFF758FF5FF0C04001210180D220FFF751FF5FF0C040012101805FF0C04022211C
S32508001BC00180C820FFF746FF5FF0C040012101805FF0C040732101805FF0C04037210180D5
S32508001BE05FF0C040002101805FF0C0400F2101805FF0C040022101805FF0C04004210180FE
S32508001C005FF0C040402101805FF0C040672101805FF0C040002101805FF0C0400221018049
S32508001C205FF0C0400F2101805FF0C040082101805FF0C040802101805FF0C040002101803B
S32508001C402920FFF707FF2C20FFF704FF01BDF8B504000D0016001F002A20FFF7FBFEADB2A3
S32508001C60280A5FF0C0410880E8B25FF0C0410880BFB2380A5FF0C0410880F8B25FF0C04155
S32508001C8008802B20FFF7E6FEA4B2200A5FF0C0410880E0B25FF0C0410880B6B2300A5FF0D6
S32508001CA0C0410880F0B25FF0C04108802C20FFF7D1FEF1BD38B504000D002A20FFF7CAFE4E
S32508001CC05FF0C04000210180E8B25FF0C04108805FF0C040002101805FF0C040EF210180C2
S32508001CE02B20FFF7B7FEA4B2200A5FF0C0410880E0B25FF0C04108805FF0C040012101802C
S32508001D005FF0C0408F2101802C20FFF7A3FE31BD0A00511E92B2002A05D05FF0C0420388CC
S32508001D201380801CF4E770475FF0C0410880704780B52E20FFF78EFE5FF0C0400088ADF8C4
S32508001D4000005FF0C0400088ADF800002C20FFF781FEBDF8000002BD38B504000021002092
S32508001D60FFF7A8FF002005007D48854205D2200080B2FFF7D9FF6D1CF6E731BD0200D2B236
S32508001D80212A02D3D2B27F2A01D300200FE089B207290BD2D2B2072089B200FB0210714910
S32508001DA011EB4000B0F5E770008800E0002070472DE9F04704000D0016001F0015F10D03F5
S32508001DC09BB240F28F12290089B2200080B2FFF73EFF002082461FFA8AFABAF10E0F05D2C8
S32508001DE00020FFF7A1FF1AF1010AF4E7387800282AD0002082461FFA8AFABAF1080F21D222
S32508001E00514689B23878FFF7B9FF8146002080461FFA88F8B8F10E0F11D25FEA497004D5BA
S32508001E20300080B2FFF780FF02E00020FFF77CFF1FFA89F95FEA590918F10108E8E71AF118
S32508001E40010AD8E77F1CD1E7EF2340F28F1200210020FFF7FCFEBDE8F0872DE9F04389B0A3
S32508001E6004000D004048060014F58070814600200700BFB2102F21D2BFB216EB870090F8AA
S32508001E803600C0B2C008C0B2BFB216EB870191F83710C9B28908C9B2490111EBC020BFB26A
S32508001EA016EB870191F83810C9B2C908C9B20818BFB200A921F817007F1CDAE706F27606B9
S32508001EC000200700BFB2802F42D2A4B2BFB214EB47008146290089B2484680B2FFF7EAFEC3
S32508001EE0002080461FFA88F8B8F1400F0FD2BFB21FFA88F8802000FB0870805D001100A9C8
S32508001F0031F81000FFF710FF18F10108EAE7290089B219F1010080B2FFF7CCFE002080464B
S32508001F201FFA88F8B8F1400F10D2BFB21FFA88F8802000FB0870805D10F00F0000A931F845
S32508001F401000FFF7F1FE18F10108E9E77F1CB9E709B0BDE8F08300001414014010140140C2
S32508001F6000770100482A000800D807080149086070470000D8004242028802F441520B880F
S32508001F801A434B881A438B881A43CB881A430B891A434B891A438B891A43CB891A430280C0
S32508001FA0828B4FF2FF731A408283098A018270470029018812BF41F040014FF6BF7211406B
S32508001FC001807047818170478089704700220089084218BF01221046704700001B49084397
S32508001FE01B490860704770B503781A460121C478ECB1174B1B6803F4E063C3F5E0631B0A16
S325080020004478C3F10405AC4085780F2626FA03F32B4023431B010F4C1355007842110E4B31
S3250800202000F01F0001FA00F043F8220070BD50110A4A03F01F03994042F8201070BD084A82
S325080020401140084307490860704700000000FA050CED00E000E400E000E100E080E100E0C9
S3250800206080FFFF1F08ED00E07449087CC00702D57348052105E00FF2E410C97C192928BFD8
S325080020801821FFF742BC6F4800218180022181710021C1714172022181720021C1720C217A
S325080020A0FFF733BC6848002101800F218170FF21C17000218180022181710021C1710821B6
S325080020C0FFF723BC04216148FFF71FBC08216048FFF71BBC5948C17C132928BF12215D4807
S325080020E0FFF713BC5B4A90701173704769E070B504460D46584E3078C0B92A46214628203C
S3250800210000F076F8C8B14D48007B000603D50220307029460CE00220FFF73AFC00F00EF88B
S3250800212001210120BDE87040FFF708BC022804D12046BDE87040FEF736BB70BD2421052008
S32508002140D0E710B5444C2278EAB90A4601462A2000F04EF8E8B13948007B000608D4012079
S3250800216020704FF440510220BDE81040FFF71ABA0020FFF70DFCFFF7E1FF00210120BDE830
S325080021801040FFF7DBBB012A04BFBDE81040FEF758BB10BD80B52948816829B9007C400769
S325080021A002D40121002006E00220FFF7F1FBFFF7C5FF00210120FFE7BDE80440FFF7BEBBD5
S325080021C000BF01210020FFF7B9BB80B51B48816809B9002004E0007B00064CBF0020022071
S325080021E0FFF7D6FB2021FFF7AAFF00210120E3E780B55118B1F5805F09D92A2804BF0220E2
S32508002200FFF7C6FB0020FFF7C3FB21210BE00B498968B1EB422F0ED02A280CBF0220002069
S32508002220FFF7B6FB2421FFF78AFF00210120FFF785FB002002BD012002BD00005431002009
S32508002240F8310020E4000020003200201001002000010020D0000020743100200080020246
S32508002260200000005669727475616C20444655204469736B10B5DFF8884700B92BE000F080
S3250800228096F80068804720680A3010BD80B5DFF870070068C178DFF86C2752788A420CD3E1
S325080022A08278002A04BF8288002A06D1817200F07EF840688047002002BD022002BD10B5D1
S325080022C0DFF83C4700B906E000F071F88068804720680C3010BD206801210182002010BD44
S325080022E010B5DFF81C472068C1784079DFF8182712689269904721688A7A92B1002804BF3A
S32508002300087900280DD1887858B900F050F8C068804720684179C1722068C1780173002026
S3250800232010BD022010BD1CB5DFF8D416096810B90220088239E0DFF8D44600202080087811
S3250800234000227F23184215D1487A81064CBF42F0020102F0FD0121702178400654BF01F07E
S32508002360FE0041F00100207000F021F800698047204616BD00F07F03012BF9D000F07F0047
S32508002380022812D1487900F00F0142F0010200F088FA05D500F030001028E5D12270E3E776
S325080023A000F44050B0F5805FF7E7002016BDDFF8600600687047F8B5DFF84406006801782B
S325080023C011F07F0104D1417A01F0DF0141724FE0022901BF41880029017900294AD14179D6
S325080023E021F08005DFF82C460A0654F825204CBF02F0300202F44052DFF808361B789D4211
S3250800240038D2002A1CBF807A002833D0080654F825000BD500F03000102825D12846FFF769
S3250800242005F930212846FFF7ACF81DE000F44050B0F5805F18D148F280064BF68F7745B944
S3250800244000F0BDFA2068384080F44050304320600AE02846FFF7D8F854F82500384080F455
S325080024604050304344F82500FFF7A1FF406980470020F2BD0220F2BD38B5DFF8840502688D
S32508002480537923F08000DFF88C151C0651F820404CBF04F0300404F44054DFF868552D7894
S325080024A0A84206D2558825B9002C1CBF927A002A01D1022032BD48F280021B0651F82030FB
S325080024C005D548F6BF74234083F0100304E04BF68F74234083F480531A4341F82020FFF719
S325080024E066FF80698047002032BD80B5DFF810050068417A41F020014172FFF758FFC069EB
S325080025008047002002BDDFF8F8241268538A20B98888C01A1082002070470868181870473A
S32508002520F8B5DFF8DC54286800F110042688A168080018BF002E14D0A088864288BF064619
S325080025403046884707462088801B20806088301860800020FFF784F8324601463846FEF724
S32508002560F0FFDFF8B464208850B1DFF8B0044FF44051018000210020FFF779F8302030803E
S3250800258028682188A288914228BF032101D211B105210172F1BD06210172DFF884040068AF
S325080025A080B2DFF88014002241F8102030203080F1BD2DE9F843DFF84844206800F11006F4
S325080025C03188DFF85454002904BF007A042816D1DFF85404017801290DD1DFF844140968EC
S325080025E089B2DFF84024002342F8113030212980042703702CE007271020288028E0B6F859
S325080026000480884505D30427414588BF4146884600E002274046B168884781460020FFF7E2
S325080026201EF8424601464846FEF776FF41460020FFF71DF83088A0EB080030807088404486
S32508002640708030202880DFF8D4034FF44051018020680772BDE8F18338B5DFF8A443206834
S32508002660457801787F22114238D1092D02D1FFF70DFE47E0052D1BD1C17880294FD28178CE
S32508002680002901BF81880029807A002847D10620DFF88C13096889B2DFF88823002342F8B0
S325080026A01130DFF8741330220A802168087231BD032D08D1C178012904BF8088002823D14D
S325080026C0FFF713FF1EE0012D04BFC17801291BD18188C9B9407A80060DD415E001F07F0095
S325080026E0012804D10B2D0FD1FFF7FAFD0AE002280AD1012D02D1FFF75EFE03E0032D03D1A0
S32508002700FFF7BAFE0028C2D02846BF49096849698847032808BF0920C7D00028B7D0082052
S32508002720C3E738B5B64D28684178B74C062913D101787F2211422AD18078012802D12068AE
S32508002740C16968E0022802D12068016A63E003281DD12068416A5EE000293DD14188002913
S3250800276004BFC188022912D1017981B901787F22114204BF8288002A2CD001F07F02012A80
S3250800278010D100F089F810B92868807A10BB28684078216809698847032845D128680921AE
S325080027A0017231BD01F07F010229F0D1407900F00F0100F0700200F074F84CBF00F03000AB
S325080027C000F440508F4B1B789942E0D2002ADED10028DCD095491EE0082905D100787F21C5
S325080027E00842D4D1924916E00A2902BF017801F07F010129CBD1817A0029C8D041880029B9
S3250800280001BF01790029C1880129C0D100F044F80028BCD187490800B9D02868002242828B
S32508002820816100208847002029680A8A4FF6FF739A4208BF092004D0022818BF002A02D11F
S325080028400820087231BD087800061ED5C88800902368009C944202D2009808820FE08242DB
S325080028600DD293F82C00704C824238BF002005D392FBF0F500FB152008B90120207093F8A6
S325080028802C008882BDE8314093E60320087263484FF44051018031BD00214079226892697B
S325080028A010475C4B000653F82100704738B55C48006880B2604931F81000400000F18040E5
S325080028C000F5C0404E4C21680A7A092A14D010F8012B0A70216810F8012B4A70851C35F844
S325080028E0040BFEF715FF216848802888FEF710FF21688880A888C8802068012101722068FF
S32508002900C08810B9FFF7A8FE01E0FFF70AFFBDE831403EE010B53A4C2068017A022918BF98
S32508002920042904D1FFF745FE2068007A14E0062911D14178052902BF01787F22114206D15B
S32508002940C07800F042F8FFF732FD006A80472E48006880688047082017E010B5284C206844
S32508002960007A022818BF04280ED0032818BF052804D1FFF7D5FD2068007A06E0072803D10D
S3250800298021480068C0688047082021680872BDE8104080B500F013F819480068017A0829A4
S325080029A006D11E494FF480520A801B4910220A80007A092801D1012002BD002002BD1F4869
S325080029C090F82C100020FEF759BE70B50D4909780022104B48F68F760BE0D4B253F824500D
S325080029E03540254345F4004545F0800543F82450521C8A42F1D340F080001149086070BD68
S32508002A009C3100200C010020A031002010320020A4310020005C00401632002014320020DC
S32508002A20505C0040046000401C3200202723000875220008BF2200080860004000000020E8
S32508002A404C5C004070470000000000000000303F303F000000000000003800300000000083
S32508002A600000000000008004E01F80048004E01F80044004600E2009F01F2009E00DC00476
S32508002A806018C018800100030006600C60180000C0002005201BA00A4004A00000000000BC
S32508002AA00000003800300000000000000000C00FE01F3030102000000000000010203030B2
S32508002AC0E01FC00F0000000140058003E00F800340050001000080018001E007E007800148
S32508002AE0800100000000080070006000000000000000800180018001800180018001000069
S32508002B0000000000300030000000000030006000C000800100030006000CE01FF03F902083
S32508002B2010231024F03FE01F000010081018F03FF03F100010007010F0309021102310267A
S32508002B40303C301820103030102210221022F03FE01D00030007000D1019F03FF03F1001B2
S32508002B60203E303E102210221023F023E021E00FF01F103210221022F003E00100300030F8
S32508002B80F021F0230026003C0038E01DF03F102210221022F03FE01D001C103E10221022AD
S32508002BA03022E03FC01F000000000000600C600C00000000000000000800700C600C0000EF
S32508002BC00000000000018003C006600C3018101040024002400240024002400240020000FB
S32508002BE010103018600CC0068003000100180038B021B0230026003C0018C00F2010902785
S32508002C009024D0275010800FF007F00F001900310019F00FF0071020F03FF03F10221022CB
S32508002C20F03FE01DC00FE01F303010201020303060181020F03FF03F10203030E01FC00F08
S32508002C401020F03FF03F10221027303070381020F03FF03F1022002700300038C00FE01F4A
S32508002C60303010211021E031F019F03FF03F000200020002F03FF03F000000001020F03F49
S32508002C80F03F10200000E000F00010001020F03FE03F00201020F03FF03F0003800FF03CFD
S32508002CA070301020F03FF03F1020100030003000F03FF03F001C000E001CF03FF03FF03F07
S32508002CC0F03F0018000C0006F03FF03FC00FE01F303010203030E01FC00F1020F03FF03F15
S32508002CE010220022003E001CE01FF03F102070203020F83FE81F1020F03FF03F00220023C9
S32508002D00F03FF01C6018703C102610221023F039E018000000381030F03FF03F103000383C
S32508002D20E03FF03F100010001000F03FE03F803FC03F600030006000C03F803FC03FF03F1F
S32508002D407000C0017000F03FC03F3030F03CC00F0003C00FF03C30300000003C103EF00360
S32508002D60F003103E003C7038F030902110231026303C703800000000E01FF03F1020102044
S32508002D800000000C000600038001C000600030000000000010201020F03FE01F00000008A9
S32508002DA000100020001000080000000010001000100010001000100010000000000000004D
S32508002DC00030000800000000E001F00B100A100AE00FF00710001020F03FE03F1002100205
S32508002DE0F003E001E003F00710041004100430062002E001F00310021022F03FF03F1000FD
S32508002E00E003F0071005100510053007200300001002F01FF03F102200300018C803EC07A9
S32508002E2024042404FC03F80700041020F03FF03F00020004F007F003000000001004F03779
S32508002E40F03710000000000018001C000404FC37F83700041020F03FF03F8001C003700643
S32508002E603004000000001020F03FF03F10000000F007F0070006F0030006F007F003000497
S32508002E80F007F00300040004F007F003E003F007100410041004F007E0030404FC07FC034E
S32508002EA024042004E007C003C003E00720042404FC07FC0304041004F007F00310060004F6
S32508002EC00006000300002002300790059004F006600200040004E01FF03F10043004200063
S32508002EE0E007F00710001000E007F00710000000C007E00730003000E007C007E007F0073E
S32508002F003000E0003000F007E00710043006E003C001E003300610048007C4074400440090
S32508002F204400F807F00730067006D0049005100730063004000000018003701C0820082053
S32508002F400000000000000000F03F00000000000008200820701C80030001000000000001D3
S32508002F60000200020001800080000001FEF729F8FEF7C1F8FEF765F8FEF707F9FEF736F80F
S32508002F80FDF7E2FFFEF77FFD0020FEF7E5FE8C214820FEF762FF754C4FF6FF7574480068DC
S32508002FA040064ED40FF2F81300F0EEF8714E334600F0EFF80FF2FC132A46462100F0E6F8F5
S32508002FC006F110032A464621C020FEF7F1FE0FF2F0132A46322100F0D9F806F120032A462C
S32508002FE03221C020FEF7E4FE0FF2E0132A461E2100F0CCF806F170032A461E21C020FEF774
S32508003000D7FE012020800020608061882088FEF751FEFEF78DFEA08061882088FEF74AFEC9
S32508003020A088FEF781FE6088401C608080B2F028EBD32088401C208080B2B0F5C87FE2D343
S32508003040FEE7FDF7D9FD4C480068400437D50FF2881300F099F800F02EF920B90FF28C13BA
S3250800306000F097F8FEE740A300F093F8FDF741FE48B90FF280131F22462100F087F832214E
S325080030806820FDF7A4FE4FF4FA70FDF78DFF0FF27C132A465A21B020FEF78AFE0120FDF7FA
S325080030A06CFF364E306836490840B0F1005F06D1FDF7ACFD77683068FDF75CFFB84701205A
S325080030C0FDF75BFFFEF741F80FF248134FF4FC625A214820FEF76CFEFDF704FE014604F1F5
S325080030E0080000F02AF904F108032A465A218020FEF75EFE2348016804F1080000F01DF9F4
S3250800310004F108032A465A214FF48470FEF750FE0FF21C134FF4FC6246215020FEF748FE59
S325080031200520FDF77FF803464FF4FC6246214FF48870FEF73DFE0FF214132A4632215020DA
S32508003140FEF736FE0FF224132A461E216820FEF72FFEFDF751FDFDF7E4F8FDF7EAF932206C
S32508003160FDF722FFF5E700004F6B2100CC310020081401402814000808080140004000081E
S325080031800000FF2FFC0000082A465A217020FEF70FBE2A465A214FF48070FEF709BE0000D8
S325080031A048617264776172653A2056657273696F6E2000004D435520547970653A20000072
S325080031C04C434D204374726C3A200000555342204469736B3A2000004650474120436F6EA9
S325080031E0666967726174696F6E000000457272210000000053797374656D204C6963656E24
S325080032006365204572726F7221000000202020200000000053657269616C3A2020202020D3
S32508003220202020204C6963656E63653A00000000446576696365204669726D776172652046
S32508003240557067726164652000000000506C6561736520436F707920486578206F722042BB
S32508003260696E2046696C6520746F000054686520444655205669727475616C205553422075
S325080032804469736B000000000146481E89B20029FAD1704730B508211E4A4FF480534FF433
S325080032A00064546005064CBF1360536014604000491EF6D130BD70B5174C20680068174905
S325080032C0884201D0002070BD154D164828604FF4806028614FF480462E610220FFF7D4FF81
S325080032E0EE604FF4C850FFF7CFFF00262068305CFFF7D0FF761C0C488642F7D34824FF2051
S32508003300FFF7C8FF641EFAD108482860686800F4004070BD100C0140080100207EAA997EC7
S32508003320040C014038338383B80F02003833888800F8011B0021017070471C2221FA02F3CE
S3250800334003F00F030A2BACBF3733303300F8013B121F53B2002BF1D5ECE7000080B500F09A
S32508003360F8F88B48006800218172FEF7ADF88948002141604FF40441874A118001608748B9
S325080033800021016001BD10B5854800218172804800688449C97941720020FEF7E1F84FF416
S325080033A000710020FEF7E3F820210020FEF7E9F818210020FEF74CF97B4C00F042F858216A
S325080033C00020FEF744F90020FEF70FF90020FEF700F900210120FEF7CAF898210120FEF79A
S325080033E036F920210120FEF7CCF800210120FEF7D9F800210220FEF7BAF8D8210220FEF773
S3250800340027F994F82C100220FEF738F94FF440510220FEF7C7F800210220FEF7B2F800F0F2
S3250800342010F80020FEF7D5F80020FFF7CEFA5B48012101605D485E4901605E4800210170AB
S3250800344010BD94F82C100020FEF718B950480068807A00B9704780B5504805210160012004
S32508003460FEF7E4F80220FEF7CFF852480021017001BD4E4800684E4988421CBF0220FEF754
S3250800348087BA704745480421016070477047704780B53F4909680A7802F07F02212A08BFB9
S325080034A0FE280BD14888002801BF88880028C888012803D10FF28900020001D1022002BD80
S325080034C088610020488200F03BF8002002BD80B52F4909680A7802F07F02212A08BFFF28BD
S325080034E015D14888002804BF888800280FD1C88868B90120FEF79AF80220FEF785F82B48E5
S325080035002B4901602B4800210170002002BD022002BD00290CBF0028022070472649FEF7AA
S32508003520F2BF2649FEF7EFBF19490968C978062901DB00207047224A02EBC101FEF7E3BF12
S3250800354028B91348006801210182002070471D4870471D4801684268806801B9704710B58B
S325080035601A4B99700C0A1C710C0C9C71090E19729A72110A1973110C9973110E19749874D1
S32508003580010A1975010C9975000E187610BD00009C310020405C00401A3200200C3200206D
S325080035A080310020B439000800000020543100205553424374310020F0000020F800002058
S325080035C03000002008320020E8F7FF1F7C00002038B504460D466A48FDF774FB05281CBFF3
S325080035E03420FDF750FB29462046BDE83440FDF731BB704738B5044600F0ABF8012000F0CA
S325080036009BF8604D80206860202000F071F8200200F049F8200400F046F8E0B200F068F8D4
S32508003620802028600020BDE8324085E0F8B504460D460920FCF780FD86B2701E85432846D9
S32508003640FFF7D8FF002706E002227919381900F005F807F58077B742F6D3F1BDF8B500F08E
S3250800366043F8012000F068F8464F80207860304600F03EF800F016F8280400F014F8E8B227
S3250800368000F036F80025285DC043C0B200F030F86D1CB5F5807FF6D3802038600020BDE8CF
S325080036A0F24049E02802000E22E0F8B500F01CF8344F80207860032000F01AF8FFF7F2FFAF
S325080036C02804FFF7F0FFE8B200F012F8002505E0A52000F00DF8C04328556D1CADB2B54214
S325080036E0F6D380203860F1BD04460D46164630E0F8B504460025244E244F02213846FEF76D
S3250800370065FC20B92846451CB042F6D30DE021463846FEF757FC002501213846FEF756FCB1
S3250800372028B92846451CB042F6D3FF20F2BD3846FEF74AFCC0B2F2BD10B5124C80216160E3
S3250800374001280CBF06200420FFF7D2FF8020206010BD38B500240B4D802068600520FFF77D
S32508003760C7FFA520FFF7C4FFC00705D52046441C05498842F5D331BD8020286031BD0000AC
S32508003780A086010010140140A1860100003800402DE9F84F0020ADF8000040F68F7848F652
S325080037A00F7B48F28006444F444CDFF81491DFF814A14BF6BF7525E054F82010ADF80010DB
S325080037C0BDF8001009040BD554F8201008EA010144F820103C4901EB800050F8040C80473D
S325080037E0BDF8000000060DD599F8000054F820100BEA010144F82010344901EB800050F87D
S32508003800040C8047606CAAF80000000452D5BAF8000010F00F0089F80000CDD1206838800A
S32508003820388800F030007880388800F4405038802068284080F4005080F02000304320606F
S32508003840BAF80000C006206805D40BEA00002060FFF760F816E0ADF80000BDF80000000569
S3250800386006D5206808EA00002060FFF71FF809E0BDF800000004C5D5206808EA0000206022
S32508003880FFF76BF8206828403988C90448BF80F480503988890448BF80F400507988C9060F
S325080038A048BF80F010007988890648BF80F0200030432060BDE8F18F14320020005C004032
S325080038C01D32002018320020B4000020980000202E48016841F00101016041682C4A114092
S325080038E0416001682B4A11400160016821F480210160416821F4FE0141604FF41F01816067
S325080039000021026842F4803202600268491C920302D4B1F5A06FF8D10168890330D51E49AB
S325080039200A6842F010020A600A68920892000A600A6842F002020A604168416041684160AB
S32508003940416841F480614160416821F47C114160416841F4E8114160016841F080710160A9
S3250800396001688901FCD54168890889004160416841F002014160416801F00C010829FAD1F0
S3250800398006484FF00061016070470000001002400000FFF8FFFFF6FE0020024008ED00E0A1
S325080039A0120100020000004083042057000201020301000009022000010100C03209040071
S325080039C00002080650040705810240000007050202400000040309042603530054004D0025
S325080039E06900630072006F0065006C0065006300740072006F006E00690063007300000071
S32508003A002603530054004D003300320020004D006100730073002000530074006F0072009A
S32508003A20610067006500000010035300540020004D0061007300730070B50D4C0D4D286875
S32508003A4020800D4E208831880840400505D50B48406880474FF6FF3028602088318808402E
S32508003A60000444BFBDE87040FFF792BE70BD000018320020445C00401A3200200000002093
S32508003A80FDF74CBEFDF76BBE10B5074979441831064C7C44163404E0081D0A6851188847D3
S32508003AA00146A142F8D110BD08000000280000001FD1FFFF0C3100001401002000000000A8
S32508003AC06BD0FFFF140100009401000000000020000000007047FEE7FEE7FEE7FEE77047D3
S32508003AE0704770477047FFF7A7BF704700F009F8002801D0FFF7C8FF0020FFF737FA00F0A2
S32508003B0002F80120704700F001B800000746384600F002F8FBE70000C046C046024A11001C
S32508003B201820ABBEFBE700BF260002000148804701480047D13800083D3B0008C046C046D0
S32508003B40C046C046FFF7D2FFFFF7C4BFFFF7C3BFFFF7C2BFFFF7C1BFFFF7C0BFFFF7BFBFBD
S32508003B60FFF7BEBFFFF7BDBFFFF7BCBFFFF7FEBFFFF7FEBFFFF7FEBFFFF7FEBFFFF7FEBF62
S32508003B80FFF7FEBFFFF7FEBFFFF7FEBFFFF7FEBFFFF7FEBFFFF7FEBFFFF7FEBFFFF7FEBF7F
S32508003BA0FFF7FEBFFFF7FEBFFFF7FEBFFFF7FEBFFFF7FEBFFFF7FEBFFFF7FEBFFFF793BFCA
S32508003BC0FFF7FEBFFFF7FEBFFFF78FBFFFF7FEBFFFF7FEBFFFF7FEBFFFF7FEBFFFF7FEBFAE
S32508003BE0FFF7FEBFFFF7FEBFFFF7FEBFFFF7FEBFFFF7FEBFFFF7FEBFFFF7FEBFFFF7FEBF1F
S32508003C00FFF7FEBFFFF7FEBFFFF7FEBFFFF7FEBFFFF7FEBFFFF7FEBFFFF7FEBFFFF7FEBFFE
S32508003C20FFF7FEBFFFF7FEBFFFF7FEBFFFF7FEBFFFF7FEBFFFF7FEBFFFF7FEBFFFF7FEBFDE
S32508003C40FFF7FEBFFFF7FEBFFFF7FEBFFFF7FEBFFFF7FEBFFFF7FEBFFFF7FEBF5D330008D9
S32508003C60873300088D3400088F34000891340008CF340008133500081D35000823350008FE
S32508003C80293500080000000040000000D439000804000000D839000826000000003A0008D6
S32508003CA0260000007C0000201A000000283A000810000000452A00084D340008452A000829
S32508003CC0452A0008452A000873340008452A0008452A0008853400081A03530054004D0079
S32508003CE03300320031003000000000000000000000000000813A0008452A0008452A00083F
S32508003D00452A0008452A0008452A0008452A0008452A0008853A0008452A0008452A00088D
S32508003D20452A0008452A0008452A0008700000000000000A00000000000000000000000096
S32508003D40000000080000000002000000A039000812000000B439000820000000000600003D
S32508003D600000000000C805080301000003000000FFFFFFFFFFFFFFFFFFFFFFFFFFFFFFFF69
S32508003D80FFFFFFFFFFFFFFFFFFFFFFFFFFFFFFFFFFFFFFFFFFFFFFFFFFFFFFFFFFFFFFFF35
S32508003DA0FFFFFFFFFFFFFFFFFFFFFFFFFFFFFFFFFFFFFFFFFFFFFFFFFFFFFFFFFFFFFFFF15
S32508003DC0FFFFFFFFFFFFFFFFFFFFFFFFFFFFFFFFFFFFFFFFFFFFFFFFFFFFFFFFFFFFFFFFF5
S32508003DE0FFFFFFFFFFFFFFFFFFFFFFFFFFFFFFFFFFFFFFFFFFFFFFFFFFFFFFFFFFFFFFFFD5
S32508003E00FFFFFFFFFFFFFFFFFFFFFFFFFFFFFFFFFFFFFFFFFFFFFFFFFFFFFFFFFFFFFFFFB4
S32508003E20FFFFFFFFFFFFFFFFFFFFFFFFFFFFFFFFFFFFFFFFFFFFFFFFFFFFFFFFFFFFFFFF94
S32508003E40FFFFFFFFFFFFFFFFFFFFFFFFFFFFFFFFFFFFFFFFFFFFFFFFFFFFFFFFFFFFFFFF74
S32508003E60FFFFFFFFFFFFFFFFFFFFFFFFFFFFFFFFFFFFFFFFFFFFFFFFFFFFFFFFFFFFFFFF54
S32508003E80FFFFFFFFFFFFFFFFFFFFFFFFFFFFFFFFFFFFFFFFFFFFFFFFFFFFFFFFFFFFFFFF34
S32508003EA0FFFFFFFFFFFFFFFFFFFFFFFFFFFFFFFFFFFFFFFFFFFFFFFFFFFFFFFFFFFFFFFF14
S32508003EC0FFFFFFFFFFFFFFFFFFFFFFFFFFFFFFFFFFFFFFFFFFFFFFFFFFFFFFFFFFFFFFFFF4
S32508003EE0FFFFFFFFFFFFFFFFFFFFFFFFFFFFFFFFFFFFFFFFFFFFFFFFFFFFFFFFFFFFFFFFD4
S32508003F00FFFFFFFFFFFFFFFFFFFFFFFFFFFFFFFFFFFFFFFFFFFFFFFFFFFFFFFFFFFFFFFFB3
S32508003F20FFFFFFFFFFFFFFFFFFFFFFFFFFFFFFFFFFFFFFFFFFFFFFFFFFFFFFFFFFFFFFFF93
S32508003F40FFFFFFFFFFFFFFFFFFFFFFFFFFFFFFFFFFFFFFFFFFFFFFFFFFFFFFFFFFFFFFFF73
S32508003F60FFFFFFFFFFFFFFFFFFFFFFFFFFFFFFFFFFFFFFFFFFFFFFFFFFFFFFFFFFFFFFFF53
S32508003F80FFFFFFFFFFFFFFFFFFFFFFFFFFFFFFFFFFFFFFFFFFFFFFFFFFFFFFFFFFFFFFFF33
S32508003FA0FFFFFFFFFFFFFFFFFFFFFFFFFFFFFFFFFFFFFFFFFFFFFFFFFFFFFFFFFFFFFFFF13
S32508003FC0FFFFFFFFFFFFFFFFFFFFFFFFFFFFFFFFFFFFFFFFFFFFFFFFFFFFFFFFFFFFFFFFF3
S32508003FE0FFFFFFFFFFFFFFFFFFFFFFFFFFFFFFFFFFFFFFFFFFFFFFFFFFFFFFFFFFFFFFFFD3
S325080040002816002019900008418D0008438D0008458D0008478D0008498D00080000000041
S325080040200000000000000000000000004D8D00084B8D0008000000004F8D0008518D0008E6
S32508004040538D0008558D0008578D0008598D00085B8D00085D8D00085F8D0008618D0008DA
S32508004060638D0008658D0008678D0008698D00086B8D00086D8D00086F8D0008718D00083A
S32508004080738D0008758D0008778D0008798D00087D8D0008818D0008838D0008858D00088C
S325080040A0878D0008898D00088B8D00088D8D00088F8D0008918D00086D8E00086F8E000824
S325080040C0718E0008738E0008758E0008778E0008798E00087B8E00087D8E00087F8E000862
S325080040E0818E0008838E0008858E0008878E0008898E00088B8E00088D8E00088F8E0008C2
S32508004100918E0008938E0008958E0008978E0008998E00089B8E00089D8E00089F8E000821
S32508004120A18E0008A38E0008A58E0008A78E0008FFFFFFFFFFFFFFFFFFFFFFFFFFFFFFFF99
S32508004140FFFFFFFFFFFFFFFFFFFFFFFFFFFFFFFFFFFFFFFFFFFFFFFFFFFFFFFFFFFFFFFF71
S32508004160FFFFFFFFFFFFFFFFFFFFFFFFFFFFFFFFFFFFFFFFFFFFFFFFFFFFFFFFFFFFFFFF51
S32508004180FFFFFFFFFFFFFFFFFFFFFFFFFFFFFFFFFFFFFFFFFFFFFFFFFFFFFFFFFFFFFFFF31
S325080041A0FFFFFFFFFFFFFFFFFFFFFFFFFFFFFFFFFFFFFFFFFFFFFFFFFFFFFFFFFFFFFFFF11
S325080041C0FFFFFFFFFFFFFFFFFFFFFFFFFFFFFFFFFFFFFFFFFFFFFFFFFFFFFFFFFFFFFFFFF1
S325080041E0FFFFFFFFFFFFFFFFFFFFFFFFFFFFFFFFFFFFFFFFFFFFFFFFFFFFFFFFFFFFFFFFD1
S3250800420004F045BD04F050BE00F0DCB800F007BB71E070E000F046BB00F059BB00F019BC07
S3250800422076E075E091E090E099E098E066E065E078E077E0A3E075E003F067BD58E057E05B
S3250800424050E04FE051E050E000F04BBB00F09ABF01F0FFB901F00EBA04F03BB904F0B3B9A7
S3250800426003F065B903F07EB900F0B8BA03F04EBE03F0EBBD03F0D4BD02F0E5BF02F0ECBF42
S3250800428021E020E026E025E003F0A3BA03F069BA03F0A9B903F0BEB903F0D9BA00E0FFE793
S325080042A03F4B47F28152DA611A6A002AFCD147F28052DA6140F2C9021A625862996247F2F7
S325080042C08152DA6170474FF00500364B1B68002B07D170474FF00000324B1B68002B00D1CE
S325080042E070471847304B1B681847304B1B6818472F4B1B6818472F49088070472849C8692B
S32508004300012240EA0200C861086A0028FCD1704729498868012240EA02008860C868002808
S32508004320FCD170471E4B47F2C152DA611A6A002AFCD147F2C052DA6140F2C9021A625862C7
S32508004340996247F2C152DA6170471B4B45F290529A605861D96045F291529A607047164B7F
S3250800436045F211529A60DA68002AFCD145F210529A605861D96045F211529A6070470F493A
S3250800438040F220020E4B4A6118884FEA00400A61198808447047FBF745BFFBF743BF0000A5
S325080043A00000024034000008280000082400000820000008000000600004024000100140F6
S325080043C00000006480B5DFF824074FF4805101604FF400610160012000F01BFADFF81007A6
S325080043E04FF40061016000F0B5F9DFF800074FF400610160322000F00CFA00F0D0F900F038
S325080044004CFA40F09C800520FFF7C5FF06220FF20C7100F06FFE002819D4E92000F0B5F95E
S3250800442000F09FF900F094F9D12000F0AEF900F02FFA702101801C210180D02000F0A5F97A
S325080044404FF0C040072101800121018018E0E92000F09BF900F085F900F07AF9D12000F08C
S3250800446094F900F015FA5E21018017210180D02000F08BF94FF0C0400721018001800C21EF
S325080044800180362000F081F94FF0C040402101800C2000F07AF94FF0C040552101803A208D
S325080044A000F073F94FF0C04055210180C12000F06CF94FF0C0401021018000F042F9018089
S325080044C0C02000F062F900F0E3F935210180002101800180012100F034F9C52000F055F97B
S325080044E000F03AF9D22000F050F900F035F922210180C82000F049F900F02EF97321018038
S3250800450037210180002101800F2100F01AF9042101804021018067210180002100F011F933
S325080045200F210180082101808021018000210180292000F02AF92C20BDE8024025E1002198
S32508004540002000F014F900F000F900F0FEF800F0FCF800F0FFF801214FF4C06000F007F921
S3250800456000F0F8F840214FF4DE6000F000F900F0F1F84FF4C4414FF4806000F0F8F840F628
S325080045800801082000F0F3F84FF48071012000F0EEF84FF48071022000F0E9F8302103203B
S325080045A000F0E5F80121092000F0E1F800210C2000F0DDF84FF40041902000F0D8F80021E5
S325080045C00F2000F0D4F81621102000F0D0F840F20111112000F0CBF80021122000F0C7F899
S325080045E00121132000F0C3F84FF44C714FF4807000F0BDF840F2372140F2011000F0B7F869
S325080046004FF4706140F2031000F0B1F84FF4D6414FF4207000F0ABF84CF2B0114FF48170A7
S3250800462000F0A5F800F094F84FF440614FF4407000F09DF845F60B2140F2013000F097F8BE
S3250800464040F6061140F2023000F091F841F2170140F2033000F08BF84FF40C514FF441706B
S3250800466000F085F84FF4B85140F2053000F07FF846F2093140F2063000F079F840F60941EA
S3250800468040F2073000F073F841F20C014FF4427000F06DF842F2322140F2093000F067F87D
S325080046A000214FF4047000F062F8EF2140F2112000F05DF8002140F2122000F058F840F21B
S325080046C08F1140F2132000F052F800214FF4A06000F04DF8002140F2015000F048F80521FA
S325080046E040F2025000F043F8012140F2014000F03EF8002140F2044000F039F800F028F87A
S325080047004FF48071072000F032F800F021F800214FF4007000F02BF8002140F2012000F0C2
S3250800472026F8DFF8CC034FF4805101604FF0C04040F202210180DFF8B4034FF4805101601A
S3250800474001BD0180022101807047002108460EE064205EE00A205CE04FF0C040012101804A
S3250800476070474FF0C0402021018011200DE0DFF880234FF4805313604FF0C0421080DB485E
S3250800478003604FF0C04001807047D9494FF480520A604FF0C0410880D4480260704780B55E
S325080047A0EF20FFF7F2FF4FF0C04000884FF0C04000884FF0C04109884FF0C04212880906AC
S325080047C0090A41EA0060D1B240EA01204FF0C0410988C9B20843C749086001BD10B5C548C0
S325080047E00068C54988420CD12E20FFF7CEFF4FF0C04000884FF0C04004882C20FFF7C5FFE5
S3250800480005E04FF0C04000884FF0C0400488204610BDBA49088008880028FCD1704738B52C
S3250800482004460D46FFF7FCFC00F037F81BD12A20FFF7ABFF00F02CF8E8B24FF0C041088074
S32508004840084600210180EF2101802B20FFF79DFF00F05CF90846012101808F2101802C2039
S32508004860BDE8324091E729464FF40070FFF77FFF00F048F99E484FF4805101604FF0C0403A
S3250800488040F20221018099484FF48051016031BD4FF0C04000210180704796480068964933
S325080048A08842704780B59649088000210020FFF7B6FF4BF680319248FFF7B6FCFFF7B0FCCB
S325080048C04BF680318E48BDE80440FFF7ADBC01EBC0000FF2502101EB4000A0F508700088DB
S325080048E070472DE9F84F0546884691461E46FFF796FF0E240EB9002002E0012E02D148462C
S32508004900FFF786FC641EF5D105F1010A0A9C02E00AF1080A641C2078002836D00025414641
S3250800492005EB0A0080B2FFF77AFF2078202808BF00270CD0212808BF002706D0A9B2FFF7C6
S32508004940C6FF07462078212801D1042D1AD04FF00E0B780703D53EB1012E08D100E00EB91C
S32508004960002002E0012E02D14846FFF751FC38044714BBF1010BECD16D1C082DCFDB207848
S325080049802128C5D10AF1040AC4E7BDE8F18FF0B589B004460D4626460020810001F1006176
S325080049A001F5763191F83610C90800F04CF892F837209208520102EBC12100F044F892F825
S325080049C0382011EBD20100AA22F81010401C1028E3DB0027A9B23046FFF721FF07F1006006
S325080049E000F5763090F87600001100A931F810004FF0C0410880761C04F1FF00B6B2B04275
S32508004A00BCBF26466D1CA9B23046FFF708FF07F1006000F5763090F8760000F00F0000A9B1
S32508004A2031F810004FF0C0410880761C04F1FF00B6B2B042BCBF26466D1C7F1CB7F5005F71
S32508004A40C8DB09B0F0BD820002F1006202F576327047F8B504460D4616461F46FFF71DFFF5
S32508004A6019D12A20FFF791FE300A4FF0C0410880F0B20880380A0880F8B208802B20FFF706
S32508004A8084FE00F043F8280A0880E8B208802C20BDE8F24079E6394640F21120FFF767FEC0
S32508004AA0294640F21320FFF762FE31464FF40470FFF75DFE214640F21220FFF758FE3146B1
S32508004AC04FF40070FFF753FE00F01CF808484FF4805101604FF0C04040F2022101800348A5
S32508004AE04FF480510160F1BD000000001014014014140140741400202793040240140020DB
S32508004B008A140020214640F2012030E6200A4FF0C0410880E0B208807047000056332E314E
S32508004B20334300000000000000001C0020004000400040004000400020001C000000000039
S32508004B400000000000000000000000E00010000800080008300C600CC0008001000330061D
S32508004B60300C000000080008001000E00000000000000000102010201020102010201020CB
S32508004B80F03F000000000000C00FE01F30301020000000000000000010203030E01FC00F1C
S32508004BA0000000000000C018800D00070007800DC0180000000000010001C007C00700017E
S32508004BC000010000000000000000FCFF0000000000000000000000010001000100010001C6
S32508004BE0000100000000000000003000300000000000000030006000C0008001000300066C
S32508004C00000C0000E01FF03F902010231024F03FE01F0000000010081018F03FF03F100059
S32508004C20100000007010F03090211023102630383018000020103030102210221022F03F97
S32508004C40E01D000000030007000D1019F03FF03F10010000203E303E102210221023F02324
S32508004C60E0210000E00FF01F103210221022F003E001000000300030F020F0210023003ECB
S32508004C80003C0000E01DF03F102210221022F03FE01D0000001C103E102210223022E03F9D
S32508004CA0C01F0000000000000000600C600C000000000000400040004000400040004000AF
S32508004CC040004000000000018003C006600C30181010000000009000900090009000900058
S32508004CE09000000040024002400240024002400240020000000010103018600CC00680032B
S32508004D0000010000C00F201090279024D0275010800F0000F007F00F001900310019F00FDC
S32508004D20F00700001020F03FF03F10221022F03FE01D0000C00FE01F303010201020303062
S32508004D40601800001020F03FF03F10203030E01FC00F00001020F03FF03F1022102730308A
S32508004D60703800001020F03FF03F10220027003000380000C00FE01F303010211021E0318D
S32508004D80F0190000F03FF03F000200020002F03FF03F0000000000001020F03FF03F10207C
S32508004DA000000000E000F00010001020F03FE03F002000001020F03FF03F0003000FF03C9B
S32508004DC0703000001020F03FF03F10201000300030000000F03FF03F001C000E001CF03F24
S32508004DE0F03F0000F03FF03F001C000E0007F03FF03F0000C00FE01F303010203030E01FCC
S32508004E00C00F00001020F03FF03F10220022003E001C0000E01FF03F102070203020F83F04
S32508004E20E81F00001020F03FF03F00220023F03FF01C00006018703C102610221023F03967
S32508004E40E0180000000000381030F03FF03F103000380000E03FF03F100010001000F03F51
S32508004E60E03F0000803FC03F600030006000C03F803F0000C03FF03F7000C0017000F03F9B
S32508004E80C03F00003030F03CC00F0003C00FF03C303000000000003C103EF003F003103E8E
S32508004EA0003C00007038F030902110231026303C7038000010003000500090011003100C62
S32508004EC0F03F0000000800080008000800080008000800080000000000007CFC80028002D9
S32508004EE00001000100020004000CF01FF03F000C0004000200018000C000E03FF03FC000F1
S32508004F008000000110201020102010201020102010201020E000F00510051005E007F003A9
S32508004F20100000001020F03FE03F10021002F003E0010000E003F007100410041004300691
S32508004F4020020000E001F00310061024F03FF03F10000000E003F007100510051005300745
S32508004F602003000000001002F01FF03F1022003000180000C803EC0724042404FC03F8072A
S32508004F80000400001020F03FF03F20020004F007F0030000000000001004F037F0371000EF
S32508004FA000000000000018001C000404FC37F837000400001020F03FF03F8021C0037006D9
S32508004FC030040000000000001020F03FF03F100000000000F007F0070006F0030006F0070D
S32508004FE0F00700000004F007F00300040004F007F0030000E003F007100410041004F007BF
S32508005000E00300000404FC07FC0344044004C007800300008003C00740044404FC07FC03E7
S32508005020040400001004F007F0031006000400060003000000002002300790059004F006C1
S325080050406002000000040004E01FF03F1004300420000000E007F00710001000E007F00766
S32508005060100000000000C007E00730003000E007C0070000E007F0073000E0003000F00741
S32508005080E007000010043006E003C001E0033006100400008007C407440044004400F807E3
S325080050A0F007000030067006D0049005100730063004000080078004F03C1020D02FD02FF0
S325080050C0D02FD02FD02FD02FD02FD02FD02FD02FD02FD02FD02FD02FD02FD02FD02F1020A1
S325080050E0F03F000080078004F03C102010201020102010200300002013F0030F09D0521ECB
S3250800510022BF13F8010B11F801CBB0EB0C00F3D07047121F22BF53F8040B51F804CB60456A
S32508005120F7D0121D0AD200BA9CFA8CFCB0EB0C0038BF6FF0000088BF01207047521E22BF4A
S3250800514013F8010B11F801CBB0EB0C00F6D0521C08BF1046704710B450F8041B81B10268DF
S325080051601218001D50F8043BDC0744BFA9F10104E31852F8044B43F8044B091FF9D1EBE7EC
S3250800518010BC704710B50C46222800F23D82DFE810F02300360049004C0052005C006500A4
S325080051A078007B00A100B300AA003101B701CF01D201D501E501E901F801FB013B023B024E
S325080051C03B023B023B023B023B023B023B023B020C023B023B023302B4F5803F07D2DFF804
S325080051E04C064FF4EB710160C4F5E17004E0200CDFF838160860A0B2DFF83416FAE1B4F5B1
S32508005200803F07D2DFF824064FF4EB710160C4F5E17004E0200CDFF814160860A0B2DFF83B
S325080052201416E7E1DFF810069AE16008C0F16400DFF80816DEE1DFF80806006804F0010192
S3250800524040EA8150DFF8F815D4E1002C19BFDFF8F4050821DFF8F0050821A4E1012C06D131
S32508005260DFF8E80502210160DFF8E4059BE1002C40F0CD81DFF8CC0510210160DFF8C80514
S3250800528091E1DFF8D0056BE144B9DFF8CC0500210160DFF8C805DFF8C81584E1012C08D1AC
S325080052A0DFF8B40500210160DFF8B005DFF8B41579E1DFF8A805DFF8B0150160DFF8980553
S325080052C003210160DFF8A4050460601C4008DFF8A0158FE1012C19BFDFF898050121DFF825
S325080052E0980501215FE1012C19BFDFF888052021DFF88405202156E1082CB9D8DFE814F08F
S3250800530009001500250035003C004800580068006B00DFF8600510210160DFF830054FF43B
S3250800532000710160DFF84C0560E0DFF8480510210160DFF818054FF400710160DFF8380552
S3250800534004210160DFF82C0552E0DFF8280510210160DFF8F8044FF400710160DFF8140511
S3250800536004210160DFF8100542E0DFF8080510210160DFF8D80434E0DFF8FC0410210160E5
S32508005380DFF8CC044FF400710160DFF8E8042DE0DFF8E40410210160DFF8B4044FF40071DF
S325080053A00160DFF8D40404210160DFF8C8041FE0DFF8C40410210160DFF894044FF4007153
S325080053C00160DFF8B00404210160DFF8AC040FE0DFF8A40401E0DFF89C0410210160DFF897
S325080053E070044FF400710160DFF88C04042101600821D8E0082C00F20A81DFE814F00900C3
S325080054001500260037003F004B005C006D007000DFF830044FF400510160DFF858044021B5
S325080054200160DFF8200465E0DFF818044FF400510160DFF8400440210160DFF80C044FF4CE
S3250800544080410160DFF8FC0357E0DFF8F8034FF400510160DFF81C0440210160DFF8E403D1
S325080054604FF480410160DFF8E00346E0DFF8D4034FF400510160DFF8FC0337E0DFF8C803A7
S325080054804FF400510160DFF8F00340210160DFF8B4032FE0DFF8B0034FF400510160DFF88A
S325080054A0D80340210160DFF8A0034FF480410160DFF8900321E0DFF890034FF40051016098
S325080054C0DFF8B40340210160DFF878034FF480410160DFF8740310E0DFF86C0301E0DFF87B
S325080054E064034FF400510160DFF88C0340210160DFF854034FF4804101604FF4004152E0D1
S32508005500DFF87803DFF878130160DFF8780380210160DFF87403DFF874130160DFF87003BD
S3250800552001210160DFF86C030460DFF86C0339E0DFF8680314E0DFF8680311E0DFF864032A
S325080055400460DFF84403006840F48020CE490860DFF8440384210160CD4813E0DFF84803B2
S32508005560046054E0C548006820F07060C3490860086840F030600860CC480460C148812101
S3250800558011E0CB4800210EE0012C06D1C9484FF400510160C848842105E0C8484FF40051A2
S325080055A00160C5488521016031E0C548006820F07060C3490860086840F080700860A448AA
S325080055C04FF4804100F027F8A04800F022F8A04800F01FF89D484FF4804101600220FFF767
S325080055E018F9B748006820F07060B5490860086840F0006008600AE0E1B2222000F029F8A7
S325080056002104090E232000E0E1B200F022F8002010BD4FF4806101600120FFF7FAB8A94953
S3250800562040220A60002100FA01F212064CBFA54AA54A80231360A44A40231360A14A136049
S32508005640491C0829EFD3A0488021016003601160704710B50C467B4920220A6000F01F00D9
S32508005660FFF7DDFF7848202101602046BDE81040D5E70000F8B50C46122800F2D580DFE88A
S3250800568000F00A181121336F747B7E8184878BA59CAAB82A93006C48202101604FF0C84095
S325080056A00088F2BD6848202101604FF0C840008858E06548202101604FF0C8400088C0F37B
S325080056C00010F2BD6048202101604FF0C8400088C0F3C000F2BD5C48202101604FF0C84035
S325080056E00088C0F34010F2BD7848006878490968774A1268764B1B68744C2468744D2D68E7
S32508005700734E3668714F3F68DFF8C8C1DCF800C0DFF8C0E1DEF800E000F4804001F4806109
S3250800572040EAC100510801F48071084303F4807140EA4100E10801F480610843690801F423
S325080057400061084306F4006140EA410007F4004108430CF0080108430EF040010843F2BDB9
S325080057605C480068C0F38000F2BD5B4800684FF4AF614843800AF2BD0FF2A410F2BD0FF2A6
S325080057805420F2BD0FF27C10F2BD0FF26440F2BD52480068C00BF2BD50480068000A00F0D2
S325080057A0010080F00100F2BD0720FEF7F4FD017800293AD10FF23C10F2BDFEF761FD017838
S325080057C0562901D1002830D14548F2BDFEF75AFD58BB4448F2BD44483CB3017864228378F6
S325080057E00A24634302FB0131C07840183F490818F2BD1548202101604FF0C8400088850955
S3250800580029463B4800F094FA394880783849087008462E214170C17881700179C170002154
S32508005820017114B12846F2BD0020F2BD2C0C0040340C0040380C0040343401403834014065
S32508005840083C01401010014014100140100C0140140C0140282C0140202C014004100240B9
S3250800586002841D0402841D0702841D002C2C0140342C01401018014014180140000C0140C9
S3250800588038B4BB340008004000080140BB111011007400402C140040001400405004024083
S325080058A048040240280800402C080040340800401004004014140140002C0140101401405D
S325080058C0040C014010080140140801400808014008100140081401404C3C0140080C01408E
S325080058E008010020000100202490000830EBFFFFF8000020324D4220496E7465726E616C45
S32508005900000000009001F000070015000F00C80000100100010111000000000400000004D9
S3250800592035306D56000000000000000400000004D0070000302E3156000000000000000469
S3250800594000000004A00F0000302E325600000000FEFF0004FAFF0004401F0000302E35565A
S3250800596000000000FFFF0004FAFF0004204E0000203156200000000000000004FAFF0004E4
S32508005980409C00002032562000000000FEFF0004FAFF0004803801002035562000000000D3
S325080059A0FFFF0004FAFF0004400D0300213130562100000000000004FAFF0004801A0600F0
S325080059C000000000000000000000000000000000000000002120315320210000E7035F0961
S325080059E0B004000455A0FC013530306D53000000E703AF04580200042B50FE003230306D27
S32508005A0053000000E703DF01F0000004ABB965003130306D53000000E703EF0078000004F8
S32508005A20D5DC32002135306D53210000E70377003C0000046B6E19002132306D5321000017
S32508005A406300DF01F00000042B2C0A002131306D532100006300EF0078000004151605003F
S32508005A6020356D5320000000630077003C0000040B8B020020326D53200000000900DF0116
S32508005A80F00000046B04010020316D53200000000900EF007800000435820000353030752E
S32508005AA053000000090077003C0000041B41000032303075530000000000DF01F00000043B
S32508005AC00B1A000031303075530000000000EF0078000004050D000021353075532100004E
S32508005AE0000077003C00000483060000213230755321000000002F00180000049B02000004
S32508005B002131307553210000000017000C0000044D010000203575532000000000000B004F
S32508005B2006000004A70000002032755320000000000004000300D70343000000203175532F
S32508005B4020000000000002000200330321000000302E3575530000000000010001006602F7
S32508005B6011000000302E327553000000000000000100EC0107000000302E31755300000062
S32508005B80000000000100F60003000000203275532B000000000009000300D703430000008F
S32508005BA0203175532B000000000004000200D703210000002E3575532B000000000002003A
S32508005BC001003303110000002E3275532B000000000001000100D703070000002E31755312
S32508005BE02B000000000000000100EB01030000003C5674000000000000003C567400000070
S32508005C00000001023C5674000000000002043C5674000000000003063E5674000000000050
S32508005C2000013E5674000000000001033E5674000000000002053E56740000000000030728
S32508005C403A215C210000000000083A215C2100000000010A3A215C2100000000020C3A2132
S32508005C605C2100000000030E3A215E210000000000093A215E2100000000010B3A215E21E5
S32508005C8000000000020D3A215E2100000000030F3C544C000000000000103C544C00000033
S32508005CA0000001123C544C000000000002143C544C000000000003163E544C0000000000FE
S32508005CC000113E544C000000000001133E544C000000000002153E544C00000000000317C6
S32508005CE03C5448000000000000183C54480000000000011A3C54480000000000021C3C542D
S32508005D00480000000000031E3E5448000000000000193E54480000000000011B3E54480049
S32508005D2000000000021D3E54480000000000031F42F2107291FBF2F23032027042F210728A
S32508005D4091FBF2F242F2107303FB121189B24FF47A7291FBF2F2303200F8012F4FF47A725A
S32508005D6091FBF2F24FF47A7303FB121189B2642291FBF2F2303200F8012F642291FBF2F2A3
S32508005D80642303FB121189B2FFE70A2291FBF2F2303200F8012F0A2291FBF2F20A2303FB3F
S32508005DA01211303100F8011F002100F8011F70470A0F0A2A2CBF3732303200F8012B090118
S32508005DC009090A0E0A2A2CBF3732303200F8012B0902090A0A0D0A2A2CBF3732303200F866
S32508005DE0012B0903090B0A0C0A2A2CBF3732303200F8012B89B20A0B0A2A2CBF37323032EB
S32508005E0000F8012B0905090D0A0A0A2A2CBF3732303200F8012BC9B20A090A2A2CBF3732F4
S32508005E20303200F8012B01F00F010A292CBF3731303100F8011B00210170704710B50024A0
S32508005E4000210420FFF716FCC04380B22249098830EA010121D0214A19231370CA0548BFA9
S32508005E6003248A0548BF04244A0548BF05240A0548BF0624CA0448BF07248A0448BF0224B5
S32508005E804A0448BF01240A0448BF08240A0748BF092449061CD50A241AE00F490988084259
S32508005EA016D00E490978002902BF0D49097800290ED1410548BF0524010548BF0624010798
S32508005EC048BF0924010448BF0824054905220A7001490880204610BD88140020391400202B
S32508005EE03A14002080B500B936E000F0BEF800688047DFF8480900680A3002BD80B5DFF8B8
S32508005F0040094078DFF834190968C978884215D3DFF8280900688078002801BFDFF81C099E
S32508005F2000688088002809D100F0A9FAC178817200F09BF840688047002002BD022002BD70
S32508005F4080B500B908E000F090F880688047DFF8EC0800680C3002BDDFF8E00800680121BF
S32508005F600182002002BD80B500F089FAC17800F099FBDFF8C8180968897AE1B1002801BFA7
S32508005F80DFF8B80800680079002814D1DFF8AC080068807878B900F068F8C0688047DFF83C
S32508005FA09C0800684179C172DFF890080068C1780173002002BD022002BD80B530B9DFF8A1
S32508005FC07C08006802210182002002BDDFF8740800210180DFF86408006800787F21084240
S32508005FE0DFF8580800681BD1407A810605D5002141F00201DFF84C2811704006DFF8440863
S32508006000007854BF40F0010000F0FE00DFF83418087000F02AF800698047DFF8280802BD25
S32508006020007800F07F000128F7D0DFF810080068007800F07F000228C6D100F020FA4079B9
S3250800604000F00F010006DFF8000850F8210007D500F030001028DCD1002040F00100D5E7F6
S3250800606000F44050B0F5805FF5E7DFF8E0070068704710B5DFF8C4070068007810F07F008B
S325080060800AD1DFF8B8070068407A00F0DF00DFF8AC170968487264E0022801BFDFF89C0723
S325080060A00068408800285ED1DFF8900700680079002858D1DFF88817DFF8800700684079B6
S325080060C020F080040206DFF8802752F824204CBF02F0300202F4405209788C4243D2002AC5
S325080060E01FBFDFF858170968897A00293BD00006DFF8540750F824000BD500F030001028EA
S325080061002BD1204600F02FFC3021204600F0DAFB23E000F44050B0F5805F1ED16CB900F069
S325080061206AFBDFF8240700684BF68F71084080F44050DFF8141708600FE0204600F0FFFB4C
S32508006140DFF8040750F82400DFF8FC164BF68F72104080F4405041F82400FFF786FF4069E3
S325080061608047002010BD022010BD80B5DFF8CC060068417921F080000A06DFF8CC2652F8BA
S3250800618020204CBF02F0300202F44052DFF8B0361B7898420CD2DFF8A4361B685B883BB9E7
S325080061A0002A1FBFDFF894261268927A002A01D1022002BD0906DFF8901651F82010DFF8F9
S325080061C0882605D548F6BF73194081F0100104E04BF68F73194081F4805142F82010FFF7B8
S325080061E044FF80698047002002BD80B500F047F9407A40F0200000F095FA4872FFF735FFED
S32508006200C0698047002002BDDFF830261268528A38B98888801ADFF8241609680882002057
S32508006220704708681018704770B5DFF81006006800F110042588A068002818BF002D15D005
S32508006240A088854288BF05462846A168884706462088401B2080608828186080002000F062
S325080062609FFB2A460146304600F00CFC208860B1DFF8DC054FF4405101800021002000F05A
S3250800628096FBDFF8D005302101802088A188884204D3DFF8A8050068032105E00028DFF87B
S325080062A09C05006802D00521017270BD06210172DFF8A405006880B2DFF8A015002241F894
S325080062C01020DFF890053021018070BDF8B5DFF86C05006800F110042088002801BFDFF84C
S325080062E05C150968097A042916D1DFF87405007801280ED1DFF86005006880B2DFF85C1529
S32508006300002241F8102030200425DFF854150A7028E00725102025E0A688864205D3042551
S32508006320B04288BF3046064600E002253046A16888470746002000F032FB32460146384638
S3250800634000F08BFB3146002000F031FB2088801B20806088301860803020DFF8F4144FF4A1
S3250800636040520A80DFF8EC140880DFF8D00400680572F1BD10B5DFF8C40400684478DFF8FD
S32508006380BC04006800787F21084254D1092C02D1FFF7B4FD63E0052C2AD1DFF8A00400683F
S325080063A0C078802869D2DFF8940400688078002801BFDFF888040068808800285DD1DFF8FD
S325080063C07C040068807A002857D10620DFF88814096889B2DFF88424002342F81130DFF844
S325080063E0741430220A80DFF854140968087210BD032C10D100F043F8C078012801BFDFF801
S325080064003C040068808800282BD100F03CF828D5FFF7EBFE23E0012C01BFDFF82004006847
S32508006420C07801281DD100F02AF88088C8B900F02AF80DD415E000F02DF904D10B2C10D179
S32508006440FFF791FD0BE000F016F90AD1012C02D1FFF70FFE03E0032C03D1FFF786FE00285A
S32508006460B3D02046DFF8FC13096849698847032808BF0920B7D00028A7D00820B3E7DFF873
S32508006480BC0300687047DFF8B4030068407A8006704780B500F075F9062817D100F075F91C
S325080064A035D1FFF7ECFF8078012803D100F066F9C1697AE0022803D100F060F9016A74E019
S325080064C0032824D100F05AF9416A6EE000284BD100F0CCF801BFDFF864030068C088022882
S325080064E015D1FFF7CCFF007988B900F04EF901BFDFF8480300688088002833D000F0CAF8C7
S325080065000FD100F0CEF810B900F0ABF82AD100F038F9DFF85013096809698847032850D127
S3250800652056E000F0A8F8F2D1FFF7A9FF407900F00F0000F0F7F8497901F07001BF4A1268E8
