:020000040800F2
:1040000000C00020355B0008A1560008A356000838
:10401000A5560008A7560008A95600080000000091
:10402000000000000000000000000000AD56000885
:10403000AB56000800000000AF560008B15600085B
:10404000B3560008B5560008B7560008B956000820
:10405000BB560008BD560008BF560008C1560008F0
:10406000C3560008C5560008C7560008C9560008C0
:10407000CB560008CD560008CF560008D156000890
:10408000D3560008D5560008D7560008D956000860
:10409000DD560008E1560008E3560008E556000822
:1040A000E7560008E9560008EB560008ED560008F0
:1040B000EF560008F1560008CD570008CF5700080A
:1040C000D1570008D3570008D5570008D757000824
:1040D000D9570008DB570008DD570008DF570008F4
:1040E000E1570008E3570008E5570008E7570008C4
:1040F000E9570008EB570008ED570008EF57000894
:10410000F1570008F3570008F5570008F757000863
:10411000F9570008FB570008FD570008FF57000833
:1041200001580008035800080558000807580008FF
:10413000000000000000000000000000000000007F
:10414000000000000000000000000000000000006F
:10415000000000000000000000000000000000005F
:10416000000000000000000000000000000000004F
:10417000000000000000000000000000000000003F
:10418000000000000000000000000000000000002F
:10419000000000000000000000000000000000001F
:1041A000000000000000000000000000000000000F
:1041B00000000000000000000000000000000000FF
:1041C00000000000000000000000000000000000EF
:1041D00000000000000000000000000000000000DF
:1041E00000000000000000000000000000000000CF
:1041F00000000000000000000000000000000000BF
:1042000002F000BD02F064BD01F000BD01F0FABE95
:1042100071E070E001F03ABF01F050BF02F01AB84F
:1042200077E076E092E091E09AE099E067E066E07E
:1042300079E078E0A4E076E000F04ABA03F0D0BD7F
:1042400050E04FE051E050E001F042BF00F046BBCB
:1042500000F030BB00F086BD01F0B6B901F086B9C0
:1042600001F030BB01F04EBB01F0AABC02F01ABD58
:1042700000F0EABA00F0B8BA02F08CB802F096B8D2
:1042800021E020E026E025E003F0CCBD03F0E0BD16
:1042900003F0F4BD03F014BE03F02ABE00E0FFE714
:1042A000404B47F28152DA611A6A002AFCD147F288
:1042B0008052DA6140F2C9021A625862996247F28A
:1042C0008152DA6170474FF00500374B1B68002BB5
:1042D00007D170474FF00000334B1B68002B00D113
:1042E00070471847314B1B681847314B1B681847FC
:1042F000304B1B6818474FF0C04108807047294970
:10430000C869012240EA0200C861086A0028FCD19D
:10431000704729498868012240EA02008860C8681D
:104320000028FCD170471F4B47F2C152DA611A6A6C
:10433000002AFCD147F2C052DA6140F2C9021A6287
:104340005862996247F2C152DA6170471A4B45F2DE
:1043500090529A605861D96045F291529A607047C4
:10436000154B45F211529A60DA68002AFCD145F2E9
:1043700010529A605861D96045F211529A607047A4
:104380000E4940F220024FF0C8434A6118884FEAB4
:1043900000400A61198808447047FBF743BFFBF7E8
:1043A00041BF00000000024034000008280000085F
:1043B0002400000820000008000402400010014012
:1043C000411A00000061656162690001100000008F
:1043D00005372D4D00060A074D09020000000000B8
:1043E00000000000000000000000000000000000CD
:1043F00000000000000000000000000000000000BD
:1044000025007A0103F0A2BC03F0EABC03F00ABD68
:1044100003F01EBD03F032BD03F052BD03F068BDD2
:1044200004F044BC04F0C9BC04F078BE04F06FBED4
:1044300004F0FCBE04F02FBF04F055BF04F064BDCF
:1044400004F06FBF04F0CFBF04F036BE05F011B822
:1044500005F05FB805F015B905F037B905F055B9A5
:1044600004F0A2B8411A00000061656162690001B0
:0F4470001000000005372D4D00060A074D090208
:1044800070B586B000F066FD00F0A4FD00F0C6FD3A
:1044900000F00EFF00F018FE00F032FE00F04EFEBD
:1044A00000F08EFE00F082FE01F06EFB0520FFF7AB
:1044B00074FF05226C49054605F0DEF9002808DA8C
:1044C00001F0A4FB002001F0E1FD9621462001F05F
:1044D00063FE664B4FF4FC625A21282000930023B0
:1044E00001F0F6FD00210D2000F03CFC00234FF40C
:1044F000FC625A210090902001F0EAFD5C4B4FF4E1
:10450000FC625A21C8200093002301F0E1FDFFF76F
:1045100095FE03AC0146204601F03BFA002340F231
:10452000FF725A214FF49070009401F0D1FD514B6D
:104530004FF4FC62462130200093002301F0C8FDB7
:1045400000210F2000F00EFC00234FF4FC624621F6
:1045500000904FF4887001F0BBFD01F055F9FFF7B2
:1045600051FF454B1A6812F4806F1A465FD01968E4
:104570008C055CD51B68D80559D500243F4E2046D4
:10458000347000F09FF8FFF75BFE01282ED0052263
:1045900028463B4905F070F9A04227DA394B4FF421
:1045A000FC62322130200093234601F091FD32213C
:1045B0004FF48C7000F08CF80546FFF741FE01289F
:1045C00028D0314B40F2FF72009323463221302035
:1045D00001F07EFD2D4B4FF4FC6200931E21002361
:1045E000302001F075FD3378002BFCD0284B1A6881
:1045F000284BC3E90022284B186805F022F9274A06
:10460000274B1A6002F04EFB224B5B689847002054
:1046100006B070BD2146284600F0FCF801280CBF0A
:10462000204B214B4FF4FC6200932346CEE71368E6
:1046300013F4806F174B05D11C4A1268C3E900229E
:104640001B4BD9E71168890505D41A4A1268C3E9DA
:104650000022194BD0E71268D205D0D4174A12684D
:10466000C3E90022164BC7E7D4980008DA9800087F
:10467000E8980008F498000808100140A8110020EC
:104680001C9900082299000848990008BA99000866
:1046900004C000084001002000C00008BBBB8B889C
:1046A000040801406E99000894990008044001082C
:1046B0000040010804C0010800C0010804400208CD
:1046C00000400208014BC058704700BF0438000882
:1046D0002DE9F04F30230E4682464FF0000887B098
:1046E000002103A8ADF80830B6B201F052F903ABCF
:1046F00000934FF6FF7200233146504601F0E8FC6C
:1047000045464446DFF8DCB0294603A801F041F9EC
:10471000334A137843451FD04FF0000992F80080C8
:1047200002AF5FFA88F803AB13F809300AEBC9004F
:104730008DF808305FFA89F3A3420CBF434600238B
:104740004FF6FF72314680B2009709F1010901F07E
:10475000BFFCB9F1080FE6D19BF80030002BD3D095
:104760009BF80030023B072B06D8DFE803F0040576
:10477000050E1F052D32082400231A4A082C137039
:10478000C2D1284607B0BDE8F08FC4F107039B00F3
:1047900025FA03F2120704D0012202FA03F3ED1AFC
:1047A000EAE70F2202FA03F31D44E5E7C4F1070329
:1047B0009A0025FA02F303F00F030F2B02D0012316
:1047C0009340F1E79340EAE7072C05D00134E4B2C7
:1047D000D2E71CB1013CFAE70024CDE70724CBE780
:1047E000A3110020A811002038B5044608480D4642
:1047F00001F0FEFD052802D0342001F0DFFD29463E
:10480000204601F033FE031F5842584138BD00BF17
:10481000A086010070B506460D4601F0BBFD0848B4
:10482000B1B22844FFF7E0FF04460648310C2844A3
:10483000FFF7DAFF0440E4B201F0B8FD204670BD96
:104840000438000806380008C0F30A0310B504460F
:1048500073B9084801F0CCFD052802D0342001F0DE
:10486000ADFD204601F0E0FD031F5842584110BD48
:104870000120FCE7A08601004022F0B5002480263C
:1048800015460A4B0A491A6000FA04F73F0604F17C
:1048900001044CBF1E600E60082C0D601D60F3D13A
:1048A000802008600A601860F0BD00BF1008014059
:1048B0001408014038B520250C46064B00F01F00B7
:1048C0001D60FFF7D9FF044B20461D60BDE838404E
:1048D000FFF7D2BF10100140141001402DE9F04144
:1048E0000C46242800F21882DFE810F0250037007B
:1048F0003C003E0043004A0051005D005F0075002F
:1049000084007D0002019001A701A901AB01B9015A
:10491000BB01CA01CC0116021602160216021602CB
:1049200016021602160216021602D9010302080226
:104930000B02160213029E4A9E4BB1F5803F37BF11
:104940004FF4EB71210C1160C4F5E17424BF1160C8
:10495000A4B21C600020BDE8F081954A964BB1F5E9
:10496000803FECE7954BF4E74C08954BC4F16404A9
:10497000EFE7944B8C051A6804F480041443E8E7CD
:10498000082311B9904A1360E4E7904AFBE7012934
:1049900004D102238E4A13605360DBE70029D9D18A
:1049A00010238A4AF7E78B4BD3E78B4B8B4A11B91D
:1049B00019608B4BE7E7012903D100211960894B6E
:1049C000E1E78949116003221A60884B1C600134B9
:1049D00064089C60BEE7012901D1854BB9E701223B
:1049E000844B1A60B6E701294FF020030CBF804AC0
:1049F000804AC8E70829ADD8DFE801F00512213068
:104A00003F4E5B666B0010227A4B1A6002F18042C7
:104A100002F586324FF40071116004221A600CE036
:104A200010224FF40071734B1A6002F1804202F5BC
:104A3000863211600421C2F8041C0822D1E710223A
:104A40004FF400716B4B1A6002F1804202F586321E
:104A5000116004221A6008225A607BE71022654B1D
:104A60001A604FF40072A3F540631A600422C3F881
:104A7000042C0822C3F8042C6CE710225C4B1A604B
:104A80004FF40072A3F540631A600422C3F8FC2BB4
:104A90000822C3F8FC2B5DE710224FF40071544B41
:104AA0001A60554A116004221A60082243F8042C47
:104AB00050E710224FF400714D4B1A604E4A1160BE
:104AC0000421C2F8FC1BB8E71022494B1A604A4A7D
:104AD000A0E71022474B1A604FF40072A3F6FC3394
:104AE0001A600422C3F8002C0822C3F8002C31E716
:104AF00008293FF62FAFDFE801F0050D1C29323EF3
:104B00004B5581004FF40052304B1A60394A402116
:104B100011602CE04FF4005240212C4B1A60354AB2
:104B20001160A2F2FC724FF4804111604FF4004218
:104B300057E74FF400524021244B1A602D4A116070
:104B40004FF480421A604FF4004285E74FF4005260
:104B50001E4B1A604022C3F80028043307E04FF4CC
:104B60000052194B1A604022043BC3F804284FF44A
:104B700080421A60DAE74FF400524021124B1A606B
:104B80001B4A11604FF480421A604FF400428DE7D7
:104B90004FF4005240210C4B1A60154A1160A2F6E6
:104BA0000402C0E74FF40052074B1A60104AAEE708
:104BB0002C0C0040340C0040380C004034340140D0
:104BC00038340140083C01401410014010100140ED
:104BD000100C0140282C0140202C01400410024000
:104BE00002841D0402841D0702841D002C2C014038
:104BF0001418014010180140140C01404FF40052E9
:104C0000464B1A604022C3F80428A6E7444B454AA5
:104C10001A608022A3F582331A60434A03F5803379
:104C20001A600122A3F514431A608522A3F5BF433D
:104C3000543B196043F82C2C8CE63C4B89E63C4BEA
:104C400087E63C4B3C4A1960136843F480231360A9
:104C500084223A4B1A6003F5C0430022C1E6384B68
:104C600077E62F4B1A6822F070621A601A6842F0D9
:104C700030621A608122334B196043F8342C69E6A4
:104C8000314BEAE74FF4005201290BBF2F4930495D
:104C90000A600A600CBF842285222E4BA1E64FF4E5
:104CA00080464FF480682C4C2C4F23682C4D23F009
:104CB000706323602368012043F0807323603E60AB
:104CC00000F09AFF0120C5F8008000F095FF012058
:104CD000C7F8008000F090FF02202E6000F08CFFEB
:104CE000236823F070632360236843F0006323602C
:104CF00030E62020C9B2FFF7DDFD2BE62120C9B246
:104D0000F9E72220C9B2FFF7D5FD2320C4F307211C
:104D1000F1E72420C9B2EEE7C9B2ECE71010014078
:104D2000000C014038B4BB34BB11101150040240D8
:104D300048040240280800400008014000140040D8
:104D40002C080040340800401004004014140140B6
:104D500010140140002C0140040C0140140C0140CF
:104D6000100C0140F8B50E46122800F2D380DFE89F
:104D700000F00A1B1224366E71787A7C7E80849C47
:104D800094A3B52D8B002022634B1A604FF0C843CB
:104D9000188880B2F8BD20225F4B1A604FF0C843DC
:104DA0001888C0F38000F5E720225B4B1A604FF0B3
:104DB000C8431888C0F30010ECE72022564B1A6055
:104DC0004FF0C8431888C0F3C000E3E72022524BDD
:104DD0001A604FF0C8431888C0F34010DAE74F4B11
:104DE000DFF86CC1DCF800001F681E681D68DCF885
:104DF00000401A681968DCF80030DCF800EC0CF5AB
:104E0000406C03F40043DCF800C000F48040184319
:104E10000EF0080318430CF040031843FB0003F4A2
:104E200000531843730803F4807318436B0003F4B2
:104E300000731843E30803F480631843530803F432
:104E400000634900184301F480510843A2E7344B42
:104E50001868A6E74FF4AF60324B19684843800AE0
:104E600098E7314896E7314894E7314892E731486E
:104E700090E7314B1868C00B8CE72F4B186880F413
:104E80008070C0F3002085E70720FFF786FA2B49E2
:104E90000378002B08BF08467CE7FFF7F1F92849A3
:104EA0000378562B18BF084674E7FFF7EBF925493E
:104EB000002808BF08466DE7234800293FF46AAF81
:104EC00083780178A3F130020A23534364223039F6
:104ED00002FB0131C078303808445BE720220E4BDA
:104EE0001A4D1A604FF0C8431888C0F38914214640
:104EF000284600F023FDAB782B702E236B70EB78E7
:104F0000AB702B79EB7000239E4214BF20462846DD
:104F10002B713FE700203DE71410014008100140CD
:104F2000081401404C3C0140E89900089C9A000894
:104F3000B89C0008D49C0008080C0140149E00088E
:104F40000000002006000020E099000878110020F1
:104F50000808014010B501F0F1FA4FF4803001F07B
:104F60000BFB01F057FB154B01280446187017D1B5
:104F7000102001F003FA022001F0F4F9104B114A5D
:104F800020461A6001F014FB392001F02FFB0028A5
:104F9000FAD0022001F012FB01F01AFB0828FBD125
:104FA00040F21712084B00201A604AF67D625A60E0
:104FB00001F016FB054B064A1A6010BD8111002056
:104FC0000410024002841D00141002401C10024014
:104FD0002F80802007B54FF480414FF0006001F032
:104FE000A3FA4FF4C06001F05DFA094B01A80193E8
:104FF00001F062FA074B01A8019301F05DFA064B3C
:1050000001A8019301F058FA03B05DF804FB00BF5A
:1050100014010101130100011D010001234B244A69
:1050200024491A6002F1EE4202F52C3202F5407278
:105030005A604EF2FF72DA601F4AC3F8002402F190
:105040009A42A2F54E12A2F59C62C3F804244FF6D0
:10505000FF731A4A1360C2F8F4131949C2F8F8131F
:105060004FF6EF71C2F800141649C2F8F41701F1B7
:10507000157101F5653101F54071C2F8F817A1F11C
:10508000FB61A1F5FD213839C2F80038C2F8F41BE4
:105090004FF0BB31C2F8F81BC2F8003C4FF0806201
:1050A00003F1804305331A60704700BF00080140D8
:1050B000BB888011001011BB18B8BB3B0C0C014021
:1050C00088883833BB84BBB86FF43061084B094A19
:1050D00009481A600A44C3F800214FF0204145F204
:1050E00011030B60C860C1F80C21044A13607047BB
:1050F000040000A0020F101002071010080000A00A
:105100004FF082724FF4003310B586B0CDE9012321
:1051100000230849084CCDE903130723204601A9C1
:10512000ADF8143001F0EEF80121204601F003F94A
:1051300006B010BD01000002003C0040174B184AA9
:105140004FF480511A604FF4D55243F8082C154A99
:10515000116053F8082C42F0010243F8082C47F282
:10516000C052DA600022C3F8FC234FF0C042C3F8FB
:105170000024D3F8F82342F00102C3F8F82347F2E1
:105180009152C3F8F8232422C3F83824064AC3F8FE
:105190003C2443F2B152C3F834247047100002405B
:1051A0004C2401400C000240087400400122034BD3
:1051B0001A604FF400629A60704700BF00740040AC
:1051C0000021354B30B51960A3F5A0531960A3F544
:1051D000806319604FF4BC034FF480100C252F4AF4
:1051E0002F4C13602F4B18602F4804602F4C216008
:1051F000A4F5A0542160A4F58064216004F5C05496
:10520000A5600B250834A4F5A05425600A25A4F553
:1052100080642560802504F5BE5418342560A4F50B
:10522000A0542160A4F580642160116841F001015F
:105230001160196841F001011960016841F0010134
:105240000160116841F00801116011680907FCD480
:10525000196841F00801196019680D07FCD401684C
:1052600041F00801016001680C07FCD4116841F0AD
:10527000040111601A685107FCD41A6842F0040254
:105280001A601A685207FCD4036843F004030360F1
:1052900003685B07FCD430BD043C0140083C01407E
:1052A0000001100008280140082401402C3C014066
:1052B0000922324B70B51A6023225A60122203254C
:1052C000DA6078204FF40042002143F8085C43F88C
:1052D000100CDA6143F81C1C85234726284C2360F8
:1052E000284C266040F2E73666600124264E346082
:1052F00046F80C3CC6F81C5444F24F66234D2E6011
:1053000042F22836AE6045F80C4C214C4FF48076C2
:105310002060812044F8180CC4F8101440F2F314F3
:105320001C490C604FF496711B4C21606160332462
:105330001A490C6047F67801194C216044F8180CA2
:105340001320C4F810086324C5F8004CC5F8E06BBE
:105350000826C5F8D86BC5F8D43BC725114B1D608E
:105360005C606423104C23606360104B186043F84A
:10537000081C5A62912243F8202C70BD282C014051
:10538000002C0140280400400C0400402C08004080
:10539000180800402C0C0040340C0040200C004049
:1053A000180C0040283401403434014020340140BE
:1053B0000E4B10B51A6858689968AAB10C4B140ABC
:1053C0009A701C71140C120E1A72020A1A73020CD3
:1053D0009A730A0A98729974000E1A750A0C090ECB
:1053E0009C7118749A75197610BD00BFE8F7FF1FFD
:1053F00022010020F8B500230546144C144E154F29
:1054000023600221304600F0A7FF88B129461048EA
:1054100000F09DFF00230E4D0E4E23600121284613
:1054200000F09AFF58B10A4800F093FFC0B205E0BF
:1054300023685A1CBB422260E3D9FF20F8BD2368D1
:105440005A1CB3422260E9D9F7E700BF841100205B
:10545000003C0040A086010010B5074C802120468A
:1054600001F0F1F80620FFF7C5FF2046BDE8104027
:10547000802101F0E6B800BF000C014038B5802162
:105480000D4801F0E0F80520FFF7B4FF00230B4CB6
:105490000B4D2360A520FFF7ADFF23685A1CAB42DC
:1054A000226007D8C307F5D48021BDE83840024800
:1054B00001F0C7B838BD00BF000C014084110020C6
:1054C000A086010038B504460E4DFFF7C5FF8021C8
:1054D000284601F0B8F82020FFF78CFFC4F30740FE
:1054E000FFF788FFC4F30720FFF784FFE0B2FFF760
:1054F00081FF2846802101F0A4F8BDE83840FFF77D
:10550000BDBF00BF000C014070B516460D460446F5
:105510008021154801F095F8FFF7B0FFFFF79CFFD9
:105520008021114801F08FF83046FFF763FFC5F383
:105530000740FFF75FFFC5F30720FFF75BFFE8B207
:10554000FFF758FF04F58075AC4207D1802106486B
:1055500001F077F8BDE87040FFF790BF14F8010B39
:10556000FFF748FFF0E700BF000C014070B50E46A2
:10557000044680211348154601F063F8FFF77EFFCB
:105580008021104801F05FF80320FFF733FFC6F3D6
:105590000740FFF72FFFC6F30720FFF72BFFF0B2FE
:1055A000FFF728FF2544AC4205D1BDE870408021BB
:1055B000044801F046B8A520FFF71CFF04F8010BD2
:1055C000F1E700BF000C01402DE9F043264F804673
:1055D0003A790E46022A0CBF102301234FF0000532
:1055E0000BBF224C21F07F440C4024F0FF04C1B0DB
:1055F00004EB03294FF4807221466846FFF7B6FF9B
:1056000000231DF80320FF2A14D10233B3F5807F55
:10561000F7D104F58074A145ECD13F79022F0BD16D
:10562000124C012D04EA060402D12046FFF74AFF7E
:10563000102509E00125ECE726F07F44012D24F038
:10564000FF040FD002270125002604EB062108EBFA
:1056500006203A460136FFF757FFB542F5D841B06C
:10566000BDE8F0830A27EFE78411002000F0FF0077
:105670000A4B1A79022A4FF480520DBF4FF4006191
:105680009A604FF40072C3E9021216BFDA604FF459
:1056900000024FF400121A61704700BF841100200D
:1056A0007047FEE7FEE7FEE7FEE77047704770478A
:1056B0007047704770477047704770477047704732
:1056C0007047704770477047704770477047704722
:1056D000704770477047704701F094BA01F0F8BA0C
:1056E0007047704770477047704770477047704702
:1056F000002210B5334B1A60334A1378144603F076
:10570000FF0123B11378013BDBB2137010BD1423EA
:10571000137053889BB2142B89BF53885180143B5C
:105720009BB288BF538093889BB2142B0CD993886B
:10573000143B9BB2938093889BB2142B0BD800210F
:105740000320FFF7CBF806E09379312B30D893791B
:105750000133DBB29371A37A0133DBB2A372A37A74
:105760000B2B0DD90023A372E37AB3FA83F35B0901
:10577000E372A3899BB21BB1A389013B9BB2A381B6
:10578000A37B1BB1A37B013BDBB2A373E37B1BB108
:10579000E37B013BDBB2E37300F048F90028B5D0AE
:1057A000207414210320FFF799F83C23A380ADE770
:1057B000002393711389012101339BB204201381CB
:1057C000BFE700BF100400409811002070477047E9
:1057D0007047704770477047704770477047704711
:1057E0007047704770477047704770477047704701
:1057F00070477047704770477047704770477047F1
:10580000704770477047704737B500210E20FFF78B
:10581000A9FA03460A2100681A790090C0F3072309
:10582000000E303848436421303B01FB03008DF803
:105830000420303A1044B0F59C7F1F4D1F4C1BD202
:1058400001234FF480502B704FF420534FF48045C8
:10585000C4E900034FF400434FF4C05CC4E90253B1
:105860004FF40073C4E904C340F6FF73A36140F62C
:105870000C43A38303B030BD00211220FFF772FA5E
:1058800003220F4903F0F8FF0028D9D102234FF477
:1058900000522B704FF480534FF44051C4E9003252
:1058A000C4E904334FF4E04240F2FF73C4E902124A
:1058B000A36140F20113DCE788110020B011002041
:1058C000219E00082DE9F84305460E461746082498
:1058D0004FF00009DFF828803A4631462846013C5F
:1058E00088F80090FEF7BAFC14F0FF0405D098F891
:1058F00000000028F0D1BDE8F8830120FBE700BFDD
:10590000801100202DE9F04105460E4608244FF095
:105910000008094F31462846013C87F80080FEF711
:105920009BFC14F0FF0404D038780028F2D1BDE8C5
:10593000F0810120FBE700BF8011002042F21072CD
:10594000B1FBF2F310B503F1300402FB13134FF473
:105950007A719AB2B2FBF1F3047003F1300401FBE7
:10596000132364219AB2B2FBF1F3447003F13004C3
:1059700001FB13230A219BB2B3FBF1F201FB1233AB
:10598000303303710023847002F13004C47043711A
:1059900010BD0B0FB1F1204F2CBF3733303321F046
:1059A0007042B2F1206F0370C1F303632CBF373331
:1059B000303321F07F42B2F5200F4370C1F303531F
:1059C0002CBF37333033C1F31302B2F5202F83706D
:1059D000C1F303432CBF373330338AB2B2F5204FC3
:1059E000C370C1F303332CBF37333033C1F30B0221
:1059F000B2F5206F0371C1F303232CBF373330336B
:105A0000CAB29F2A4371C1F303138CBF37333033BB
:105A1000837101F00F031946092B4FF000038CBF6F
:105A200037313031C17103727047000038B5002141
:105A30000420FFF797F92C49C2430B8892B29BB21E
:105A40000343DB431CB29BB263B31925274813F40D
:105A5000807F057014BF0320002013F4007F18BF5F
:105A6000042013F4806F18BF052013F4006F18BFD3
:105A7000062013F4805F18BF072013F4005F18BFDF
:105A8000022013F4804F18BF0120002CB8BF08205B
:105A900013F0080F18BF092013F0400F18BF0A2099
:105AA0000A8038BD08881040FAD01048047804F005
:105AB000FF00B4B90E4B1C78002CF1D1052412F470
:105AC000806F18BF052012F4006F18BF062012F077
:105AD000080F18BF092012F4004F18BF08201C70CF
:105AE000DEE71846DCE700BFAC110020A61100205D
:105AF000A71100200A4A0B4B9A4202D00A498B4256
:105B000005D30021094B0A4A934205D3704752F846
:105B1000040B43F8040BF2E743F8041BF4E700BF5F
:105B200082A50008000000203D0100204001002067
:105B300002250020684620F007018D4608B5FFF7D2
:105B4000D9FFFEF79DFCFEE7704700004FF480523E
:105B5000044B1A604FF0C04318800348026019805C
:105B6000704700BF14140140101401404FF48053DB
:105B7000034A13604FF0C0421080024A136070471E
:105B80001414014010140140EF2010B5FFF7EEFF90
:105B90004FF0C04003880488018802880388090404
:105BA000DBB243EA046301F47F01120202F47F4294
:105BB0000B431343014A136010BD00BFD0110020F6
:105BC00008B50B4B4FF0C0411A680A4B9A420AD1F4
:105BD0002E20FFF7CBFF0B8809882C2089B2FFF716
:105BE000C5FF084608BD0B88098889B2F9E700BFE0
:105BF000D011002027930402034B18801A8892B218
:105C0000002AFBD1704700BF9A110020F8B54FF46D
:105C100000614FF48055734C012025602160FFF72F
:105C2000EBFF714E0A203160FFF7E6FF3220216062
:105C3000FFF7E2FFFFF7A8FF6C4B1A686C4B9A4224
:105C400040F0DA800520FEF7A8FB6A49062203F03F
:105C500013FE00284FF0C0414FF020044FF0E90040
:105C600065DBFFF783FF11200C80FFF77FFF6420C7
:105C7000FFF7C2FFD120FFF779FF002470230C80CB
:105C80000B801C23D0200B80FFF770FF012507231A
:105C900036200B800D800D80FFF768FF40270C2019
:105CA0000F80FFF763FF55263A200E80FFF75EFF57
:105CB000C1200E80FFF75AFF02261023C0200B8060
:105CC0000B800E800E80FFF751FF35230C80C5201E
:105CD0000B800C800C800D800E80FFF747FFD220D8
:105CE0000D80FFF743FF22230D80C8200B80FFF7B4
:105CF0003DFF73230D800B80372304220B800F237D
:105D00000C800B800E800A8067220F800A800C8036
:105D10000E800B8008230B80802329200B800C80B1
:105D2000FFF724FFBDE8F8402C20FFF71FBFFFF767
:105D30001DFF11200C80FFF719FF6420FFF75CFFA7
:105D4000D120FFF713FF00245E230C800B80172364
:105D5000D0200B80FFF70AFF0C25072336200B808D
:105D60000B800D80FFF702FF402728460F80FFF7CA
:105D7000FDFE55253A200D80FFF7F8FEC1200D806D
:105D8000FFF7F4FE02251023C0200B800B800D804E
:105D90000D80FFF7EBFE012635230C80C5200B801C
:105DA0000C800C800E800D80FFF7E0FED2200E806C
:105DB000FFF7DCFE22230E80C8200B80FFF7D6FE03
:105DC00073230E800B80372304220B800F230C805B
:105DD0000B800D800A8067220F800A800C800D8066
:105DE00097E700BF1014014014140140D0110020A7
:105DF000279304022E9E000800210846FFF7A6FE06
:105E000000210846FFF7A2FE00210846FFF79EFE8C
:105E100000210846FFF79AFE0A20FFF7EDFE012158
:105E20004FF4C060FFF792FE0A20FFF7E5FE402125
:105E30004FF4DE60FFF78AFE0A20FFF7DDFE4FF425
:105E4000C4414FF48060FFF781FE40F6080108204E
:105E5000FFF77CFE4FF480710120FFF777FE4FF4CF
:105E600080710220FFF772FE30210320FFF76EFEE3
:105E700001210920FFF76AFE00210C20FFF766FED2
:105E80004FF400419020FFF761FE00210F20FFF743
:105E90005DFE16211020FFF759FE40F2011111207E
:105EA000FFF754FE00211220FFF750FE01211320BE
:105EB000FFF74CFE4FF44C714FF48070FFF746FE35
:105EC00040F2372140F20110FFF740FE4FF47061BD
:105ED00040F20310FFF73AFE4FF4D6414FF4207022
:105EE000FFF734FE4CF2B0114FF48170FFF72EFE35
:105EF0006420FFF781FE4FF440614FF44070FFF7DC
:105F000025FE45F60B2140F20130FFF71FFE40F65B
:105F1000061140F20230FFF719FE41F2170140F27C
:105F20000330FFF713FE4FF40C514FF44170FFF7AD
:105F30000DFE4FF4B85140F20530FFF707FE46F270
:105F4000093140F20630FFF701FE40F6094140F208
:105F50000730FFF7FBFD41F20C014FF44270FFF7F1
:105F6000F5FD42F2322140F20930FFF7EFFD00214A
:105F70004FF40470FFF7EAFDEF2140F21120FFF724
:105F8000E5FD002140F21220FFF7E0FD40F28F1105
:105F900040F21320FFF7DAFD00214FF4A060FFF775
:105FA000D5FD002140F20150FFF7D0FD052140F260
:105FB0000250FFF7CBFD012140F20140FFF7C6FD83
:105FC000002140F20440FFF7C1FD6420FFF714FEFA
:105FD0004FF480710720FFF7B9FD6420FFF70CFE36
:105FE00000214FF40070FFF7B1FD002140F20120C5
:105FF000FFF7ACFD4FF0C04340F2022235601A803B
:106000002560F8BD70B505460E46FEF709F91B4B35
:106010001A681B4B9A421BD12A204FF0C044FFF74D
:10602000A5FD0023F6B2238026802380EF232B20BA
:106030002380FFF79BFD2B0A23800123EDB22580EF
:1060400023808F232C202380BDE87040FFF78EBD76
:1060500031464FF40070FFF779FD294640F20120E8
:10606000FFF774FD4FF48053064A40F2022113609B
:106070004FF0C0421180044A136070BDD01100205F
:10608000279304021414014010140140002110B59C
:10609000094C24F8040F0846FFF7B4FF20464BF6DE
:1060A0008031FEF7C1F8FEF7BBF82046BDE810408E
:1060B0004BF68031FEF7B8B8D0110020034B2238E0
:1060C00001EBC00133F81100704700BF369E000895
:1060D0002DE9F84F0446884617461D460E26FFF761
:1060E00091FF7DB92846FEF793F8013EB6B2002E27
:1060F000F7D10A9E0134A4B2013E16F8013F2BB934
:10610000BDE8F88F012DF0D13846ECE74FF0000ADA
:1061100004EB0A00414680B2FFF774FF3378A3F125
:106120002002012A21D91B4A223B0AEBC30332F980
:1061300013904FF00E0B19F0040F25D005BB384615
:10614000FEF766F80BF1FF3B1FFA8BFB4FEA69097C
:10615000BBF1000FEFD10AF1010ABAF1080FD7D154
:106160003378212B06D0083405E0212B05D1BAF174
:10617000040F02D10434A4B2BFE74FF00009D8E7FE
:10618000012DDFD10020DBE7002DFBD0012DD9D17F
:10619000D5E700BF369E00082DE9F04788B00D46D0
:1061A00069468246DFF8A490274899F8003009F143
:1061B0000409DA0819F8023CDB0803EBC22319F8DA
:1061C000032C81454FEA920203EB421321F8023B74
:1061D000EBD154464FF0C047DFF874800AF1FF0658
:1061E000204601342946A4B2FFF70CFFB442C8BFD1
:1061F000544699F8003008AA4FEA131302EB430300
:10620000C8BF013533F8203CC8BFADB2294620468F
:106210003B80FFF7F7FE99F800300134A4B203F099
:106220000F0308AAA64202EB4303B8BF013533F8B7
:10623000203C09F10109BCBF5446ADB2C1453B80C9
:10624000CED108B0BDE8F08776D8030836D8030869
:1062500076F80308F8B50F461946264B15461A6816
:10626000254B04469A421CD12A20FFF77FFC4FF0B1
:10627000C0462B0A3380EDB20B0AC9B235802B2001
:1062800033803180FFF772FC230A3380E4B23B0A8B
:10629000FFB234802C2033803780BDE8F840FFF710
:1062A00065BC40F21120FFF751FC394640F2132043
:1062B000FFF74CFC29464FF40470FFF747FC2146DA
:1062C00040F21220FFF742FC29464FF40070FFF71E
:1062D0003DFC214640F20120FFF738FC4FF480538B
:1062E000064A40F2022113604FF0C0421180044A76
:1062F0001360F8BDD011002027930402141401404C
:1063000010140140038810B503F441524C880B88E7
:1063100023438C882343CC8823430C8923434C8913
:1063200023438C892343CC89234313439BB20380AB
:106330000B8A038210BD038821B19BB243F0400356
:106340000380704723F040031B041B0CF8E7818196
:106350007047808980B270470389194214BF0120B9
:1063600000207047044B196801F0380119601A6861
:1063700002431A60704700BF00200240044B1968B6
:1063800021F0100119601A6802431A60704700BFBB
:1063900000200240034B044A5A6002F188325A60DE
:1063A000704700BF0020024023016745024A13697D
:1063B00043F080031361704700200240014BD86016
:1063C000704700BF00200240084BDA68D10709D4AB
:1063D000DA68520708D4DB6813F0100F14BF0320EB
:1063E00004207047012070470220704700200240BF
:1063F00073B504460025FFF7E7FFFF2601280FD1FC
:1064000014B9052002B070BD01950196019B1BB91E
:10641000FFF7DAFF013CF1E7019B013B0193F5E750
:10642000002C08BF0520EDE738B5054640F6FF70A3
:10643000FFF7DEFF042815D10B4C40F6FF702369EF
:1064400043F0020323616561236943F04003236144
:10645000FFF7CEFF012805D0236923F00203DB04F8
:10646000DB0C236138BD00BF0020024070B505463B
:106470000F200E46FFF7BCFF042810D1084C0F2058
:10648000236943F0010323612E80FFF7B1FF012848
:1064900005D0236923F00103DB04DB0C236170BD0D
:1064A00000200240034B40F0BF6040F40030D86051
:1064B000704700BF00ED00E070B50125027802F0E2
:1064C0001F039D40C378540943B3154BD9684378E3
:1064D000C943C1F30221C1F1040603FA06F6837829
:1064E0000F2020FA01F1FF200B4002F0030102F01F
:1064F000FC0202F16042334302F56142D2F80063CC
:10650000C9001B018B40734000FA01F10B4073403E
:10651000C2F80033034B43F8245070BD2034F9E730
:1065200000ED00E000E100E021F06041024B21F0CD
:106530007F0101439960704700ED00E00C4B1A6841
:1065400042F001021A6059680A4A0A405A601A6801
:1065500022F0847222F480321A601A6822F48022B7
:106560001A605A6822F4FE025A6000229A6070474C
:10657000001002400000FFF80C4BB0F5803F1A6895
:1065800022F480321A601A6822F480221A6003D042
:10659000B0F5802F05D070471A6842F480321A6037
:1065A00070471A6842F4A022F9E700BF00100240C9
:1065B000014B1860704700BF60004242034A5368B5
:1065C00023F0030303435360704700BF00100240F1
:1065D000024B586800F00C00704700BF00100240EA
:1065E000014B1860704700BFD80042424209012A9F
:1065F000074B07D11B6800F01F0023FA00F000F0E2
:1066000001007047022A0CBF1B6A5B6AF3E700BFF8
:1066100000100240002307B501933120FFF7E6FF89
:10662000019B0133019318B9019BB3F5A06FF4D11D
:106630003120FFF7DBFF003818BF012003B05DF801
:1066400004FB0161704741617047000038B5274C79
:106650002378002B30D1264B1B6858435943012324
:106660006060A1602370E368002B31D10122214BCF
:106670001F4D1A7061682A881F48FEF777FF402275
:1066800098211D4801F06CF82B68403BE3604023E3
:1066900040210120236101F041F93021012001F066
:1066A00097F86368154A40336360A368403BA36072
:1066B0009368403B936001E0012BD4D0A36833B9C9
:1066C00003210F4AE360636023611170237038BDBA
:1066D0002369094840221844982101F041F8E368F1
:1066E000403BE36023694033D2E700BFD81100206C
:1066F0009011002080110020FC110020582400205F
:1067000054240020F8B52F4C23786269002B3FD128
:106710002D4B1B68584359430123A061E16123704D
:106720000023194629482A4F4032236265695E1CBE
:1067300095423DD301B12362264DA2692988E369C0
:106740000A445B1A2049E3610968A261B3FBF1F0D6
:1067500001FB10338BB9012063611F4B511A187074
:106760001B48FEF731FF1D4B1B78012B05D1A1699A
:106770001B48A1F58071FEF727FF1A4A2988936804
:1067800002205B1A4FF44051936001F036F801E0AB
:10679000012BC5D0E3691BB1134B1B78042B06D129
:1067A000002501212846656101F022F92570F8BD18
:1067B000636910F8011BD9556369012101336361D5
:1067C0003346B3E7D8110020901100209224002016
:1067D000FC1100209024002080110020881100204E
:1067E000FC1200205824002054240020074B1A7C5F
:1067F000D20705D4D97C242906D889B2044801E0FF
:106800000521044801F0DAB82421F7E768240020C4
:10681000FC0000204C24002008B5FEF729FF0B4B9C
:106820000B481B680C211A0E02711A0C4271C371BD
:106830001A0A084B82711B681A0C42721A0A827279
:10684000C372BDE8084001F0B9B800BF8C11002048
:10685000D20000209011002008B5FEF709FF0C4B74
:106860000C481B680821013B1A0E02701A0C42707A
:10687000C3701A0A084B82701B681A0E02711A0C38
:1068800042711A0A8271C371BDE8084001F096B8DE
:106890008C11002044240020901100200421014884
:1068A00001F08CB8F80000200821014801F086B8FA
:1068B000F0000020034B0448D97C122928BF122184
:1068C00001F07CB868240020DE000020014B9870A5
:1068D00019737047DE0000200121002001F088B804
:1068E00008B50B4B9A6842B9187C10F0040004D12B
:1068F0000121BDE8084001F07BB8022001F0C8F991
:106900000522044B00219A70242201201A73F0E71B
:1069100068240020DE00002008B5FEF7A9FEBDE8CF
:1069200008400121002001F063B8FEF7A1BE00007D
:1069300008B50B4B9A686AB9002001F0A9F9052245
:10694000084B00219A7020221A730120BDE80840EC
:1069500001F04EB893F90C30002BEDDB0220ECE790
:1069600068240020DE00002008B5164B11441B6887
:10697000994212D92A2802D1022001F089F9002077
:1069800001F086F90522104B9A7021220120002186
:106990001A7301F02DF8002008BD0C4B1B685A43F8
:1069A0000B4B9B6893420AD02A280CBF0220002080
:1069B00001F06EF90522044B9A702422E6E70120CB
:1069C000EAE700BF8C110020DE00002090110020BB
:1069D0006824002070B5144E044633780D4603BB7E
:1069E0000A4601462820FFF7BFFFE0B10F4B93F99D
:1069F0000C30002B07DA0223294620463370BDE80D
:106A00007040FFF723BE022001F042F90522084B37
:106A100001219A7024221A730846BDE8704000F0E4
:106A2000E7BF022BEBD070BD542400206824002067
:106A3000DE00002038B5164D0A462C7804BB01460E
:106A40002A20FFF791FF08B3124B93F90C30002B6B
:106A500008DB01234FF440512B700220BDE8384081
:106A600000F0CBBE204601F013F905220A4B214667
:106A70009A7024221A730120BDE8384000F0B8BF94
:106A8000012C03D1BDE83840FFF73CBE38BD00BF44
:106A90005424002068240020DE0000202DE9F0416D
:106AA000504FDFF85C813B684F4A99B21B0411805C
:106AB00050D547F6FF733B60138803F00F0388F847
:106AC0000030002B62D1494C494D2368494E03F4F4
:106AD00040532B80236803F030036B8023683340DE
:106AE0009BB283F400532360236823F4E04323F034
:106AF00040039BB283F020032360138813F0100F30
:106B0000236829D123F4E14323F070031B041B0CF9
:106B1000236000F0C5FC23682A8833409BB2D70469
:106B200048BF83F480539604304A48BF83F400532F
:106B3000136013686A8823F4E04323F040039BB298
:106B4000D40648BF83F010039006284A48BF83F05C
:106B500020031360BDE8F081190601D52368D1E751
:106B60001A0508D5236823F070031B051B0D23604D
:106B700000F0B8FACFE71B0495D5236823F0700323
:106B80001B051B0D236000F00FFCC4E79A0002F107
:106B9000804202F5B842146821040AD51168013B0D
:106BA00021F070010905090D1160134A52F82330D4
:106BB000984722067FF577AF98F80020930003F1FD
:106BC000804303F5B8431968013A21F4E14121F00B
:106BD00070010904090C1960084B53F822309847DA
:106BE00061E700BF445C004036240020005C0040A8
:106BF000FC2300208FBFFFFF0C0000202800002096
:106C00003424002070B5184D184C194E2B689AB2D8
:106C10001B04228000D470BD47F6FF732B602388CD
:106C200003F00F039A0002F18042337002F5B8427C
:106C3000116808040BD51168013B21F070010905AA
:106C4000090D11600B4A52F823309847DEE7090618
:106C5000DCD51168013B21F4E14121F07001090408
:106C6000090C1160044AEEE7445C00403624002021
:106C7000342400200C0000202800002001220020E5
:106C8000054B06491A60064A186010604FF4E0523E
:106C90000A801A60704700BF405C0040302400202A
:106CA000445C0040054B06491A1D1A6002221A7303
:106CB000044A59621A621368184700BF082400206A
:106CC000AC0000204400002000F0B2BE00F0F2BF93
:106CD0000E4838B502680E4B0E4D92B21A802C88C1
:106CE0001988214011F4806F1C4605D04FF6FF3300
:106CF0000360094B5B68984723882A8813401B046C
:106D000003D5BDE83840FFF7C9BE38BD445C00403C
:106D100036240020302400204400002010B5064C0A
:106D200018B9012223681A8210BD044B1B681B6826
:106D3000984720680A30F7E7082400202C24002018
:106D400010B5064C18B9012223681A8210BD044BF5
:106D50001B689B68984720680C30F7E708240020E0
:106D60002C2400201F4B10B51968034600201BB9C6
:106D7000022218460A8210BD1B4C20800B78224646
:106D800013F07F0312D1497A8C0644BF022313709B
:106D9000137848064CBF23F0010343F0010313703E
:106DA000124B1B681B6998470F48E4E7012B17D06B
:106DB000022BE0D1497901F00F039B0003F18043DE
:106DC00003F5B84309061B6805D503F03003102B03
:106DD000E6D10123E3E703F44053B3F5805FF7E71F
:106DE0002046C8E7082400203A2400202C24002054
:106DF0002DE9F843234FDFF8A0803D682C8AD4B9F1
:106E00002E7A042E17D120498B78012B0ED11F4BDF
:106E10001A681F4B92B213445B001C6030238C70C5
:106E2000A8F800303B681E72BDE8F88310230726DF
:106E3000A8F80030F6E7AA8AAB69944294BF04260A
:106E40000226944228BF14462046984781460020D7
:106E500000F048FD22460146484600F081FC2146EC
:106E6000002000F05BFD2B8A6A8A1B1B2B823023DB
:106E700014444FF44052A8F80030064B6C821A803C
:106E8000D0E700BF082400203A240020505C0040D6
:106E900002300020FC230020FE23002010B50A4B06
:106EA0000A491B684978DA7891420AD39C7844B938
:106EB000998831B99A72064B1B685B6898472046DF
:106EC00010BD0224FBE700BF08240020D0000020F2
:106ED0002C24002038B50E4A0E4D12682B6892699A
:106EE000D978587990472B689A7A7AB170B91A791B
:106EF00062B99C7854B9084B1B68DB6898472B68CB
:106F00005A79DA72DA781A73204638BD0224FBE720
:106F100028240020082400202C24002070B52D4BAC
:106F20001D682B7813F07F0305D16A7A22F02002C6
:106F30006A72184670BD022B49D16A88002AF8D1BE
:106F40002A79002AF5D16979234E21F08000840046
:106F500004F1804404F5B8442268367849B2002927
:106F6000B4BF02F0300202F440528642E1D9002A56
:106F7000DFD0AA7A002ADCD00029236811DA03F0D6
:106F80003003102B07D1C4B2204600F07AFC302128
:106F9000204600F01DFC114B1B685B6998470023DD
:106FA000C7E703F44053B3F5805FF4D10C4D58B9F3
:106FB0000C4B93F82C1000F0BFFC23682B409BB2C5
:106FC00083F440532360E6E700F04BFCF5E702232F
:106FD000AFE700BF08240020D00000202C240020B0
:106FE0008FBFFFFF4400002038B51B4B1B4D1868B6
:106FF0002D78417921F08004A30003F1804303F54B
:10700000B8431A6849B20029B4BF02F0300202F452
:107010004052A5421DD94488DCB9D2B1827AC2B1AE
:107020001A680029B5BF22F4E04222F4804222F01F
:10703000400222F07002B5BF92B292B282F010020A
:1070400082F480521A60064B1B689B6998470020A7
:1070500038BD0220FCE700BF08240020D00000203B
:107060002C24002008B5064B1A68537A43F02003FD
:107070005372044B1B68DB699847002008BD00BFB2
:10708000082400202C240020054B10B51C68628ABF
:1070900018B98B889B1A238210BD08681044FBE73F
:1070A0000824002008B50B4B002093F82C1000F0AA
:1070B00043FC094B1B68187A082806D14FF480520C
:1070C000064B1A801022064B1A80A0F10903584281
:1070D000584108BD4400002008240020FC23002063
:1070E000FE230020F7B5984C984D27682A683B7A14
:1070F000092B19D0964B92B213445B001E88760080
:1071000006F1804606F5C04633783B7073787B7095
:10711000B08800F041FC78803089276800F03CFCA2
:10712000B880B2892368DA80012223681A72DA886B
:107130005E78002A64D11A7812F07F024DD1092EB0
:1071400003D1FFF7ABFE40BB16E0052E20D193F92B
:107150000320002A07DA08232268137203B0BDE86F
:10716000F040FFF79FBF9A78002AF4D19A88002A4E
:10717000F1D19B7A002BEED12A68764B92B2134460
:1071800000225B001A603022734B1A800623E3E76B
:10719000032E14D1DA78012A08D0704B30461B68D0
:1071A0005B699847032828D10923D5E79A88002AE4
:1071B000F3D15B7A9B06F0D5FFF754FFC3E7012EAE
:1071C000EBD1DA78012AE8D19A88002AE5D15B7AF6
:1071D0009F06E2D5FFF7A2FEB5E7012A04D10B2EE8
:1071E000DBD1FFF777FEAEE7022AD6D1012EF1D030
:1071F000032ED2D1FFF7F8FEA5E70028BCD0AAE7FE
:10720000062E13D11A7855065AD19B78534A012B72
:10721000126803D1D369002B52D01AE0022B01D19E
:10722000136AF8E7032B4BD1536AF4E7002E54D1CD
:107230005988002944D15A6822F47F42B2F5003FB0
:107240003ED11A7812F07F0215D19B88002B37D1DE
:10725000434B0025226828465582936198474FF694
:10726000FF7123681A8A8A4234D0022D01D0002A85
:1072700056D108222FE0012A0AD1384A58791268DB
:1072800092699047E0B923689B7A002BE0D117E020
:10729000022A15D15A7902F00F018B00100603F172
:1072A0008043304803F5B8431B6800784CBF03F0B7
:1072B000300303F44053884202D912F0700FE4D037
:1072C000264B22681B6850781B699847032805469F
:1072D000C5D1236809221A7240E7082E04D11B7811
:1072E0005B06EDD1204BB4E70A2EE9D11A7802F003
:1072F0007F02012AE4D19A7A002AE1D05988002934
:10730000DED15A6822F47F42B2F5803FD8D1134AC9
:1073100058791268926990470028D1D1134B98E7A9
:1073200093F90010002934DAD9880C4801910068DB
:10733000019D90F82C40AA42204619D9019A1A8240
:107340009882FFF755FD09E708240020505C0040B3
:107350000430002002300020FE23002028240020DA
:10736000656D0008D00000201D6D0008416D00080B
:107370008A42E5D2A24203D20021094A9170DFE796
:10738000B2FBF4F104FB1122002AD9D10121044AF5
:10739000F4E703221A724FF44052024B1A80DDE6E2
:1073A0003A240020FC230020F8B5294E3468237AC3
:1073B000032B01D0052B43D1A369B3B1258A0DB3AB
:1073C000A28A954228BF154628469847238A074631
:1073D0005B1B2382638A00202B44638200F090FAB7
:1073E0002A460146384600F0CAF9238A53B10021E3
:1073F0004FF44052174B08461A8000F08FFA3022A3
:10740000154B1A80218AA38A32688B4208D803233D
:107410001372137A32681372BDE8F840FFF742BE68
:1074200009B10523F4E7062313720C4B18680C4BC3
:1074300080B203445B0019603021074B1980E8E7F4
:10744000072B03D1074B1B68DB6898470823E1E74C
:1074500008240020FC230020FE230020505C004074
:10746000023000202824002030B5002248F68F7515
:10747000094B1C78A24204D3084B40F080001860EE
:1074800030BD930003F1804303F5B84319682940E8
:10749000114319600132EDE7D00000204C5C004040
:1074A00010B5134C23681A7A022A01D0042A09D194
:1074B000FFF79EFC23681B7A22681372BDE8104018
:1074C000FFF7F0BD062A10D15A78052A09D11A789B
:1074D000520606D1D878FFF7C7FF064B1B681B6A18
:1074E0009847054B1B689B6898470823E4E700BF53
:1074F000082400202C2400202824002070470000AD
:107500000422014B1A60704704240020704719B907
:10751000002818BF022070470220704720B90122BE
:10752000024B1B681A8270470148704708240020EC
:107530004024002010B50024FDF73AFF074B1B68DC
:107540009C72FFF79BFB064B064A1C604FF40443FA
:107550001380054A1360054B1C6010BD08240020F1
:10756000445C004030240020405C004004240020A3
:1075700038B50024304B314A9C72314BD2791B68AC
:1075800020465A7200F00EF94FF40071204600F0C8
:1075900011F92C4D2021204600F01AF9182120461F
:1075A00000F090F9204695F82C1000F0C5F958210C
:1075B000204600F077F9204600F051F9204600F00F
:1075C00031F92146012000F0F5F89821012000F062
:1075D00069F92021012000F0FBF82146012000F08C
:1075E0000CF92146022000F0E5F8D821022000F035
:1075F00069F9022095F82C1000F09EF94FF44051E3
:10760000022000F0FAF82146022000F0E1F895F897
:107610002C10204600F090F9204600F003F9204697
:10762000FFF722FF0122084B1A60084B084A1A6034
:10763000084B1C7038BD00BF0C2400206DA400084E
:107640000824002044000020042400206824002096
:107650005553424354240020044B1A68044B9A4269
:1076600002D0022000F014BB704700BF6824002045
:10767000555342430149FFF707BD00BF7400002086
:107680000149FFF701BD00BF7C000020054B1B68CE
:10769000DB78052B04D8044901EBC301FFF7F4BCE8
:1076A00000207047082400208400002008B5084B03
:1076B0001B689B7A5BB10522064B01201A6000F023
:1076C000E0F8022000F0CDF80022034B1A7008BD4C
:1076D00008240020042400205424002010B50E4B60
:1076E0001B681A7802F07F02212A12D1FF2810D1DC
:1076F0005A8872B95C6864B9012000F0C2F80220AF
:1077000000F0AFF82046054B054A1A60054B1C7087
:1077100010BD0220FCE700BF0824002068240020E0
:107720005553424354240020704700000A4B1B6805
:107730001A7802F07F02212A0CD1FE280AD158883B
:1077400040B95A68B2F5803F04D1044A9A610122D7
:107750001A61704702207047082400201D75000838
:1077600001F10051013201F540515210490002B9B6
:10777000704730F8023B013A21F8043BF7E7002359
:1077800010B501F10051013201F54051521049008C
:107790009A4200D110BD51F8234020F81340013324
:1077A000F6E700004FF6F873014A03401360704794
:1077B000505C0040800000F1804000F5B840036854
:1077C00023F4EC4323F070030B439BB20360704738
:1077D000800000F1804000F5B8400368CA0623F439
:1077E000E04323F040039BB248BF83F010038A06B6
:1077F00048BF83F0200303607047800000F18040A1
:1078000000F5B8400368CA0423F4804323F07003F2
:107810009BB248BF83F480538A0448BF83F400536B
:1078200003607047800000F1804000F5B8400368B5
:1078300023F4804323F070039BB283F4405303602E
:107840007047800000F1804000F5B840036823F4E1
:10785000E24323F070031B041B0C03607047FFF727
:10786000F0BF800000F1804000F5B84003685B0481
:1078700006D5036823F4E04323F070039BB2036052
:107880007047800000F1804000F5B84003685B0657
:1078900006D5036823F4E04323F070039BB2036032
:1078A00070470000064B49081B6849009BB203EB78
:1078B000C00000F1005000F54050400001607047EA
:1078C000505C0040054B49081B6849009BB203EB24
:1078D000C000034B03445B0019607047505C0040DC
:1078E00004300020054B1B689BB203EBC00000F185
:1078F000005000F54050400000887047505C004048
:10790000044B1B689BB203EBC000034B03445B00BA
:1079100018887047505C004004300020044B1B68FE
:107920009BB203EBC000034B03445B00196070473C
:10793000505C0040023000200D4B0E4A1B683E296F
:107940009BB203EBC00002444FEA42020AD94B0942
:10795000C80604BF03F1FF339BB29B0243F400430C
:10796000136070474B08C90748BF01339B02F7E714
:10797000505C004006300020054B1B689BB203EBB7
:10798000C000044B03445B001868C0F30900704753
:10799000505C004006300020C3B2000A40EA0320D9
:1079A000704708B510210120FFF712FFBDE808401D
:1079B0004FF480510220FFF720BF000010B50C46A5
:1079C0000A469821FFF7CCFE21460120FFF7A6FFCB
:1079D00030210120FFF7FCFE0322044B1A70002225
:1079E000D9681A74091BD96010BD00BF5424002047
:1079F00038B50D460C4C0D4B982120740D22201DDE
:107A00006360FFF7ADFE0D210120FFF787FF15B979
:107A10000523237038BD0423302123700120BDE8E5
:107A20003840FFF7D5BE00BF5424002055534253C1
:107A300008B5114B1A78032A19D002D8022A0CD0A3
:107A400008BD043A012AFBD800221A704FF44051B5
:107A5000BDE808400220FFF7D0BE93F82320282A73
:107A6000EED1D3E90D10BDE80840FEF7B3BF012108
:107A70000020FFF7BDFFE9E75424002038B50023BC
:107A8000804CA28F04F13E0104F114009A4213D8F5
:107A9000A3691F2AA360E369E36013D00025FFF701
:107AA00080FF1A2165610520FEF710FFBDE8384010
:107AB00000210120FFF79CBF11F8015B013300F8A2
:107AC000015BE3E794F8233003F0FD02282A07D195
:107AD000D4F8252012BAA263628D52BA92B26263C0
:107AE0006169694A914219D1684A94F82110126873
:107AF000914204D894F82220013A0F2A03D9FFF7C3
:107B000050FF2421CFE72F2B13D98F2B76D8872B2B
:107B100008D8552B7DD05A2B00F08F80FFF741FFFE
:107B20002021C0E77833DAB20123934013F0850FA8
:107B30006EE02F2BF2D801A252F823F0537C0008FC
:107B40001D7B00081D7B00081B7C00087B7C000857
:107B50001D7B00081D7B00081D7B0008137C0008AE
:107B60001D7B0008137C00081D7B00081D7B00089E
:107B70001D7B00081D7B00081D7B00081D7B000885
:107B80001D7B0008237C00081D7B00081D7B00086E
:107B9000137C00081D7B00081D7B00081D7B00086E
:107BA0001D7B0008337C00082B7C00081D7B00082F
:107BB000137C00082B7C00081D7B00081D7B00083F
:107BC0001D7B00081D7B0008437C00081D7B00080E
:107BD0004B7C00081D7B00081D7B00085B7C0008B7
:107BE0001D7B0008677C00081D7B00081D7B0008CA
:107BF0001D7B00081D7B0008737C00086233DBB22C
:107C0000112B8BD8012202FA03F302F5053213423D
:107C100084D0BDE83840FEF78BBEBDE83840FEF7A3
:107C200049BEBDE83840FEF7E1BDBDE83840FEF78B
:107C300053BEBDE83840FEF731BEBDE83840FEF720
:107C400033BEBDE83840FEF7E7BDBDE83840FEF77B
:107C500003BEBDE83840FEF75FBED4E90D10BDE8B5
:107C60003840FEF7B7BED4E90D10BDE83840FEF746
:107C7000E1BEBDE83840FEF733BEBDE83840FEF750
:107C800054BE00BF542400205553424340240020DA
:107C9000012806D0022809D050B910210120FFF791
:107CA00097BD4FF480510220FFF7A7BDFFF779BEC3
:107CB0007047000038B5164C022094F82350FFF7A7
:107CC0005BFED8210246A08704F13E00FFF757FD76
:107CD000207820B1012806D0FFF763FE0DE0BDE853
:107CE0003840FFF7CBBE2A2D05D1D4E90D10BDE8F1
:107CF0003840FEF79FBEFFF7CBFF24210520FEF79B
:107D0000E5FDBDE8384000210220FFF771BE00BF4D
:107D10005424002030B5441E01F1080514F8012F49
:107D20000B46202A01F101010AD12E221A70027A93
:107D30005A70427A9A70827ADA7000221A7130BDD3
:107D4000A94201F8012CE9D10B46EEE700B51C4A27
:107D50008BB01379A12B2BD01A4940204B6943F0EB
:107D600040034B61A1231371174B4FF4FC626E214A
:107D700000930023FEF7ACF9144B6E2140200093D2
:107D80004FF4FC620023FEF7A3F90020104900F035
:107D90007FFF80B90F4903A801F048FA034650B9A4
:107DA0000D4A00924FF4FC626E214020FEF790F9DC
:107DB0000BB05DF804FB094B00930023F2E700BF12
:107DC00000300240001002409FA40008D6A4000822
:107DD000480100200FA5000811A500083EA50008D5
:107DE000084B10B55A6803F1914303F50C3303F2C5
:107DF000BB339A4201D1FFF7A9FFBDE81040024B07
:107E00001B681847000801402000000840B1012805
:107E100006D0022804D0043801288CBF0220042098
:107E20007047000030B5094D85B0084669461446D4
:107E3000FFF770FF0A226946284600F037FF2B69DA
:107E4000238005B0BDE83040FFF7E0BFD424002018
:107E500030B5094D85B0084669461446FFF75AFF0C
:107E600001226946284600F021FF2B69238005B0D6
:107E7000BDE83040FFF7CABFD424002013B5044644
:107E80000D480988036999420AD10C4A2146528952
:107E900001AB00F092FF02B0BDE81040FFF7B6BFA3
:107EA000064800F08BFB012302462146002000F02B
:107EB00003F9002002B010BDD424002048010020A6
:107EC00013B5094C0146628901AB084801F01CF862
:107ED0006289019B9A4204D102B0BDE81040FFF7CD
:107EE00095BF032002B010BD48010020D42400201B
:107EF00008B5064801F012F918B1BDE80840FFF7CF
:107F000085BF024801F003F9F7E700BFD424002041
:107F1000034B1A899207FCD580B29881704700BF45
:107F2000003C00400A4A134611898807FCD51A898B
:107F30001106FCD49A8992B21A8992B2FF229A81D0
:107F4000034B1A89D207FCD59889C0B2704700BF8D
:107F5000003C004070B4164A13899D07FCD5144AB2
:107F600013891C06FCD493899BB213899BB2FF240E
:107F70004D1E9481B1B10F4E0D4B0544411E1A891F
:107F80009007FCD572B69C811A89D207FCD532784D
:107F900052B19A89D24302F0FF0201F8012F62B672
:107FA000A942ECD170BC70479A89D2B2F5E700BF04
:107FB000003C00403C0100202DE9F84F06460C46ED
:107FC000174680254FF40008DFF85CB0C1F3074A7C
:107FD000C1F3072980230520CBF81030CBF810809F
:107FE000FFF796FFFFF79EFFC207FBD40320CBF8F5
:107FF0001050CBF81080FFF78BFF5046FFF788FF3B
:108000004846FFF785FFE0B2FFF782FF394630466A
:10801000FFF7A0FFFFF786FFDBF808201306D9D48F
:10802000CBF81050BDE8F88F000C014037B504467E
:10803000002837D10E20FCF70DF9C2784378A2F161
:1080400030010A224A436421303B01FB03230279B9
:10805000154D303A1344B3F59C7F14DA00232B708E
:10806000082200216846FFF7A7FF9DF80030142B77
:1080700006D19DF80130C32B02D100220B4B1A70A0
:10808000204603B030BD1220FCF7E4F80378382B0B
:10809000E4D143784D2BE1D18378422BDED101230B
:1080A0002B70DDE70124EBE7F82400203C010020E1
:1080B000003818BF0120704738B5044608461146FD
:1080C0007CB973B1084A1278012A0CBF4FF480556D
:1080D0004FF4007505FB03F26943FFF76DFF20467F
:1080E00038BD0424FBE700BFF82400202DE9F0414F
:1080F0000D4616461C4658BB53B3DFF8588098F817
:108100000030CBB9770239462846FCF7ABF818B1F6
:1081100001242046BDE8F08107F5807105F58070E7
:10812000FCF7A0F80028F3D1013605F50075013CF5
:1081300014F0FF04E3D1ECE7012BF8D1284631031A
:10814000FCF790F80028E3D1013605F58055EEE7FD
:108150000424DEE7F8240020F8B959B101290ED132
:108160000F4B1B7843B1012B0CBF4FF4006300236E
:1081700000211360084670474FF48053F8E7023936
:1081800001290AD8064B01461B78012B0CBF4FF47E
:1081900080534FF400731360ECE70421EAE700BF5B
:1081A000F824002000487047A06C2128F0B522F088
:1081B00003040D1F93080619B04209D121446FF042
:1081C000030404FB032201380A44914205D1F0BDA7
:1081D00055F8047F40F8047BEEE711F8013B00F806
:1081E000013FF2E7026930B501F109033AB3426990
:1081F00001F11105541E14F8010F202806D005289E
:1082000008BFE52003F8010BAB42F4D1107A202817
:108210000DD018462E24D51D00F8044B013315F857
:10822000014F202C03D003F8014B8342F7D1D07AC1
:108230000872D0690860108B8880D28ACA800022B8
:108240001A7030BD08B503686BB11A785AB1D98875
:108250008288914207D15878FFF72AFF10F0010079
:1082600018BF032008BD0920FCE72DE9F041C66ACC
:1082700004468E420D4602D10020BDE8F08103790C
:108280005BB9002DF8D001232A46607804F1300153
:10829000FFF712FF50B9E562EFE700F13008012364
:1082A000324641464078FFF721FF08B10120E4E75C
:1082B000D4E907231344B3422071E2D9E778012FB0
:1082C000DFD9E36941461E44324601236078013F0D
:1082D000FFF70CFFFFB2F2E710B50A46044600F1C3
:1082E000300101234078FFF7E7FEA0B94AF6552395
:1082F000B4F82E229A4210D1D4F86630084A23F0FE
:108300007F43934206D0D4F8820020F07F40801A49
:1083100018BF012010BD0320FCE70220FAE700BFD0
:10832000464154002DE9F047036815461A78044683
:10833000303A092A17D900230B607B4B1C689846FA
:10834000002C00F0ED800C602378BBB16078FFF763
:10835000AFFEC70712D41DB110F0040500D00A25E6
:108360002846BDE8F08758783A28E4D102332360E4
:1083700000230B60002AE0D00B25F1E700202080CD
:10838000FFF754FEC60700F1CD800DB14107E6D4DA
:108390000221607804F10A02FFF7DEFE064608B10A
:1083A0000125DDE701462046FFF796FF0128054637
:1083B0000BD194F8F2310BB90D25D1E7D4F8F66161
:1083C00020463146FFF788FF0546032DE8D0002DF3
:1083D000F2D1B4F80AC0B4F83B306345ECD1B4F83C
:1083E000460000B9606D94F840E0E0610EF1FF33A3
:1083F000012B84F803E0DFD894F83D70A770002FBC
:10840000DAD07B1E3B42D7D1B4F841904FEA5C13DF
:10841000B9FBF3F203FB12939BB2A4F80890002B74
:10842000CAD1B4F8433003B9236DE18F0029C3D01A
:1084300000FB0EFE0A4472449342BDD39B1ABB421A
:10844000B3FBF7FAB8D340F6F5739A4553D94FF614
:10845000F577BA4594BF022703270AF10203324495
:108460003144032FA361A262216246D1B9F1000F0A
:10847000A2D1E26D9B0062620CF1FF321344B3FBA8
:10848000FCFC844598D800234FF0FF32032FC4E949
:10849000033224D1B4F86020637132440123607840
:1084A000626104F13001FFF707FEC0B94AF65523B7
:1084B000B4F82E229A4212D1226B1C4B9A420ED152
:1084C00003F1FF53D4F8142203F5005320339A42EA
:1084D00001BFD4F81C32E360D4F818322361B8F835
:1084E0000430277001339BB2A8F80430E3800023E6
:1084F000E362237134E70127AFE7B9F1000F3FF4DE
:108500005BAF022F4FEA430218BFD218714414BF69
:1085100003F001031346616218BF03EB5203ABE79C
:108520000C251DE703251BE7FC2400205252614166
:1085300010B500210446FFF798FE034670BB227871
:10854000032A23D162790AB304F130010A46E062BA
:1085500004F50C70904222D14AF65523A4F82E322D
:10856000104B6269236303F1FF5303F5005320337B
:10857000C4F8143223696078C4F81832E368C4F888
:108580001C320123FFF7B2FD0023637100226078E3
:108590001146FFF7E1FD003818BF012010BD02F8B9
:1085A000013BD7E75252614110B50446FFF7C0FFC7
:1085B0002046BDE810400121FFF757BE836902390C
:1085C000023B8B4283BF8378806A01FB030000205B
:1085D00070470129F8B504460D4660D983698B427E
:1085E0005DD90378022B32D0032B43D0012B09D164
:1085F000438901EB5107B7FBF3F3016A1944FFF715
:1086000034FE10B14FF0FF3020E061892046B7FB07
:10861000F1F301FB13730137B7FBF1F1234493F836
:108620003060236A1944FFF720FE0028EAD16389ED
:10863000B7FBF3F003FB10773C4494F83000EB07F2
:1086400046EA00204CBF0009C0F30B00F8BD438987
:108650005B08B1FBF3F3016A1944FFF706FE00283B
:10866000D0D169006589B1FBF5F005FB10152C44EC
:10867000208EEBE743899B08B1FBF3F3016A1944B1
:10868000FFF7F3FD0028BDD16189AD00B5FBF1F026
:1086900001FB10552C44206B20F07040D6E70120E0
:1086A000D4E770B50D46C18081680446012901D127
:1086B000022070BD03689A698A42F9D9F9B91A781B
:1086C000032A01D1596AD1B90022E2601A89AA426B
:1086D000EED95A895B6A5209B5FBF2F21344236161
:1086E0002368002003F130025B895B09B5FBF3F1DD
:1086F00003FB1155ADB202EB45156561D9E75E8903
:1087000072099E785643B6B2B542226809D2104625
:10871000E160FFF753FF53895B09B5FBF3F30344B3
:10872000DDE71046FFF755FF431C014608D001283E
:10873000BED923689B698342BAD9AD1BADB2E3E7CA
:108740000120B6E710B5C1880446FFF7AAFF50B96B
:1087500021692068FFF789FD28B9E52263691A704D
:10876000012223681A7110BD01292DE9F041044648
:108770000D46164677D983698B4274D90378022B4C
:1087800045D0032B56D0012B6BD1438901EB510807
:10879000B8FBF3F3016A1944FFF767FD58BB618921
:1087A00015F00105B8FBF1F301FB1383234417BF58
:1087B00093F83020F2B202F00F0032011CBF02F039
:1087C000F002024383F83020012308F10108B8FBCE
:1087D000F1F12371236A20461944FFF746FD50B991
:1087E0006389B8FBF3F703FB178727443DB1C6F352
:1087F000071687F8306001232371BDE8F08197F8F0
:108800003030C6F3032623F00F031E43F1E74389FC
:108810005B08B1FBF3F3016A1944FFF726FD00285A
:10882000E9D163896900B1FBF3F503FB1515254414
:108830002E86E0E743899B08B1FBF3F3016A1944F4
:10884000FFF713FD0028D6D16389AD00B5FBF3F126
:1088500003FB11553035625902F0704216436651E0
:10886000C9E70220C7E70220C7E7F8B505460F466B
:1088700071B9C668CEB183699E4228BF01263446CD
:10888000AB690134A34213D8012E10D8002405E0AF
:10889000FFF79FFE0128044602D801242046F8BDB8
:1088A000AB698342FAD83E46E9E70126E7E70224AE
:1088B00021462846FFF78DFE30B1411C1ED001280D
:1088C000EBD0B442DCD1E1E76FF07042214628469C
:1088D000FFF74AFF80B947B92B69EC605A1CDDD01D
:1088E000013B2B6101236B71D8E7224639462846AC
:1088F000FFF73AFF0028EFD00128CED14FF0FF3428
:10890000CCE72DE9F041C68804460136B6B20F46E1
:1089100016B90420BDE8F0810269002AF9D0006888
:1089200043895B09B6FBF3F503FB15639BB233B9CF
:10893000E1680132226191B90389B342E9D9236820
:10894000E6805A8903F130015209B6FBF2F302FBCB
:108950001366B6B201EB461600206661DAE783784B
:10896000013B2B42EBD1FFF734FE0128054601D82D
:108970000220CFE7421C01D10120CBE720688369A8
:10898000AB4228D8002FC4D0E168FFF76EFF054640
:10899000002837D00128EBD0431CEDD000212068FF
:1089A000FFF763FC0028E7D1236803F130025B89FD
:1089B000013B17D2226829461046FFF7FFFD00272A
:1089C0004FF00108D0622068FAB2837893420CD845
:1089D000C36A9B1AC36229462068E560FFF7EEFD73
:1089E0002061ACE702F8010BE2E7002180F8048087
:1089F000FFF73BFC01370028BED12268D36A013360
:108A0000D362E0E7072085E72DE9F8430B780446B9
:108A10002F2B0E4601D05C2B00D101360025A5601E
:108A200033781F2B2FD92025334613F8012B2F2AFB
:108A300030D05C2A2ED0A7693B4607F10B02934247
:108A40002AD100204FF0080C034606F1FF3EC6F184
:108A5000020909EB0E011EF8012F202A24D92F2A22
:108A600022D05C2A20D02E2A7BD0844509D9110639
:108A700007D4DFF81C8118F8011B00297AD08A423C
:108A8000F9D1062004E029462046FFF70AFE656179
:108A9000BDE8F8831E46C7E703F8015BCFE743F064
:108AA00002033A540130D4E7212A34BF04220022C1
:108AB0000E440028E5D03978E52904BF0521397036
:108AC000BCF1080F29D19B00DBB203F00C03042B8F
:108AD00008BF42F0080200212046FA72FFF7E1FDCC
:108AE00018BB21692068FFF7C0FBF0B963691A78E9
:108AF000D2B1D87A10F008000AD1A26903F10B0CA8
:108B0000634512D013F8017B12F8011B8F42F7D096
:108B100000212046FFF7F5FEE2E703F003010129FB
:108B200008BF42F01002D0E70420A369DB7A30B11D
:108B30000428ADD113F0040F08BF0520A8E75A0799
:108B4000A6D46269D37ADB0609D52168538B0978EC
:108B5000032904BF928A43EA0243A36064E7052025
:108B600096E7BCF1080F8CD19B006046DBB24FF05A
:108B70000B0C6EE7A2F14101192990D9A2F1610114
:108B800019299EBF203A43F00103D2B289E700BF02
:108B900073A5000838B500210546FFF782FD04469D
:108BA00030BB29692868FFF760FB044600BB6B698E
:108BB0001B78E52B08D03BB101212846FFF7A1FE29
:108BC000EDE703F8011B0AE029692868FFF74DFB70
:108BD000044668B968692146034600F120029A42BA
:108BE000EFD10B22A969FFF7E1FA01222B681A7174
:108BF000204638BD10B504460420216909B970B17A
:108C000015E02068FFF731FB88B9626913788BB1F2
:108C1000E52B06D02E2B04D0D37A1B0701D40020DD
:108C200010BD00212046FFF76CFE0028E5D0002390
:108C30002361F5E70420FAE70129F8B505460C465B
:108C400022D983698B421FD9012721462846FFF785
:108C5000C0FC2646044608B90020F8BD012813D000
:108C6000411C13D0002231462846FFF77DFD002825
:108C7000F3D12B695A1C1CBF01332B61AB6918BFA0
:108C80006F719C42E1D3E7E70220E6E70120E4E7C9
:108C900040B9054B1A6802B1107009B100220A7080
:108CA000196070470B207047FC2400202DE9F0412B
:108CB0008CB0164604460191002878D0002302F0BB
:108CC0001E02036005A901A8FFF72CFBB0B902AB97
:108CD000019905A80B93FFF797FE0A9D10B9002D87
:108CE00008BF062016F01C0F06F01F0754D040B135
:108CF000042803D105A8FFF74DFF58B10CB0BDE81B
:108D0000F081EB7A13F0110F4FD1710751D4330773
:108D100028D502E00A9D47F00807FFF743FA002331
:108D2000C5F80E000598EB72EB6102786E8B032A92
:108D300008BFAA8A6B83AB824FF0010308BF46EAE3
:108D40000246037176B13146D0F82C80FFF774FFEC
:108D50000028D3D10598013E4146C660FFF785FA49
:108D60000028CBD10020059B3A07DA6A48BF47F0BC
:108D70002007C4E90725A77119786A8B032904BF66
:108D8000A98A42EA01422261EA692360DB88E26043
:108D9000A060A061A380B1E70028AFD1EB7ADA062A
:108DA00009D4B007DED5D907DCD50720A6E709200E
:108DB000A4E70820A2E70420A0E72DE9F74F9A4690
:108DC0000023CAF80030044688461546FFF73AFAF1
:108DD0000646002836D194F9063094F80690002B08
:108DE00021DB19F0010900F08D80D4E90227BF1AB8
:108DF000AF4228BF2F462FB32068A1684289B1FB3C
:108E0000F2F502FB1512002A5ED18378013B2B405C
:108E100013F0FF031BD141B9206901280BD8A379B6
:108E200063F07F03A37102260CE061690193FFF7F1
:108E3000D0FB019BF1E7421C08D14E46A37963F0B9
:108E40007F03A371304603B0BDE8F08F6061D4F8B2
:108E500000B0616958460193FFF7B0FB019B002801
:108E6000DDD0BBF80A501A18BD422CD8B7FBF5F577
:108E70009BF802105819884288BFCD1A9BF8010050
:108E80004146EBB20192FFF717F9019A0028D4D1BD
:108E900021680B794BB1C86A801AA84205D24A8969
:108EA000303102FB0080FFF781F923685A8955436E
:108EB000A368A8442B44A360DAF800307F1B2B443E
:108EC000CAF8003097E7A2612068A3684589A169C4
:108ED000B3FBF5F205FB1232AD1ABD4228BF3D4689
:108EE000FFF7C3F90028A8D12168A0684A89B0FB20
:108EF000F2F302FB130330332A4640461944FFF7CE
:108F000055F9D5E707269DE72DE9F74F9A46002347
:108F1000CAF80030044689461746FFF793F905461C
:108F200008BB94F90620A379002AC0F28A809A0728
:108F300040F1C080E368FB4263D3D4E9023293423C
:108F400000F2B680A37943F02003A3710BE06169BE
:108F5000FFF78BFC01466CE04B1C08D10125A3797F
:108F600063F07F03A371284603B0BDE8F08F616111
:108F70002068A369C26A9A4204D10021FFF775F9FB
:108F80000028EBD1D4F800B061695846FFF716FB12
:108F9000002852D0BBF80A803218B84553D8B7FB26
:108FA000F8F89BF8023006EB0801994288BFA3EB62
:108FB000060849469BF801005FFA88F30192FFF723
:108FC00095F8019A06460028C8D12068C16A891A16
:108FD000414507D24289303002FB0191FFF7E6F8A4
:108FE00023681E7123685A8908FB02F8A368C144EC
:108FF0004344A360DAF80030A7EB08074344CAF8FB
:109000000030A268002F98D020684389B2FBF3F1AA
:1090100003FB11233BBB8678013E0E4016F0FF0692
:10902000A6D1002A93D1216929B9FFF71EFC014678
:109030002061002981D001298ED1A37963F07F03BB
:10904000A37102258FE7D4E9021399420AD30021C4
:1090500058460192FFF709F9019A00287FF47EAF84
:109060002368DA62A2612068A368B0F80A80A16967
:10907000B3FBF8F208FB1232A8EB0208B84528BF90
:10908000B846FFF7F2F800287FF468AF2068A168BF
:109090004289B1FBF2F302FB13133033424618440A
:1090A0004946FFF783F84FF0010223681A719DE7E4
:1090B000E36047E7072556E770B50446FFF7C2F8B7
:1090C00020BBA07910F0200020D0E1692068FFF7D4
:1090D000CCF80646D0B9256AEB7A43F02003EB7250
:1090E000E368EB6123696B831B0CAB82FFF75AF8D3
:1090F0006E82C5F81600A379206823F02003A371BF
:1091000001230371BDE87040FFF712BA70BD10B5BE
:109110000446FFF7D1FF00B9206010BDF8B5044642
:109120000D46FFF78FF80646002860D194F9063007
:10913000A279002B52DBE368AB4203D212F0020F9C
:1091400008BF1D460022A368A260ADB900202268B6
:10915000A3685189B3FBF1F201FB12321AB1A26983
:10916000824218BFA061E268934240D9E360A379CC
:1091700043F02003A3713AE020688278478957437F
:109180000BB3013B6A1EB2FBF7F2B3FBF7F18A4265
:1091900019D37A4213406169A360ED1A0029D5D032
:1091A000BD42206828D8A36820682B44A360438967
:1091B000B5FBF3F203FB1255002DC7D0FFF7FEF904
:1091C00040B11044C3E72169A1B9FFF74EFB012864
:1091D000014605D1A37963F07F03A371022606E05F
:1091E000481C06D10126A37963F07F03A3713046A2
:1091F000F8BD21616161D1E7A3799A0705D5FFF731
:1092000034FB014620B93D46CDE7FFF7E2F90146C0
:109210004B1CE7D00129DDD923689B698B42D9D942
:10922000A36861613B44A360ED1BB9E730B587B02B
:109230000446019150B30146002201A8FFF772F8DD
:1092400068B903AB20460199A3612568FFF7DCFBF1
:10925000F0B9636973B1DA7AD20603D4052000232A
:10926000236011E029785A8B032904BF9B8A42EAC4
:109270000342A260EB8800212046A380FFF711FA89
:109280000428EBD00028EAD107B030BD0920FBE765
:109290000428E3D0E3E77FB505460E46FEF7D2FF8C
:1092A0000446D0B92EB901462846FFF7FAF904461C
:1092B00013E001AB2846AB61FFF79CFC04280FD1FB
:1092C0002C6131462846FEF78DFF00212846FFF726
:1092D00018FB0428EBD100232B61204604B070BD9D
:1092E0000028E4D1EDE730B58DB001900D460022A5
:1092F00005A901A8FFF716F8044668B902AB019961
:1093000005A80B93FFF780FB044628B90A9B33B1ED
:10931000294605A8FEF766FF20460DB030BD06249D
:10932000FAE72DE9F347154601900F46002229463A
:1093300001A8FEF7F7FF044640B92D68D5F818904C
:109340002B69A9F10202934204D83B60204602B087
:10935000BDE8F08795F80080B8F1010F1AD14FF001
:109360000209064649462846FFF733F9431C34D024
:10937000012834D000B90136AB6909F101094B4528
:10938000F0D8B8F1030F08BF01232E6108BF6B713D
:109390003E60DBE7034602460646296A4AB928468C
:1093A00001F1010AFEF761FFD8B951466A8905F15A
:1093B0003003B8F1020F08D1188800B90136023322
:1093C000023AB9F10109E9D1DBE71868043A30F053
:1093D000704008BF01360433F3E70124D1E70224CB
:1093E000CFE70446CDE770B5044650B3FEF72AFF39
:1093F0000546A8B994F90620A379002A23DB9A0729
:1094000023D5D4E9022191420AD943F020032068F0
:10941000E260A37132B92169FFF70EFC256140B902
:10942000284670BD6169FFF7D4F8431C06460ED18B
:109430000120A379054663F07F03A371F0E70220C2
:10944000F7E70925ECE70225EAE70725E8E7012821
:10945000F5D020688369B342E2D96FF07042616948
:10946000FFF782F90028E4D131462068FFF7E4FBDA
:10947000D5E710B594B00190012206A901A8FEF726
:1094800051FFE8B903AB019906A80C93FFF7BCFAAA
:10949000B0B90B9BB3B1D87A10F0010018BF072008
:1094A000069A5C8B1278032A04BF9A8A44EA024423
:1094B00030B9DB7ADB0607D406A8FFF743F9C0B161
:1094C00014B010BD0620EBE7012C1ED906A90DA88B
:1094D0001C22FEF76BFE02210DA80F94FFF7E1F8A6
:1094E0000028EDD10DA8FFF785FB80B10428E7D156
:1094F000E2E71CB90698FFF71BF8E1E7214606985A
:10950000FFF79AFB0028DBD1F4E70220D8E7072019
:10951000D6E72DE9F04F8FB00390FEF743FE01220E
:10952000074607A903A8FEF7FDFE044606460028E5
:1095300040F09D8004AB039907A80D93FFF764FAF0
:109540000446002800F09B80042840F090803146BB
:109550000798FFF78AF90546002800F08380012D5F
:10956000079800F088806B1C00F087803146FEF77A
:109570007CFE0446002876D1DDF81CB0294658460A
:10958000FFF71CF80BF13008064642462046BBF8B0
:109590000A30013B46D2434620210BF13B029A425E
:1095A00043D110232E2425FA03FA1FFA85F920222D
:1095B00041468BF83B308BF83040CBF84670ABF827
:1095C0004A90ABF844A00BF15000FEF7EFFD079A6C
:1095D0008BF851401178099B032903D1516A9942B4
:1095E00008BF0023ABF86A301B0CABF864304FF0B7
:1095F000010B937833449E421AD107A8FFF7CAFAA9
:10960000044680BB10220C9B0798DA72C3F81670D0
:10961000A3F81A90A3F814A001230371FEF788FFA2
:10962000044624E002F8010BB3E703F8011BB6E798
:109630000798721C0021C66280F804B00293019260
:10964000FEF713FE044670B9DDE901234046079991
:109650004989013901D21646CDE74FF0000400F8E0
:10966000014BF6E7072429460798FFF7E5FA20465D
:109670000FB0BDE8F08F0224F5E70124F3E70824DA
:10968000F5E730B58DB00D4614460190012205A9CD
:1096900001A8FEF747FEA0B902AB019905A80B93FC
:1096A000FFF7B2F968B90A9868B1C37A5D402C40F7
:1096B00004F027045C400123C47205980371FEF78F
:1096C00037FF0DB030BD0620FBE710B58CB00C465F
:1096D0000190012205A901A8FEF724FE88B902AB7A
:1096E000019905A80B93FFF78FF950B90A9B53B165
:1096F000E2880598DA82A2881A8301230371FEF7B3
:1097000017FF0CB010BD0620FBE710B59AB00C4651
:10971000019001220CA901A8FEF704FE002866D1E1
:109720000C9B019913930CA803AB1293FFF76CF9F0
:1097300000285CD1119900295BD015220B3106A8B5
:10974000FEF734FD0CA913A81C22FEF72FFD2146BD
:1097500013A8FFF759F900284DD0042847D113A8C2
:10976000FFF718FA002842D1189C13220DF11A01B4
:1097700004F10D00FEF71AFD9DF818300C9A43F025
:109780002003E372012313710E99159B994227D090
:10979000E37ADB0624D51378618B032B08BFA38AF9
:1097A000104608BF41EA0341FEF708FF014620B317
:1097B0001046FEF75AFDD0B90C9A92F851302E2B74
:1097C0000ED11178159B032903D1516A994208BF24
:1097D0000023A2F86A301B0CA2F864300123137135
:1097E0000CA8FEF7AFFF10B90C98FEF7A1FE1AB057
:1097F00010BD0420FBE70820F9E70220F7E730BF9F
:10980000704720BF704740BF7047BFF36F8F7047EE
:10981000BFF34F8F7047BFF35F8F704701DF704713
:10982000EFF31480704780F31488BFF36F8F704795
:10983000EFF30980704780F309887047EFF30880E1
:10984000704780F30888704762B6704772B67047F9
:10985000EFF31080704761B6704771B67047EFF351
:109860001380704780F311887047EFF312807047C0
:1098700040BA704700BA7047032A70B412D940EA60
:1098800001050446AD070B461DD11946204653F885
:10989000045B54F8046BAE4215D1043A2046032A07
:1098A0001946F2D8561E9AB10139441E01E0C31878
:1098B0000BD014F8015F11F8012F331B9542F6D03D
:1098C000A81A70BC7047561EEEE7184670BC704769
:1098D0001046F6E756332E313400486172647761E2
:1098E000726520566572200053657269616C204E66
:1098F0006F3A200020202020204453323033204D66
:10990000696E692044534F20535953205665722085
:1099100020202020202020202020200056332E31FF
:109920003500506C6561736520696E707574206DCB
:109930006173746572206C6963656E63653A20308B
:1099400030303030303030002020202020202020C7
:109950004C6963656E636520696E7075742065720D
:10996000726F722020202020202020202000202024
:10997000202020202020204C6963656E63652077BD
:10998000726974656E206F6B2020202020202020BB
:109990002020200020202020202020204C696365EA
:1099A0006E63652077726974656E206572726F727E
:1099B00020202020202020202000202020202020C7
:1099C0005075736820616E79206B657920746F2003
:1099D0006E6578742073746570202020202020002C
:1099E000474343413000000035306D560000000011
:1099F0000000000400000004D0070000302E3156A3
:109A0000000000000000000400000004A00F00009F
:109A1000302E325600000000FEFF0004FAFF000462
:109A2000401F0000302E355600000000FFFF0004EC
:109A3000FAFF0004204E00002031562000000000F4
:109A400000000004FAFF0004409C00002032562071
:109A500000000000FEFF0004FAFF0004803801004F
:109A60002035562000000000FFFF0004FAFF00042C
:109A7000400D030021313056210000000000000499
:109A8000FAFF0004801A0600000000000000000039
:109A90000000000000000000000000002120315301
:109AA00020210000E7035F09B004000455A0FC0179
:109AB0003530306D53000000E703AF045802000456
:109AC0002B50FE003230306D53000000E703DF0101
:109AD000F0000004ABB965003130306D5300000078
