:020000040800F2
:1040000000C000203D5E0008F5550008F755000887
:10401000F9550008FB550008FD5500080000000098
:104020000000000000000000000000000156000831
:10403000FF55000800000000035600080556000860
:1040400007560008095600080B5600080D560008D0
:104050000F560008115600081356000815560008A0
:1040600017560008195600081B5600081D56000870
:104070001F56000821560008235600082556000840
:1040800027560008295600082B5600082D56000810
:1040900031560008355600083756000839560008D2
:1040A0003B5600083D5600083F56000841560008A0
:1040B00043560008455600081D5700081F570008C2
:1040C00021570008235700082557000827570008E4
:1040D000295700082B5700082D5700082F570008B4
:1040E0003157000833570008355700083757000884
:1040F000395700083B5700083D5700083F57000854
:104100004157000843570008455700084757000823
:10411000495700084B5700084D5700084F570008F3
:1041200051570008535700085557000857570008C3
:10413000000000000000000000000000000000007F
:10414000000000000000000000000000000000006F
:10415000000000000000000000000000000000005F
:10416000000000000000000000000000000000004F
:10417000000000000000000000000000000000003F
:10418000000000000000000000000000000000002F
:10419000000000000000000000000000000000001F
:1041A000000000000000000000000000000000000F
:1041B00000000000000000000000000000000000FF
:1041C00000000000000000000000000000000000EF
:1041D00000000000000000000000000000000000DF
:1041E00000000000000000000000000000000000CF
:1041F00000000000000000000000000000000000BF
:1042000002F090BE02F0F8BE01F084BE02F080B869
:1042100071E070E002F0C0B802F0D6B802F09AB9CE
:1042200077E076E092E091E09AE099E067E066E07E
:1042300079E078E0A4E076E000F0E6B958E057E0F5
:1042400050E04FE051E050E002F0C8B800F0E4BAAE
:1042500000F0D0BA00F022BD01F05CB901F02CB939
:1042600001F0DABA01F0F8BA01F02EBE02F0AEBEEB
:1042700000F086BA00F054BA02F012BA02F01CBA8A
:1042800021E020E026E025E001F02EBC01F0F0BBAB
:1042900001F024BB01F0B0BB01F064BC00E0FFE71B
:1042A000404B47F28152DA611A6A002AFCD147F288
:1042B0008052DA6140F2C9021A625862996247F28A
:1042C0008152DA6170474FF00500374B1B68002BB5
:1042D00007D170474FF00000334B1B68002B00D113
:1042E00070471847314B1B681847314B1B681847FC
:1042F000304B1B6818474FF0C04108807047294970
:10430000C869012240EA0200C861086A0028FCD19D
:10431000704729498868012240EA02008860C8681D
:104320000028FCD170471F4B47F2C152DA611A6A6C
:10433000002AFCD147F2C052DA6140F2C9021A6287
:104340005862996247F2C152DA6170471A4B45F2DE
:1043500090529A605861D96045F291529A607047C4
:10436000154B45F211529A60DA68002AFCD145F2E9
:1043700010529A605861D96045F211529A607047A4
:104380000E4940F220024FF0C8434A6118884FEAB4
:1043900000400A61198808447047FBF743BFFBF7E8
:1043A00041BF00000000024034000008280000085F
:1043B0002400000820000008000402400010014012
:1043C000411A00000061656162690001100000008F
:0B43D00005372D4D00060A074D0902BD
:1043DC0070B586B000F052FD00F08AFD00F0BCFD17
:1043EC0000F00CFF00F00CFE00F020FE00F048FE88
:1043FC0000F084FE00F076FE01F044FD0520FFF78E
:10440C00C6FF05226649054603F060FE002808DA5F
:10441C0001F07AFD002001F0B9FF9621462002F050
:10442C0035F8604B4FF4FC625A212820009300238E
:10443C0001F0CEFF00210D2000F02AFC00234FF4E8
:10444C00FC625A210090902001F0C2FF564B4FF4B1
:10445C00FC625A21C8200093002301F0B9FFFFF73A
:10446C00E7FE03AC0146204601F007FC002340F2B6
:10447C00FF725A214FF49070009401F0A9FF4B4B3E
:10448C004FF4FC62462130200093002301F0A0FF82
:10449C0000210F2000F0FCFB00234FF4FC624621AE
:1044AC0000904FF4887001F093FF01F04FF9404AEF
:1044BC0093685E055FD593689C055CD59368D805B9
:1044CC0059D500243B4E2046347000F08FF8FFF78E
:1044DC00B1FE01282ED005222846374903F0F6FDFF
:1044EC00A04227DA354B4FF4FC6232213020009386
:1044FC00234601F06DFF32214FF48C7000F07EF8F2
:10450C000546FFF797FE012828D02D4B40F2FF728D
:10451C00009323463221302001F05AFF294B4FF4EF
:10452C00FC6200931E210023302001F051FF3378F0
:10453C00002BFCD0244B254A5968C2E9001118689D
:10454C0003F0A8FD224A234BC3F8042802F038FDDF
:10455C001E4B5B689847002006B070BD214628466C
:10456C0000F0EEF801280CBF1B4B1C4B4FF4FC6207
:10457C0000932346CEE7936813F4806F134B05D159
:10458C00174A5168C3E900111068D9E79168890589
:10459C0001D4144AF5E79268D205D3D4124AF0E755
:1045AC00CC820008D2820008E0820008EC8200086D
:1045BC000010014074010020148300081A830008C5
:1045CC0040830008B283000800C000083C010020B2
:1045DC00BBBB8B8800000140668300088C830008FD
:1045EC000040010800C001080040020800F1006012
:1045FC0000F54050D0F80408704700002DE9F04F4A
:10460C0030230E4682464FF0000887B0002103A8E5
:10461C00ADF80830B6B201F030FB03AB00934FF6A7
:10462C00FF7200233146504601F0D2FE4546444607
:10463C00DFF8D8B0294603A801F01FFB344A1378E1
:10464C0043451FD04FF0000992F8008002AF5FFA8B
:10465C0088F803AB13F809300AEBC9008DF8083061
:10466C005FFA89F3A3420CBF434600234FF6FF7257
:10467C00314680B2009709F1010901F0A9FEB9F1A8
:10468C00080FE6D19BF80030002BD3D09BF80030FC
:10469C00023B072B06D8DFE803F00405050E1F05C7
:1046AC002D3208240023082C8BF80030C2D1284668
:1046BC0007B0BDE8F08FC4F107039B0025FA03F2A5
:1046CC00120704D0012202FA03F3ED1AEAE70F22D3
:1046DC0002FA03F31D44E5E7C4F107039A0025FA37
:1046EC0002F303F00F030F2B02D001239340F1E7E9
:1046FC009340EAE7072C05D00134E4B2D2E71CB1B1
:10470C00013CFAE70024CDE70724CBE77401002035
:10471C006F01002038B5044608480D4601F0E8FF4B
:10472C00052802D0342001F0C9FF2946204602F0AA
:10473C001DF8031F5842584138BD00BFA086010028
:10474C0070B506460D4601F0A5FF0848B1B22844E5
:10475C00FFF7E0FF04460648310C2844FFF7DAFF68
:10476C000440E4B201F0A2FF204670BD04380008FA
:10477C0006380008C0F30A0310B5044673B908489C
:10478C0001F0B6FF052802D0342001F097FF204637
:10479C0001F0CAFF031F5842584110BD0120FCE72D
:1047AC00A0860100402230B5002180240D4BC3F8B7
:1047BC00102800FA01F52D0601F101014CBFC3F8D8
:1047CC001048C3F814480829C3F81428C3F8102853
:1047DC00EFD18021C3F81418C3F81428C3F81018AB
:1047EC0030BD00BF0000014070B520260C46064DC0
:1047FC0000F01F002E61FFF7D5FF20466E61BDE86B
:10480C007040FFF7CFBF00BF0010014070B50C46E1
:10481C00242800F23482DFE810F0250039004C0027
:10482C00500057006100680077007B009400A600E0
:10483C009E00120172018B018F019301A601C3012D
:10484C00D801DE013202320232023202320232026C
:10485C003202320232023202ED011F02240227021E
:10486C0032022F02B1F5803F4FF0804337BF4FF437
:10487C00EB72220CC3F82C2CC1F5E17424BFC3F8E5
:10488C002C2CA4B2C3F8344C002070BDB1F5803F81
:10489C004FF0804335BF4FF4EB72220CC1F5E1743D
:1048AC00A4B234BFC3F82C2CC3F82C2CC3F8384C4E
:1048BC00EAE7AF4BC3F83414E6E7AD4B4C08C4F150
:1048CC006404C3F83844DFE7A94B8C05D3F8082CF3
:1048DC0004F480041443C3F8084CD5E70822A54B14
:1048EC00002940F0C2805A61CEE7012906D102228C
:1048FC00A14BC3F8102CC3F8142CC5E70029C3D165
:10490C0010229C4B1A61EEE79C4BC3F8281CBBE7AA
:10491C009A4B9B4A21B9C3F8201C9A4B5360B3E7BE
:10492C00012904D10021C3F8201C974BF6E79749C5
:10493C0051600322C3F8202CC3F82C4C01346408BA
:10494C00A0E701298B4B02D1C3F814189CE7012274
:10495C00C3F8102898E701294FF02002854BF7D1B6
:10496C00C3F8142890E708298ED8DFE801F0051366
:10497C00202E3B454F59630010224FF400717D4BA4
:10498C00C3F810287C4AC2F8101C0422C3F8102863
:10499C000822DDE710224FF40071764BC3F8102883
:1049AC00754AC2F8101C0422C3F81428F0E7102230
:1049BC004FF400716F4BC3F810286F4AC2F8101CEB
:1049CC000422C3F810280822CAE710224FF4007101
:1049DC00684BC3F81028684AC2F8101C0422C3F8AC
:1049EC001428F0E710224FF40071624BC3F814281E
:1049FC00614AC2F8141CC8E710224FF400715D4BD9
:104A0C00C3F814285C4AC2F8141CCCE710224FF4EB
:104A1C000071584BC3F81428574AC2F8141CCFE73E
:104A2C001022544BC3F814284FF40071524AC2F8A8
:104A3C00141CD3E710224F4BC3F81028F4E70829B5
:104A4C003FF622AFDFE801F005131E2B363E464E33
:104A5C0056004FF40052474B1A614022C3F81028FD
:104A6C004FF480421A614FF400421A610CE74FF484
:104A7C000052404B1A614022C3F810284FF4804278
:104A8C005A61F0E74FF400523A4B1A614022C3F8D6
:104A9C0010284FF480421A614FF4004223E74FF480
:104AAC000052344B1A614022C3F810284FF4804254
:104ABC005A61F1E74FF400522E4B5A614022C3F871
:104ACC001428CDE74FF400522A4B5A614022C3F808
:104ADC001428D3E74FF40052264B5A614022C3F8F6
:104AEC001428D6E74FF40052224B5A614022C3F8E7
:104AFC001428DBE74FF400521E4B1A61F6E71E4BED
:104B0C00234A8021C3F8002C4FF08042C2F80018D1
:104B1C00204AC3F800280122A3F51043C3F800244F
:104B2C008522A3F5C043C3F82C44C3F80024ABE69C
:104B3C00194BC3F85014A7E6174BC3F84814A3E657
:104B4C004FF080430C4AC3F82818D2F8003843F4CD
:104B5C008023C2F800388422104BC3F800240022B2
:104B6C0003F5C043E1E74FF08043C3F82C188BE604
:104B7C0000300140001001400000014000200140C5
:104B8C000010024002841D0402841D0702841D00D3
:104B9C0038B4BB34BB1110110000024000100040AF
:104BAC00384BD3F8002C22F07062C3F8002CD3F8E9
:104BBC00002C42F03062C3F8002C4FF0804381226D
:104BCC00C3F83418C3F800285EE64FF08043002287
:104BDC00C3F8102458E601294FF400512A4A2B4BF4
:104BEC000BBFC2F81414C2F8101484228522C3F827
:104BFC00002C49E64FF480454FF48066214C01208F
:104C0C00D4F8043C23F07063C4F8043CD4F8043C9E
:104C1C0043F08073C4F8043CC4F8145C01F06AF9E6
:104C2C000120C4F8106C01F065F90120C4F8146C73
:104C3C0001F060F90220C4F8105C01F05BF9D4F8C3
:104C4C00043C23F07063C4F8043CD4F8043C43F0F7
:104C5C000063C4F8043C17E62020C9B2FFF7C4FD7A
:104C6C0012E62120C9B2F9E72220C9B2FFF7BCFD38
:104C7C002320C4F30721F1E72420C9B2EEE7C9B21F
:104C8C00ECE700BF00000140001001400020014093
:104C9C00F8B50E46122800F2D780DFE800F00A1BA8
:104CAC001224366D71797B7D7F81869F97A7B92DF4
:104CBC008E002022654B5A614FF0C843188880B291
:104CCC00F8BD2022614B5A614FF0C8431888C0F3DD
:104CDC008000F5E720225D4B5A614FF0C8431888DD
:104CEC00C0F30010ECE72022584B5A614FF0C84338
:104CFC001888C0F3C000E3E72022544B5A614FF0F0
:104D0C00C8431888C0F34010DAE7504A504BD3F828
:104D1C000808D2F808C097689668D3F808589468C1
:104D2C009168D3F80838D2F808E403F40043D2F8B9
:104D3C00082400F4804018430EF00803184302F0D6
:104D4C00400318434FEACC0303F4005318437B0889
:104D5C0003F480731843730003F400731843EB08D7
:104D6C0003F480631843630803F400634900184399
:104D7C0001F480510843A3E7344BD3F80804A6E7A9
:104D8C004FF4AF61334BD3F84C0C4843800A97E790
:104D9C00314895E7314893E7314891E731488FE73F
:104DAC002B4BD3F8080CC00B8AE7294BD3F8080C13
:104DBC0080F48070C0F3002082E70720FFF7E7FA49
:104DCC0029490378002B08BF084679E7FFF752FA08
:104DDC0026490378562B18BF084671E7FFF74CFAA3
:104DEC0003462348002B18BF184669E721480029C1
:104DFC003FF466AF0A220178A1F130038178C078C4
:104E0C0030395143642202FB03113038084457E710
:104E1C0020220E4B184D5A614FF0C8431888C0F32E
:104E2C0089142146284600F0FDFEAB782B702E230A
:104E3C006B70EB78AB702B79EB7000239E4214BF38
:104E4C00204628462B713BE7002039E70010014033
:104E5C000000014000300140E08300089484000809
:104E6C00B0860008CC8600080C88000800000020E2
:104E7C0006000020D88300084401002038B501F05A
:104E8C00DDFC4FF4803001F0F7FC01F011FD144B08
:104E9C0001280446134D187016D1102001F0EEFBBA
:104EAC00022001F0DFFB104B20466B6001F016FD79
:104EBC00392001F031FD0028FAD0022001F014FD58
:104ECC0001F01CFD0828FBD140F217136B614AF668
:104EDC007D630020AB6101F019FD044BEB6138BD23
:104EEC004D0100200010024002841D002F80802004
:104EFC0037B54FF480414FF0006001F095FC4FF452
:104F0C00C06001F04FFC0124142301A800258DF88A
:104F1C0004308DF805408DF806408DF8074001F0FF
:104F2C004BFC132301A88DF804308DF805408DF847
:104F3C0006508DF8074001F03FFC1D2301A88DF8A9
:104F4C0004308DF805408DF806508DF8074001F0BF
:104F5C0033FC03B030BD0000224A234B4FF6FF71E7
:104F6C00C2F8003803F1EE4303F52C3303F540731C
:104F7C00C2F804384EF2FF73C2F80C381B4B1C48B5
:104F8C00C2F8003C03F19A43A3F54E13A3F59C63BE
:104F9C00C2F8043C174BC2F80C1C18601648586039
:104FAC004FF6EF70D8601548C3F8000400F1157087
:104FBC0000F5653000F54070C3F80404A0F1FB6007
:104FCC00A0F5FD203838C3F80C14C3F800084FF0D6
:104FDC00BB30C3F80408C3F80C184FF0806353605F
:104FEC00704700BF00000140BB88801118B8BB3B64
:104FFC00001011BB0010014088883833BB84BBB84B
:10500C004FF02043064A07495A6045F21102064800
:10501C00C3F804111A60D860C3F80C119A60704779
:10502C00020F101001041010020710104FF48272BE
:10503C0030B587B00023ADF8062002220125ADF86B
:10504C000430ADF80830ADF80A20ADF810304FF44C
:10505C000072ADF812300723084C01A92046ADF8B8
:10506C000E20ADF81430ADF80C5001F0CBFA2946F7
:10507C00204601F0E0FA07B030BD00BF003C004014
:10508C00154B164A1A614FF4D5529A604FF4805260
:10509C00DA609A6842F001029A6047F2C052DA6113
:1050AC000022C3F80C244FF0C042C3F81024D3F8EC
:1050BC00082442F00102C3F8082447F29152C3F8C5
:1050CC0008242422C3F84824054AC3F84C2443F28C
:1050DC00B152C3F844247047000002404C240140F4
:1050EC00087400400122044BC3F800244FF4006202
:1050FC00C3F80824704700BF0070004000214FF433
:10510C00BC003C4B3C4AC2F8041CC3F80418C3F85E
:10511C000414C2F8080C4FF48010C3F8080800F50A
:10512C008070C3F808040C20C2F82C1CC3F82C188F
:10513C00C3F82C14C2F8340C0B20C3F834080A2022
:10514C00C3F834048020C2F80C0CC3F80C18C3F854
:10515C000C14D2F8081C41F00101C2F8081CD3F859
:10516C00081841F00101C3F80818D3F8081441F0ED
:10517C000101C3F80814D2F8081C41F00801C2F868
:10518C00081CD2F8081C0807FBD4D3F8082842F0F6
:10519C000802C3F80828D3F808281107FBD4D3F861
:1051AC00082442F00802C3F80824D3F80824120794
:1051BC00FBD41149D1F8082C42F00402C1F8082C98
:1051CC00D3F808285007FBD4D3F8082842F004027F
:1051DC00C3F80828D3F808285107FBD4D3F80824BF
:1051EC0042F00402C3F80824D3F808245207FBD475
:1051FC00704700BF002001400030014009223A4BAB
:10520C0070B5C3F8282C2322C3F82C2C12220326A9
:10521C00C3F8342C7824852200204FF40041C3F8C5
:10522C00206C4725C3F8184CC3F8441CC3F80C0C6D
:10523C00C3F8002C4FF08043C3F8285440F2E735F4
:10524C00C3F82C540125C3F80C54C3F80024C3F83C
:10525C00286844F24F66C3F82C6842F22836C3F82B
:10526C003468C3F82058C3F818488124C3F80048A0
:10527C00C3F8280C40F2F310C3F82C0C4FF49670C2
:10528C00C3F8340CC3F8380C3320C3F8200C47F6A1
:10529C0078006325C3F8180C4FF48076C3F8004CE3
:1052AC00132403F58053C3F82844C3F82C54C3F8D3
:1052BC000C640826C3F80464C3F80024C72203F561
:1052CC009033C3F828246422C3F82C54C3F8342434
:1052DC00C3F838249122C3F82044C3F81804C3F847
:1052EC004414C3F8002470BD002001400F4B10B5CE
:1052FC00D3F8E827D3F8EC07D3F8F017AAB10C4B86
:10530C00140A9A701C71140C120E1A72020A1A7377
:10531C00020C9A730A0A98729974000E1A750A0C88
:10532C00090E9C7118749A75197610BD00F0FF1F48
:10533C0022010020F8B500230546144C144E154FDD
:10534C0023600221304601F087F988B129461048C4
:10535C0001F07DF900230E4D0E4E236001212846ED
:10536C0001F07AF958B10A4801F073F9C0B205E0BE
:10537C0023685A1CBB422260E3D9FF20F8BD236886
:10538C005A1CB3422260E9D9F7E700BF5001002054
:10539C00003C0040A086010010B5074C802120463F
:1053AC0001F0D0FA0620FFF7C5FF2046BDE81040FB
:1053BC00802101F0C5BA00BF000C014038B5802136
:1053CC000D4801F0BFFA0520FFF7B4FF00230B4C8A
:1053DC000B4D2360A520FFF7ADFF23685A1CAB4291
:1053EC00226007D8C307F5D48021BDE838400248B5
:1053FC0001F0A6BA38BD00BF000C014050010020DE
:10540C00A086010038B504460E4DFFF7C5FF80217C
:10541C00284601F097FA2020FFF78CFFC4F30740D1
:10542C00FFF788FFC4F30720FFF784FFE0B2FFF714
:10543C0081FF2846802101F083FABDE83840FFF750
:10544C00BDBF00BF000C014070B516460D460446AA
:10545C008021154801F074FAFFF7B0FFFFF79CFFAD
:10546C008021114801F06EFA3046FFF763FFC5F357
:10547C000740FFF75FFFC5F30720FFF75BFFE8B2BC
:10548C00FFF758FF04F58075AC4207D18021064820
:10549C0001F056FABDE87040FFF790BF14F8010B0D
:1054AC00FFF748FFF0E700BF000C014070B50E4657
:1054BC00044680211348154601F042FAFFF77EFF9F
:1054CC008021104801F03EFA0320FFF733FFC6F3AA
:1054DC000740FFF72FFFC6F30720FFF72BFFF0B2B3
:1054EC00FFF728FF2544AC4205D1BDE87040802170
:1054FC00044801F025BAA520FFF71CFF04F8010BA6
:10550C00F1E700BF000C01402DE9F043DFF8A0905B
:10551C00804699F804300E46022B0CBF1023012351
:10552C004FF000050BBF234C21F07F440C4024F0BE
:10553C00FF04C1B004EB03274FF480722146684688
:10554C00FFF7B4FF00231DF80320FF2A15D1023307
:10555C00B3F5807FF7D104F58074A742ECD199F8AC
:10556C000470022F0BD1134C012D04EA060402D156
:10557C002046FFF747FF102509E00125EBE726F051
:10558C007F44012D24F0FF040FD0022701250026B3
:10559C0004EB062108EB06203A460136FFF754FFD0
:1055AC00B542F5D841B0BDE8F0830A27EFE700BF5C
:1055BC005001002000F0FF000A4B1A79022A4FF428
:1055CC0080520DBF4FF400619A604FF40072C3E932
:1055DC00021216BFDA604FF400024FF400121A6187
:1055EC00704700BF500100207047FEE7FEE7FEE762
:1055FC00FEE77047704770477047704770477047B9
:10560C0070477047704770477047704770477047D6
:10561C0070477047704770477047704770477047C6
:10562C0001F07ABC01F0E2BC7047704770477047DC
:10563C0070477047704770474FF08043002210B599
:10564C00324CC3F81024237803F0FF0223B12378E3
:10565C00013BDBB2237010BD1423237063889BB213
:10566C00142B89BF63886280143B9BB288BF638014
:10567C00A3889BB2142B0CD9A388143B9BB2A38098
:10568C00A3889BB2142B0BD800210320FFF7BEF884
:10569C0006E0A379312B30D8A3790133DBB2A371A7
:1056AC00A37A0133DBB2A372A37A0B2B0DD900239F
:1056BC00A372E37AB3FA83F35B09E372A3899BB217
:1056CC001BB1A389013B9BB2A381A37B1BB1A37B21
:1056DC00013BDBB2A373E37B1BB1E37B013BDBB28E
:1056EC00E37300F017FB0028B5D0207414210320BD
:1056FC00FFF78CF83C23A380ADE70023A37123892B
:10570C00012101339BB204202381BFE764010020F7
:10571C0070477047704770477047704770477047C5
:10572C0070477047704770477047704770477047B5
:10573C0070477047704770477047704770477047A5
:10574C0070477047704770477047704737B50021F6
:10575C000E20FFF79DFA034600681A79C0F3072361
:10576C00A3F130010090030E0A20303B4343642028
:10577C0000FB01338DF80420303A1344B3F59C7FC1
:10578C001F4D204C1BD201234FF480502B704FF433
:10579C0020534FF48045C4E900034FF400434FF409
:1057AC00C05CC4E902534FF40073C4E904C340F66F
:1057BC00FF73A36140F60C43A38303B030BD0021FB
:1057CC001220FFF765FA03220F4902F07FFC002834
:1057DC00D9D102234FF400522B704FF480534FF465
:1057EC004051C4E90032C4E904334FF4E04240F2C2
:1057FC00FF73C4E90212A36140F20113DCE700BF9E
:10580C00540100207C010020198800082DE9F84380
:10581C0005460E46174608244FF00009DFF828808D
:10582C003A4631462846013C88F80090FEF710FDB8
:10583C0014F0FF0405D098F800000028F0D1BDE862
:10584C00F8830120FBE700BF4C0100202DE9F0415B
:10585C0005460E4608244FF00008094F31462846ED
:10586C00013C87F80080FEF7F1FC14F0FF0404D033
:10587C0038780028F2D1BDE8F0810120FBE700BFA9
:10588C004C0100200388114A13B51168044643806B
:10589C00002092692080934202D3012002B010BDF7
:1058AC00012BFAD903EB5303022219440DF1060024
:1058BC00FEF7D0FC0028F0D16288BDF80630D20784
:1058CC004CBF1B09C3F30B032380E7E77C010020CB
:1058DC0038B50C46094A23885169D568023B8AB20F
:1058EC0001FB0351FEF7B6FC30B92046FFF7CAFFA7
:1058FC00002818BF022038BD0120FCE77C010020E5
:10590C000B88F7B54B8000230C46012540F6FE763C
:10591C00124F0B802388B34215D8396802221944E0
:10592C0001EB530101A8FEF795FCA0B92388BDF843
:10593C000420D9074CBF1209C2F30B0242B92DB98E
:10594C0062889A4204D0002003B0F0BD1546A380B3
:10595C0001332380DEE70120F6E700BF7C01002045
:10596C002DE9F0411F4BB1F802800E8808EB580569
:10597C001968AFB205F470450D4429469A8A04465D
:10598C00FEF768FC10B10120BDE8F081C7F30B03F2
:10599C0018F0010F03F101011BD0E25C02F00F02C1
:1059AC0002EB0612E2543609665420462946FEF7ED
:1059BC0053FC0028E7D10C4B1B78012BE4D105F5E7
:1059CC00807104F58070FEF747FC003818BF012089
:1059DC00DAE7E654635CC6F3032623F00F031E4399
:1059EC00E2E700BF7C010020540100201B4B70B586
:1059FC000C4609885A69DE68023902FB0166314699
:105A0C000546FEF729FC08B1012070BD144B1B782C
:105A1C00012B08D105F58075284606F58071FEF737
:105A2C001BFC0028F0D12046FFF72CFF88B92388F7
:105A3C00002BEAD16388214628462380FFF760FFBC
:105A4C0048B921462846FFF78BFF003818BF0120C4
:105A5C00DBE70220D9E70320D7E700BF7C01002059
:105A6C00540100202DE9F0471C46002306460F4642
:105A7C009046194D1380AB6801F10A092360216827
:105A8C00EB68994201D303201CE03046AA8AFEF74A
:105A9C00E1FBF8B903466A699342F0D2F2189646D4
:105AAC00791E12F801CBBCF1000F01D1042009E0E2
:105ABC0011F801AFE24507D14945F2D1BEF81A30D1
:105ACC00A8F80030BDE8F08722682033203222602D
:105ADC009BB2E0E70120F5E77C0100202DE9F041C5
:105AEC0005460E4617461C46FFF7BCFF042828D176
:105AFC0039462846FFF704FF28BB154B21681B7855
:105B0C002846022B0CBFC1F30B04CCB2114BA1EBFA
:105B1C00040841469A8AFEF79DFBB0B92C442246F4
:105B2C00731E0A3613F8011FB34204F8011BF9D196
:105B3C003B88414628465383FEF78EFB003818BF3E
:105B4C000120BDE8F0810320FBE70120F9E700BF4D
:105B5C00540100207C0100202DE9F0471F4640F63F
:105B6C00FF73DFF8B8808946114698F80020044688
:105B7C00022A0CBF1D46FF250B80FFF7F1FE284EB5
:105B8C0039682046B28A21EA05016FEA050AFEF758
:105B9C0061FB18B101252846BDE8F08720223B683F
:105BAC0020462B402344DA723B681D402544C5F83F
:105BBC001C9039680AEA0101FEF74EFB05460028E5
:105BCC00E8D198F80030022B26D12046B28A3168F1
:105BDC00FEF740FB0028DDD120467168FEF73CFB48
:105BEC00051E18BF0125D6E731684FF48072204698
:105BFC0001EB07214FEA0728FEF72CFB0028C9D13F
:105C0C00716820464144FEF727FB0028C2D10137BA
:105C1C00337FBB42E8D8BEE70746F9E754010020C2
:105C2C007C01002042F21072B1FBF2F310B503F1CB
:105C3C00300402FB13134FF47A719BB2B3FBF1F2F5
:105C4C0001FB123364219BB2047002F13004B3FBEC
:105C5C00F1F201FB12330A219BB2447002F13004C1
:105C6C00B3FBF1F201FB1233303303710023847068
:105C7C0002F13004C470437110BD0B0FB1F1204F11
:105C8C002CBF3733303321F07042B2F1206F0370E8
:105C9C00C1F303632CBF3733303321F07F42B2F5AD
:105CAC00200F4370C1F303532CBF37333033C1F390
:105CBC001302B2F5202F8370C1F303432CBF37338B
:105CCC0030338AB2B2F5204FC370C1F303332CBF0B
:105CDC0037333033C1F30B02B2F5206F0371C1F3CC
:105CEC0003232CBF37333033CAB29F2A4371C1F31D
:105CFC0003138CBF37333033837101F00F03194614
:105D0C00092B4FF000038CBF37313031C171037256
:105D1C007047000038B500210420FEF7B9FF2C496C
:105D2C00C2430B8892B29BB20343DB431CB29BB2BF
:105D3C0063B31925274813F4807F057014BF032023
:105D4C00002013F4007F18BF042013F4806F18BFD9
:105D5C00052013F4006F18BF062013F4805F18BFE2
:105D6C00072013F4005F18BF022013F4804F18BFF4
:105D7C000120002CB8BF082013F0080F18BF092011
:105D8C0013F0400F18BF0A200A8038BD0888104055
:105D9C00FAD01048047804F0FF00B4B90E4B1C780C
:105DAC00002CF1D1052412F4806F18BF052012F4D9
:105DBC00006F18BF062012F0080F18BF092012F44C
:105DCC00004F18BF08201C70DEE71846DCE700BF48
:105DDC007801002072010020730100200F49104847
:105DEC0010B581420AD00F4BC41EDA1C121A22F0D5
:105DFC000302A34238BF002202F09AF9BDE810401A
:105E0C00094B0A48DA1C121AC11E22F003029942ED
:105E1C0088BF0022002102F001BA00BF978E000853
:105E2C00000000203C0100209E1400203C010020BA
:105E3C00684620F007018D4608B5FFF7CFFFFEF747
:105E4C00C7FAFEE77047000010B54FF0C0434FF49F
:105E5C008054044AC2F814441880C2F810441980C3
:105E6C0010BD00BF001001404FF480524FF0C041F4
:105E7C00034BC3F814240880C3F81024704700BFE8
:105E8C0000100140EF2010B5FFF7EEFF4FF0C040BF
:105E9C00038804880188028803880904DBB243EA7A
:105EAC00046301F47F01120202F47F420B4313439B
:105EBC00014A136010BD00BF9C0100200B4B10B5B4
:105ECC001A680B4B4FF0C0449A420AD12E20FFF7B0
:105EDC00CBFF238824882C20A4B2FFF7C5FF2046D3
:105EEC0010BD23882488A4B2F9E700BF9C010020D0
:105EFC0027930402034A108013889BB2002BFBD11A
:105F0C00704700BF660100202DE9F0414FF400619D
:105F1C004FF48055774C0120C4F81054C4F8101479
:105F2C00FFF7E8FF0A20C4F81414FFF7E3FF322050
:105F3C00C4F81014FFF7DEFFFFF7A4FF6E4B1A68CE
:105F4C006E4B9A4240F0DE800520FEF720FA0622C6
:105F5C006B4902F0BBF800284FF0C0444FF020050D
:105F6C004FF0E90068DBFFF77FFF11202580FFF77A
:105F7C007BFF6420FFF7BEFFD120FFF775FF0025E4
:105F8C007023258023801C23D0202380FFF76CFFF7
:105F9C00012607234FF04008552723803620268002
:105FAC002680FFF761FF0C20A4F80080FFF75CFF50
:105FBC003A202780FFF758FFC1202780FFF754FFB6
:105FCC0002271023C0202380238027802780FFF7FF
:105FDC004BFF35232580C5202380258025802680F6
:105FEC002780FFF741FFD2202680FFF73DFF2223B9
:105FFC002680C8202380FFF737FF73232680238059
:10600C003723042223800F2325802380278022809E
:10601C006722A4F800802280258027802380082313
:10602C0023808023292023802580FFF71DFFBDE8D6
:10603C00F0412C20FFF718BFFFF716FF1120258029
:10604C00FFF712FF6420FFF755FFD120FFF70CFF7D
:10605C0000255E23258023801723D0202380FFF783
:10606C0003FF0C260723362023804FF040082380A3
:10607C002680FFF7F9FE30465526A4F80080FFF77E
:10608C00F3FE3A202680FFF7EFFEC1202680FFF7B3
:10609C00EBFE02261023C02023802380268026803E
:1060AC00FFF7E2FE012735232580C52023802580BC
:1060BC00258027802680FFF7D7FED2202780FFF788
:1060CC00D3FE22232780C8202380FFF7CDFE732325
:1060DC00278023803723042223800F2325802380CD
:1060EC00268022806722A4F80080228025802680CA
:1060FC0094E700BF001001409C010020279304028C
:10610C002688000800210846FFF79EFEFFF79CFE3C
:10611C00FFF79AFEFFF798FE0A20FFF7EBFE01212E
:10612C004FF4C060FFF790FE0A20FFF7E3FE40211A
:10613C004FF4DE60FFF788FE0A20FFF7DBFE4FF41A
:10614C00C4414FF48060FFF77FFE40F60801082041
:10615C00FFF77AFE4FF480710120FFF775FE0220E5
:10616C00FFF772FE30210320FFF76EFE012109209C
:10617C00FFF76AFE00210C20FFF766FE4FF400418A
:10618C009020FFF761FE00210F20FFF75DFE162126
:10619C001020FFF759FE40F201111120FFF754FEB9
:1061AC0000211220FFF750FE01211320FFF74CFEB7
:1061BC004FF44C714FF48070FFF746FE40F23721DC
:1061CC0040F20110FFF740FE4FF4706140F20310F3
:1061DC00FFF73AFE4FF4D6414FF42070FFF734FE30
:1061EC004CF2B0114FF48170FFF72EFE6420FFF7D4
:1061FC0081FE4FF440614FF44070FFF725FE45F6E9
:10620C000B2140F20130FFF71FFE40F6061140F261
:10621C000230FFF719FE41F2170140F20330FFF78D
:10622C0013FE4FF40C514FF44170FFF70DFE4FF479
:10623C00B85140F20530FFF707FE46F2093140F243
:10624C000630FFF701FE40F6094140F20730FFF738
:10625C00FBFD41F20C014FF44270FFF7F5FD42F2E9
:10626C00322140F20930FFF7EFFD00214FF40470AA
:10627C00FFF7EAFDEF2140F21120FFF7E5FD0021C9
:10628C0040F21220FFF7E0FD40F28F1140F2132094
:10629C00FFF7DAFD00214FF4A060FFF7D5FD40F2C7
:1062AC000150FFF7D1FD052140F20250FFF7CCFD64
:1062BC00012140F20140FFF7C7FD002140F20440EC
:1062CC00FFF7C2FD6420FFF715FE4FF48071072025
:1062DC00FFF7BAFD6420FFF70DFE00214FF40070AC
:1062EC00FFF7B2FD40F20120FFF7AEFD4FF0C043C7
:1062FC0040F20222C4F814541A80C4F81054BDE8B9
:10630C00F08100BF70B505460E46FDF783FF1C4BB0
:10631C001A681C4B9A421BD12A204FF0C044FFF73D
:10632C00A3FD0023F6B2238026802380EF232B20AD
:10633C002380FFF799FD2B0A23800123EDB22580E2
:10634C0023808F232C202380BDE87040FFF78CBD69
:10635C0031464FF40070FFF777FD294640F20120DB
:10636C00FFF772FD4FF480524FF0C04140F2022013
:10637C00054BC3F814240880C3F8102470BD00BF6B
:10638C009C0100202793040200100140002110B54D
:10639C00094C24F8040F0846FFF7B4FF20464BF6CF
:1063AC008031FDF73BFFFDF735FF2046BDE810407F
:1063BC004BF68031FDF732BF9C010020034B223895
:1063CC0001EBC00133F81100704700BF2E880008A4
:1063DC002DE9F84F04468A4691461D460E26FFF7D6
:1063EC0091FF7DB92846FDF70DFF013EB6B2002E98
:1063FC00F7D10A9F0134A4B2013F17F8013F2BB922
:10640C00BDE8F88F012DF0D14846ECE74FF00008BD
:10641C001FFA88F6A01980B25146FFF773FF38783F
:10642C00A0F12003012B1DD93146FFF7C7FF06B29F
:10643C004FF00E0B730723D5F5B94846FDF7E2FE76
:10644C000BF1FF3B1FFA8BFB7610BBF1000FF1D168
:10645C0008F10108B8F1080FDAD13B78212B06D0EE
:10646C00083405E0212805D1B8F1040F02D1043419
:10647C00A4B2C2E70026DBE7012DE1D10020DDE765
:10648C00002DFBD0012DDBD1D7E700002DE9F04723
:10649C0088B00D4669468246DFF8A090284899F8E6
:1064AC00003009F10409DA0819F8023CDB0803EBA7
:1064BC00C22319F8032C81454FEA920203EB4213D5
:1064CC0021F8023BEBD154464FF0C047DFF8748003
:1064DC000AF1FF06204601342946A4B2FFF712FF49
:1064EC00B442C8BF544699F8003008AA4FEA1313B7
:1064FC0002EB4303C8BF013533F8203CC8BFADB233
:10650C00294620463B80FFF7FDFE99F80030013408
:10651C00A4B203F00F0308AAA64202EB4303B8BFD0
:10652C00013533F8203C09F10109BCBF5446ADB22A
:10653C00C1453B80CED108B0BDE8F08736D8030802
:10654C0076D8030876F803082DE9F04198462A4BD3
:10655C0015461A68294B04469A420F461FD14FF034
:10656C00C0462A20FFF780FC2B0A3380EDB24FEA9D
:10657C0018235FFA88F835802B203380A6F800802A
:10658C00FFF772FC230A3380E4B23B0AFFB234807B
:10659C002C2033803780BDE8F041FFF765BC4146C5
:1065AC0040F21120FFF750FC394640F21320FFF760
:1065BC004BFC29464FF40470FFF746FC214640F291
:1065CC001220FFF741FC29464FF40070FFF73CFC0A
:1065DC00214640F20120FFF737FC4FF480524FF078
:1065EC00C04140F20220064BC3F814240880C3F8C3
:1065FC001024BDE8F08100BF9C0100202793040209
:10660C0000100140038810B503F441524C880B88EC
:10661C0023438C882343CC8823430C8923434C8904
:10662C0023438C892343CC89234313439BB203809C
:10663C000B8A038210BD038821B19BB243F0400347
:10664C000380704723F040031B041B0CF8E7818187
:10665C007047808980B270470389194214BF0120AA
:10666C0000207047044B196801F0380119601A6852
:10667C0002431A60704700BF00200240044B1968A7
:10668C0021F0100119601A6802431A60704700BFAC
:10669C0000200240034B044A5A6002F188325A60CF
:1066AC00704700BF0020024023016745024A13696E
:1066BC0043F080031361704700200240014BD86007
:1066CC00704700BF00200240084BDA68D10709D49C
:1066DC00DA68520708D4DB6813F0100F14BF0320DC
:1066EC0004207047012070470220704700200240B0
:1066FC0073B504460025FFF7E7FFFF2601280FD1ED
:10670C0014B9052002B070BD01950196019B1BB90F
:10671C00FFF7DAFF013CF1E7019B013B0193F5E741
:10672C00002C08BF0520EDE738B5054640F6FF7094
:10673C00FFF7DEFF042815D10B4C40F6FF702369E0
:10674C0043F0020323616561236943F04003236135
:10675C00FFF7CEFF012805D0236923F00203DB04E9
:10676C00DB0C236138BD00BF0020024070B505462C
:10677C000F200E46FFF7BCFF042810D1084C0F2049
:10678C00236943F0010323612E80FFF7B1FF012839
:10679C0005D0236923F00103DB04DB0C236170BDFE
:1067AC0000200240034B40F0BF6040F40030D86042
:1067BC00704700BF00ED00E070B50125027802F0D3
:1067CC001F039D40C378540943B3154BD9684378D4
:1067DC00C943C1F30221C1F1040603FA06F683781A
:1067EC000F2020FA01F1FF200B4002F0030102F010
:1067FC00FC0202F16042334302F56142D2F80063BD
:10680C00C9001B018B40734000FA01F10B4073402F
:10681C00C2F80033034B43F8245070BD2034F9E721
:10682C0000ED00E000E100E021F06041024B21F0BE
:10683C007F0101439960704700ED00E00C4B1A6832
:10684C0042F001021A6059680A4A0A405A601A68F2
:10685C0022F0847222F480321A601A6822F48022A8
:10686C001A605A6822F4FE025A6000229A6070473D
:10687C00001002400000FFF80C4BB0F5803F1A6886
:10688C0022F480321A601A6822F480221A6003D033
:10689C00B0F5802F05D070471A6842F480321A6028
:1068AC0070471A6842F4A022F9E700BF00100240BA
:1068BC00002382B0084A01931168019B01330193B4
:1068CC008B0303D4019BB3F5A06FF5D11068C0F313
:1068DC00404002B0704700BF00100240014B1866E8
:1068EC00704700BF00004242034A536823F0030381
:1068FC0003435360704700BF00100240024B5868BE
:10690C0000F00C00704700BF00100240014BC3F8B0
:10691C00D8007047000042424209012A074B07D1B8
:10692C001B6800F01F0023FA00F000F00100704714
:10693C00022A0CBF1B6A5B6AF3E700BF001002401F
:10694C00016170474161704738B5274C2378002BA3
:10695C0030D1264B1B6858434B43A3600123606026
:10696C002370E368002B31D10122214B1F4D1A708B
:10697C0061682A881F48FEF799FD402298211D481E
:10698C0001F088F82B68403BE36040234021012054
:10699C00236101F063F93021012001F0B1F8636843
:1069AC00154A40336360A368403BA3609368403B47
:1069BC00936001E0012BD4D0A36833B903210F4AB3
:1069CC00E360636023611170237038BD236909484B
:1069DC0040221844982101F05DF8E368403BE360E5
:1069EC0023694033D2E700BFA40100205C010020E2
:1069FC004C010020C8010020241400202014002089
:106A0C00F8B52F4C23786269002B3FD12D4B1B68B6
:106A1C0058434B43E3610123A061237000231946C3
:106A2C0029482A4F4032236265695E1C95423DD34A
:106A3C0001B12362264DA2692988E3690A445B1AD5
:106A4C002049E3610968A261B3FBF1F001FB10334B
:106A5C008BB9012063611F4B511A18701B48FEF74C
:106A6C0053FD1D4B1B78012B05D1A1691B48A1F5CA
:106A7C008071FEF749FD1A4A2988936802205B1A37
:106A8C004FF44051936001F050F801E0012BC5D058
:106A9C00E3691BB1134B1B78042B06D10025012194
:106AAC002846656101F048F92570F8BD636910F856
:106ABC00011BD95563690121013363613346B3E787
:106ACC00A40100205C0100205E140020C8010020FD
:106ADC005C1400204C01002054010020C80200204E
:106AEC002414002020140020074B1A7CD20705D454
:106AFC00D97C242906D889B2044801E00521044830
:106B0C0001F000B92421F7E734140020FC00002028
:106B1C001814002008B5FEF74FFD0B4B0B481B68F3
:106B2C000C211A0E02711A0C4271C3711A0A084B0D
:106B3C0082711B681A0C42721A0A8272C372BDE807
:106B4C00084001F0DFB800BF58010020D20000203F
:106B5C005C01002008B5FEF72FFD0C4B0C481B68A0
:106B6C000821013B1A0E02701A0C4270C3701A0AEB
:106B7C00084B82701B681A0E02711A0C42711A0AA9
:106B8C008271C371BDE8084001F0BCB85801002007
:106B9C00101400205C0100200421014801F0B2B85F
:106BAC00F80000200821014801F0ACB8F0000020EA
:106BBC00034B0448D97C122928BF122101F0A2B83A
:106BCC0034140020DE000020014B987019737047BC
:106BDC00DE0000200121002001F0AEB808B50B4BFF
:106BEC009A6842B9187C10F0040004D10121BDE868
:106BFC00084001F0A1B8022001F0E8F90522044B8D
:106C0C0000219A70242201201A73F0E7341400201A
:106C1C00DE00002008B5FEF7CFFCBDE808400121DE
:106C2C00002001F089B8FEF7C7BC000008B50B4B7B
:106C3C009A686AB9002001F0C9F90522084B0021B5
:106C4C009A7020221A730120BDE8084001F074B834
:106C5C0093F90C30002BEDDB0220ECE73414002010
:106C6C00DE00002008B5164B11441B68994212D95E
:106C7C002A2802D1022001F0A9F9002001F0A6F97E
:106C8C000522104B9A702122012000211A7301F069
:106C9C0053F8002008BD0C4B1B685A430B4B9B68E8
:106CAC0093420AD02A280CBF0220002001F08EF952
:106CBC000522044B9A702422E6E70120EAE700BF84
:106CCC0058010020DE0000205C010020341400205C
:106CDC0070B5144E044633780D4603BB0A46014684
:106CEC002820FFF7BFFFE0B10F4B93F90C30002BBE
:106CFC0007DA0223294620463370BDE87040FFF7BF
:106D0C0023BE022001F062F90522084B01219A7082
:106D1C0024221A730846BDE8704001F00DB8022B0E
:106D2C00EBD070BD2014002034140020DE000020B5
:106D3C0038B5164D0A462C7804BB01462A20FFF7BD
:106D4C0091FF08B3124B93F90C30002B08DB012395
:106D5C004FF440512B700220BDE8384000F0E5BEE6
:106D6C00204601F033F905220A4B21469A70242261
:106D7C001A730120BDE8384000F0DEBF012C03D1AE
:106D8C00BDE83840FFF73CBE38BD00BF20140020E2
:106D9C0034140020DE000020F8B5584C584FD4F8BD
:106DAC00443C584A99B21B0411805BD547F6FF73DB
:106DBC00C4F8443C138803F00F033B70002B71D1D3
:106DCC00D4F8003C504D03F440532B80D4F8003CD5
:106DDC004E4E03F030036B80D4F8003C33409BB232
:106DEC0083F40053C4F8003CD4F8003C23F4E04393
:106DFC0023F040039BB283F02003C4F8003C1388BB
:106E0C0013F0100FD4F8003C2DD123F4E14323F000
:106E1C0070031B041B0CC4F8003C00F0DBFCD4F822
:106E2C00003C2A8833409BB2D70448BF83F480537C
:106E3C009604324A48BF83F40053C2F8003CD2F89F
:106E4C00003C6A8823F4E04323F040039BB2D40651
:106E5C0048BF83F010039006284A48BF83F02003F4
:106E6C00C2F8003CF8BD190602D5D4F8003CCCE7BA
:106E7C001A050AD5D4F8003C23F070031B051B0D32
:106E8C00C4F8003C00F0BCFAC9E71B0487D5D4F861
:106E9C00003C23F070031B051B0DC4F8003C00F0F4
:106EAC0019FCBCE79B0003F1804303F5B8431D6854
:106EBC0029040BD51A6822F070021205120D1A6003
:106ECC003B78134A013B52F8233098472A067FF54A
:106EDC0066AF3B789B0003F1804303F5B8431A6817
:106EEC0022F4E14222F070021204120C1A603B7878
:106EFC00084A013B52F82330984750E700500040B5
:106F0C000014002002140020C81300208FBFFFFFC4
:106F1C000C0000202800002070B51A4E1A4D1B4C96
:106F2C00D6F8443C9AB21B042A8000D470BD47F6B4
:106F3C00FF73C6F8443C2B8803F00F0323709B00AF
:106F4C0003F1804303F5B8431A6811040CD51A6891
:106F5C0022F070021205120D1A6023780C4A013BC4
:106F6C0052F823309847DBE71206D9D51A6822F479
:106F7C00E14222F070021204120C1A602378054AC6
:106F8C00013BEDE7005000400214002000140020EB
:106F9C000C000020280000200122074B0020C3F821
:106FAC00402C4FF4E0520549C3F8400CC3F8440C94
:106FBC000A80C3F8402C704700500040FC1300209E
:106FCC00054B06491A1D1A6002221A73044A5962AB
:106FDC001A621368184700BFD4130020AC000020BD
:106FEC004400002000F0C8BE01F002B80E4A38B5CB
:106FFC00D2F8443C0D4C9BB20D4D2380298823883C
:10700C000B40590506D54FF6FF33C2F8443C094BEB
:10701C005B68984723882A8813401B0403D5BDE876
:10702C003840FFF7B9BE38BD0050004002140020B4
:10703C00FC1300204400002010B5064C18B90122A6
:10704C0023681A8210BD044B1B681B689847206884
:10705C000A30F7E7D4130020F813002010B5064CC3
:10706C0018B9012223681A8210BD044B1B689B6857
:10707C00984720680C30F7E7D4130020F813002051
:10708C0008B51F4B1968034600201BB9022218468D
:10709C000A8208BD1B4A10800B7813F07F0312D1B3
:1070AC00497A8B0644BF02231370137848064CBFF1
:1070BC0023F0010343F001031370134B1B681B698E
:1070CC0098471048E5E7012B17D0022BE1D14979FD
:1070DC0001F00F039B0003F1804303F5B84309064D
:1070EC001B6805D503F03003102BE6D10123E3E731
:1070FC0003F44053B3F5805FF7E71046C9E700BFD0
:10710C00D413002006140020F81300202DE9F843B6
:10711C00DFF88C80234FD8F800502C8AD4B92E7A03
:10712C00042E17D120498B78012B0FD11F4BD3F88C
:10713C00502C1F4B92B213445B001C6030238C709C
:10714C003B80D8F800301E72BDE8F8831023072668
:10715C003B80F6E7AA8AAB69944294BF04260226C8
:10716C00944228BF1446204698478146002000F0E0
:10717C0055FD22460146484600F08CFC2146002075
:10718C0000F06CFD2B8A6A8A1B1B2B823023144463
:10719C004FF440523B80074B6C821A80D1E700BF02
:1071AC00D4130020CA130020061400200050004005
:1071BC0002300020C813002010B50A4B0A491B6886
:1071CC004978DA7891420AD39C7844B9998831B9D4
:1071DC009A72064B1B685B689847204610BD0224C8
:1071EC00FBE700BFD4130020D0000020F8130020D0
:1071FC0038B50E4A0E4D12682B689269D9785879B9
:10720C0090472B689A7A7AB170B91A7962B99C78DE
:10721C0054B9084B1B68DB6898472B685A79DA72AB
:10722C00DA781A73204638BD0224FBE7F4130020E9
:10723C00D4130020F813002070B52D4B1D682B784B
:10724C0013F07F0305D16A7A22F020026A72184685
:10725C0070BD022B49D16A88002AF8D12A79002AFC
:10726C00F5D16979234E21F08000840004F180442B
:10727C0004F5B8442268367849B20029B4BF02F04C
:10728C00300202F440528642E1D9002ADFD0AA7AB9
:10729C00002ADCD00029236811DA03F03003102B0C
:1072AC0007D1C4B2204600F084FC3021204600F007
:1072BC0027FC114B1B685B6998470023C7E703F455
:1072CC004053B3F5805FF4D10C4D58B90C4B93F887
:1072DC002C1000F0D3FC23682B409BB283F440535A
:1072EC002360E6E700F055FCF5E70223AFE700BFAB
:1072FC00D4130020D0000020F81300208FBFFFFF14
:10730C004400002038B51B4B1B4D18682D78417973
:10731C0021F08004A30003F1804303F5B8431A68FD
:10732C0049B20029B4BF02F0300202F44052A54227
:10733C001DD94488DCB9D2B1827AC2B11A6800294D
:10734C00B5BF22F4E04222F4804222F0400222F047
:10735C007002B5BF92B292B282F0100282F48052E7
:10736C001A60064B1B689B699847002038BD0220A9
:10737C00FCE700BFD4130020D0000020F81300203D
:10738C0008B5064B1A68537A43F020035372044B2A
:10739C001B68DB699847002008BD00BFD413002090
:1073AC00F8130020054B10B51C68628A18B98B883D
:1073BC009B1A238210BD08681044FBE7D4130020ED
:1073CC0008B50B4B002093F82C1000F057FC094B20
:1073DC001B68187A082806D14FF48052064B1A8085
:1073EC001022064B1A80A0F109035842584108BDDF
:1073FC0044000020D4130020C8130020CA1300201E
:10740C0073B58E4C8E4B2668D3F8502C337A092BDF
:10741C0019D08C4B92B213445B001D886D0005F1A2
:10742C00804505F5C0452B7833706B787370A88850
:10743C0000F058FC70802889266800F053FCB0805E
:10744C00AA892368DA80012223681A72DA885D78A7
:10745C00002A62D11A7812F07F024BD1092D03D188
:10746C00FFF7AAFE30BB12E0052D1ED193F90320C5
:10747C00002A03DA082322681372B6E09A78002AED
:10748C00F8D19A88002AF5D19B7A002BF2D16C4B5B
:10749C00D3F8502C6C4B92B2134400225B001A6050
:1074AC0030226A4B1A800623E5E7032D14D1DA78D3
:1074BC00012A08D0664B28461B685B69984703284D
:1074CC0028D10923D7E79A88002AF3D15B7A9B0647
:1074DC00F0D5FFF755FFC5E7012DEBD1DA78012A7E
:1074EC00E8D19A88002AE5D15B7A9E06E2D5FFF7AF
:1074FC00A3FEB7E7012A04D10B2DDBD1FFF778FEF1
:10750C00B0E7022AD6D1012DF1D0032DD2D1FFF74D
:10751C00F9FEA7E70028BAD0ACE7062D13D11A78EC
:10752C00550656D19B784A4A012B126803D1D36970
:10753C00002B4ED01AE0022B01D1136AF8E7032B73
:10754C0047D1536AF4E7002D54D15988002940D112
:10755C005A6822F47F42B2F5003F3AD11A7812F001
:10756C007F0211D19B88002B33D13A4B0025226826
:10757C0028465582936198474FF6FF712268138A0B
:10758C008B426FD1092377E7012A0AD1304A587907
:10759C00126892699047E0B923689B7A002BE4D17A
:1075AC0017E0022A15D15A7902F00F018B00100650
:1075BC0003F18043284803F5B8431B6800784CBF9F
:1075CC0003F0300303F44053884202D912F0700FD9
:1075DC00E4D01F4B22681B6850781B69984703281E
:1075EC000546C9D1092223681A7202B0BDE8704061
:1075FC00FFF7E6BE082D04D11B785B06E9D1174BCB
:10760C00B4E70A2DE5D11A7802F07F02012AE0D105
:10761C009A7A002ADDD059880029DAD15A6822F4E6
:10762C007F42B2F5803FD4D1094A587912689269E9
:10763C0090470028CDD10A4B98E700BFD413002007
:10764C00005000400430002002300020CA130020FB
:10765C00F41300208D700008D00000204570000845
:10766C0069700008022D00D00BB9082304E792F9C9
:10767C000010002920DAD488134901940968019D6F
:10768C0091F82C00AB42014605D9019B13829182E3
:10769C00FFF73CFDA9E7A342F9D2834203D20020B5
:1076AC000A4B9870F3E7B3FBF0F400FB1433002B98
:1076BC00EDD10120054BF4E7032313724FF4405234
:1076CC00034B1A8091E700BFF4130020061400202E
:1076DC00C8130020F8B52A4E3468237A032B01D046
:1076EC00052B44D1A369B3B1258A0DB3A28A954267
:1076FC0028BF154628469847238A07465B1B2382DA
:10770C00638A00202B44638200F098FA2A460146D3
:10771C00384600F0CEF9238A53B100214FF4405281
:10772C00184B08461A8000F099FA3022164B1A8032
:10773C00218AA38A32688B4208D803231372137AE6
:10774C0032681372BDE8F840FFF73ABE09B1052361
:10775C00F4E7062313720D4BD3F8500C0C4B80B28C
:10776C0003445B0019603021074B1980E7E7072BB6
:10777C0003D1084B1B68DB6898470823E0E700BF80
:10778C00D4130020C8130020CA130020005000405E
:10779C0002300020F413002030B5002248F68F751B
:1077AC000A4B1C78A24205D3094B40F08000C3F869
:1077BC004C0C30BD930003F1804303F5B8431968BA
:1077CC002940114319600132ECE700BFD0000020C2
:1077DC000050004010B5134C23681A7A022A01D0CD
:1077EC00042A09D1FFF792FC23681B7A22681372D2
:1077FC00BDE81040FFF7E4BD062A10D15A78052ADF
:10780C0009D11A78520606D1D878FFF7C5FF064B76
:10781C001B681B6A9847054B1B689B689847082395
:10782C00E4E700BFD4130020F8130020F413002069
:10783C00704700000422014B1A607047D0130020DF
:10784C00704719B9002818BF0220704702207047F2
:10785C0020B90122024B1B681A82704701487047FD
:10786C00D41300200C14002010B50024FDF73EFDAD
:10787C00084B1B689C72FFF78FFB4FF40442064BBE
:10788C000649C3F8444C0A80C3F8402C044B1C60D6
:10789C0010BD00BFD413002000500040FC1300208A
:1078AC00D013002038B50024304B314A9C72314B38
:1078BC00D2791B6820465A7200F00AF94FF4007115
:1078CC00204600F00FF92C4D2021204600F018F92D
:1078DC001821204600F090F9204695F82C1000F065
:1078EC00CDF95821204600F075F9204600F04FF9EB
:1078FC00204600F02FF92146012000F0F3F89821E2
:10790C00012000F067F92021012000F0F9F8214650
:10791C00012000F00AF92146022000F0E3F8D821FA
:10792C00022000F069F9022095F82C1000F0A6F95D
:10793C004FF44051022000F0F8F82146022000F0EC
:10794C00DFF895F82C10204600F098F9204600F04E
:10795C0001F92046FFF720FF0122084B1A60084B63
:10796C00084A1A60084B1C7038BD00BFD8130020A1
:10797C00658E0008D413002044000020D013002092
:10798C00341400205553424320140020044B1A6831
:10799C00044B9A4202D0022000F018BB704700BF83
:1079AC0034140020555342430149FFF7FBBC00BF80
:1079BC00740000200149FFF7F5BC00BF7C000020DB
:1079CC00054B1B68DB78052B04D8044901EBC3017C
:1079DC00FFF7E8BC00207047D4130020840000207F
:1079EC0008B5084B1B689B7A5BB10522064B01203E
:1079FC001A6000F0DEF8022000F0CBF80022034BF6
:107A0C001A7008BDD4130020D013002020140020BD
:107A1C0010B50E4B1B681A7802F07F02212A12D186
:107A2C00FF2810D15A8872B95C6864B9012000F043
:107A3C00C0F8022000F0ADF82046054B054A1A604C
:107A4C00054B1C7010BD0220FCE700BFD4130020B6
:107A5C00341400205553424320140020704700007A
:107A6C000A4B1B681A7802F07F02212A0CD1FE28DF
:107A7C000AD1588840B95A68B2F5803F04D1044AFB
:107A8C009A6101221A61704702207047D4130020BA
:107A9C005D78000801F10051013201F5405152109E
:107AAC00490002B9704730F8023B013A21F8043B17
:107ABC00F7E701F10051013201F540515210490034
:107ACC0002B9704751F8043B013A20F8023BF7E742
:107ADC00034B20F0070080B2C3F8500C704700BF76
:107AEC0000500040800000F1804000F5B840036871
:107AFC0023F4EC4323F070030B439BB203607047F9
:107B0C00800000F1804000F5B8400368CA0623F4F9
:107B1C00E04323F040039BB248BF83F010038A0676
:107B2C0048BF83F0200303607047800000F1804061
:107B3C0000F5B8400368CA0423F4804323F07003B3
:107B4C009BB248BF83F480538A0448BF83F400532C
:107B5C0003607047800000F1804000F5B840036876
:107B6C0023F4804323F070039BB283F440530360EF
:107B7C007047800000F1804000F5B840036823F4A2
:107B8C00E24323F070031B041B0C03607047FFF7E8
:107B9C00F0BF800000F1804000F5B84003685B0442
:107BAC0006D5036823F4E04323F070039BB2036013
:107BBC007047800000F1804000F5B84003685B0618
:107BCC0006D5036823F4E04323F070039BB20360F3
:107BDC0070470000074B4908D3F8503C49009BB252
:107BEC0003EBC00000F1005000F540504000016074
:107BFC00704700BF00500040064B4908D3F8503C7A
:107C0C0049009BB203EBC000034B03445B001960BB
:107C1C00704700BF0050004004300020064BD3F8E2
:107C2C00503C9BB203EBC00000F1005000F54050FB
:107C3C0040000088704700BF00500040054BD3F84F
:107C4C00503C9BB203EBC000034B03445B00188811
:107C5C00704700BF0050004004300020054BD3F8A3
:107C6C00503C9BB203EBC000034B03445B00196018
:107C7C00704700BF00500040023000200E4B0F4AEE
:107C8C00D3F8503C3E299BB203EBC00002444FEAB0
:107C9C0042020AD94B09C80604BF03F1FF339BB259
:107CAC009B0243F40043136070474B08C90748BF5D
:107CBC0001339B02F7E700BF005000400630002064
:107CCC00064BD3F8503C9BB203EBC000044B03446F
:107CDC005B001868C0F30900704700BF00500040FB
:107CEC000630002040BA80B2704708B51021012040
:107CFC00FFF706FFBDE808404FF480510220FFF764
:107D0C0014BF000010B50C460A469821FFF7C2FEBE
:107D1C0021460120FFF7A2FF30210120FFF7F0FEE2
:107D2C000322044B1A700022D9681A74091BD960FB
:107D3C0010BD00BF2014002038B50D460C4C0D4B67
:107D4C00982120740D22201D6360FFF7A3FE0D21E6
:107D5C000120FFF783FF15B90523237038BD0423D9
:107D6C00302123700120BDE83840FFF7C9BE00BFA9
:107D7C00201400205553425308B5114B1A78032A8E
:107D8C0019D002D8022A0CD008BD043A012AFBD81B
:107D9C0000221A704FF44051BDE808400220FFF752
:107DAC00C4BE93F82320282AEED1D3E90D10BDE8E8
:107DBC000840FEF78DBF01210020FFF7BDFFE9E76A
:107DCC002014002038B57E4CA58F04F13E012A46C4
:107DDC0004F1140000F0ACF9A3691F2DA360E36952
:107DEC00E3600DD00025FFF780FF1A2165610520A7
:107DFC00FEF7EAFEBDE8384000210120FFF79CBFEA
:107E0C0094F8233003F0FD02282A07D1D4F825205A
:107E1C0012BAA263628D52BA92B262636169694A04
:107E2C00914219D1684A94F821101268914204D8F1
:107E3C0094F82220013A0F2A03D9FFF756FF242188
:107E4C00D5E72F2B13D98F2B76D8872B08D8552B0A
:107E5C007DD05A2B00F08F80FFF747FF2021C6E71B
:107E6C007833DAB20123934013F0850F6EE02F2B99
:107E7C00F2D801A252F823F09B7F0008657E00081F
:107E8C00657E0008637F0008C37F0008657E0008DC
:107E9C00657E0008657E00085B7F0008657E000833
:107EAC005B7F0008657E0008657E0008657E000823
:107EBC00657E0008657E0008657E0008657E00080A
:107ECC006B7F0008657E0008657E00085B7F0008FC
:107EDC00657E0008657E0008657E0008657E0008EA
:107EEC007B7F0008737F0008657E00085B7F0008BD
:107EFC00737F0008657E0008657E0008657E0008BB
:107F0C00657E00088B7F0008657E0008937F000863
:107F1C00657E0008657E0008A37F0008657E00086A
:107F2C00AF7F0008657E0008657E0008657E00084E
:107F3C00657E0008BB7F00086233DBB2112B8BD847
:107F4C00012202FA03F302F50532134284D0BDE894
:107F5C003840FEF76BBEBDE83840FEF729BEBDE8E1
:107F6C003840FEF7C1BDBDE83840FEF733BEBDE872
:107F7C003840FEF711BEBDE83840FEF713BEBDE831
:107F8C003840FEF7C7BDBDE83840FEF7E3BDBDE89D
:107F9C003840FEF73FBED4E90D10BDE83840FEF77F
:107FAC0097BED4E90D10BDE83840FEF7C1BEBDE860
:107FBC003840FEF713BEBDE83840FEF734BE00BFB4
:107FCC0020140020555342430C140020012806D0E5
:107FDC00022809D050B910210120FFF791BD4FF4B0
:107FEC0080510220FFF7A1BDFFF77FBE7047000054
:107FFC0038B5164C022094F82350FFF761FED821B7
:10800C000246A08704F13E00FFF753FD207820B113
:10801C00012806D0FFF769FE0DE0BDE83840FFF7F8
:10802C00D1BE2A2D05D1D4E90D10BDE83840FEF79C
:10803C007FBEFFF7CBFF24210520FEF7C5FDBDE871
:10804C00384000210220FFF777BE00BF201400202B
:10805C0030BF704720BF704740BF7047BFF36F8F72
:10806C007047BFF34F8F7047BFF35F8F704701DFCF
:10807C007047EFF31480704780F31488BFF36F8F51
:10808C007047EFF30980704780F309887047EFF36E
:10809C000880704780F30888704762B6704772B6E4
:1080AC007047EFF31080704761B6704771B6704738
:1080BC00EFF31380704780F311887047EFF3128051
:1080CC00704740BA704700BA70470000032A10B5D9
:1080DC0015D940EA010C04460B461CF0030F21D1C4
:1080EC001946204604330434D0F800C0D1F800E01F
:1080FC00F44517D1043A20461946032AF0D8541EE9
:10810C00A2B100F1FF3C013901E0C3180CD01CF8FE
:10811C0001EF11F8012FA4EB0C039645F5D0AEEB53
:10812C00020010BD541EECE7184610BD104610BDE1
:10813C00844641EA000313F0030349D1403A23D3A8
:10814C000B6803604B6843608B688360CB68C360CB
:10815C000B6903614B6943618B698361CB69C361B3
:10816C000B6A03624B6A43628B6A8362CB6AC3629B
:10817C000B6B03634B6B43638B6B8363CB6BC36383
:10818C0040304031403ADBD230320BD30B680360C5
:10819C004B6843608B688360CB68C36010301031D0
:1081AC00103AF3D20C3205D351F8043B40F8043B9F
:1081BC00043AF9D2043208D0D2071CBF11F8013BA3
:1081CC0000F8013B01D30B8803806046704700BF69
:1081DC00082A13D38B07B1D010F00303AED0C3F130
:1081EC000403D21ADB071CBF11F8013B00F8013B5A
:1081FC00A4D331F8023B20F8023B9FE7043AD9D3D1
:10820C00013A11F8013B00F8013BF9D20B780370ED
:10821C004B7843708B7883706046704730B583071A
:10822C0048D0541E002A3FD0CAB2034601E0013C9C
:10823C003AD303F8012B9D07F9D1032C2DD9CDB2DC
:10824C000F2C45EA052545EA054536D9A4F110025F
:10825C0003F1200E22F00F0CE6444FEA121C03F13E
:10826C00100242E9045542E9025510327245F8D128
:10827C000CF1010214F00C0F04F00F0C03EB0212C2
:10828C0013D0ACF1040323F003030433134442F87A
:10829C00045B9342FBD10CF003042CB1CAB21C4416
:1082AC0003F8012B9C42FBD130BD13466446002CD5
:1082BC00F4D1F9E703461446BFE71A46A446E0E7B3
:1082CC0056332E31340048617264776172652056E2
:1082DC006572200053657269616C204E6F3A200004
:1082EC0020202020204453323033204D696E6920E9
:1082FC0044534F2053595320566572202020202080
:10830C00202020202020200056332E313500506CA8
:10831C006561736520696E707574206D6173746529
:10832C0072206C6963656E63653A20303030303092
:10833C003030300020202020202020204C69636524
:10834C006E636520696E707574206572726F722031
:10835C002020202020202020200020202020202031
:10836C002020204C6963656E6365207772697465A3
:10837C006E206F6B20202020202020202020200029
:10838C0020202020202020204C6963656E6365200E
:10839C0077726974656E206572726F72202020206E
:1083AC0020202020200020202020202050757368C1
:1083BC0020616E79206B657920746F206E657874FE
:1083CC002073746570202020202020004743430038
:1083DC000000000035306D56000000000000000465
:1083EC0000000004D0070000302E315600000000C1
:1083FC000000000400000004A00F0000302E3256D4
:10840C0000000000FEFF0004FAFF0004401F000003
:10841C00302E355600000000FFFF0004FAFF000468
:10842C00204E000020315620000000000000000407
:10843C00FAFF0004409C000020325620000000008F
:10844C00FEFF0004FAFF000480380100203556209E
:10845C0000000000FFFF0004FAFF0004400D0300C1
:10846C00213130562100000000000004FAFF000406
:10847C00801A060000000000000000000000000050
:10848C0000000000000000002120315320210000DA
:10849C00E7035F09B004000455A0FC013530306DD2
:1084AC0053000000E703AF04580200042B50FE00F9
:1084BC003230306D53000000E703DF01F0000004A0
:1084CC00ABB965003130306D53000000E703EF00AD
:1084DC0078000004D5DC32002135306D53210000CA
:1084EC00E70377003C0000046B6E19002132306DFD
:1084FC00532100006300DF01F00000042B2C0A0064
:10850C002131306D532100006300EF00780000042E
:10851C001516050020356D53200000006300770010
:10852C003C0000040B8B020020326D532000000035
:10853C000900DF01F00000046B04010020316D53D1
:10854C00200000000900EF007800000435820000D4
:10855C003530307553000000090077003C000004F2
:10856C001B41000032303075530000000000DF0169
:10857C00F00000040B1A000031303075530000007D
:10858C000000EF0078000004050D00002135307567
:10859C0053210000000077003C000004830600001B
:1085AC00213230755321000000002F001800000408
:1085BC009B02000021313075532100000000170090
:1085CC000C0000044D010000203575532000000004
:1085DC0000000B0006000004A700000020327553B9
:1085EC0020000000000004000300D703430000003B
:1085FC0020317553200000000000020002003303FC
:10860C0021000000302E35755300000000000100E1
:10861C000100660211000000302E3275530000007C
:10862C00000000000100EC0107000000302E317545
:10863C0053000000000000000100F60003000000E1
:10864C00203275532B000000000009000300D703F3
:10865C0043000000203175532B0000000000040083
:10866C000200D703210000002E3575532B000000AB
:10867C000000020001003303110000002E3275537C
:10868C002B000000000001000100D70307000000D0
:10869C002E3175532B000000000000000100EB018F
:1086AC00030000009001F000070015000F00C80047
:1086BC000010010001011100000000040000000482
:1086CC003C5674000000000000003C567400000092
:1086DC00000001023C5674000000000002043C56ED
:1086EC0074000000000003063E56740000000000F9
:1086FC0000013E5674000000000001033E56740059
:10870C000000000002053E56740000000000030744
:10871C003A215C210000000000083A215C21000095
:10872C000000010A3A215C2100000000020C3A21F1
:10873C005C2100000000030E3A215E2100000000C5
:10874C0000093A215E2100000000010B3A215E2154
:10875C0000000000020D3A215E2100000000030F12
:10876C003C544C000000000000103C544C00000035
:10877C00000001123C544C000000000002143C5458
:10878C004C000000000003163E544C00000000009A
:10879C0000113E544C000000000001133E544C00EC
:1087AC000000000002153E544C00000000000317AE
:1087BC003C5448000000000000183C5448000000E5
:1087CC000000011A3C54480000000000021C3C54FC
:1087DC00480000000000031E3E544800000000004A
:1087EC0000193E54480000000000011B3E54480094
:1087FC0000000000021D3E54480000000000031F52
:10880C00324D4220496E7465726E616C00384D4277
:10881C0020496E7465726E616C0056332E31334391
:10882C0000000000000000001C0020004000400080
:10883C0040004000400020001C0000000000000030
:10884C00000000000000000000E00010000800081C
:10885C000008300C600CC000800100033006300CA6
:10886C00000000080008001000E0000000000000FC
:10887C000000102010201020102010201020F03F9D
:10888C00000000000000C00FE01F3030102000007E
:10889C0000000000000010203030E01FC00F00006E
:1088AC0000000000C018800D00070007800DC018E4
:1088BC000000000000010001C007C007000100011A
:1088CC000000000000000000FCFF000000000000A1
:1088DC000000000000010001000100010001000186
:1088EC00000000000000000030003000000000001C
:1088FC00000030006000C000800100030006000C86
:10890C000000E01FF03F902010231024F03FE01FE8
:10891C000000000010081018F03FF03F100010008D
:10892C0000007010F03090211023102630383018D1
:10893C00000020103030102210221022F03FE01DD9
:10894C00000000030007000D1019F03FF03F10016C
:10895C000000203E303E102210221023F023E02194
:10896C000000E00FF01F103210221022F003E00183
:10897C00000000300030F020F0210023003E003CCD
:10898C000000E01DF03F102210221022F03FE01DED
:10899C000000001C103E102210223022E03FC01FAD
:1089AC000000000000000000600C600C00000000E3
:1089BC0000004000400040004000400040004000EB
:1089CC004000000000018003C006600C301810103D
:1089DC00000000009000900090009000900090002B
:1089EC0000004002400240024002400240024002AD
:1089FC000000000010103018600CC006800300014D
:108A0C000000C00F201090279024D0275010800F0A
:108A1C000000F007F00F001900310019F00FF007FB
:108A2C0000001020F03FF03F10221022F03FE01D1C
:108A3C000000C00FE01F30301020102030306018C4
:108A4C0000001020F03FF03F10203030E01FC00F2E
:108A5C0000001020F03FF03F10221027303070380B
:108A6C0000001020F03FF03F1022002700300038AB
:108A7C000000C00FE01F303010211021E031F01940
:108A8C000000F03FF03F000200020002F03FF03F18
:108A9C000000000000001020F03FF03F102000000C
:108AAC000000E000F00010001020F03FE03F00203C
:108ABC0000001020F03FF03F0003000FF03C70303E
:108ACC0000001020F03FF03F10201000300030006C
:108ADC000000F03FF03F001C000E001CF03FF03F88
:108AEC000000F03FF03F001C000E0007F03FF03F8D
:108AFC000000C00FE01F303010203030E01FC00FDE
:108B0C0000001020F03FF03F10220022003E001C1D
:108B1C000000E01FF03F102070203020F83FE81FCD
:108B2C0000001020F03FF03F00220023F03FF01C2B
:108B3C0000006018703C102610221023F039E01849
:108B4C000000000000381030F03FF03F10300038CB
:108B5C000000E03FF03F100010001000F03FE03F3D
:108B6C000000803FC03F600030006000C03F803F8D
:108B7C000000C03FF03F7000C0017000F03FC03FEC
:108B8C0000003030F03CC00F0003C00FF03C303020
:108B9C0000000000003C103EF003F003103E003CCF
:108BAC0000007038F030902110231026303C7038C3
:108BBC00000010003000500090011003100CF03F2A
:108BCC000000000800080008000800080008000861
:108BDC0000080000000000007CFC80028002000104
:108BEC00000100020004000CF01FF03F000C000418
:108BFC00000200018000C000E03FF03FC000800098
:108C0C000001102010201020102010201020102007
:108C1C001020E000F00510051005E007F00310002F
:108C2C0000001020F03FE03F10021002F003E001C2
:108C3C000000E003F00710041004100430062002BA
:108C4C000000E001F00310061024F03FF03F10008C
:108C5C000000E003F0071005100510053007200395
:108C6C00000000001002F01FF03F1022003000182E
:108C7C000000C803EC0724042404FC03F8070004D8
:108C8C0000001020F03FF03F20020004F007F0033A
:108C9C000000000000001004F037F0371000000056
:108CAC000000000018001C000404FC37F837000416
:108CBC0000001020F03FF03F8021C003700630040C
:108CCC000000000000001020F03FF03F10000000FA
:108CDC000000F007F0070006F0030006F007F007AD
:108CEC0000000004F007F00300040004F007F00398
:108CFC000000E003F007100410041004F007E00378
:108D0C0000000404FC07FC0344044004C007800377
:108D1C0000008003C00740044404FC07FC03040467
:108D2C0000001004F007F003100600040006000316
:108D3C00000000002002300790059004F00660024D
:108D4C00000000040004E01FF03F10043004200079
:108D5C000000E007F00710001000E007F00710001B
:108D6C0000000000C007E00730003000E007C0073B
:108D7C000000E007F0073000E0003000F007E007EB
:108D8C00000010043006E003C001E00330061004BC
:108D9C0000008007C407440044004400F807F007B3
:108DAC00000030067006D004900510073006300421
:108DBC00000080078004F03C1020D02FD02FD02F43
:108DCC00D02FD02FD02FD02FD02FD02FD02FD02F9F
:108DDC00D02FD02FD02FD02FD02FD02F1020F03F2E
:108DEC00000080078004F03C102010201020102080
:108DFC00102056332E3133430010035300540020FF
:108E0C00004D006100730073002603530054004DA5
:108E1C00003300320020004D00610073007300200D
:108E2C0000530074006F007200610067006500263B
:108E3C0003530054004D006900630072006F00651D
:108E4C00006C0065006300740072006F006E0069B6
:108E5C0000630073000403090409022000010100EF
:108E6C00C0320904000002080650040705810240C4
:108E7C000000070502024000001201000200000081
:0B8E8C00408304205700020102030194
:108E970056332E31300056322E3630003D780008DA
:108EA700F56F00083D7800083D7800083D78000818
:108EB7003D7800083D780008F16F00083D7800080C
:108EC7003D7800083D7800083D7800083D780008A7
:108ED7003D78000875780008B17800084D780008DB
:108EE700697A00086D7A00081D7A00084F78000833
:108EF700B5790008C1790008CD79000800000000A5
:108F070040000000858E000812000000658E0008F2
:108F170020000000618E0008040000003B8E00085E
:108F270026000000158E0008260000002201002000
:108F37001A000000058E0008100000003D780008A8
:108F4700ED7900083D7800083D7800083D78000875
:108F5700997900083D7800083D78000841780008B5
:108F6700030100000008000000000200000070007C
:108F770000000000000A00000000000000000000E0
:108F8700000600000000000003000000008002024D
:108F9700200000004D696E695F44534F466C617352
:108FA70068204469736B00000000000000000000A7
:108FB70000001A03530054004D0033003200310003
:0C8FC7003000000000000000000000006E
:0400000508005E3D54
:00000001FF
